{
  "deployments": [
    {
      "transactions": [
        {
          "hash": "0x34c9d56ac176972130c18f3758fe924eead65d578b91e455314e3eeed78084c3",
          "transactionType": "CALL",
          "contractName": null,
          "contractAddress": "0x4ef1b0dc0e2ea41aecba2903e9041ef33045fa10",
          "function": "approveAll(address,address)",
          "arguments": [
            "0x833589fCD6eDb6E08f4c7C32D4f71b54bdA02913",
            "0x27a16dc786820B16E5c9028b75B99F6f604b5d26"
          ],
          "transaction": {
            "from": "0xaab6f44b46f19d061582727b66c9a0c84c97a2f6",
            "to": "0x4ef1b0dc0e2ea41aecba2903e9041ef33045fa10",
            "gas": "0x1507b",
            "value": "0x0",
            "input": "0x0a443276000000000000000000000000833589fcd6edb6e08f4c7c32d4f71b54bda0291300000000000000000000000027a16dc786820b16e5c9028b75b99f6f604b5d26",
            "nonce": "0x7d",
            "chainId": "0x2105"
          },
          "additionalContracts": [],
          "isFixedGasLimit": false
        }
      ],
      "receipts": [
        {
          "status": "0x1",
          "cumulativeGasUsed": "0x291f994",
          "logs": [
            {
              "address": "0x833589fcd6edb6e08f4c7c32d4f71b54bda02913",
              "topics": [
                "0x8c5be1e5ebec7d5bd14f71427d1e84f3dd0314c0f7b2291e5b200ac8c7c3b925",
                "0x0000000000000000000000004ef1b0dc0e2ea41aecba2903e9041ef33045fa10",
                "0x00000000000000000000000027a16dc786820b16e5c9028b75b99f6f604b5d26"
              ],
              "data": "0xffffffffffffffffffffffffffffffffffffffffffffffffffffffffffffffff",
              "blockHash": "0xfced353e94d87d2613d2890ab616e56987576be5bcf9b36b5f5fdc19ceda925e",
              "blockNumber": "0x1db0efc",
              "blockTimestamp": "0x68407adb",
              "transactionHash": "0x34c9d56ac176972130c18f3758fe924eead65d578b91e455314e3eeed78084c3",
              "transactionIndex": "0x99",
              "logIndex": "0x176",
              "removed": false
            }
          ],
          "logsBloom": "0x08000000000000000000000000000000000000000000000000000000000000000000000000000000000000000000100000000000000000000000000000200000000000000000000000000000000000000000000000080000000000000000000000800000000000000000000000000000000000000000000000000000000000000000000000000000000000080000000100000000000000000000000000000000020100004000000000000000000000000000000000000000000000000000000000000000000000000000000000000000000000000000000000800000000000000010000000000000000000000000000000000000000000000000000000000000",
          "type": "0x2",
          "transactionHash": "0x34c9d56ac176972130c18f3758fe924eead65d578b91e455314e3eeed78084c3",
          "transactionIndex": "0x99",
          "blockHash": "0xfced353e94d87d2613d2890ab616e56987576be5bcf9b36b5f5fdc19ceda925e",
          "blockNumber": "0x1db0efc",
          "gasUsed": "0xe613",
          "effectiveGasPrice": "0x159feb",
          "from": "0xaab6f44b46f19d061582727b66c9a0c84c97a2f6",
          "to": "0x4ef1b0dc0e2ea41aecba2903e9041ef33045fa10",
          "contractAddress": null,
          "l1BaseFeeScalar": "0x8dd",
          "l1BlobBaseFee": "0x1",
          "l1BlobBaseFeeScalar": "0x101c12",
          "l1Fee": "0x2d7cfb039",
          "l1GasPrice": "0xc87a1503",
          "l1GasUsed": "0x640"
        }
      ],
      "libraries": [],
      "pending": [],
      "returns": {},
      "timestamp": 1749056217,
      "chain": 8453,
      "commit": "32bf400"
    },
    {
      "transactions": [
        {
          "hash": "0xd1bee0ea657ad75b35b1ae17d9b571fdd9781f50b390bfb46283b6a9641a0c0c",
          "transactionType": "CALL",
          "contractName": null,
          "contractAddress": "0x4ef1b0dc0e2ea41aecba2903e9041ef33045fa10",
          "function": "approveAll(address,address)",
          "arguments": [
            "0x0b2C639c533813f4Aa9D7837CAf62653d097Ff85",
            "0xcE8CcA271Ebc0533920C83d39F417ED6A0abB7D0"
          ],
          "transaction": {
            "from": "0xaab6f44b46f19d061582727b66c9a0c84c97a2f6",
            "to": "0x4ef1b0dc0e2ea41aecba2903e9041ef33045fa10",
            "gas": "0x1507b",
            "value": "0x0",
            "input": "0x0a4432760000000000000000000000000b2c639c533813f4aa9d7837caf62653d097ff85000000000000000000000000ce8cca271ebc0533920c83d39f417ed6a0abb7d0",
            "nonce": "0x30",
            "chainId": "0xa"
          },
          "additionalContracts": [],
          "isFixedGasLimit": false
        }
      ],
      "receipts": [
        {
          "status": "0x1",
          "cumulativeGasUsed": "0x187c7c9",
          "logs": [
            {
              "address": "0x0b2c639c533813f4aa9d7837caf62653d097ff85",
              "topics": [
                "0x8c5be1e5ebec7d5bd14f71427d1e84f3dd0314c0f7b2291e5b200ac8c7c3b925",
                "0x0000000000000000000000004ef1b0dc0e2ea41aecba2903e9041ef33045fa10",
                "0x000000000000000000000000ce8cca271ebc0533920c83d39f417ed6a0abb7d0"
              ],
              "data": "0xffffffffffffffffffffffffffffffffffffffffffffffffffffffffffffffff",
              "blockHash": "0xda01933b5f956609502322f12c017cbde304782319ce42cf0e41187b6dab7cfc",
              "blockNumber": "0x8265092",
              "transactionHash": "0xd1bee0ea657ad75b35b1ae17d9b571fdd9781f50b390bfb46283b6a9641a0c0c",
              "transactionIndex": "0x16",
              "logIndex": "0x2cc",
              "removed": false
            }
          ],
          "logsBloom": "0x00002000000000000000000000000000000000080000000000000000000000000000000000000000000000000000000000000000400000000000000000200000000000000000000000000000000000000000000000000000000000000000000000000000000000000000000000000000000000000000000000000000000000000000000000000000000000000000000100000000080000000000000002000000020100004000000000000000000000000000000000000000000000000000000000000000000000000000000000000000000000000000000000000000000000000018000000000000000000000000000000000000000000000000000000000000",
          "type": "0x2",
          "transactionHash": "0xd1bee0ea657ad75b35b1ae17d9b571fdd9781f50b390bfb46283b6a9641a0c0c",
          "transactionIndex": "0x16",
          "blockHash": "0xda01933b5f956609502322f12c017cbde304782319ce42cf0e41187b6dab7cfc",
          "blockNumber": "0x8265092",
          "gasUsed": "0xe613",
          "effectiveGasPrice": "0x249",
          "from": "0xaab6f44b46f19d061582727b66c9a0c84c97a2f6",
          "to": "0x4ef1b0dc0e2ea41aecba2903e9041ef33045fa10",
          "contractAddress": null,
          "l1BaseFeeScalar": "0x146b",
          "l1BlobBaseFee": "0x1",
          "l1BlobBaseFeeScalar": "0xf79c5",
          "l1Fee": "0x65783c677",
          "l1GasPrice": "0xc22042ee",
          "l1GasUsed": "0x640"
        }
      ],
      "libraries": [],
      "pending": [],
      "returns": {},
      "timestamp": 1749056217,
      "chain": 10,
      "commit": "32bf400"
    },
    {
      "transactions": [
        {
          "hash": "0x008f2dc58c66fbc2189355291fdbce9db68994983013a507dbf4c49c46b36b3b",
          "transactionType": "CALL",
          "contractName": null,
          "contractAddress": "0x4ef1b0dc0e2ea41aecba2903e9041ef33045fa10",
          "function": "approveAll(address,address)",
          "arguments": [
            "0x8AC76a51cc950d9822D68b83fE1Ad97B32Cd580d",
            "0x962Bd449E630b0d928f308Ce63f1A21F02576057"
          ],
          "transaction": {
            "from": "0xaab6f44b46f19d061582727b66c9a0c84c97a2f6",
            "to": "0x4ef1b0dc0e2ea41aecba2903e9041ef33045fa10",
            "gas": "0x144de",
            "value": "0x0",
            "input": "0x0a4432760000000000000000000000008ac76a51cc950d9822d68b83fe1ad97b32cd580d000000000000000000000000962bd449e630b0d928f308ce63f1a21f02576057",
            "nonce": "0x48",
            "chainId": "0x38"
          },
          "additionalContracts": [],
          "isFixedGasLimit": false
        }
      ],
      "receipts": [
        {
          "status": "0x1",
          "cumulativeGasUsed": "0x1f1bfb2",
          "logs": [
            {
              "address": "0x8ac76a51cc950d9822d68b83fe1ad97b32cd580d",
              "topics": [
                "0x8c5be1e5ebec7d5bd14f71427d1e84f3dd0314c0f7b2291e5b200ac8c7c3b925",
                "0x0000000000000000000000004ef1b0dc0e2ea41aecba2903e9041ef33045fa10",
                "0x000000000000000000000000962bd449e630b0d928f308ce63f1a21f02576057"
              ],
              "data": "0xffffffffffffffffffffffffffffffffffffffffffffffffffffffffffffffff",
              "blockHash": "0x417bcd4456dcf4f51baf1ba485cada8dd76f307f67593154595e4e3ca74dc3fd",
              "blockNumber": "0x30849d6",
              "transactionHash": "0x008f2dc58c66fbc2189355291fdbce9db68994983013a507dbf4c49c46b36b3b",
              "transactionIndex": "0xc8",
              "logIndex": "0x46a",
              "removed": false
            }
          ],
          "logsBloom": "0x00000000000000000000000000000000000000000020000000000000000000000000000000000000000000000000000000000000000000000000000000200080000000000000000000000000000000000000000000000000000000004000000000000000000000000000000000000000000000000000000000000000000000000000000000000000000000000000008100000000000000000000000000000000020100004000000000000000000000000000000000000000000000000000000000000000000000000000000000000000000000000000000000000000000000000010000010004000000000000000000000000000000000000000000000000000",
          "type": "0x0",
          "transactionHash": "0x008f2dc58c66fbc2189355291fdbce9db68994983013a507dbf4c49c46b36b3b",
          "transactionIndex": "0xc8",
          "blockHash": "0x417bcd4456dcf4f51baf1ba485cada8dd76f307f67593154595e4e3ca74dc3fd",
          "blockNumber": "0x30849d6",
          "gasUsed": "0xde22",
          "effectiveGasPrice": "0x5f5e100",
          "from": "0xaab6f44b46f19d061582727b66c9a0c84c97a2f6",
          "to": "0x4ef1b0dc0e2ea41aecba2903e9041ef33045fa10",
          "contractAddress": null
        }
      ],
      "libraries": [],
      "pending": [],
      "returns": {},
      "timestamp": 1749056218,
      "chain": 56,
      "commit": "32bf400"
    }
  ],
  "timestamp": 1749056224
}