{
  "transactions": [
    {
      "hash": "0x6969ab3aaecf68f5fca21bc160e045a719f8d5bdcf4f108a9b57522b2a2808c8",
      "transactionType": "CALL",
      "contractName": null,
      "contractAddress": "0x1d3c5381dd07d5eef757c1edbba01db4a262bb86",
      "function": "approveAll(address,address)",
      "arguments": [
        "0x833589fCD6eDb6E08f4c7C32D4f71b54bdA02913",
        "0x955132016f9B6376B1392aA7BFF50538d21Ababc"
      ],
      "transaction": {
        "from": "0xaab6f44b46f19d061582727b66c9a0c84c97a2f6",
        "to": "0x1d3c5381dd07d5eef757c1edbba01db4a262bb86",
        "gas": "0x15063",
        "value": "0x0",
        "input": "0x0a443276000000000000000000000000833589fcd6edb6e08f4c7c32d4f71b54bda02913000000000000000000000000955132016f9b6376b1392aa7bff50538d21ababc",
        "nonce": "0x9e",
        "chainId": "0x2105"
      },
      "additionalContracts": [],
      "isFixedGasLimit": false
    },
    {
      "hash": "0x3d808b0b7cd6a675d9e37fa2cae1bbfbdbec7769c3d232f20fdc50dc69a544b3",
      "transactionType": "CALL",
      "contractName": null,
      "contractAddress": "0x1d3c5381dd07d5eef757c1edbba01db4a262bb86",
      "function": "approveAll(address,address)",
      "arguments": [
        "0xcbB7C0000aB88B473b1f5aFd9ef808440eed33Bf",
        "0x66477F84bd21697c7781fc3992b3163463e3B224"
      ],
      "transaction": {
        "from": "0xaab6f44b46f19d061582727b66c9a0c84c97a2f6",
        "to": "0x1d3c5381dd07d5eef757c1edbba01db4a262bb86",
        "gas": "0x16a1d",
        "value": "0x0",
        "input": "0x0a443276000000000000000000000000cbb7c0000ab88b473b1f5afd9ef808440eed33bf00000000000000000000000066477f84bd21697c7781fc3992b3163463e3b224",
        "nonce": "0x9f",
        "chainId": "0x2105"
      },
      "additionalContracts": [],
      "isFixedGasLimit": false
    },
    {
      "hash": "0x1c727e071dfa97fa2ac4d13328bd1cac52cca82da2dcad2accc572cd70a8991c",
      "transactionType": "CALL",
      "contractName": null,
      "contractAddress": "0x1d3c5381dd07d5eef757c1edbba01db4a262bb86",
      "function": "approveAll(address,address)",
      "arguments": [
        "0x17906b1Cd88aA8EfaEfC5e82891B52a22219BD45",
        "0x458BDDd0793fe4f70912535f172466a5473f2e77"
      ],
      "transaction": {
        "from": "0xaab6f44b46f19d061582727b66c9a0c84c97a2f6",
        "to": "0x1d3c5381dd07d5eef757c1edbba01db4a262bb86",
        "gas": "0x11add",
        "value": "0x0",
        "input": "0x0a44327600000000000000000000000017906b1cd88aa8efaefc5e82891b52a22219bd45000000000000000000000000458bddd0793fe4f70912535f172466a5473f2e77",
        "nonce": "0xa0",
        "chainId": "0x2105"
      },
      "additionalContracts": [],
      "isFixedGasLimit": false
    },
    {
      "hash": "0xaabda56cc899123d311201f6e36bac5a06bce92bb31b3fc0111f647573fdd4eb",
      "transactionType": "CALL",
      "contractName": null,
      "contractAddress": "0x1d3c5381dd07d5eef757c1edbba01db4a262bb86",
      "function": "approveAll(address,address)",
      "arguments": [
        "0x2416092f143378750bb29b79eD961ab195CcEea5",
        "0x2552516453368e42705D791F674b312b8b87CD9e"
      ],
      "transaction": {
        "from": "0xaab6f44b46f19d061582727b66c9a0c84c97a2f6",
        "to": "0x1d3c5381dd07d5eef757c1edbba01db4a262bb86",
        "gas": "0x132e5",
        "value": "0x0",
        "input": "0x0a4432760000000000000000000000002416092f143378750bb29b79ed961ab195cceea50000000000000000000000002552516453368e42705d791f674b312b8b87cd9e",
        "nonce": "0xa1",
        "chainId": "0x2105"
      },
      "additionalContracts": [],
      "isFixedGasLimit": false
    }
  ],
  "receipts": [
    {
      "status": "0x1",
      "cumulativeGasUsed": "0x1984d0c",
      "logs": [
        {
          "address": "0x833589fcd6edb6e08f4c7c32d4f71b54bda02913",
          "topics": [
            "0x8c5be1e5ebec7d5bd14f71427d1e84f3dd0314c0f7b2291e5b200ac8c7c3b925",
            "0x0000000000000000000000001d3c5381dd07d5eef757c1edbba01db4a262bb86",
            "0x000000000000000000000000955132016f9b6376b1392aa7bff50538d21ababc"
          ],
          "data": "0xffffffffffffffffffffffffffffffffffffffffffffffffffffffffffffffff",
          "blockHash": "0xf2ab069510366f6cb5543bedab18e04720a990f81c9bcdeb36729ac144fd4b9c",
          "blockNumber": "0x1ece72f",
          "blockTimestamp": "0x68642b41",
          "transactionHash": "0x6969ab3aaecf68f5fca21bc160e045a719f8d5bdcf4f108a9b57522b2a2808c8",
          "transactionIndex": "0x83",
          "logIndex": "0x188",
          "removed": false
        }
      ],
      "logsBloom": "0x00000000000000000000000000000002000000000000000000000000000000000000000000000000000000000000100000000000000000000000000000200000000080000000000000000000000000000000000020080000000000000000000000800000000000000000000000000000000000000000000000000000000000000000000000000000000000000000000000000000000000000000000000000000020000000000000000000080000000000000000000000000000000000000000400000000000000000000002000000000000000000000000000000000000000000010000000000000000000000000000000000000000000000000000000000000",
      "type": "0x2",
      "transactionHash": "0x6969ab3aaecf68f5fca21bc160e045a719f8d5bdcf4f108a9b57522b2a2808c8",
      "transactionIndex": "0x83",
      "blockHash": "0xf2ab069510366f6cb5543bedab18e04720a990f81c9bcdeb36729ac144fd4b9c",
      "blockNumber": "0x1ece72f",
      "gasUsed": "0xe603",
      "effectiveGasPrice": "0x10500b",
      "from": "0xaab6f44b46f19d061582727b66c9a0c84c97a2f6",
      "to": "0x1d3c5381dd07d5eef757c1edbba01db4a262bb86",
      "contractAddress": null,
      "l1BaseFeeScalar": "0x8dd",
      "l1BlobBaseFee": "0x1",
      "l1BlobBaseFeeScalar": "0x101c12",
      "l1Fee": "0x1ff5cd365",
      "l1GasPrice": "0x8cdb1042",
      "l1GasUsed": "0x640"
    },
    {
      "status": "0x1",
      "cumulativeGasUsed": "0x19944a6",
      "logs": [
        {
          "address": "0xcbb7c0000ab88b473b1f5afd9ef808440eed33bf",
          "topics": [
            "0x8c5be1e5ebec7d5bd14f71427d1e84f3dd0314c0f7b2291e5b200ac8c7c3b925",
            "0x0000000000000000000000001d3c5381dd07d5eef757c1edbba01db4a262bb86",
            "0x00000000000000000000000066477f84bd21697c7781fc3992b3163463e3b224"
          ],
          "data": "0xffffffffffffffffffffffffffffffffffffffffffffffffffffffffffffffff",
          "blockHash": "0xf2ab069510366f6cb5543bedab18e04720a990f81c9bcdeb36729ac144fd4b9c",
          "blockNumber": "0x1ece72f",
          "blockTimestamp": "0x68642b41",
          "transactionHash": "0x3d808b0b7cd6a675d9e37fa2cae1bbfbdbec7769c3d232f20fdc50dc69a544b3",
          "transactionIndex": "0x84",
          "logIndex": "0x189",
          "removed": false
        }
      ],
      "logsBloom": "0x00000000000000000000000000000000000000000000000000000000000000000000000000000000000000000000000002000000000000000000000000240000000000000000000000000000000000000000000000000000001000000000000000000000000000000000000000000000000000020000000000000000000000000000000000000000000000000000000000000000000000000000000000000000020000000000000000000080000000000000000000000000000000000000000400000000000000000000002000000000000000000000000000000000000400000010000000000000000000000000008000000000000000000000000000000000",
      "type": "0x2",
      "transactionHash": "0x3d808b0b7cd6a675d9e37fa2cae1bbfbdbec7769c3d232f20fdc50dc69a544b3",
      "transactionIndex": "0x84",
      "blockHash": "0xf2ab069510366f6cb5543bedab18e04720a990f81c9bcdeb36729ac144fd4b9c",
      "blockNumber": "0x1ece72f",
      "gasUsed": "0xf79a",
      "effectiveGasPrice": "0x10500b",
      "from": "0xaab6f44b46f19d061582727b66c9a0c84c97a2f6",
      "to": "0x1d3c5381dd07d5eef757c1edbba01db4a262bb86",
      "contractAddress": null,
      "l1BaseFeeScalar": "0x8dd",
      "l1BlobBaseFee": "0x1",
      "l1BlobBaseFeeScalar": "0x101c12",
      "l1Fee": "0x1ff5cd365",
      "l1GasPrice": "0x8cdb1042",
      "l1GasUsed": "0x640"
    },
    {
      "status": "0x1",
      "cumulativeGasUsed": "0x19a0610",
      "logs": [
        {
          "address": "0x17906b1cd88aa8efaefc5e82891b52a22219bd45",
          "topics": [
            "0x8c5be1e5ebec7d5bd14f71427d1e84f3dd0314c0f7b2291e5b200ac8c7c3b925",
            "0x0000000000000000000000001d3c5381dd07d5eef757c1edbba01db4a262bb86",
            "0x000000000000000000000000458bddd0793fe4f70912535f172466a5473f2e77"
          ],
          "data": "0xffffffffffffffffffffffffffffffffffffffffffffffffffffffffffffffff",
          "blockHash": "0xf2ab069510366f6cb5543bedab18e04720a990f81c9bcdeb36729ac144fd4b9c",
          "blockNumber": "0x1ece72f",
          "blockTimestamp": "0x68642b41",
          "transactionHash": "0x1c727e071dfa97fa2ac4d13328bd1cac52cca82da2dcad2accc572cd70a8991c",
          "transactionIndex": "0x85",
          "logIndex": "0x18a",
          "removed": false
        }
      ],
      "logsBloom": "0x00000000000000000000000000000040000000000000000000000000000000000000000000000000000000000000000000000000000000000000000000200000000000000000000000000008000400000000000000000000000000000000000000000000000000000000000000000004000000000000000000000000000000000000000020000000000000000000000000000000000000000000000000000000020040000000000000000080000000000000000000000000000000000000000400000000000000000000002000000000000000000000000000000000000000000010000000000000000000000000000000000000000000000000000000000000",
      "type": "0x2",
      "transactionHash": "0x1c727e071dfa97fa2ac4d13328bd1cac52cca82da2dcad2accc572cd70a8991c",
      "transactionIndex": "0x85",
      "blockHash": "0xf2ab069510366f6cb5543bedab18e04720a990f81c9bcdeb36729ac144fd4b9c",
      "blockNumber": "0x1ece72f",
      "gasUsed": "0xc16a",
      "effectiveGasPrice": "0x10500b",
      "from": "0xaab6f44b46f19d061582727b66c9a0c84c97a2f6",
      "to": "0x1d3c5381dd07d5eef757c1edbba01db4a262bb86",
      "contractAddress": null,
      "l1BaseFeeScalar": "0x8dd",
      "l1BlobBaseFee": "0x1",
      "l1BlobBaseFeeScalar": "0x101c12",
      "l1Fee": "0x1ff5cd365",
      "l1GasPrice": "0x8cdb1042",
      "l1GasUsed": "0x640"
    },
    {
      "status": "0x1",
      "cumulativeGasUsed": "0x19ae440",
      "logs": [
        {
          "address": "0x2416092f143378750bb29b79ed961ab195cceea5",
          "topics": [
            "0x8c5be1e5ebec7d5bd14f71427d1e84f3dd0314c0f7b2291e5b200ac8c7c3b925",
            "0x0000000000000000000000001d3c5381dd07d5eef757c1edbba01db4a262bb86",
            "0x0000000000000000000000002552516453368e42705d791f674b312b8b87cd9e"
          ],
          "data": "0xffffffffffffffffffffffffffffffffffffffffffffffffffffffffffffffff",
          "blockHash": "0xf2ab069510366f6cb5543bedab18e04720a990f81c9bcdeb36729ac144fd4b9c",
          "blockNumber": "0x1ece72f",
          "blockTimestamp": "0x68642b41",
          "transactionHash": "0xaabda56cc899123d311201f6e36bac5a06bce92bb31b3fc0111f647573fdd4eb",
          "transactionIndex": "0x86",
          "logIndex": "0x18b",
          "removed": false
        }
      ],
      "logsBloom": "0x00000004000000000000000000002000000000000000000000000000000000040000000000000080000000000000000000000000000000000000000000200000000000000400000000000000000000000000000000000000000000000000000000000000000000000000000000000000000000000000000000000000000000000000000000000000000000000000000000000000000000000000000000000000020000000000000000000080000000000000000200000000000000000000000400000000000000000000002000000000000000000000000000000000000000000010000000000000000000000000000000000000000000000000000000000000",
      "type": "0x2",
      "transactionHash": "0xaabda56cc899123d311201f6e36bac5a06bce92bb31b3fc0111f647573fdd4eb",
      "transactionIndex": "0x86",
      "blockHash": "0xf2ab069510366f6cb5543bedab18e04720a990f81c9bcdeb36729ac144fd4b9c",
      "blockNumber": "0x1ece72f",
      "gasUsed": "0xde30",
      "effectiveGasPrice": "0x10500b",
      "from": "0xaab6f44b46f19d061582727b66c9a0c84c97a2f6",
      "to": "0x1d3c5381dd07d5eef757c1edbba01db4a262bb86",
      "contractAddress": null,
      "l1BaseFeeScalar": "0x8dd",
      "l1BlobBaseFee": "0x1",
      "l1BlobBaseFeeScalar": "0x101c12",
      "l1Fee": "0x1ff5cd365",
      "l1GasPrice": "0x8cdb1042",
      "l1GasUsed": "0x640"
    }
  ],
  "libraries": [],
  "pending": [],
  "returns": {},
  "timestamp": 1751395138,
  "chain": 8453,
  "commit": "f7af6da"
}