{
  "transactions": [
    {
      "hash": "0xcfa8bdd3f596b3c8d818847a948dde029d091d791bcddaccb68b8c6c32dd9557",
      "transactionType": "CALL",
      "contractName": null,
      "contractAddress": "0x1d3c5381dd07d5eef757c1edbba01db4a262bb86",
      "function": "approveAll(address,address)",
      "arguments": [
        "0x795ABCB2A9901F6EC510e18D40de08B84628c354",
        "0x0a905B4670c9f1A08F45f941374895eE7257a0F8"
      ],
      "transaction": {
        "from": "0xaab6f44b46f19d061582727b66c9a0c84c97a2f6",
        "to": "0x1d3c5381dd07d5eef757c1edbba01db4a262bb86",
        "gas": "0x11927",
        "value": "0x0",
        "input": "0x0a443276000000000000000000000000795abcb2a9901f6ec510e18d40de08b84628c3540000000000000000000000000a905b4670c9f1a08f45f941374895ee7257a0f8",
        "nonce": "0xd3",
        "chainId": "0x2105"
      },
      "additionalContracts": [],
      "isFixedGasLimit": false
    }
  ],
  "receipts": [
    {
      "status": "0x1",
      "cumulativeGasUsed": "0x1eaf4db",
      "logs": [
        {
          "address": "0x795abcb2a9901f6ec510e18d40de08b84628c354",
          "topics": [
            "0x8c5be1e5ebec7d5bd14f71427d1e84f3dd0314c0f7b2291e5b200ac8c7c3b925",
            "0x0000000000000000000000001d3c5381dd07d5eef757c1edbba01db4a262bb86",
            "0x0000000000000000000000000a905b4670c9f1a08f45f941374895ee7257a0f8"
          ],
          "data": "0xffffffffffffffffffffffffffffffffffffffffffffffffffffffffffffffff",
          "blockHash": "0x30cc5a58580bc7da8477e72d88cfdaa53312ae14b5a58cc9e0299761caa8d3fd",
          "blockNumber": "0x2017789",
          "blockTimestamp": "0x688d4bf5",
          "transactionHash": "0xcfa8bdd3f596b3c8d818847a948dde029d091d791bcddaccb68b8c6c32dd9557",
          "transactionIndex": "0x84",
          "logIndex": "0x20a",
          "removed": false
        }
      ],
      "logsBloom": "0x00000000000000000000000000000000000000000000000000000000000000000000000000000000000000000000000000000000000000000000000000200000000000000000000000000000000000000000000000000000000000000000000000000000000010000000000000000000200000000000000000000000000000000000000000000000000000000000080000000200000000000000000000000000020000000000000080000080000000000000000000000000000000000000000400000000000000000000002000000020000000000000000000000000000000000010000000000000000000000000000000000000000000000000000000000000",
      "type": "0x2",
      "transactionHash": "0xcfa8bdd3f596b3c8d818847a948dde029d091d791bcddaccb68b8c6c32dd9557",
      "transactionIndex": "0x84",
      "blockHash": "0x30cc5a58580bc7da8477e72d88cfdaa53312ae14b5a58cc9e0299761caa8d3fd",
      "blockNumber": "0x2017789",
      "gasUsed": "0xcb8e",
      "effectiveGasPrice": "0x52103f",
      "from": "0xaab6f44b46f19d061582727b66c9a0c84c97a2f6",
      "to": "0x1d3c5381dd07d5eef757c1edbba01db4a262bb86",
      "contractAddress": null,
      "l1BaseFeeScalar": "0x8dd",
      "l1BlobBaseFee": "0x1",
      "l1BlobBaseFeeScalar": "0x101c12",
      "l1Fee": "0x77ec526a",
      "l1GasPrice": "0x210874e9",
      "l1GasUsed": "0x640"
    }
  ],
  "libraries": [],
  "pending": [],
  "returns": {},
  "timestamp": 1754090484,
  "chain": 8453,
  "commit": "4cbad7c"
}