{
  "transactions": [
    {
      "hash": "0x28f58d65654721a1505b6603dfdaec2f82609a447d942039d520e8fdb4094c27",
      "transactionType": "CALL",
      "contractName": null,
      "contractAddress": "0x000000000022d473030f116ddee9f6b43ac78ba3",
      "function": "approve(address,address,uint160,uint48)",
      "arguments": [
        "0x14807B50354328E7cC652313854277868a189f15",
        "0x63D91b09DD0e27C672228E52bCF4Ec08E694c0cB",
        "1461501637330902918203684832716283019655932542975",
        "281474976710655"
      ],
      "transaction": {
        "from": "0xaab6f44b46f19d061582727b66c9a0c84c97a2f6",
        "to": "0x000000000022d473030f116ddee9f6b43ac78ba3",
        "value": "0x0",
        "input": "0x87517c4500000000000000000000000014807b50354328e7cc652313854277868a189f1500000000000000000000000063d91b09dd0e27c672228e52bcf4ec08e694c0cb000000000000000000000000ffffffffffffffffffffffffffffffffffffffff0000000000000000000000000000000000000000000000000000ffffffffffff",
        "nonce": "0x5a",
        "chainId": "0x1235"
      },
      "additionalContracts": [],
      "isFixedGasLimit": false
    },
    {
      "hash": "0x2ef2826ca4bf641ceb481a7b2e89361218a3b9fe830dfaf0ae5ad94b3abfd048",
      "transactionType": "CALL",
      "contractName": null,
      "contractAddress": "0x000000000022d473030f116ddee9f6b43ac78ba3",
      "function": "approve(address,address,uint160,uint48)",
      "arguments": [
        "0xe00A4b02B812DFEcB61b4acC6C8808f5a34a4dCA",
        "0x63D91b09DD0e27C672228E52bCF4Ec08E694c0cB",
        "1461501637330902918203684832716283019655932542975",
        "281474976710655"
      ],
      "transaction": {
        "from": "0xaab6f44b46f19d061582727b66c9a0c84c97a2f6",
        "to": "0x000000000022d473030f116ddee9f6b43ac78ba3",
        "value": "0x0",
        "input": "0x87517c45000000000000000000000000e00a4b02b812dfecb61b4acc6c8808f5a34a4dca00000000000000000000000063d91b09dd0e27c672228e52bcf4ec08e694c0cb000000000000000000000000ffffffffffffffffffffffffffffffffffffffff0000000000000000000000000000000000000000000000000000ffffffffffff",
        "nonce": "0x5b",
        "chainId": "0x1235"
      },
      "additionalContracts": [],
      "isFixedGasLimit": false
    },
    {
      "hash": null,
      "transactionType": "CALL",
      "contractName": null,
      "contractAddress": "0x63d91b09dd0e27c672228e52bcf4ec08e694c0cb",
      "function": "multicall(bytes[])",
      "arguments": [
        "[0xf702040500000000000000000000000014807b50354328e7cc652313854277868a189f15000000000000000000000000e00a4b02b812dfecb61b4acc6c8808f5a34a4dca0000000000000000000000000000000000000000000000000000000000000bb8000000000000000000000000000000000000000000000000000000000000003c00000000000000000000000000000000000000000000000000000000000000000000000000000000000000000000000000000001000000000000000000000000, 0xdd46508f000000000000000000000000000000000000000000000000000000000000004000000000000000000000000000000000000000000000000000000000689e5a010000000000000000000000000000000000000000000000000000000000000300000000000000000000000000000000000000000000000000000000000000004000000000000000000000000000000000000000000000000000000000000000800000000000000000000000000000000000000000000000000000000000000002020d00000000000000000000000000000000000000000000000000000000000000000000000000000000000000000000000000000000000000000000000000020000000000000000000000000000000000000000000000000000000000000040000000000000000000000000000000000000000000000000000000000000020000000000000000000000000000000000000000000000000000000000000001a000000000000000000000000014807b50354328e7cc652313854277868a189f15000000000000000000000000e00a4b02b812dfecb61b4acc6c8808f5a34a4dca0000000000000000000000000000000000000000000000000000000000000bb8000000000000000000000000000000000000000000000000000000000000003c0000000000000000000000000000000000000000000000000000000000000000ffffffffffffffffffffffffffffffffffffffffffffffffffffffffffffe50c0000000000000000000000000000000000000000000000000000000000001af4000000000000000000000000000000000000000000000001dba54259a921806f0000000000000000000000000000000000000000000000008ac7230489e800000000000000000000000000000000000000000000000000008ac7230489e80000000000000000000000000000aab6f44b46f19d061582727b66c9a0c84c97a2f600000000000000000000000000000000000000000000000000000000000001800000000000000000000000000000000000000000000000000000000000000000000000000000000000000000000000000000000000000000000000000000004000000000000000000000000014807b50354328e7cc652313854277868a189f15000000000000000000000000e00a4b02b812dfecb61b4acc6c8808f5a34a4dca]"
      ],
      "transaction": {
        "from": "0xaab6f44b46f19d061582727b66c9a0c84c97a2f6",
        "to": "0x63d91b09dd0e27c672228e52bcf4ec08e694c0cb",
        "value": "0x0",
        "input": "0xac9650d8000000000000000000000000000000000000000000000000000000000000002000000000000000000000000000000000000000000000000000000000000000020000000000000000000000000000000000000000000000000000000000000040000000000000000000000000000000000000000000000000000000000000014000000000000000000000000000000000000000000000000000000000000000c4f702040500000000000000000000000014807b50354328e7cc652313854277868a189f15000000000000000000000000e00a4b02b812dfecb61b4acc6c8808f5a34a4dca0000000000000000000000000000000000000000000000000000000000000bb8000000000000000000000000000000000000000000000000000000000000003c00000000000000000000000000000000000000000000000000000000000000000000000000000000000000000000000000000001000000000000000000000000000000000000000000000000000000000000000000000000000000000000000000000000000000000000000000000000000000000000000000000364dd46508f000000000000000000000000000000000000000000000000000000000000004000000000000000000000000000000000000000000000000000000000689e5a010000000000000000000000000000000000000000000000000000000000000300000000000000000000000000000000000000000000000000000000000000004000000000000000000000000000000000000000000000000000000000000000800000000000000000000000000000000000000000000000000000000000000002020d00000000000000000000000000000000000000000000000000000000000000000000000000000000000000000000000000000000000000000000000000020000000000000000000000000000000000000000000000000000000000000040000000000000000000000000000000000000000000000000000000000000020000000000000000000000000000000000000000000000000000000000000001a000000000000000000000000014807b50354328e7cc652313854277868a189f15000000000000000000000000e00a4b02b812dfecb61b4acc6c8808f5a34a4dca0000000000000000000000000000000000000000000000000000000000000bb8000000000000000000000000000000000000000000000000000000000000003c0000000000000000000000000000000000000000000000000000000000000000ffffffffffffffffffffffffffffffffffffffffffffffffffffffffffffe50c0000000000000000000000000000000000000000000000000000000000001af4000000000000000000000000000000000000000000000001dba54259a921806f0000000000000000000000000000000000000000000000008ac7230489e800000000000000000000000000000000000000000000000000008ac7230489e80000000000000000000000000000aab6f44b46f19d061582727b66c9a0c84c97a2f600000000000000000000000000000000000000000000000000000000000001800000000000000000000000000000000000000000000000000000000000000000000000000000000000000000000000000000000000000000000000000000004000000000000000000000000014807b50354328e7cc652313854277868a189f15000000000000000000000000e00a4b02b812dfecb61b4acc6c8808f5a34a4dca00000000000000000000000000000000000000000000000000000000",
        "nonce": "0x5c",
        "chainId": "0x1235"
      },
      "additionalContracts": [],
      "isFixedGasLimit": false
    },
    {
      "hash": null,
      "transactionType": "CALL",
      "contractName": null,
      "contractAddress": "0x000000000022d473030f116ddee9f6b43ac78ba3",
      "function": "approve(address,address,uint160,uint48)",
      "arguments": [
        "0x14807B50354328E7cC652313854277868a189f15",
        "0x63D91b09DD0e27C672228E52bCF4Ec08E694c0cB",
        "1461501637330902918203684832716283019655932542975",
        "281474976710655"
      ],
      "transaction": {
        "from": "0xaab6f44b46f19d061582727b66c9a0c84c97a2f6",
        "to": "0x000000000022d473030f116ddee9f6b43ac78ba3",
        "value": "0x0",
        "input": "0x87517c4500000000000000000000000014807b50354328e7cc652313854277868a189f1500000000000000000000000063d91b09dd0e27c672228e52bcf4ec08e694c0cb000000000000000000000000ffffffffffffffffffffffffffffffffffffffff0000000000000000000000000000000000000000000000000000ffffffffffff",
        "nonce": "0x5d",
        "chainId": "0x1235"
      },
      "additionalContracts": [],
      "isFixedGasLimit": false
    },
    {
      "hash": null,
      "transactionType": "CALL",
      "contractName": null,
      "contractAddress": "0x63d91b09dd0e27c672228e52bcf4ec08e694c0cb",
      "function": "multicall(bytes[])",
      "arguments": [
        "[0xf7020405000000000000000000000000000000000000000000000000000000000000000000000000000000000000000014807b50354328e7cc652313854277868a189f150000000000000000000000000000000000000000000000000000000000000bb8000000000000000000000000000000000000000000000000000000000000003c00000000000000000000000000000000000000000000000000000000000000000000000000000000000000000000000000000001000000000000000000000000, 0xdd46508f000000000000000000000000000000000000000000000000000000000000004000000000000000000000000000000000000000000000000000000000689e5a010000000000000000000000000000000000000000000000000000000000000300000000000000000000000000000000000000000000000000000000000000004000000000000000000000000000000000000000000000000000000000000000800000000000000000000000000000000000000000000000000000000000000002020d00000000000000000000000000000000000000000000000000000000000000000000000000000000000000000000000000000000000000000000000000020000000000000000000000000000000000000000000000000000000000000040000000000000000000000000000000000000000000000000000000000000020000000000000000000000000000000000000000000000000000000000000001a0000000000000000000000000000000000000000000000000000000000000000000000000000000000000000014807b50354328e7cc652313854277868a189f150000000000000000000000000000000000000000000000000000000000000bb8000000000000000000000000000000000000000000000000000000000000003c0000000000000000000000000000000000000000000000000000000000000000ffffffffffffffffffffffffffffffffffffffffffffffffffffffffffffe50c0000000000000000000000000000000000000000000000000000000000001af40000000000000000000000000000000000000000000000002f9086a290e9c00b0000000000000000000000000000000000000000000000000de0b6b3a76400000000000000000000000000000000000000000000000000000de0b6b3a7640000000000000000000000000000aab6f44b46f19d061582727b66c9a0c84c97a2f6000000000000000000000000000000000000000000000000000000000000018000000000000000000000000000000000000000000000000000000000000000000000000000000000000000000000000000000000000000000000000000000040000000000000000000000000000000000000000000000000000000000000000000000000000000000000000014807b50354328e7cc652313854277868a189f15]"
      ],
      "transaction": {
        "from": "0xaab6f44b46f19d061582727b66c9a0c84c97a2f6",
        "to": "0x63d91b09dd0e27c672228e52bcf4ec08e694c0cb",
        "value": "0xde0b6b3a7640000",
        "input": "0xac9650d8000000000000000000000000000000000000000000000000000000000000002000000000000000000000000000000000000000000000000000000000000000020000000000000000000000000000000000000000000000000000000000000040000000000000000000000000000000000000000000000000000000000000014000000000000000000000000000000000000000000000000000000000000000c4f7020405000000000000000000000000000000000000000000000000000000000000000000000000000000000000000014807b50354328e7cc652313854277868a189f150000000000000000000000000000000000000000000000000000000000000bb8000000000000000000000000000000000000000000000000000000000000003c00000000000000000000000000000000000000000000000000000000000000000000000000000000000000000000000000000001000000000000000000000000000000000000000000000000000000000000000000000000000000000000000000000000000000000000000000000000000000000000000000000364dd46508f000000000000000000000000000000000000000000000000000000000000004000000000000000000000000000000000000000000000000000000000689e5a010000000000000000000000000000000000000000000000000000000000000300000000000000000000000000000000000000000000000000000000000000004000000000000000000000000000000000000000000000000000000000000000800000000000000000000000000000000000000000000000000000000000000002020d00000000000000000000000000000000000000000000000000000000000000000000000000000000000000000000000000000000000000000000000000020000000000000000000000000000000000000000000000000000000000000040000000000000000000000000000000000000000000000000000000000000020000000000000000000000000000000000000000000000000000000000000001a0000000000000000000000000000000000000000000000000000000000000000000000000000000000000000014807b50354328e7cc652313854277868a189f150000000000000000000000000000000000000000000000000000000000000bb8000000000000000000000000000000000000000000000000000000000000003c0000000000000000000000000000000000000000000000000000000000000000ffffffffffffffffffffffffffffffffffffffffffffffffffffffffffffe50c0000000000000000000000000000000000000000000000000000000000001af40000000000000000000000000000000000000000000000002f9086a290e9c00b0000000000000000000000000000000000000000000000000de0b6b3a76400000000000000000000000000000000000000000000000000000de0b6b3a7640000000000000000000000000000aab6f44b46f19d061582727b66c9a0c84c97a2f6000000000000000000000000000000000000000000000000000000000000018000000000000000000000000000000000000000000000000000000000000000000000000000000000000000000000000000000000000000000000000000000040000000000000000000000000000000000000000000000000000000000000000000000000000000000000000014807b50354328e7cc652313854277868a189f1500000000000000000000000000000000000000000000000000000000",
        "nonce": "0x5e",
        "chainId": "0x1235"
      },
      "additionalContracts": [],
      "isFixedGasLimit": false
    }
  ],
  "receipts": [
    {
      "status": "0x1",
      "cumulativeGasUsed": "0xbc04",
      "logs": [
        {
          "address": "0x000000000022d473030f116ddee9f6b43ac78ba3",
          "topics": [
            "0xda9fa7c1b00402c17d0161b249b1ab8bbec047c5a52207b9c112deffd817036b",
            "0x000000000000000000000000aab6f44b46f19d061582727b66c9a0c84c97a2f6",
            "0x00000000000000000000000014807b50354328e7cc652313854277868a189f15",
            "0x00000000000000000000000063d91b09dd0e27c672228e52bcf4ec08e694c0cb"
          ],
          "data": "0x000000000000000000000000ffffffffffffffffffffffffffffffffffffffff0000000000000000000000000000000000000000000000000000ffffffffffff",
          "blockHash": "0xd581eb681b5b9c73e4869d28c2cdba5f19cac36d818126c669067daf05344c32",
          "blockNumber": "0x1c920",
          "transactionHash": "0x28f58d65654721a1505b6603dfdaec2f82609a447d942039d520e8fdb4094c27",
          "transactionIndex": "0x1",
          "logIndex": "0x0",
          "removed": false
        }
      ],
      "logsBloom": "0x00010000000000000000000000000000000000000000000000000000000000000000000000000000000000000100002000000000000000000000000000080000000000000000000000000000000000000000000000000000000000000000000000000000000000000000000000000000000000000080000000000000000000000020000000000000000000000000000000020000000000000000000000000040000000000000000000000000000000000000000000000000000000080000000000000000000000000000000000000000000010000000000040002000000000000000000000000000000000000000000000000000000000000000000002040400",
      "type": "0x2",
      "transactionHash": "0x28f58d65654721a1505b6603dfdaec2f82609a447d942039d520e8fdb4094c27",
      "transactionIndex": "0x1",
      "blockHash": "0xd581eb681b5b9c73e4869d28c2cdba5f19cac36d818126c669067daf05344c32",
      "blockNumber": "0x1c920",
      "gasUsed": "0xbc04",
      "effectiveGasPrice": "0x989680",
      "from": "0xaab6f44b46f19d061582727b66c9a0c84c97a2f6",
      "to": "0x000000000022d473030f116ddee9f6b43ac78ba3",
      "contractAddress": null,
      "gasUsedForL1": "0x4ef6",
      "l1BlockNumber": "0x891ac5"
    },
    {
      "status": "0x1",
      "cumulativeGasUsed": "0xbc04",
      "logs": [
        {
          "address": "0x000000000022d473030f116ddee9f6b43ac78ba3",
          "topics": [
            "0xda9fa7c1b00402c17d0161b249b1ab8bbec047c5a52207b9c112deffd817036b",
            "0x000000000000000000000000aab6f44b46f19d061582727b66c9a0c84c97a2f6",
            "0x000000000000000000000000e00a4b02b812dfecb61b4acc6c8808f5a34a4dca",
            "0x00000000000000000000000063d91b09dd0e27c672228e52bcf4ec08e694c0cb"
          ],
          "data": "0x000000000000000000000000ffffffffffffffffffffffffffffffffffffffff0000000000000000000000000000000000000000000000000000ffffffffffff",
          "blockHash": "0xedbd696689579d757e5c2a12f9839cfc000865cb0f4d514c82fd2cc145685c98",
          "blockNumber": "0x1c921",
          "transactionHash": "0x2ef2826ca4bf641ceb481a7b2e89361218a3b9fe830dfaf0ae5ad94b3abfd048",
          "transactionIndex": "0x1",
          "logIndex": "0x0",
          "removed": false
        }
      ],
      "logsBloom": "0x00010000000000004001000000000000000000000000000000000000000000000000000000000000000000000000002000000000000000000000000000080000000000000000000000000000000000000000000000000000000000000000000000000000000000000000000000000000000000000000000000000000000000000020000000000000000000000000000000000000000000000000000000000040000000000000000000000000000000000000000000000000000000080000000000000000000000002000000000000000000010000000000040002000000000000000000000000000000000000000000000000000000000000000000002040400",
      "type": "0x2",
      "transactionHash": "0x2ef2826ca4bf641ceb481a7b2e89361218a3b9fe830dfaf0ae5ad94b3abfd048",
      "transactionIndex": "0x1",
      "blockHash": "0xedbd696689579d757e5c2a12f9839cfc000865cb0f4d514c82fd2cc145685c98",
      "blockNumber": "0x1c921",
      "gasUsed": "0xbc04",
      "effectiveGasPrice": "0x989680",
      "from": "0xaab6f44b46f19d061582727b66c9a0c84c97a2f6",
      "to": "0x000000000022d473030f116ddee9f6b43ac78ba3",
      "contractAddress": null,
      "gasUsedForL1": "0x4ef6",
      "l1BlockNumber": "0x891ac5"
    }
  ],
  "libraries": [],
  "pending": [],
  "returns": {},
  "timestamp": 1755208773,
  "chain": 4661,
  "commit": "20fc410"
}