{
  "transactions": [
    {
      "hash": "0x53060726ff664b77030a6e637061a5dacbcc7c98e9bfc11913c8f628c981270e",
      "transactionType": "CALL",
      "contractName": null,
      "contractAddress": "0x63d91b09dd0e27c672228e52bcf4ec08e694c0cb",
      "function": "multicall(bytes[])",
      "arguments": [
        "[0xf7020405000000000000000000000000000000000000000000000000000000000000000000000000000000000000000014807b50354328e7cc652313854277868a189f150000000000000000000000000000000000000000000000000000000000000bb8000000000000000000000000000000000000000000000000000000000000003c00000000000000000000000000000000000000000000000000000000000000000000000000000000000000000000000000000001000000000000000000000000, 0xdd46508f000000000000000000000000000000000000000000000000000000000000004000000000000000000000000000000000000000000000000000000000689e33740000000000000000000000000000000000000000000000000000000000000300000000000000000000000000000000000000000000000000000000000000004000000000000000000000000000000000000000000000000000000000000000800000000000000000000000000000000000000000000000000000000000000002020d00000000000000000000000000000000000000000000000000000000000000000000000000000000000000000000000000000000000000000000000000020000000000000000000000000000000000000000000000000000000000000040000000000000000000000000000000000000000000000000000000000000020000000000000000000000000000000000000000000000000000000000000001a0000000000000000000000000000000000000000000000000000000000000000000000000000000000000000014807b50354328e7cc652313854277868a189f150000000000000000000000000000000000000000000000000000000000000bb8000000000000000000000000000000000000000000000000000000000000003c0000000000000000000000000000000000000000000000000000000000000000ffffffffffffffffffffffffffffffffffffffffffffffffffffffffffffe50c0000000000000000000000000000000000000000000000000000000000001af40000000000000000000000000000000000000000000000002f9086a290e9c00b0000000000000000000000000000000000000000000000000de0b6b3a76400000000000000000000000000000000000000000000000000000de0b6b3a7640000000000000000000000000000aab6f44b46f19d061582727b66c9a0c84c97a2f6000000000000000000000000000000000000000000000000000000000000018000000000000000000000000000000000000000000000000000000000000000000000000000000000000000000000000000000000000000000000000000000040000000000000000000000000000000000000000000000000000000000000000000000000000000000000000014807b50354328e7cc652313854277868a189f15]"
      ],
      "transaction": {
        "from": "0xaab6f44b46f19d061582727b66c9a0c84c97a2f6",
        "to": "0x63d91b09dd0e27c672228e52bcf4ec08e694c0cb",
        "gas": "0x881d7",
        "value": "0xde0b6b3a7640000",
        "input": "0xac9650d8000000000000000000000000000000000000000000000000000000000000002000000000000000000000000000000000000000000000000000000000000000020000000000000000000000000000000000000000000000000000000000000040000000000000000000000000000000000000000000000000000000000000014000000000000000000000000000000000000000000000000000000000000000c4f7020405000000000000000000000000000000000000000000000000000000000000000000000000000000000000000014807b50354328e7cc652313854277868a189f150000000000000000000000000000000000000000000000000000000000000bb8000000000000000000000000000000000000000000000000000000000000003c00000000000000000000000000000000000000000000000000000000000000000000000000000000000000000000000000000001000000000000000000000000000000000000000000000000000000000000000000000000000000000000000000000000000000000000000000000000000000000000000000000364dd46508f000000000000000000000000000000000000000000000000000000000000004000000000000000000000000000000000000000000000000000000000689e33740000000000000000000000000000000000000000000000000000000000000300000000000000000000000000000000000000000000000000000000000000004000000000000000000000000000000000000000000000000000000000000000800000000000000000000000000000000000000000000000000000000000000002020d00000000000000000000000000000000000000000000000000000000000000000000000000000000000000000000000000000000000000000000000000020000000000000000000000000000000000000000000000000000000000000040000000000000000000000000000000000000000000000000000000000000020000000000000000000000000000000000000000000000000000000000000001a0000000000000000000000000000000000000000000000000000000000000000000000000000000000000000014807b50354328e7cc652313854277868a189f150000000000000000000000000000000000000000000000000000000000000bb8000000000000000000000000000000000000000000000000000000000000003c0000000000000000000000000000000000000000000000000000000000000000ffffffffffffffffffffffffffffffffffffffffffffffffffffffffffffe50c0000000000000000000000000000000000000000000000000000000000001af40000000000000000000000000000000000000000000000002f9086a290e9c00b0000000000000000000000000000000000000000000000000de0b6b3a76400000000000000000000000000000000000000000000000000000de0b6b3a7640000000000000000000000000000aab6f44b46f19d061582727b66c9a0c84c97a2f6000000000000000000000000000000000000000000000000000000000000018000000000000000000000000000000000000000000000000000000000000000000000000000000000000000000000000000000000000000000000000000000040000000000000000000000000000000000000000000000000000000000000000000000000000000000000000014807b50354328e7cc652313854277868a189f1500000000000000000000000000000000000000000000000000000000",
        "nonce": "0x59",
        "chainId": "0x1235"
      },
      "additionalContracts": [],
      "isFixedGasLimit": false
    }
  ],
  "receipts": [],
  "libraries": [],
  "pending": [],
  "returns": {},
  "timestamp": 1755207894,
  "chain": 4661,
  "commit": "20fc410"
}