{
  "transactions": [
    {
      "hash": "0x31a26152dc6fa03e2c8336e18b77e2042c815c19e5c89f4f168fd1b2f40abc56",
      "transactionType": "CALL",
      "contractName": null,
      "contractAddress": "0x000000000022d473030f116ddee9f6b43ac78ba3",
      "function": "approve(address,address,uint160,uint48)",
      "arguments": [
        "0x14807B50354328E7cC652313854277868a189f15",
        "0x63D91b09DD0e27C672228E52bCF4Ec08E694c0cB",
        "1461501637330902918203684832716283019655932542975",
        "281474976710655"
      ],
      "transaction": {
        "from": "0xaab6f44b46f19d061582727b66c9a0c84c97a2f6",
        "to": "0x000000000022d473030f116ddee9f6b43ac78ba3",
        "gas": "0xa5bc",
        "value": "0x0",
        "input": "0x87517c4500000000000000000000000014807b50354328e7cc652313854277868a189f1500000000000000000000000063d91b09dd0e27c672228e52bcf4ec08e694c0cb000000000000000000000000ffffffffffffffffffffffffffffffffffffffff0000000000000000000000000000000000000000000000000000ffffffffffff",
        "nonce": "0x92",
        "chainId": "0x1235"
      },
      "additionalContracts": [],
      "isFixedGasLimit": false
    },
    {
      "hash": "0x91fb9cc564aa68c968a34f82207e8219233b85b86d6991adff8f942a2c35e677",
      "transactionType": "CALL",
      "contractName": null,
      "contractAddress": "0x000000000022d473030f116ddee9f6b43ac78ba3",
      "function": "approve(address,address,uint160,uint48)",
      "arguments": [
        "0xe00A4b02B812DFEcB61b4acC6C8808f5a34a4dCA",
        "0x63D91b09DD0e27C672228E52bCF4Ec08E694c0cB",
        "1461501637330902918203684832716283019655932542975",
        "281474976710655"
      ],
      "transaction": {
        "from": "0xaab6f44b46f19d061582727b66c9a0c84c97a2f6",
        "to": "0x000000000022d473030f116ddee9f6b43ac78ba3",
        "gas": "0xa5bc",
        "value": "0x0",
        "input": "0x87517c45000000000000000000000000e00a4b02b812dfecb61b4acc6c8808f5a34a4dca00000000000000000000000063d91b09dd0e27c672228e52bcf4ec08e694c0cb000000000000000000000000ffffffffffffffffffffffffffffffffffffffff0000000000000000000000000000000000000000000000000000ffffffffffff",
        "nonce": "0x93",
        "chainId": "0x1235"
      },
      "additionalContracts": [],
      "isFixedGasLimit": false
    },
    {
      "hash": "0x782791dbf5e55f8bf903b1f485f5452780b8318e7b71ea3b54b8cc30d6a76505",
      "transactionType": "CALL",
      "contractName": null,
      "contractAddress": "0x000000000022d473030f116ddee9f6b43ac78ba3",
      "function": "approve(address,address,uint160,uint48)",
      "arguments": [
        "0x14807B50354328E7cC652313854277868a189f15",
        "0xD84241a2F1C35D3b3E484B9A91d5d85A0382bc4d",
        "1461501637330902918203684832716283019655932542975",
        "281474976710655"
      ],
      "transaction": {
        "from": "0xaab6f44b46f19d061582727b66c9a0c84c97a2f6",
        "to": "0x000000000022d473030f116ddee9f6b43ac78ba3",
        "gas": "0xa5bc",
        "value": "0x0",
        "input": "0x87517c4500000000000000000000000014807b50354328e7cc652313854277868a189f15000000000000000000000000d84241a2f1c35d3b3e484b9a91d5d85a0382bc4d000000000000000000000000ffffffffffffffffffffffffffffffffffffffff0000000000000000000000000000000000000000000000000000ffffffffffff",
        "nonce": "0x94",
        "chainId": "0x1235"
      },
      "additionalContracts": [],
      "isFixedGasLimit": false
    },
    {
      "hash": "0x84b5167f15d6cf64366a75f7f3bc0add87061cd0ed6adbae31bc02fa9546a20e",
      "transactionType": "CALL",
      "contractName": null,
      "contractAddress": "0x000000000022d473030f116ddee9f6b43ac78ba3",
      "function": "approve(address,address,uint160,uint48)",
      "arguments": [
        "0xe00A4b02B812DFEcB61b4acC6C8808f5a34a4dCA",
        "0xD84241a2F1C35D3b3E484B9A91d5d85A0382bc4d",
        "1461501637330902918203684832716283019655932542975",
        "281474976710655"
      ],
      "transaction": {
        "from": "0xaab6f44b46f19d061582727b66c9a0c84c97a2f6",
        "to": "0x000000000022d473030f116ddee9f6b43ac78ba3",
        "gas": "0xa5bc",
        "value": "0x0",
        "input": "0x87517c45000000000000000000000000e00a4b02b812dfecb61b4acc6c8808f5a34a4dca000000000000000000000000d84241a2f1c35d3b3e484b9a91d5d85a0382bc4d000000000000000000000000ffffffffffffffffffffffffffffffffffffffff0000000000000000000000000000000000000000000000000000ffffffffffff",
        "nonce": "0x95",
        "chainId": "0x1235"
      },
      "additionalContracts": [],
      "isFixedGasLimit": false
    }
  ],
  "receipts": [
    {
      "status": "0x1",
      "cumulativeGasUsed": "0x77fe",
      "logs": [
        {
          "address": "0x000000000022d473030f116ddee9f6b43ac78ba3",
          "topics": [
            "0xda9fa7c1b00402c17d0161b249b1ab8bbec047c5a52207b9c112deffd817036b",
            "0x000000000000000000000000aab6f44b46f19d061582727b66c9a0c84c97a2f6",
            "0x00000000000000000000000014807b50354328e7cc652313854277868a189f15",
            "0x00000000000000000000000063d91b09dd0e27c672228e52bcf4ec08e694c0cb"
          ],
          "data": "0x000000000000000000000000ffffffffffffffffffffffffffffffffffffffff0000000000000000000000000000000000000000000000000000ffffffffffff",
          "blockHash": "0x09e7d1377cd4ff00b78dc71732d767dddc67787158e2dd062c40c8a8e1bc1b19",
          "blockNumber": "0x1e382",
          "transactionHash": "0x31a26152dc6fa03e2c8336e18b77e2042c815c19e5c89f4f168fd1b2f40abc56",
          "transactionIndex": "0x1",
          "logIndex": "0x0",
          "removed": false
        }
      ],
      "logsBloom": "0x00010000000000000000000000000000000000000000000000000000000000000000000000000000000000000100002000000000000000000000000000080000000000000000000000000000000000000000000000000000000000000000000000000000000000000000000000000000000000000080000000000000000000000020000000000000000000000000000000020000000000000000000000000040000000000000000000000000000000000000000000000000000000080000000000000000000000000000000000000000000010000000000040002000000000000000000000000000000000000000000000000000000000000000000002040400",
      "type": "0x2",
      "transactionHash": "0x31a26152dc6fa03e2c8336e18b77e2042c815c19e5c89f4f168fd1b2f40abc56",
      "transactionIndex": "0x1",
      "blockHash": "0x09e7d1377cd4ff00b78dc71732d767dddc67787158e2dd062c40c8a8e1bc1b19",
      "blockNumber": "0x1e382",
      "gasUsed": "0x77fe",
      "effectiveGasPrice": "0x989680",
      "from": "0xaab6f44b46f19d061582727b66c9a0c84c97a2f6",
      "to": "0x000000000022d473030f116ddee9f6b43ac78ba3",
      "contractAddress": null,
      "gasUsedForL1": "0x0",
      "l1BlockNumber": "0x8a5e1f"
    },
    {
      "status": "0x1",
      "cumulativeGasUsed": "0x77fe",
      "logs": [
        {
          "address": "0x000000000022d473030f116ddee9f6b43ac78ba3",
          "topics": [
            "0xda9fa7c1b00402c17d0161b249b1ab8bbec047c5a52207b9c112deffd817036b",
            "0x000000000000000000000000aab6f44b46f19d061582727b66c9a0c84c97a2f6",
            "0x000000000000000000000000e00a4b02b812dfecb61b4acc6c8808f5a34a4dca",
            "0x00000000000000000000000063d91b09dd0e27c672228e52bcf4ec08e694c0cb"
          ],
          "data": "0x000000000000000000000000ffffffffffffffffffffffffffffffffffffffff0000000000000000000000000000000000000000000000000000ffffffffffff",
          "blockHash": "0x951824d1368fe32566ae5944e6356ab81fd3bea6a3d3d67bfa73ec09600b527e",
          "blockNumber": "0x1e383",
          "transactionHash": "0x91fb9cc564aa68c968a34f82207e8219233b85b86d6991adff8f942a2c35e677",
          "transactionIndex": "0x1",
          "logIndex": "0x0",
          "removed": false
        }
      ],
      "logsBloom": "0x00010000000000004001000000000000000000000000000000000000000000000000000000000000000000000000002000000000000000000000000000080000000000000000000000000000000000000000000000000000000000000000000000000000000000000000000000000000000000000000000000000000000000000020000000000000000000000000000000000000000000000000000000000040000000000000000000000000000000000000000000000000000000080000000000000000000000002000000000000000000010000000000040002000000000000000000000000000000000000000000000000000000000000000000002040400",
      "type": "0x2",
      "transactionHash": "0x91fb9cc564aa68c968a34f82207e8219233b85b86d6991adff8f942a2c35e677",
      "transactionIndex": "0x1",
      "blockHash": "0x951824d1368fe32566ae5944e6356ab81fd3bea6a3d3d67bfa73ec09600b527e",
      "blockNumber": "0x1e383",
      "gasUsed": "0x77fe",
      "effectiveGasPrice": "0x989680",
      "from": "0xaab6f44b46f19d061582727b66c9a0c84c97a2f6",
      "to": "0x000000000022d473030f116ddee9f6b43ac78ba3",
      "contractAddress": null,
      "gasUsedForL1": "0x0",
      "l1BlockNumber": "0x8a5e1f"
    },
    {
      "status": "0x1",
      "cumulativeGasUsed": "0xeffc",
      "logs": [
        {
          "address": "0x000000000022d473030f116ddee9f6b43ac78ba3",
          "topics": [
            "0xda9fa7c1b00402c17d0161b249b1ab8bbec047c5a52207b9c112deffd817036b",
            "0x000000000000000000000000aab6f44b46f19d061582727b66c9a0c84c97a2f6",
            "0x00000000000000000000000014807b50354328e7cc652313854277868a189f15",
            "0x000000000000000000000000d84241a2f1c35d3b3e484b9a91d5d85a0382bc4d"
          ],
          "data": "0x000000000000000000000000ffffffffffffffffffffffffffffffffffffffff0000000000000000000000000000000000000000000000000000ffffffffffff",
          "blockHash": "0x951824d1368fe32566ae5944e6356ab81fd3bea6a3d3d67bfa73ec09600b527e",
          "blockNumber": "0x1e383",
          "transactionHash": "0x782791dbf5e55f8bf903b1f485f5452780b8318e7b71ea3b54b8cc30d6a76505",
          "transactionIndex": "0x2",
          "logIndex": "0x1",
          "removed": false
        }
      ],
      "logsBloom": "0x00010000000000000000000000000000000000000000000000000000000000000000000000000000000000000100002000000000000000000000000000081000000000000000000000000000000000100000000000000000000000000000000000000000000800000000000000000000000000000080000000000000000000000020000000000000000000000000000000020000000000000000000000000000000000000000000000000000000000000000000000000000000000080000000000000000000000000000000000000000000010000000000040000000000000000000000000000000000000000000000000000000000000000000000002000400",
      "type": "0x2",
      "transactionHash": "0x782791dbf5e55f8bf903b1f485f5452780b8318e7b71ea3b54b8cc30d6a76505",
      "transactionIndex": "0x2",
      "blockHash": "0x951824d1368fe32566ae5944e6356ab81fd3bea6a3d3d67bfa73ec09600b527e",
      "blockNumber": "0x1e383",
      "gasUsed": "0x77fe",
      "effectiveGasPrice": "0x989680",
      "from": "0xaab6f44b46f19d061582727b66c9a0c84c97a2f6",
      "to": "0x000000000022d473030f116ddee9f6b43ac78ba3",
      "contractAddress": null,
      "gasUsedForL1": "0x0",
      "l1BlockNumber": "0x8a5e1f"
    },
    {
      "status": "0x1",
      "cumulativeGasUsed": "0x167fa",
      "logs": [
        {
          "address": "0x000000000022d473030f116ddee9f6b43ac78ba3",
          "topics": [
            "0xda9fa7c1b00402c17d0161b249b1ab8bbec047c5a52207b9c112deffd817036b",
            "0x000000000000000000000000aab6f44b46f19d061582727b66c9a0c84c97a2f6",
            "0x000000000000000000000000e00a4b02b812dfecb61b4acc6c8808f5a34a4dca",
            "0x000000000000000000000000d84241a2f1c35d3b3e484b9a91d5d85a0382bc4d"
          ],
          "data": "0x000000000000000000000000ffffffffffffffffffffffffffffffffffffffff0000000000000000000000000000000000000000000000000000ffffffffffff",
          "blockHash": "0x951824d1368fe32566ae5944e6356ab81fd3bea6a3d3d67bfa73ec09600b527e",
          "blockNumber": "0x1e383",
          "transactionHash": "0x84b5167f15d6cf64366a75f7f3bc0add87061cd0ed6adbae31bc02fa9546a20e",
          "transactionIndex": "0x3",
          "logIndex": "0x2",
          "removed": false
        }
      ],
      "logsBloom": "0x00010000000000004001000000000000000000000000000000000000000000000000000000000000000000000000002000000000000000000000000000081000000000000000000000000000000000100000000000000000000000000000000000000000000800000000000000000000000000000000000000000000000000000020000000000000000000000000000000000000000000000000000000000000000000000000000000000000000000000000000000000000000000080000000000000000000000002000000000000000000010000000000040000000000000000000000000000000000000000000000000000000000000000000000002000400",
      "type": "0x2",
      "transactionHash": "0x84b5167f15d6cf64366a75f7f3bc0add87061cd0ed6adbae31bc02fa9546a20e",
      "transactionIndex": "0x3",
      "blockHash": "0x951824d1368fe32566ae5944e6356ab81fd3bea6a3d3d67bfa73ec09600b527e",
      "blockNumber": "0x1e383",
      "gasUsed": "0x77fe",
      "effectiveGasPrice": "0x989680",
      "from": "0xaab6f44b46f19d061582727b66c9a0c84c97a2f6",
      "to": "0x000000000022d473030f116ddee9f6b43ac78ba3",
      "contractAddress": null,
      "gasUsedForL1": "0x0",
      "l1BlockNumber": "0x8a5e1f"
    }
  ],
  "libraries": [],
  "pending": [],
  "returns": {},
  "timestamp": 1756214304,
  "chain": 4661,
  "commit": "d555b5e"
}