{
  "transactions": [
    {
      "hash": "0x5872aa8ee96588bad839443279d4e94f913a98a793b967a2a53e8a1c2a0a0fbb",
      "transactionType": "CALL",
      "contractName": null,
      "contractAddress": "0x000000000022d473030f116ddee9f6b43ac78ba3",
      "function": "approve(address,address,uint160,uint48)",
      "arguments": [
        "0x14807B50354328E7cC652313854277868a189f15",
        "0xC632F273A43F013d194f45fAeD8677FA8594d1C5",
        "1461501637330902918203684832716283019655932542975",
        "281474976710655"
      ],
      "transaction": {
        "from": "0xaab6f44b46f19d061582727b66c9a0c84c97a2f6",
        "to": "0x000000000022d473030f116ddee9f6b43ac78ba3",
        "gas": "0x1112d",
        "value": "0x0",
        "input": "0x87517c4500000000000000000000000014807b50354328e7cc652313854277868a189f15000000000000000000000000c632f273a43f013d194f45faed8677fa8594d1c5000000000000000000000000ffffffffffffffffffffffffffffffffffffffff0000000000000000000000000000000000000000000000000000ffffffffffff",
        "nonce": "0xa5",
        "chainId": "0x1235"
      },
      "additionalContracts": [],
      "isFixedGasLimit": false
    },
    {
      "hash": "0x83bc9b0a501b6c02fa3d853baf4dc0c32b937d4fc143438be099389975146ad2",
      "transactionType": "CALL",
      "contractName": null,
      "contractAddress": "0x000000000022d473030f116ddee9f6b43ac78ba3",
      "function": "approve(address,address,uint160,uint48)",
      "arguments": [
        "0xe00A4b02B812DFEcB61b4acC6C8808f5a34a4dCA",
        "0xC632F273A43F013d194f45fAeD8677FA8594d1C5",
        "1461501637330902918203684832716283019655932542975",
        "281474976710655"
      ],
      "transaction": {
        "from": "0xaab6f44b46f19d061582727b66c9a0c84c97a2f6",
        "to": "0x000000000022d473030f116ddee9f6b43ac78ba3",
        "gas": "0x1112d",
        "value": "0x0",
        "input": "0x87517c45000000000000000000000000e00a4b02b812dfecb61b4acc6c8808f5a34a4dca000000000000000000000000c632f273a43f013d194f45faed8677fa8594d1c5000000000000000000000000ffffffffffffffffffffffffffffffffffffffff0000000000000000000000000000000000000000000000000000ffffffffffff",
        "nonce": "0xa6",
        "chainId": "0x1235"
      },
      "additionalContracts": [],
      "isFixedGasLimit": false
    },
    {
      "hash": "0x2c0de28cab0e8e1ab5dd7fed9b33dfac1c0aa93b086e3265e526ffa9d83fdaaa",
      "transactionType": "CALL",
      "contractName": null,
      "contractAddress": "0x586bdfe433ed38912ac96b2608d8181cd3bb0dec",
      "function": "approveAll(address,address)",
      "arguments": [
        "0x14807B50354328E7cC652313854277868a189f15",
        "0xFAaeafEa66C04A3D78a1a5f6831f2131FA0b09F3"
      ],
      "transaction": {
        "from": "0xaab6f44b46f19d061582727b66c9a0c84c97a2f6",
        "to": "0x586bdfe433ed38912ac96b2608d8181cd3bb0dec",
        "gas": "0x10a45",
        "value": "0x0",
        "input": "0x0a44327600000000000000000000000014807b50354328e7cc652313854277868a189f15000000000000000000000000faaeafea66c04a3d78a1a5f6831f2131fa0b09f3",
        "nonce": "0xa7",
        "chainId": "0x1235"
      },
      "additionalContracts": [],
      "isFixedGasLimit": false
    },
    {
      "hash": "0x21018ae300e32bc45f9ad54b856a3c8ab077e1e8822b667a6fc0b5187c8e2748",
      "transactionType": "CALL",
      "contractName": null,
      "contractAddress": "0x586bdfe433ed38912ac96b2608d8181cd3bb0dec",
      "function": "approveAll(address,address)",
      "arguments": [
        "0xe00A4b02B812DFEcB61b4acC6C8808f5a34a4dCA",
        "0xE97A217235a27E2aF949E6f3d40aC9af22D2F8F3"
      ],
      "transaction": {
        "from": "0xaab6f44b46f19d061582727b66c9a0c84c97a2f6",
        "to": "0x586bdfe433ed38912ac96b2608d8181cd3bb0dec",
        "gas": "0x10a45",
        "value": "0x0",
        "input": "0x0a443276000000000000000000000000e00a4b02b812dfecb61b4acc6c8808f5a34a4dca000000000000000000000000e97a217235a27e2af949e6f3d40ac9af22d2f8f3",
        "nonce": "0xa8",
        "chainId": "0x1235"
      },
      "additionalContracts": [],
      "isFixedGasLimit": false
    }
  ],
  "receipts": [
    {
      "status": "0x1",
      "cumulativeGasUsed": "0xbaca",
      "logs": [
        {
          "address": "0x000000000022d473030f116ddee9f6b43ac78ba3",
          "topics": [
            "0xda9fa7c1b00402c17d0161b249b1ab8bbec047c5a52207b9c112deffd817036b",
            "0x000000000000000000000000aab6f44b46f19d061582727b66c9a0c84c97a2f6",
            "0x00000000000000000000000014807b50354328e7cc652313854277868a189f15",
            "0x000000000000000000000000c632f273a43f013d194f45faed8677fa8594d1c5"
          ],
          "data": "0x000000000000000000000000ffffffffffffffffffffffffffffffffffffffff0000000000000000000000000000000000000000000000000000ffffffffffff",
          "blockHash": "0x2cb86bc4fe7a5a6ed906de2928edb1db02f05b0a85e762c1334e0779f4dbcc93",
          "blockNumber": "0x1e443",
          "transactionHash": "0x5872aa8ee96588bad839443279d4e94f913a98a793b967a2a53e8a1c2a0a0fbb",
          "transactionIndex": "0x1",
          "logIndex": "0x0",
          "removed": false
        }
      ],
      "logsBloom": "0x00010000000000000000000000000000000000000400000000000000000000000000000000000000000000000100002000000000000000000000000000080000000000000000000000100000000000000000000000000000000000000000000000000000000000000000000000000000000000000080000000000000000000000020000000000000000000000000000000020000000000000000000000000000000000000000040000000000000000000000000000000000000000080000000000000000000000000000000000000000000010000000000040000000000000000000000000000000000000000000000000000000000000000000000002000400",
      "type": "0x2",
      "transactionHash": "0x5872aa8ee96588bad839443279d4e94f913a98a793b967a2a53e8a1c2a0a0fbb",
      "transactionIndex": "0x1",
      "blockHash": "0x2cb86bc4fe7a5a6ed906de2928edb1db02f05b0a85e762c1334e0779f4dbcc93",
      "blockNumber": "0x1e443",
      "gasUsed": "0xbaca",
      "effectiveGasPrice": "0x989680",
      "from": "0xaab6f44b46f19d061582727b66c9a0c84c97a2f6",
      "to": "0x000000000022d473030f116ddee9f6b43ac78ba3",
      "contractAddress": null,
      "gasUsedForL1": "0x0",
      "l1BlockNumber": "0x8b797c"
    },
    {
      "status": "0x1",
      "cumulativeGasUsed": "0xbaca",
      "logs": [
        {
          "address": "0x000000000022d473030f116ddee9f6b43ac78ba3",
          "topics": [
            "0xda9fa7c1b00402c17d0161b249b1ab8bbec047c5a52207b9c112deffd817036b",
            "0x000000000000000000000000aab6f44b46f19d061582727b66c9a0c84c97a2f6",
            "0x000000000000000000000000e00a4b02b812dfecb61b4acc6c8808f5a34a4dca",
            "0x000000000000000000000000c632f273a43f013d194f45faed8677fa8594d1c5"
          ],
          "data": "0x000000000000000000000000ffffffffffffffffffffffffffffffffffffffff0000000000000000000000000000000000000000000000000000ffffffffffff",
          "blockHash": "0xa8fa4dedde1d336f15d8f26f35b1b0f67d018945bae0cf7cd8b5dc60ccb84365",
          "blockNumber": "0x1e444",
          "transactionHash": "0x83bc9b0a501b6c02fa3d853baf4dc0c32b937d4fc143438be099389975146ad2",
          "transactionIndex": "0x1",
          "logIndex": "0x0",
          "removed": false
        }
      ],
      "logsBloom": "0x00010000000000004001000000000000000000000400000000000000000000000000000000000000000000000000002000000000000000000000000000080000000000000000000000100000000000000000000000000000000000000000000000000000000000000000000000000000000000000000000000000000000000000020000000000000000000000000000000000000000000000000000000000000000000000000040000000000000000000000000000000000000000080000000000000000000000002000000000000000000010000000000040000000000000000000000000000000000000000000000000000000000000000000000002000400",
      "type": "0x2",
      "transactionHash": "0x83bc9b0a501b6c02fa3d853baf4dc0c32b937d4fc143438be099389975146ad2",
      "transactionIndex": "0x1",
      "blockHash": "0xa8fa4dedde1d336f15d8f26f35b1b0f67d018945bae0cf7cd8b5dc60ccb84365",
      "blockNumber": "0x1e444",
      "gasUsed": "0xbaca",
      "effectiveGasPrice": "0x989680",
      "from": "0xaab6f44b46f19d061582727b66c9a0c84c97a2f6",
      "to": "0x000000000022d473030f116ddee9f6b43ac78ba3",
      "contractAddress": null,
      "gasUsedForL1": "0x0",
      "l1BlockNumber": "0x8b797c"
    },
    {
      "status": "0x1",
      "cumulativeGasUsed": "0x17b91",
      "logs": [
        {
          "address": "0x14807b50354328e7cc652313854277868a189f15",
          "topics": [
            "0x8c5be1e5ebec7d5bd14f71427d1e84f3dd0314c0f7b2291e5b200ac8c7c3b925",
            "0x000000000000000000000000586bdfe433ed38912ac96b2608d8181cd3bb0dec",
            "0x000000000000000000000000faaeafea66c04a3d78a1a5f6831f2131fa0b09f3"
          ],
          "data": "0xffffffffffffffffffffffffffffffffffffffffffffffffffffffffffffffff",
          "blockHash": "0xa8fa4dedde1d336f15d8f26f35b1b0f67d018945bae0cf7cd8b5dc60ccb84365",
          "blockNumber": "0x1e444",
          "transactionHash": "0x2c0de28cab0e8e1ab5dd7fed9b33dfac1c0aa93b086e3265e526ffa9d83fdaaa",
          "transactionIndex": "0x2",
          "logIndex": "0x1",
          "removed": false
        }
      ],
      "logsBloom": "0x00000400000000000000000000000000000000100000000040000040000000000000000000000000040000000000000000000000000000000000000000200000000000000000000000000000000000000000000000000000000000000010000000000000200000000000000000000000000000000000000000000000000000200000000000000000000000000000000000000000000000000000000000000000020000000000000000000000000000000000000000000000000010000000000000000000000000000000000000000000000000000000000000000000000000000010000000000000000000000000000000000000000000000000000000000000",
      "type": "0x2",
      "transactionHash": "0x2c0de28cab0e8e1ab5dd7fed9b33dfac1c0aa93b086e3265e526ffa9d83fdaaa",
      "transactionIndex": "0x2",
      "blockHash": "0xa8fa4dedde1d336f15d8f26f35b1b0f67d018945bae0cf7cd8b5dc60ccb84365",
      "blockNumber": "0x1e444",
      "gasUsed": "0xc0c7",
      "effectiveGasPrice": "0x989680",
      "from": "0xaab6f44b46f19d061582727b66c9a0c84c97a2f6",
      "to": "0x586bdfe433ed38912ac96b2608d8181cd3bb0dec",
      "contractAddress": null,
      "gasUsedForL1": "0x0",
      "l1BlockNumber": "0x8b797c"
    },
    {
      "status": "0x1",
      "cumulativeGasUsed": "0x23c58",
      "logs": [
        {
          "address": "0xe00a4b02b812dfecb61b4acc6c8808f5a34a4dca",
          "topics": [
            "0x8c5be1e5ebec7d5bd14f71427d1e84f3dd0314c0f7b2291e5b200ac8c7c3b925",
            "0x000000000000000000000000586bdfe433ed38912ac96b2608d8181cd3bb0dec",
            "0x000000000000000000000000e97a217235a27e2af949e6f3d40ac9af22d2f8f3"
          ],
          "data": "0xffffffffffffffffffffffffffffffffffffffffffffffffffffffffffffffff",
          "blockHash": "0xa8fa4dedde1d336f15d8f26f35b1b0f67d018945bae0cf7cd8b5dc60ccb84365",
          "blockNumber": "0x1e444",
          "transactionHash": "0x21018ae300e32bc45f9ad54b856a3c8ab077e1e8822b667a6fc0b5187c8e2748",
          "transactionIndex": "0x3",
          "logIndex": "0x2",
          "removed": false
        }
      ],
      "logsBloom": "0x00000000000000000000000000000000000000000000000040000000000000000000000000000000040000000001000000000000000000000000000000200000000000000000000000000000000000000000000000000000000000000010000000000000200000000000000000000000000000000000000000000000000000000000000000000000000000000002000000000000000000000000000000000000020000000000000000000000000000000000000000000000000000000000000002000000000000000000000000000000000000000000000000000400000000000010000000000000000000000000000000000000000000000000004000000000",
      "type": "0x2",
      "transactionHash": "0x21018ae300e32bc45f9ad54b856a3c8ab077e1e8822b667a6fc0b5187c8e2748",
      "transactionIndex": "0x3",
      "blockHash": "0xa8fa4dedde1d336f15d8f26f35b1b0f67d018945bae0cf7cd8b5dc60ccb84365",
      "blockNumber": "0x1e444",
      "gasUsed": "0xc0c7",
      "effectiveGasPrice": "0x989680",
      "from": "0xaab6f44b46f19d061582727b66c9a0c84c97a2f6",
      "to": "0x586bdfe433ed38912ac96b2608d8181cd3bb0dec",
      "contractAddress": null,
      "gasUsedForL1": "0x0",
      "l1BlockNumber": "0x8b797c"
    }
  ],
  "libraries": [],
  "pending": [],
  "returns": {},
  "timestamp": 1757096810,
  "chain": 4661,
  "commit": "40e5ac7"
}