{
  "transactions": [
    {
      "hash": "0xef948af0525014998b9952ae9e6d98483ec8fa81378d527424eee5de76dd51fc",
      "transactionType": "CALL",
      "contractName": null,
      "contractAddress": "0x14807b50354328e7cc652313854277868a189f15",
      "function": "mint(address,uint256)",
      "arguments": [
        "0xAAb6f44B46f19d061582727B66C9a0c84C97a2F6",
        "100000000000000000000000"
      ],
      "transaction": {
        "from": "0xaab6f44b46f19d061582727b66c9a0c84c97a2f6",
        "to": "0x14807b50354328e7cc652313854277868a189f15",
        "gas": "0xc1f9",
        "value": "0x0",
        "input": "0x40c10f19000000000000000000000000aab6f44b46f19d061582727b66c9a0c84c97a2f600000000000000000000000000000000000000000000152d02c7e14af6800000",
        "nonce": "0x47",
        "chainId": "0x1235"
      },
      "additionalContracts": [],
      "isFixedGasLimit": false
    },
    {
      "hash": "0x5fd47e9b73f9e8c2bb2fee94c0f4d1cb5c4d2b77686fb6dd4aa099c4faa7efc2",
      "transactionType": "CALL",
      "contractName": null,
      "contractAddress": "0x14807b50354328e7cc652313854277868a189f15",
      "function": "approve(address,uint256)",
      "arguments": [
        "0x000000000022D473030F116dDEE9F6B43aC78BA3",
        "115792089237316195423570985008687907853269984665640564039457584007913129639935"
      ],
      "transaction": {
        "from": "0xaab6f44b46f19d061582727b66c9a0c84c97a2f6",
        "to": "0x14807b50354328e7cc652313854277868a189f15",
        "gas": "0x962f",
        "value": "0x0",
        "input": "0x095ea7b3000000000000000000000000000000000022d473030f116ddee9f6b43ac78ba3ffffffffffffffffffffffffffffffffffffffffffffffffffffffffffffffff",
        "nonce": "0x48",
        "chainId": "0x1235"
      },
      "additionalContracts": [],
      "isFixedGasLimit": false
    },
    {
      "hash": "0xb1eeb028c79fb5e366c03e52df022a18e3b46f866c6184ae9ff1ecffbde0ae75",
      "transactionType": "CALL",
      "contractName": null,
      "contractAddress": "0x000000000022d473030f116ddee9f6b43ac78ba3",
      "function": "approve(address,address,uint160,uint48)",
      "arguments": [
        "0x14807B50354328E7cC652313854277868a189f15",
        "0x63D91b09DD0e27C672228E52bCF4Ec08E694c0cB",
        "1461501637330902918203684832716283019655932542975",
        "281474976710655"
      ],
      "transaction": {
        "from": "0xaab6f44b46f19d061582727b66c9a0c84c97a2f6",
        "to": "0x000000000022d473030f116ddee9f6b43ac78ba3",
        "gas": "0x96a0",
        "value": "0x0",
        "input": "0x87517c4500000000000000000000000014807b50354328e7cc652313854277868a189f1500000000000000000000000063d91b09dd0e27c672228e52bcf4ec08e694c0cb000000000000000000000000ffffffffffffffffffffffffffffffffffffffff0000000000000000000000000000000000000000000000000000ffffffffffff",
        "nonce": "0x49",
        "chainId": "0x1235"
      },
      "additionalContracts": [],
      "isFixedGasLimit": false
    },
    {
      "hash": "0xbefd825d634581b8a95249bc0313bcb3958374393d11f5781de44bc7e3a3411d",
      "transactionType": "CALL",
      "contractName": null,
      "contractAddress": "0x000000000022d473030f116ddee9f6b43ac78ba3",
      "function": "approve(address,address,uint160,uint48)",
      "arguments": [
        "0x14807B50354328E7cC652313854277868a189f15",
        "0xD84241a2F1C35D3b3E484B9A91d5d85A0382bc4d",
        "1461501637330902918203684832716283019655932542975",
        "281474976710655"
      ],
      "transaction": {
        "from": "0xaab6f44b46f19d061582727b66c9a0c84c97a2f6",
        "to": "0x000000000022d473030f116ddee9f6b43ac78ba3",
        "gas": "0x96a0",
        "value": "0x0",
        "input": "0x87517c4500000000000000000000000014807b50354328e7cc652313854277868a189f15000000000000000000000000d84241a2f1c35d3b3e484b9a91d5d85a0382bc4d000000000000000000000000ffffffffffffffffffffffffffffffffffffffff0000000000000000000000000000000000000000000000000000ffffffffffff",
        "nonce": "0x4a",
        "chainId": "0x1235"
      },
      "additionalContracts": [],
      "isFixedGasLimit": false
    },
    {
      "hash": "0x96679f17f9051077d50578c12a3b0484703fab03366a393e0b068bb5a0495ae0",
      "transactionType": "CALL",
      "contractName": null,
      "contractAddress": "0xe00a4b02b812dfecb61b4acc6c8808f5a34a4dca",
      "function": "mint(address,uint256)",
      "arguments": [
        "0xAAb6f44B46f19d061582727B66C9a0c84C97a2F6",
        "100000000000000000000000"
      ],
      "transaction": {
        "from": "0xaab6f44b46f19d061582727b66c9a0c84c97a2f6",
        "to": "0xe00a4b02b812dfecb61b4acc6c8808f5a34a4dca",
        "gas": "0xc1f9",
        "value": "0x0",
        "input": "0x40c10f19000000000000000000000000aab6f44b46f19d061582727b66c9a0c84c97a2f600000000000000000000000000000000000000000000152d02c7e14af6800000",
        "nonce": "0x4b",
        "chainId": "0x1235"
      },
      "additionalContracts": [],
      "isFixedGasLimit": false
    },
    {
      "hash": "0x5cb618dbfe6ae9106b7f6b3d288a87f81e69ce54849653de7fb822dcbda5ec33",
      "transactionType": "CALL",
      "contractName": null,
      "contractAddress": "0xe00a4b02b812dfecb61b4acc6c8808f5a34a4dca",
      "function": "approve(address,uint256)",
      "arguments": [
        "0x000000000022D473030F116dDEE9F6B43aC78BA3",
        "115792089237316195423570985008687907853269984665640564039457584007913129639935"
      ],
      "transaction": {
        "from": "0xaab6f44b46f19d061582727b66c9a0c84c97a2f6",
        "to": "0xe00a4b02b812dfecb61b4acc6c8808f5a34a4dca",
        "gas": "0x962f",
        "value": "0x0",
        "input": "0x095ea7b3000000000000000000000000000000000022d473030f116ddee9f6b43ac78ba3ffffffffffffffffffffffffffffffffffffffffffffffffffffffffffffffff",
        "nonce": "0x4c",
        "chainId": "0x1235"
      },
      "additionalContracts": [],
      "isFixedGasLimit": false
    },
    {
      "hash": "0xb2bc3bb4d9c99aaae8f2251892bc409854dea749528b14aefdf30532e303a7cf",
      "transactionType": "CALL",
      "contractName": null,
      "contractAddress": "0x000000000022d473030f116ddee9f6b43ac78ba3",
      "function": "approve(address,address,uint160,uint48)",
      "arguments": [
        "0xe00A4b02B812DFEcB61b4acC6C8808f5a34a4dCA",
        "0x63D91b09DD0e27C672228E52bCF4Ec08E694c0cB",
        "1461501637330902918203684832716283019655932542975",
        "281474976710655"
      ],
      "transaction": {
        "from": "0xaab6f44b46f19d061582727b66c9a0c84c97a2f6",
        "to": "0x000000000022d473030f116ddee9f6b43ac78ba3",
        "gas": "0x96a0",
        "value": "0x0",
        "input": "0x87517c45000000000000000000000000e00a4b02b812dfecb61b4acc6c8808f5a34a4dca00000000000000000000000063d91b09dd0e27c672228e52bcf4ec08e694c0cb000000000000000000000000ffffffffffffffffffffffffffffffffffffffff0000000000000000000000000000000000000000000000000000ffffffffffff",
        "nonce": "0x4d",
        "chainId": "0x1235"
      },
      "additionalContracts": [],
      "isFixedGasLimit": false
    },
    {
      "hash": "0x733c8daaa6479680f03aa20a0d97a6724dd59a37aefb18431c18b136bc0f73c8",
      "transactionType": "CALL",
      "contractName": null,
      "contractAddress": "0x000000000022d473030f116ddee9f6b43ac78ba3",
      "function": "approve(address,address,uint160,uint48)",
      "arguments": [
        "0xe00A4b02B812DFEcB61b4acC6C8808f5a34a4dCA",
        "0xD84241a2F1C35D3b3E484B9A91d5d85A0382bc4d",
        "1461501637330902918203684832716283019655932542975",
        "281474976710655"
      ],
      "transaction": {
        "from": "0xaab6f44b46f19d061582727b66c9a0c84c97a2f6",
        "to": "0x000000000022d473030f116ddee9f6b43ac78ba3",
        "gas": "0x96a0",
        "value": "0x0",
        "input": "0x87517c45000000000000000000000000e00a4b02b812dfecb61b4acc6c8808f5a34a4dca000000000000000000000000d84241a2f1c35d3b3e484b9a91d5d85a0382bc4d000000000000000000000000ffffffffffffffffffffffffffffffffffffffff0000000000000000000000000000000000000000000000000000ffffffffffff",
        "nonce": "0x4e",
        "chainId": "0x1235"
      },
      "additionalContracts": [],
      "isFixedGasLimit": false
    }
  ],
  "receipts": [
    {
      "status": "0x1",
      "cumulativeGasUsed": "0x84a2",
      "logs": [
        {
          "address": "0x14807b50354328e7cc652313854277868a189f15",
          "topics": [
            "0xddf252ad1be2c89b69c2b068fc378daa952ba7f163c4a11628f55a4df523b3ef",
            "0x0000000000000000000000000000000000000000000000000000000000000000",
            "0x000000000000000000000000aab6f44b46f19d061582727b66c9a0c84c97a2f6"
          ],
          "data": "0x00000000000000000000000000000000000000000000152d02c7e14af6800000",
          "blockHash": "0xc9dba180b8a3e05eee37a7c17bd889263f25cf03f0031f8c35448c1d62a73ac4",
          "blockNumber": "0x1c8da",
          "transactionHash": "0xef948af0525014998b9952ae9e6d98483ec8fa81378d527424eee5de76dd51fc",
          "transactionIndex": "0x1",
          "logIndex": "0x0",
          "removed": false
        }
      ],
      "logsBloom": "0x00000400000000000000000000000000000000100000000000000000000000000000000000000000000000000000002000000000000000000000000000000000000000000000000000000008000000000000000000000000000000000000000000000000020000000000000000000800000000000000000000000010000000200000000000000000000000000000000000000000000000000000000000000000000000000000000000000000000000000000000000000000000000000000000000000002000000000000000000000000000010000000000000000000000020000000000000000000000000000000000000000000000000000000000002000000",
      "type": "0x2",
      "transactionHash": "0xef948af0525014998b9952ae9e6d98483ec8fa81378d527424eee5de76dd51fc",
      "transactionIndex": "0x1",
      "blockHash": "0xc9dba180b8a3e05eee37a7c17bd889263f25cf03f0031f8c35448c1d62a73ac4",
      "blockNumber": "0x1c8da",
      "gasUsed": "0x84a2",
      "effectiveGasPrice": "0x989680",
      "from": "0xaab6f44b46f19d061582727b66c9a0c84c97a2f6",
      "to": "0x14807b50354328e7cc652313854277868a189f15",
      "contractAddress": null,
      "gasUsedForL1": "0x0",
      "l1BlockNumber": "0x88e1e1"
    },
    {
      "status": "0x1",
      "cumulativeGasUsed": "0x66b1",
      "logs": [
        {
          "address": "0x14807b50354328e7cc652313854277868a189f15",
          "topics": [
            "0x8c5be1e5ebec7d5bd14f71427d1e84f3dd0314c0f7b2291e5b200ac8c7c3b925",
            "0x000000000000000000000000aab6f44b46f19d061582727b66c9a0c84c97a2f6",
            "0x000000000000000000000000000000000022d473030f116ddee9f6b43ac78ba3"
          ],
          "data": "0xffffffffffffffffffffffffffffffffffffffffffffffffffffffffffffffff",
          "blockHash": "0x191a2fed005bd7468c8ff4ca6fbdc4941d3c54bf074f9102b94897e3cef35259",
          "blockNumber": "0x1c8db",
          "transactionHash": "0x5fd47e9b73f9e8c2bb2fee94c0f4d1cb5c4d2b77686fb6dd4aa099c4faa7efc2",
          "transactionIndex": "0x1",
          "logIndex": "0x0",
          "removed": false
        }
      ],
      "logsBloom": "0x00000400000000000000000000000000000000100000000000000000000000000000000000000000000000000000002000000000800000000000000000200000000000000000000000004000000000000000000000000800000000000000000000000000000000000000000000000000000000000000000000000000000000200000000000000000000000000000000000000000000000000000000000000000020000000000000000000000000000000000000000000000000000000000000000000000000000000000000000000000000010000000000000000000000000000010000000000000000000000000000000000000000000000000000002000000",
      "type": "0x2",
      "transactionHash": "0x5fd47e9b73f9e8c2bb2fee94c0f4d1cb5c4d2b77686fb6dd4aa099c4faa7efc2",
      "transactionIndex": "0x1",
      "blockHash": "0x191a2fed005bd7468c8ff4ca6fbdc4941d3c54bf074f9102b94897e3cef35259",
      "blockNumber": "0x1c8db",
      "gasUsed": "0x66b1",
      "effectiveGasPrice": "0x989680",
      "from": "0xaab6f44b46f19d061582727b66c9a0c84c97a2f6",
      "to": "0x14807b50354328e7cc652313854277868a189f15",
      "contractAddress": null,
      "gasUsedForL1": "0x0",
      "l1BlockNumber": "0x88e1e1"
    },
    {
      "status": "0x1",
      "cumulativeGasUsed": "0x6d0e",
      "logs": [
        {
          "address": "0x000000000022d473030f116ddee9f6b43ac78ba3",
          "topics": [
            "0xda9fa7c1b00402c17d0161b249b1ab8bbec047c5a52207b9c112deffd817036b",
            "0x000000000000000000000000aab6f44b46f19d061582727b66c9a0c84c97a2f6",
            "0x00000000000000000000000014807b50354328e7cc652313854277868a189f15",
            "0x00000000000000000000000063d91b09dd0e27c672228e52bcf4ec08e694c0cb"
          ],
          "data": "0x000000000000000000000000ffffffffffffffffffffffffffffffffffffffff0000000000000000000000000000000000000000000000000000ffffffffffff",
          "blockHash": "0x2909b06f6a1fd70e9021b8517d6f8298ed96d272a7de02b7c4815acc4005de69",
          "blockNumber": "0x1c8dc",
          "transactionHash": "0xb1eeb028c79fb5e366c03e52df022a18e3b46f866c6184ae9ff1ecffbde0ae75",
          "transactionIndex": "0x1",
          "logIndex": "0x0",
          "removed": false
        }
      ],
      "logsBloom": "0x00010000000000000000000000000000000000000000000000000000000000000000000000000000000000000100002000000000000000000000000000080000000000000000000000000000000000000000000000000000000000000000000000000000000000000000000000000000000000000080000000000000000000000020000000000000000000000000000000020000000000000000000000000040000000000000000000000000000000000000000000000000000000080000000000000000000000000000000000000000000010000000000040002000000000000000000000000000000000000000000000000000000000000000000002040400",
      "type": "0x2",
      "transactionHash": "0xb1eeb028c79fb5e366c03e52df022a18e3b46f866c6184ae9ff1ecffbde0ae75",
      "transactionIndex": "0x1",
      "blockHash": "0x2909b06f6a1fd70e9021b8517d6f8298ed96d272a7de02b7c4815acc4005de69",
      "blockNumber": "0x1c8dc",
      "gasUsed": "0x6d0e",
      "effectiveGasPrice": "0x989680",
      "from": "0xaab6f44b46f19d061582727b66c9a0c84c97a2f6",
      "to": "0x000000000022d473030f116ddee9f6b43ac78ba3",
      "contractAddress": null,
      "gasUsedForL1": "0x0",
      "l1BlockNumber": "0x88e1e1"
    },
    {
      "status": "0x1",
      "cumulativeGasUsed": "0xda1c",
      "logs": [
        {
          "address": "0x000000000022d473030f116ddee9f6b43ac78ba3",
          "topics": [
            "0xda9fa7c1b00402c17d0161b249b1ab8bbec047c5a52207b9c112deffd817036b",
            "0x000000000000000000000000aab6f44b46f19d061582727b66c9a0c84c97a2f6",
            "0x00000000000000000000000014807b50354328e7cc652313854277868a189f15",
            "0x000000000000000000000000d84241a2f1c35d3b3e484b9a91d5d85a0382bc4d"
          ],
          "data": "0x000000000000000000000000ffffffffffffffffffffffffffffffffffffffff0000000000000000000000000000000000000000000000000000ffffffffffff",
          "blockHash": "0x2909b06f6a1fd70e9021b8517d6f8298ed96d272a7de02b7c4815acc4005de69",
          "blockNumber": "0x1c8dc",
          "transactionHash": "0xbefd825d634581b8a95249bc0313bcb3958374393d11f5781de44bc7e3a3411d",
          "transactionIndex": "0x2",
          "logIndex": "0x1",
          "removed": false
        }
      ],
      "logsBloom": "0x00010000000000000000000000000000000000000000000000000000000000000000000000000000000000000100002000000000000000000000000000081000000000000000000000000000000000100000000000000000000000000000000000000000000800000000000000000000000000000080000000000000000000000020000000000000000000000000000000020000000000000000000000000000000000000000000000000000000000000000000000000000000000080000000000000000000000000000000000000000000010000000000040000000000000000000000000000000000000000000000000000000000000000000000002000400",
      "type": "0x2",
      "transactionHash": "0xbefd825d634581b8a95249bc0313bcb3958374393d11f5781de44bc7e3a3411d",
      "transactionIndex": "0x2",
      "blockHash": "0x2909b06f6a1fd70e9021b8517d6f8298ed96d272a7de02b7c4815acc4005de69",
      "blockNumber": "0x1c8dc",
      "gasUsed": "0x6d0e",
      "effectiveGasPrice": "0x989680",
      "from": "0xaab6f44b46f19d061582727b66c9a0c84c97a2f6",
      "to": "0x000000000022d473030f116ddee9f6b43ac78ba3",
      "contractAddress": null,
      "gasUsedForL1": "0x0",
      "l1BlockNumber": "0x88e1e1"
    },
    {
      "status": "0x1",
      "cumulativeGasUsed": "0x15ebe",
      "logs": [
        {
          "address": "0xe00a4b02b812dfecb61b4acc6c8808f5a34a4dca",
          "topics": [
            "0xddf252ad1be2c89b69c2b068fc378daa952ba7f163c4a11628f55a4df523b3ef",
            "0x0000000000000000000000000000000000000000000000000000000000000000",
            "0x000000000000000000000000aab6f44b46f19d061582727b66c9a0c84c97a2f6"
          ],
          "data": "0x00000000000000000000000000000000000000000000152d02c7e14af6800000",
          "blockHash": "0x2909b06f6a1fd70e9021b8517d6f8298ed96d272a7de02b7c4815acc4005de69",
          "blockNumber": "0x1c8dc",
          "transactionHash": "0x96679f17f9051077d50578c12a3b0484703fab03366a393e0b068bb5a0495ae0",
          "transactionIndex": "0x3",
          "logIndex": "0x2",
          "removed": false
        }
      ],
      "logsBloom": "0x00000000000000000000000000000000000000000000000000000000000000000000000000000000000000000000002000000000000000000000000000000000000000000000000000000008000000000000000000000000000000000000000000000000020000000000000000000800000000000000000000000010000000000000000000000000000000000002000000000000000000000000000000000000000000000000000000000000000000000000000000000000000000000000000002000002000000000000000000000000000010000000000000000000000020000000000000000000000000000000000000000000000000000000004002000000",
      "type": "0x2",
      "transactionHash": "0x96679f17f9051077d50578c12a3b0484703fab03366a393e0b068bb5a0495ae0",
      "transactionIndex": "0x3",
      "blockHash": "0x2909b06f6a1fd70e9021b8517d6f8298ed96d272a7de02b7c4815acc4005de69",
      "blockNumber": "0x1c8dc",
      "gasUsed": "0x84a2",
      "effectiveGasPrice": "0x989680",
      "from": "0xaab6f44b46f19d061582727b66c9a0c84c97a2f6",
      "to": "0xe00a4b02b812dfecb61b4acc6c8808f5a34a4dca",
      "contractAddress": null,
      "gasUsedForL1": "0x0",
      "l1BlockNumber": "0x88e1e1"
    },
    {
      "status": "0x1",
      "cumulativeGasUsed": "0x1c56f",
      "logs": [
        {
          "address": "0xe00a4b02b812dfecb61b4acc6c8808f5a34a4dca",
          "topics": [
            "0x8c5be1e5ebec7d5bd14f71427d1e84f3dd0314c0f7b2291e5b200ac8c7c3b925",
            "0x000000000000000000000000aab6f44b46f19d061582727b66c9a0c84c97a2f6",
            "0x000000000000000000000000000000000022d473030f116ddee9f6b43ac78ba3"
          ],
          "data": "0xffffffffffffffffffffffffffffffffffffffffffffffffffffffffffffffff",
          "blockHash": "0x2909b06f6a1fd70e9021b8517d6f8298ed96d272a7de02b7c4815acc4005de69",
          "blockNumber": "0x1c8dc",
          "transactionHash": "0x5cb618dbfe6ae9106b7f6b3d288a87f81e69ce54849653de7fb822dcbda5ec33",
          "transactionIndex": "0x4",
          "logIndex": "0x3",
          "removed": false
        }
      ],
      "logsBloom": "0x00000000000000000000000000000000000000000000000000000000000000000000000000000000000000000000002000000000800000000000000000200000000000000000000000004000000000000000000000000800000000000000000000000000000000000000000000000000000000000000000000000000000000000000000000000000000000000002000000000000000000000000000000000000020000000000000000000000000000000000000000000000000000000000000002000000000000000000000000000000000010000000000000000000000000000010000000000000000000000000000000000000000000000000004002000000",
      "type": "0x2",
      "transactionHash": "0x5cb618dbfe6ae9106b7f6b3d288a87f81e69ce54849653de7fb822dcbda5ec33",
      "transactionIndex": "0x4",
      "blockHash": "0x2909b06f6a1fd70e9021b8517d6f8298ed96d272a7de02b7c4815acc4005de69",
      "blockNumber": "0x1c8dc",
      "gasUsed": "0x66b1",
      "effectiveGasPrice": "0x989680",
      "from": "0xaab6f44b46f19d061582727b66c9a0c84c97a2f6",
      "to": "0xe00a4b02b812dfecb61b4acc6c8808f5a34a4dca",
      "contractAddress": null,
      "gasUsedForL1": "0x0",
      "l1BlockNumber": "0x88e1e1"
    },
    {
      "status": "0x1",
      "cumulativeGasUsed": "0x2327d",
      "logs": [
        {
          "address": "0x000000000022d473030f116ddee9f6b43ac78ba3",
          "topics": [
            "0xda9fa7c1b00402c17d0161b249b1ab8bbec047c5a52207b9c112deffd817036b",
            "0x000000000000000000000000aab6f44b46f19d061582727b66c9a0c84c97a2f6",
            "0x000000000000000000000000e00a4b02b812dfecb61b4acc6c8808f5a34a4dca",
            "0x00000000000000000000000063d91b09dd0e27c672228e52bcf4ec08e694c0cb"
          ],
          "data": "0x000000000000000000000000ffffffffffffffffffffffffffffffffffffffff0000000000000000000000000000000000000000000000000000ffffffffffff",
          "blockHash": "0x2909b06f6a1fd70e9021b8517d6f8298ed96d272a7de02b7c4815acc4005de69",
          "blockNumber": "0x1c8dc",
          "transactionHash": "0xb2bc3bb4d9c99aaae8f2251892bc409854dea749528b14aefdf30532e303a7cf",
          "transactionIndex": "0x5",
          "logIndex": "0x4",
          "removed": false
        }
      ],
      "logsBloom": "0x00010000000000004001000000000000000000000000000000000000000000000000000000000000000000000000002000000000000000000000000000080000000000000000000000000000000000000000000000000000000000000000000000000000000000000000000000000000000000000000000000000000000000000020000000000000000000000000000000000000000000000000000000000040000000000000000000000000000000000000000000000000000000080000000000000000000000002000000000000000000010000000000040002000000000000000000000000000000000000000000000000000000000000000000002040400",
      "type": "0x2",
      "transactionHash": "0xb2bc3bb4d9c99aaae8f2251892bc409854dea749528b14aefdf30532e303a7cf",
      "transactionIndex": "0x5",
      "blockHash": "0x2909b06f6a1fd70e9021b8517d6f8298ed96d272a7de02b7c4815acc4005de69",
      "blockNumber": "0x1c8dc",
      "gasUsed": "0x6d0e",
      "effectiveGasPrice": "0x989680",
      "from": "0xaab6f44b46f19d061582727b66c9a0c84c97a2f6",
      "to": "0x000000000022d473030f116ddee9f6b43ac78ba3",
      "contractAddress": null,
      "gasUsedForL1": "0x0",
      "l1BlockNumber": "0x88e1e1"
    },
    {
      "status": "0x1",
      "cumulativeGasUsed": "0x29f8b",
      "logs": [
        {
          "address": "0x000000000022d473030f116ddee9f6b43ac78ba3",
          "topics": [
            "0xda9fa7c1b00402c17d0161b249b1ab8bbec047c5a52207b9c112deffd817036b",
            "0x000000000000000000000000aab6f44b46f19d061582727b66c9a0c84c97a2f6",
            "0x000000000000000000000000e00a4b02b812dfecb61b4acc6c8808f5a34a4dca",
            "0x000000000000000000000000d84241a2f1c35d3b3e484b9a91d5d85a0382bc4d"
          ],
          "data": "0x000000000000000000000000ffffffffffffffffffffffffffffffffffffffff0000000000000000000000000000000000000000000000000000ffffffffffff",
          "blockHash": "0x2909b06f6a1fd70e9021b8517d6f8298ed96d272a7de02b7c4815acc4005de69",
          "blockNumber": "0x1c8dc",
          "transactionHash": "0x733c8daaa6479680f03aa20a0d97a6724dd59a37aefb18431c18b136bc0f73c8",
          "transactionIndex": "0x6",
          "logIndex": "0x5",
          "removed": false
        }
      ],
      "logsBloom": "0x00010000000000004001000000000000000000000000000000000000000000000000000000000000000000000000002000000000000000000000000000081000000000000000000000000000000000100000000000000000000000000000000000000000000800000000000000000000000000000000000000000000000000000020000000000000000000000000000000000000000000000000000000000000000000000000000000000000000000000000000000000000000000080000000000000000000000002000000000000000000010000000000040000000000000000000000000000000000000000000000000000000000000000000000002000400",
      "type": "0x2",
      "transactionHash": "0x733c8daaa6479680f03aa20a0d97a6724dd59a37aefb18431c18b136bc0f73c8",
      "transactionIndex": "0x6",
      "blockHash": "0x2909b06f6a1fd70e9021b8517d6f8298ed96d272a7de02b7c4815acc4005de69",
      "blockNumber": "0x1c8dc",
      "gasUsed": "0x6d0e",
      "effectiveGasPrice": "0x989680",
      "from": "0xaab6f44b46f19d061582727b66c9a0c84c97a2f6",
      "to": "0x000000000022d473030f116ddee9f6b43ac78ba3",
      "contractAddress": null,
      "gasUsedForL1": "0x0",
      "l1BlockNumber": "0x88e1e1"
    }
  ],
  "libraries": [],
  "pending": [],
  "returns": {},
  "timestamp": 1755032048,
  "chain": 4661,
  "commit": "34f51b9"
}