{
  "transactions": [
    {
      "hash": "0xc41cc68f4e8fa4b4674e9a712bf65483d8cc264553004ed62288f48fbb8d0536",
      "transactionType": "CALL",
      "contractName": null,
      "contractAddress": "0x63d91b09dd0e27c672228e52bcf4ec08e694c0cb",
      "function": "multicall(bytes[])",
      "arguments": [
        "[0xf702040500000000000000000000000014807b50354328e7cc652313854277868a189f15000000000000000000000000e00a4b02b812dfecb61b4acc6c8808f5a34a4dca0000000000000000000000000000000000000000000000000000000000000bb8000000000000000000000000000000000000000000000000000000000000003c00000000000000000000000000000000000000000000000000000000000000000000000000000000000000000000000000000001000000000000000000000000, 0xdd46508f000000000000000000000000000000000000000000000000000000000000004000000000000000000000000000000000000000000000000000000000689e5d700000000000000000000000000000000000000000000000000000000000000300000000000000000000000000000000000000000000000000000000000000004000000000000000000000000000000000000000000000000000000000000000800000000000000000000000000000000000000000000000000000000000000002020d00000000000000000000000000000000000000000000000000000000000000000000000000000000000000000000000000000000000000000000000000020000000000000000000000000000000000000000000000000000000000000040000000000000000000000000000000000000000000000000000000000000020000000000000000000000000000000000000000000000000000000000000001a000000000000000000000000014807b50354328e7cc652313854277868a189f15000000000000000000000000e00a4b02b812dfecb61b4acc6c8808f5a34a4dca0000000000000000000000000000000000000000000000000000000000000bb8000000000000000000000000000000000000000000000000000000000000003c0000000000000000000000000000000000000000000000000000000000000000ffffffffffffffffffffffffffffffffffffffffffffffffffffffffffffe50c0000000000000000000000000000000000000000000000000000000000001af4000000000000000000000000000000000000000000000001dba54259a921806f0000000000000000000000000000000000000000000000008ac7230489e800000000000000000000000000000000000000000000000000008ac7230489e80000000000000000000000000000aab6f44b46f19d061582727b66c9a0c84c97a2f600000000000000000000000000000000000000000000000000000000000001800000000000000000000000000000000000000000000000000000000000000000000000000000000000000000000000000000000000000000000000000000004000000000000000000000000014807b50354328e7cc652313854277868a189f15000000000000000000000000e00a4b02b812dfecb61b4acc6c8808f5a34a4dca]"
      ],
      "transaction": {
        "from": "0xaab6f44b46f19d061582727b66c9a0c84c97a2f6",
        "to": "0x63d91b09dd0e27c672228e52bcf4ec08e694c0cb",
        "gas": "0x9a81f",
        "value": "0x0",
        "input": "0xac9650d8000000000000000000000000000000000000000000000000000000000000002000000000000000000000000000000000000000000000000000000000000000020000000000000000000000000000000000000000000000000000000000000040000000000000000000000000000000000000000000000000000000000000014000000000000000000000000000000000000000000000000000000000000000c4f702040500000000000000000000000014807b50354328e7cc652313854277868a189f15000000000000000000000000e00a4b02b812dfecb61b4acc6c8808f5a34a4dca0000000000000000000000000000000000000000000000000000000000000bb8000000000000000000000000000000000000000000000000000000000000003c00000000000000000000000000000000000000000000000000000000000000000000000000000000000000000000000000000001000000000000000000000000000000000000000000000000000000000000000000000000000000000000000000000000000000000000000000000000000000000000000000000364dd46508f000000000000000000000000000000000000000000000000000000000000004000000000000000000000000000000000000000000000000000000000689e5d700000000000000000000000000000000000000000000000000000000000000300000000000000000000000000000000000000000000000000000000000000004000000000000000000000000000000000000000000000000000000000000000800000000000000000000000000000000000000000000000000000000000000002020d00000000000000000000000000000000000000000000000000000000000000000000000000000000000000000000000000000000000000000000000000020000000000000000000000000000000000000000000000000000000000000040000000000000000000000000000000000000000000000000000000000000020000000000000000000000000000000000000000000000000000000000000001a000000000000000000000000014807b50354328e7cc652313854277868a189f15000000000000000000000000e00a4b02b812dfecb61b4acc6c8808f5a34a4dca0000000000000000000000000000000000000000000000000000000000000bb8000000000000000000000000000000000000000000000000000000000000003c0000000000000000000000000000000000000000000000000000000000000000ffffffffffffffffffffffffffffffffffffffffffffffffffffffffffffe50c0000000000000000000000000000000000000000000000000000000000001af4000000000000000000000000000000000000000000000001dba54259a921806f0000000000000000000000000000000000000000000000008ac7230489e800000000000000000000000000000000000000000000000000008ac7230489e80000000000000000000000000000aab6f44b46f19d061582727b66c9a0c84c97a2f600000000000000000000000000000000000000000000000000000000000001800000000000000000000000000000000000000000000000000000000000000000000000000000000000000000000000000000000000000000000000000000004000000000000000000000000014807b50354328e7cc652313854277868a189f15000000000000000000000000e00a4b02b812dfecb61b4acc6c8808f5a34a4dca00000000000000000000000000000000000000000000000000000000",
        "nonce": "0x5c",
        "chainId": "0x1235"
      },
      "additionalContracts": [],
      "isFixedGasLimit": false
    }
  ],
  "receipts": [],
  "libraries": [],
  "pending": [],
  "returns": {},
  "timestamp": 1755209340,
  "chain": 4661,
  "commit": "20fc410"
}