{
  "transactions": [
    {
      "hash": "0x9d8f37c8331cd3291bdc8bc1f871c9c35415bf1d7ed8ac566fafd56f1f8b9891",
      "transactionType": "CALL",
      "contractName": null,
      "contractAddress": "0x14807b50354328e7cc652313854277868a189f15",
      "function": "mint(address,uint256)",
      "arguments": [
        "0xAAb6f44B46f19d061582727B66C9a0c84C97a2F6",
        "100000000000000000000000"
      ],
      "transaction": {
        "from": "0xaab6f44b46f19d061582727b66c9a0c84c97a2f6",
        "to": "0x14807b50354328e7cc652313854277868a189f15",
        "gas": "0xc1f9",
        "value": "0x0",
        "input": "0x40c10f19000000000000000000000000aab6f44b46f19d061582727b66c9a0c84c97a2f600000000000000000000000000000000000000000000152d02c7e14af6800000",
        "nonce": "0x3e",
        "chainId": "0x1235"
      },
      "additionalContracts": [],
      "isFixedGasLimit": false
    },
    {
      "hash": "0x87e239512738668b9f4bc7e0a5f49ecab4550e7a993f2934a1fb93a6692e592a",
      "transactionType": "CALL",
      "contractName": null,
      "contractAddress": "0x14807b50354328e7cc652313854277868a189f15",
      "function": "approve(address,uint256)",
      "arguments": [
        "0x000000000022D473030F116dDEE9F6B43aC78BA3",
        "115792089237316195423570985008687907853269984665640564039457584007913129639935"
      ],
      "transaction": {
        "from": "0xaab6f44b46f19d061582727b66c9a0c84c97a2f6",
        "to": "0x14807b50354328e7cc652313854277868a189f15",
        "gas": "0x962f",
        "value": "0x0",
        "input": "0x095ea7b3000000000000000000000000000000000022d473030f116ddee9f6b43ac78ba3ffffffffffffffffffffffffffffffffffffffffffffffffffffffffffffffff",
        "nonce": "0x3f",
        "chainId": "0x1235"
      },
      "additionalContracts": [],
      "isFixedGasLimit": false
    },
    {
      "hash": "0x4598d04a3cf79bbddf8cc4c6e53b40d0e3338f7bd03f2904283385c4da077b7c",
      "transactionType": "CALL",
      "contractName": null,
      "contractAddress": "0x000000000022d473030f116ddee9f6b43ac78ba3",
      "function": "approve(address,address,uint160,uint48)",
      "arguments": [
        "0x14807B50354328E7cC652313854277868a189f15",
        "0x63D91b09DD0e27C672228E52bCF4Ec08E694c0cB",
        "1461501637330902918203684832716283019655932542975",
        "281474976710655"
      ],
      "transaction": {
        "from": "0xaab6f44b46f19d061582727b66c9a0c84c97a2f6",
        "to": "0x000000000022d473030f116ddee9f6b43ac78ba3",
        "gas": "0x96a0",
        "value": "0x0",
        "input": "0x87517c4500000000000000000000000014807b50354328e7cc652313854277868a189f1500000000000000000000000063d91b09dd0e27c672228e52bcf4ec08e694c0cb000000000000000000000000ffffffffffffffffffffffffffffffffffffffff0000000000000000000000000000000000000000000000000000ffffffffffff",
        "nonce": "0x40",
        "chainId": "0x1235"
      },
      "additionalContracts": [],
      "isFixedGasLimit": false
    },
    {
      "hash": "0x4ada4fe4c49719ff4eb9987ceb7d31df3cd683f8ad5a87cb58302da5ec5f7a7f",
      "transactionType": "CALL",
      "contractName": null,
      "contractAddress": "0x000000000022d473030f116ddee9f6b43ac78ba3",
      "function": "approve(address,address,uint160,uint48)",
      "arguments": [
        "0x14807B50354328E7cC652313854277868a189f15",
        "0xD84241a2F1C35D3b3E484B9A91d5d85A0382bc4d",
        "1461501637330902918203684832716283019655932542975",
        "281474976710655"
      ],
      "transaction": {
        "from": "0xaab6f44b46f19d061582727b66c9a0c84c97a2f6",
        "to": "0x000000000022d473030f116ddee9f6b43ac78ba3",
        "gas": "0x96a0",
        "value": "0x0",
        "input": "0x87517c4500000000000000000000000014807b50354328e7cc652313854277868a189f15000000000000000000000000d84241a2f1c35d3b3e484b9a91d5d85a0382bc4d000000000000000000000000ffffffffffffffffffffffffffffffffffffffff0000000000000000000000000000000000000000000000000000ffffffffffff",
        "nonce": "0x41",
        "chainId": "0x1235"
      },
      "additionalContracts": [],
      "isFixedGasLimit": false
    },
    {
      "hash": "0x75fea78b2dd6840ba9352e2ecf5dc96faa28b6dd536f56ff2ab33a835605e065",
      "transactionType": "CALL",
      "contractName": null,
      "contractAddress": "0xe00a4b02b812dfecb61b4acc6c8808f5a34a4dca",
      "function": "mint(address,uint256)",
      "arguments": [
        "0xAAb6f44B46f19d061582727B66C9a0c84C97a2F6",
        "100000000000000000000000"
      ],
      "transaction": {
        "from": "0xaab6f44b46f19d061582727b66c9a0c84c97a2f6",
        "to": "0xe00a4b02b812dfecb61b4acc6c8808f5a34a4dca",
        "gas": "0xc1f9",
        "value": "0x0",
        "input": "0x40c10f19000000000000000000000000aab6f44b46f19d061582727b66c9a0c84c97a2f600000000000000000000000000000000000000000000152d02c7e14af6800000",
        "nonce": "0x42",
        "chainId": "0x1235"
      },
      "additionalContracts": [],
      "isFixedGasLimit": false
    },
    {
      "hash": "0xec015148ae32984d5076c061a73f745ab757b19627c2d22bfcda56e4281f1173",
      "transactionType": "CALL",
      "contractName": null,
      "contractAddress": "0xe00a4b02b812dfecb61b4acc6c8808f5a34a4dca",
      "function": "approve(address,uint256)",
      "arguments": [
        "0x000000000022D473030F116dDEE9F6B43aC78BA3",
        "115792089237316195423570985008687907853269984665640564039457584007913129639935"
      ],
      "transaction": {
        "from": "0xaab6f44b46f19d061582727b66c9a0c84c97a2f6",
        "to": "0xe00a4b02b812dfecb61b4acc6c8808f5a34a4dca",
        "gas": "0x962f",
        "value": "0x0",
        "input": "0x095ea7b3000000000000000000000000000000000022d473030f116ddee9f6b43ac78ba3ffffffffffffffffffffffffffffffffffffffffffffffffffffffffffffffff",
        "nonce": "0x43",
        "chainId": "0x1235"
      },
      "additionalContracts": [],
      "isFixedGasLimit": false
    },
    {
      "hash": "0x1169fcbb71c00974e195f6d7e5a3b7b0f247065fd7de12a186f164c8ce6d11f7",
      "transactionType": "CALL",
      "contractName": null,
      "contractAddress": "0x000000000022d473030f116ddee9f6b43ac78ba3",
      "function": "approve(address,address,uint160,uint48)",
      "arguments": [
        "0xe00A4b02B812DFEcB61b4acC6C8808f5a34a4dCA",
        "0x63D91b09DD0e27C672228E52bCF4Ec08E694c0cB",
        "1461501637330902918203684832716283019655932542975",
        "281474976710655"
      ],
      "transaction": {
        "from": "0xaab6f44b46f19d061582727b66c9a0c84c97a2f6",
        "to": "0x000000000022d473030f116ddee9f6b43ac78ba3",
        "gas": "0x96a0",
        "value": "0x0",
        "input": "0x87517c45000000000000000000000000e00a4b02b812dfecb61b4acc6c8808f5a34a4dca00000000000000000000000063d91b09dd0e27c672228e52bcf4ec08e694c0cb000000000000000000000000ffffffffffffffffffffffffffffffffffffffff0000000000000000000000000000000000000000000000000000ffffffffffff",
        "nonce": "0x44",
        "chainId": "0x1235"
      },
      "additionalContracts": [],
      "isFixedGasLimit": false
    },
    {
      "hash": "0x3b28610b90ff65c13ca2b117cb6ccec68ab09dff066df348ce86e55db06d446a",
      "transactionType": "CALL",
      "contractName": null,
      "contractAddress": "0x000000000022d473030f116ddee9f6b43ac78ba3",
      "function": "approve(address,address,uint160,uint48)",
      "arguments": [
        "0xe00A4b02B812DFEcB61b4acC6C8808f5a34a4dCA",
        "0xD84241a2F1C35D3b3E484B9A91d5d85A0382bc4d",
        "1461501637330902918203684832716283019655932542975",
        "281474976710655"
      ],
      "transaction": {
        "from": "0xaab6f44b46f19d061582727b66c9a0c84c97a2f6",
        "to": "0x000000000022d473030f116ddee9f6b43ac78ba3",
        "gas": "0x96a0",
        "value": "0x0",
        "input": "0x87517c45000000000000000000000000e00a4b02b812dfecb61b4acc6c8808f5a34a4dca000000000000000000000000d84241a2f1c35d3b3e484b9a91d5d85a0382bc4d000000000000000000000000ffffffffffffffffffffffffffffffffffffffff0000000000000000000000000000000000000000000000000000ffffffffffff",
        "nonce": "0x45",
        "chainId": "0x1235"
      },
      "additionalContracts": [],
      "isFixedGasLimit": false
    },
    {
      "hash": "0x6c12e783c46731e3fd9aa84efd1467800f819c399ed62b9dfd3ad5e90b2e801d",
      "transactionType": "CALL",
      "contractName": null,
      "contractAddress": "0x63d91b09dd0e27c672228e52bcf4ec08e694c0cb",
      "function": "multicall(bytes[])",
      "arguments": [
        "[0xf702040500000000000000000000000014807b50354328e7cc652313854277868a189f15000000000000000000000000e00a4b02b812dfecb61b4acc6c8808f5a34a4dca0000000000000000000000000000000000000000000000000000000000000bb8000000000000000000000000000000000000000000000000000000000000003c00000000000000000000000000000000000000000000000000000000000000000000000000000000000000000000000000000001000000000000000000000000, 0xdd46508f000000000000000000000000000000000000000000000000000000000000004000000000000000000000000000000000000000000000000000000000689b92cc0000000000000000000000000000000000000000000000000000000000000300000000000000000000000000000000000000000000000000000000000000004000000000000000000000000000000000000000000000000000000000000000800000000000000000000000000000000000000000000000000000000000000002020d00000000000000000000000000000000000000000000000000000000000000000000000000000000000000000000000000000000000000000000000000020000000000000000000000000000000000000000000000000000000000000040000000000000000000000000000000000000000000000000000000000000020000000000000000000000000000000000000000000000000000000000000001a000000000000000000000000014807b50354328e7cc652313854277868a189f15000000000000000000000000e00a4b02b812dfecb61b4acc6c8808f5a34a4dca0000000000000000000000000000000000000000000000000000000000000bb8000000000000000000000000000000000000000000000000000000000000003c0000000000000000000000000000000000000000000000000000000000000000ffffffffffffffffffffffffffffffffffffffffffffffffffffffffffffe50c0000000000000000000000000000000000000000000000000000000000001af4000000000000000000000000000000000000000000000012947497809b4f045d000000000000000000000000000000000000000000000a968163f0a57b400000000000000000000000000000000000000000000000000a968163f0a57b400000000000000000000000000000aab6f44b46f19d061582727b66c9a0c84c97a2f600000000000000000000000000000000000000000000000000000000000001800000000000000000000000000000000000000000000000000000000000000000000000000000000000000000000000000000000000000000000000000000004000000000000000000000000014807b50354328e7cc652313854277868a189f15000000000000000000000000e00a4b02b812dfecb61b4acc6c8808f5a34a4dca]"
      ],
      "transaction": {
        "from": "0xaab6f44b46f19d061582727b66c9a0c84c97a2f6",
        "to": "0x63d91b09dd0e27c672228e52bcf4ec08e694c0cb",
        "gas": "0xa3b34",
        "value": "0x0",
        "input": "0xac9650d8000000000000000000000000000000000000000000000000000000000000002000000000000000000000000000000000000000000000000000000000000000020000000000000000000000000000000000000000000000000000000000000040000000000000000000000000000000000000000000000000000000000000014000000000000000000000000000000000000000000000000000000000000000c4f702040500000000000000000000000014807b50354328e7cc652313854277868a189f15000000000000000000000000e00a4b02b812dfecb61b4acc6c8808f5a34a4dca0000000000000000000000000000000000000000000000000000000000000bb8000000000000000000000000000000000000000000000000000000000000003c00000000000000000000000000000000000000000000000000000000000000000000000000000000000000000000000000000001000000000000000000000000000000000000000000000000000000000000000000000000000000000000000000000000000000000000000000000000000000000000000000000364dd46508f000000000000000000000000000000000000000000000000000000000000004000000000000000000000000000000000000000000000000000000000689b92cc0000000000000000000000000000000000000000000000000000000000000300000000000000000000000000000000000000000000000000000000000000004000000000000000000000000000000000000000000000000000000000000000800000000000000000000000000000000000000000000000000000000000000002020d00000000000000000000000000000000000000000000000000000000000000000000000000000000000000000000000000000000000000000000000000020000000000000000000000000000000000000000000000000000000000000040000000000000000000000000000000000000000000000000000000000000020000000000000000000000000000000000000000000000000000000000000001a000000000000000000000000014807b50354328e7cc652313854277868a189f15000000000000000000000000e00a4b02b812dfecb61b4acc6c8808f5a34a4dca0000000000000000000000000000000000000000000000000000000000000bb8000000000000000000000000000000000000000000000000000000000000003c0000000000000000000000000000000000000000000000000000000000000000ffffffffffffffffffffffffffffffffffffffffffffffffffffffffffffe50c0000000000000000000000000000000000000000000000000000000000001af4000000000000000000000000000000000000000000000012947497809b4f045d000000000000000000000000000000000000000000000a968163f0a57b400000000000000000000000000000000000000000000000000a968163f0a57b400000000000000000000000000000aab6f44b46f19d061582727b66c9a0c84c97a2f600000000000000000000000000000000000000000000000000000000000001800000000000000000000000000000000000000000000000000000000000000000000000000000000000000000000000000000000000000000000000000000004000000000000000000000000014807b50354328e7cc652313854277868a189f15000000000000000000000000e00a4b02b812dfecb61b4acc6c8808f5a34a4dca00000000000000000000000000000000000000000000000000000000",
        "nonce": "0x46",
        "chainId": "0x1235"
      },
      "additionalContracts": [],
      "isFixedGasLimit": false
    }
  ],
  "receipts": [
    {
      "status": "0x1",
      "cumulativeGasUsed": "0x84a2",
      "logs": [
        {
          "address": "0x14807b50354328e7cc652313854277868a189f15",
          "topics": [
            "0xddf252ad1be2c89b69c2b068fc378daa952ba7f163c4a11628f55a4df523b3ef",
            "0x0000000000000000000000000000000000000000000000000000000000000000",
            "0x000000000000000000000000aab6f44b46f19d061582727b66c9a0c84c97a2f6"
          ],
          "data": "0x00000000000000000000000000000000000000000000152d02c7e14af6800000",
          "blockHash": "0x8b1248d4c9d96a3e2c32010bb1e92b7f0aa67c84ba9bb3d31b3129cf4c3941a2",
          "blockNumber": "0x1c8d5",
          "transactionHash": "0x9d8f37c8331cd3291bdc8bc1f871c9c35415bf1d7ed8ac566fafd56f1f8b9891",
          "transactionIndex": "0x1",
          "logIndex": "0x0",
          "removed": false
        }
      ],
      "logsBloom": "0x00000400000000000000000000000000000000100000000000000000000000000000000000000000000000000000002000000000000000000000000000000000000000000000000000000008000000000000000000000000000000000000000000000000020000000000000000000800000000000000000000000010000000200000000000000000000000000000000000000000000000000000000000000000000000000000000000000000000000000000000000000000000000000000000000000002000000000000000000000000000010000000000000000000000020000000000000000000000000000000000000000000000000000000000002000000",
      "type": "0x2",
      "transactionHash": "0x9d8f37c8331cd3291bdc8bc1f871c9c35415bf1d7ed8ac566fafd56f1f8b9891",
      "transactionIndex": "0x1",
      "blockHash": "0x8b1248d4c9d96a3e2c32010bb1e92b7f0aa67c84ba9bb3d31b3129cf4c3941a2",
      "blockNumber": "0x1c8d5",
      "gasUsed": "0x84a2",
      "effectiveGasPrice": "0x989680",
      "from": "0xaab6f44b46f19d061582727b66c9a0c84c97a2f6",
      "to": "0x14807b50354328e7cc652313854277868a189f15",
      "contractAddress": null,
      "gasUsedForL1": "0x0",
      "l1BlockNumber": "0x88e1b2"
    },
    {
      "status": "0x1",
      "cumulativeGasUsed": "0x66b1",
      "logs": [
        {
          "address": "0x14807b50354328e7cc652313854277868a189f15",
          "topics": [
            "0x8c5be1e5ebec7d5bd14f71427d1e84f3dd0314c0f7b2291e5b200ac8c7c3b925",
            "0x000000000000000000000000aab6f44b46f19d061582727b66c9a0c84c97a2f6",
            "0x000000000000000000000000000000000022d473030f116ddee9f6b43ac78ba3"
          ],
          "data": "0xffffffffffffffffffffffffffffffffffffffffffffffffffffffffffffffff",
          "blockHash": "0xed80ef2856bf223836ba7db7fb016d1db99632127737409b5d09b43aff8dbfb0",
          "blockNumber": "0x1c8d6",
          "transactionHash": "0x87e239512738668b9f4bc7e0a5f49ecab4550e7a993f2934a1fb93a6692e592a",
          "transactionIndex": "0x1",
          "logIndex": "0x0",
          "removed": false
        }
      ],
      "logsBloom": "0x00000400000000000000000000000000000000100000000000000000000000000000000000000000000000000000002000000000800000000000000000200000000000000000000000004000000000000000000000000800000000000000000000000000000000000000000000000000000000000000000000000000000000200000000000000000000000000000000000000000000000000000000000000000020000000000000000000000000000000000000000000000000000000000000000000000000000000000000000000000000010000000000000000000000000000010000000000000000000000000000000000000000000000000000002000000",
      "type": "0x2",
      "transactionHash": "0x87e239512738668b9f4bc7e0a5f49ecab4550e7a993f2934a1fb93a6692e592a",
      "transactionIndex": "0x1",
      "blockHash": "0xed80ef2856bf223836ba7db7fb016d1db99632127737409b5d09b43aff8dbfb0",
      "blockNumber": "0x1c8d6",
      "gasUsed": "0x66b1",
      "effectiveGasPrice": "0x989680",
      "from": "0xaab6f44b46f19d061582727b66c9a0c84c97a2f6",
      "to": "0x14807b50354328e7cc652313854277868a189f15",
      "contractAddress": null,
      "gasUsedForL1": "0x0",
      "l1BlockNumber": "0x88e1b2"
    },
    {
      "status": "0x1",
      "cumulativeGasUsed": "0x6d0e",
      "logs": [
        {
          "address": "0x000000000022d473030f116ddee9f6b43ac78ba3",
          "topics": [
            "0xda9fa7c1b00402c17d0161b249b1ab8bbec047c5a52207b9c112deffd817036b",
            "0x000000000000000000000000aab6f44b46f19d061582727b66c9a0c84c97a2f6",
            "0x00000000000000000000000014807b50354328e7cc652313854277868a189f15",
            "0x00000000000000000000000063d91b09dd0e27c672228e52bcf4ec08e694c0cb"
          ],
          "data": "0x000000000000000000000000ffffffffffffffffffffffffffffffffffffffff0000000000000000000000000000000000000000000000000000ffffffffffff",
          "blockHash": "0xf9514bae9042f1be856111054ce2fab8fead138d0888774a3f34664b6dc53535",
          "blockNumber": "0x1c8d7",
          "transactionHash": "0x4598d04a3cf79bbddf8cc4c6e53b40d0e3338f7bd03f2904283385c4da077b7c",
          "transactionIndex": "0x1",
          "logIndex": "0x0",
          "removed": false
        }
      ],
      "logsBloom": "0x00010000000000000000000000000000000000000000000000000000000000000000000000000000000000000100002000000000000000000000000000080000000000000000000000000000000000000000000000000000000000000000000000000000000000000000000000000000000000000080000000000000000000000020000000000000000000000000000000020000000000000000000000000040000000000000000000000000000000000000000000000000000000080000000000000000000000000000000000000000000010000000000040002000000000000000000000000000000000000000000000000000000000000000000002040400",
      "type": "0x2",
      "transactionHash": "0x4598d04a3cf79bbddf8cc4c6e53b40d0e3338f7bd03f2904283385c4da077b7c",
      "transactionIndex": "0x1",
      "blockHash": "0xf9514bae9042f1be856111054ce2fab8fead138d0888774a3f34664b6dc53535",
      "blockNumber": "0x1c8d7",
      "gasUsed": "0x6d0e",
      "effectiveGasPrice": "0x989680",
      "from": "0xaab6f44b46f19d061582727b66c9a0c84c97a2f6",
      "to": "0x000000000022d473030f116ddee9f6b43ac78ba3",
      "contractAddress": null,
      "gasUsedForL1": "0x0",
      "l1BlockNumber": "0x88e1b2"
    },
    {
      "status": "0x1",
      "cumulativeGasUsed": "0x6d0e",
      "logs": [
        {
          "address": "0x000000000022d473030f116ddee9f6b43ac78ba3",
          "topics": [
            "0xda9fa7c1b00402c17d0161b249b1ab8bbec047c5a52207b9c112deffd817036b",
            "0x000000000000000000000000aab6f44b46f19d061582727b66c9a0c84c97a2f6",
            "0x00000000000000000000000014807b50354328e7cc652313854277868a189f15",
            "0x000000000000000000000000d84241a2f1c35d3b3e484b9a91d5d85a0382bc4d"
          ],
          "data": "0x000000000000000000000000ffffffffffffffffffffffffffffffffffffffff0000000000000000000000000000000000000000000000000000ffffffffffff",
          "blockHash": "0xf365ac6ade54cd48def81a5e443ce236c611d78a831194199147808e0b3aa9c4",
          "blockNumber": "0x1c8d8",
          "transactionHash": "0x4ada4fe4c49719ff4eb9987ceb7d31df3cd683f8ad5a87cb58302da5ec5f7a7f",
          "transactionIndex": "0x1",
          "logIndex": "0x0",
          "removed": false
        }
      ],
      "logsBloom": "0x00010000000000000000000000000000000000000000000000000000000000000000000000000000000000000100002000000000000000000000000000081000000000000000000000000000000000100000000000000000000000000000000000000000000800000000000000000000000000000080000000000000000000000020000000000000000000000000000000020000000000000000000000000000000000000000000000000000000000000000000000000000000000080000000000000000000000000000000000000000000010000000000040000000000000000000000000000000000000000000000000000000000000000000000002000400",
      "type": "0x2",
      "transactionHash": "0x4ada4fe4c49719ff4eb9987ceb7d31df3cd683f8ad5a87cb58302da5ec5f7a7f",
      "transactionIndex": "0x1",
      "blockHash": "0xf365ac6ade54cd48def81a5e443ce236c611d78a831194199147808e0b3aa9c4",
      "blockNumber": "0x1c8d8",
      "gasUsed": "0x6d0e",
      "effectiveGasPrice": "0x989680",
      "from": "0xaab6f44b46f19d061582727b66c9a0c84c97a2f6",
      "to": "0x000000000022d473030f116ddee9f6b43ac78ba3",
      "contractAddress": null,
      "gasUsedForL1": "0x0",
      "l1BlockNumber": "0x88e1b2"
    },
    {
      "status": "0x1",
      "cumulativeGasUsed": "0xf1b0",
      "logs": [
        {
          "address": "0xe00a4b02b812dfecb61b4acc6c8808f5a34a4dca",
          "topics": [
            "0xddf252ad1be2c89b69c2b068fc378daa952ba7f163c4a11628f55a4df523b3ef",
            "0x0000000000000000000000000000000000000000000000000000000000000000",
            "0x000000000000000000000000aab6f44b46f19d061582727b66c9a0c84c97a2f6"
          ],
          "data": "0x00000000000000000000000000000000000000000000152d02c7e14af6800000",
          "blockHash": "0xf365ac6ade54cd48def81a5e443ce236c611d78a831194199147808e0b3aa9c4",
          "blockNumber": "0x1c8d8",
          "transactionHash": "0x75fea78b2dd6840ba9352e2ecf5dc96faa28b6dd536f56ff2ab33a835605e065",
          "transactionIndex": "0x2",
          "logIndex": "0x1",
          "removed": false
        }
      ],
      "logsBloom": "0x00000000000000000000000000000000000000000000000000000000000000000000000000000000000000000000002000000000000000000000000000000000000000000000000000000008000000000000000000000000000000000000000000000000020000000000000000000800000000000000000000000010000000000000000000000000000000000002000000000000000000000000000000000000000000000000000000000000000000000000000000000000000000000000000002000002000000000000000000000000000010000000000000000000000020000000000000000000000000000000000000000000000000000000004002000000",
      "type": "0x2",
      "transactionHash": "0x75fea78b2dd6840ba9352e2ecf5dc96faa28b6dd536f56ff2ab33a835605e065",
      "transactionIndex": "0x2",
      "blockHash": "0xf365ac6ade54cd48def81a5e443ce236c611d78a831194199147808e0b3aa9c4",
      "blockNumber": "0x1c8d8",
      "gasUsed": "0x84a2",
      "effectiveGasPrice": "0x989680",
      "from": "0xaab6f44b46f19d061582727b66c9a0c84c97a2f6",
      "to": "0xe00a4b02b812dfecb61b4acc6c8808f5a34a4dca",
      "contractAddress": null,
      "gasUsedForL1": "0x0",
      "l1BlockNumber": "0x88e1b2"
    },
    {
      "status": "0x1",
      "cumulativeGasUsed": "0x15861",
      "logs": [
        {
          "address": "0xe00a4b02b812dfecb61b4acc6c8808f5a34a4dca",
          "topics": [
            "0x8c5be1e5ebec7d5bd14f71427d1e84f3dd0314c0f7b2291e5b200ac8c7c3b925",
            "0x000000000000000000000000aab6f44b46f19d061582727b66c9a0c84c97a2f6",
            "0x000000000000000000000000000000000022d473030f116ddee9f6b43ac78ba3"
          ],
          "data": "0xffffffffffffffffffffffffffffffffffffffffffffffffffffffffffffffff",
          "blockHash": "0xf365ac6ade54cd48def81a5e443ce236c611d78a831194199147808e0b3aa9c4",
          "blockNumber": "0x1c8d8",
          "transactionHash": "0xec015148ae32984d5076c061a73f745ab757b19627c2d22bfcda56e4281f1173",
          "transactionIndex": "0x3",
          "logIndex": "0x2",
          "removed": false
        }
      ],
      "logsBloom": "0x00000000000000000000000000000000000000000000000000000000000000000000000000000000000000000000002000000000800000000000000000200000000000000000000000004000000000000000000000000800000000000000000000000000000000000000000000000000000000000000000000000000000000000000000000000000000000000002000000000000000000000000000000000000020000000000000000000000000000000000000000000000000000000000000002000000000000000000000000000000000010000000000000000000000000000010000000000000000000000000000000000000000000000000004002000000",
      "type": "0x2",
      "transactionHash": "0xec015148ae32984d5076c061a73f745ab757b19627c2d22bfcda56e4281f1173",
      "transactionIndex": "0x3",
      "blockHash": "0xf365ac6ade54cd48def81a5e443ce236c611d78a831194199147808e0b3aa9c4",
      "blockNumber": "0x1c8d8",
      "gasUsed": "0x66b1",
      "effectiveGasPrice": "0x989680",
      "from": "0xaab6f44b46f19d061582727b66c9a0c84c97a2f6",
      "to": "0xe00a4b02b812dfecb61b4acc6c8808f5a34a4dca",
      "contractAddress": null,
      "gasUsedForL1": "0x0",
      "l1BlockNumber": "0x88e1b2"
    },
    {
      "status": "0x1",
      "cumulativeGasUsed": "0x1c56f",
      "logs": [
        {
          "address": "0x000000000022d473030f116ddee9f6b43ac78ba3",
          "topics": [
            "0xda9fa7c1b00402c17d0161b249b1ab8bbec047c5a52207b9c112deffd817036b",
            "0x000000000000000000000000aab6f44b46f19d061582727b66c9a0c84c97a2f6",
            "0x000000000000000000000000e00a4b02b812dfecb61b4acc6c8808f5a34a4dca",
            "0x00000000000000000000000063d91b09dd0e27c672228e52bcf4ec08e694c0cb"
          ],
          "data": "0x000000000000000000000000ffffffffffffffffffffffffffffffffffffffff0000000000000000000000000000000000000000000000000000ffffffffffff",
          "blockHash": "0xf365ac6ade54cd48def81a5e443ce236c611d78a831194199147808e0b3aa9c4",
          "blockNumber": "0x1c8d8",
          "transactionHash": "0x1169fcbb71c00974e195f6d7e5a3b7b0f247065fd7de12a186f164c8ce6d11f7",
          "transactionIndex": "0x4",
          "logIndex": "0x3",
          "removed": false
        }
      ],
      "logsBloom": "0x00010000000000004001000000000000000000000000000000000000000000000000000000000000000000000000002000000000000000000000000000080000000000000000000000000000000000000000000000000000000000000000000000000000000000000000000000000000000000000000000000000000000000000020000000000000000000000000000000000000000000000000000000000040000000000000000000000000000000000000000000000000000000080000000000000000000000002000000000000000000010000000000040002000000000000000000000000000000000000000000000000000000000000000000002040400",
      "type": "0x2",
      "transactionHash": "0x1169fcbb71c00974e195f6d7e5a3b7b0f247065fd7de12a186f164c8ce6d11f7",
      "transactionIndex": "0x4",
      "blockHash": "0xf365ac6ade54cd48def81a5e443ce236c611d78a831194199147808e0b3aa9c4",
      "blockNumber": "0x1c8d8",
      "gasUsed": "0x6d0e",
      "effectiveGasPrice": "0x989680",
      "from": "0xaab6f44b46f19d061582727b66c9a0c84c97a2f6",
      "to": "0x000000000022d473030f116ddee9f6b43ac78ba3",
      "contractAddress": null,
      "gasUsedForL1": "0x0",
      "l1BlockNumber": "0x88e1b2"
    },
    {
      "status": "0x1",
      "cumulativeGasUsed": "0x6d0e",
      "logs": [
        {
          "address": "0x000000000022d473030f116ddee9f6b43ac78ba3",
          "topics": [
            "0xda9fa7c1b00402c17d0161b249b1ab8bbec047c5a52207b9c112deffd817036b",
            "0x000000000000000000000000aab6f44b46f19d061582727b66c9a0c84c97a2f6",
            "0x000000000000000000000000e00a4b02b812dfecb61b4acc6c8808f5a34a4dca",
            "0x000000000000000000000000d84241a2f1c35d3b3e484b9a91d5d85a0382bc4d"
          ],
          "data": "0x000000000000000000000000ffffffffffffffffffffffffffffffffffffffff0000000000000000000000000000000000000000000000000000ffffffffffff",
          "blockHash": "0x15adcaed59b21514131210baa6033149ac148a595a3b23e522a313e0e4277dd6",
          "blockNumber": "0x1c8d9",
          "transactionHash": "0x3b28610b90ff65c13ca2b117cb6ccec68ab09dff066df348ce86e55db06d446a",
          "transactionIndex": "0x1",
          "logIndex": "0x0",
          "removed": false
        }
      ],
      "logsBloom": "0x00010000000000004001000000000000000000000000000000000000000000000000000000000000000000000000002000000000000000000000000000081000000000000000000000000000000000100000000000000000000000000000000000000000000800000000000000000000000000000000000000000000000000000020000000000000000000000000000000000000000000000000000000000000000000000000000000000000000000000000000000000000000000080000000000000000000000002000000000000000000010000000000040000000000000000000000000000000000000000000000000000000000000000000000002000400",
      "type": "0x2",
      "transactionHash": "0x3b28610b90ff65c13ca2b117cb6ccec68ab09dff066df348ce86e55db06d446a",
      "transactionIndex": "0x1",
      "blockHash": "0x15adcaed59b21514131210baa6033149ac148a595a3b23e522a313e0e4277dd6",
      "blockNumber": "0x1c8d9",
      "gasUsed": "0x6d0e",
      "effectiveGasPrice": "0x989680",
      "from": "0xaab6f44b46f19d061582727b66c9a0c84c97a2f6",
      "to": "0x000000000022d473030f116ddee9f6b43ac78ba3",
      "contractAddress": null,
      "gasUsedForL1": "0x0",
      "l1BlockNumber": "0x88e1b2"
    }
  ],
  "libraries": [],
  "pending": [],
  "returns": {},
  "timestamp": 1755031482,
  "chain": 4661,
  "commit": "34f51b9"
}