{
  "transactions": [
    {
      "hash": "0xbfeac110c52cf660cb04cc45d0e87f64ef1c46bb1456d8f8e8a000d1094cd7a0",
      "transactionType": "CALL",
      "contractName": null,
      "contractAddress": "0x63d91b09dd0e27c672228e52bcf4ec08e694c0cb",
      "function": "multicall(bytes[])",
      "arguments": [
        "[0xf702040500000000000000000000000014807b50354328e7cc652313854277868a189f15000000000000000000000000e00a4b02b812dfecb61b4acc6c8808f5a34a4dca0000000000000000000000000000000000000000000000000000000000000bb8000000000000000000000000000000000000000000000000000000000000003c00000000000000000000000000000000000000000000000000000000000000000000000000000000000000000000000000000001000000000000000000000000, 0xdd46508f00000000000000000000000000000000000000000000000000000000000000400000000000000000000000000000000000000000000000000000000068adb54b0000000000000000000000000000000000000000000000000000000000000300000000000000000000000000000000000000000000000000000000000000004000000000000000000000000000000000000000000000000000000000000000800000000000000000000000000000000000000000000000000000000000000002020d00000000000000000000000000000000000000000000000000000000000000000000000000000000000000000000000000000000000000000000000000020000000000000000000000000000000000000000000000000000000000000040000000000000000000000000000000000000000000000000000000000000020000000000000000000000000000000000000000000000000000000000000001a000000000000000000000000014807b50354328e7cc652313854277868a189f15000000000000000000000000e00a4b02b812dfecb61b4acc6c8808f5a34a4dca0000000000000000000000000000000000000000000000000000000000000bb8000000000000000000000000000000000000000000000000000000000000003c0000000000000000000000000000000000000000000000000000000000000000ffffffffffffffffffffffffffffffffffffffffffffffffffffffffffffe50c0000000000000000000000000000000000000000000000000000000000001af4000000000000000000000000000000000000000000000001dba54259a921806f0000000000000000000000000000000000000000000000008ac7230489e800000000000000000000000000000000000000000000000000008ac7230489e80000000000000000000000000000aab6f44b46f19d061582727b66c9a0c84c97a2f600000000000000000000000000000000000000000000000000000000000001800000000000000000000000000000000000000000000000000000000000000000000000000000000000000000000000000000000000000000000000000000004000000000000000000000000014807b50354328e7cc652313854277868a189f15000000000000000000000000e00a4b02b812dfecb61b4acc6c8808f5a34a4dca]"
      ],
      "transaction": {
        "from": "0xaab6f44b46f19d061582727b66c9a0c84c97a2f6",
        "to": "0x63d91b09dd0e27c672228e52bcf4ec08e694c0cb",
        "gas": "0x9a81f",
        "value": "0x0",
        "input": "0xac9650d8000000000000000000000000000000000000000000000000000000000000002000000000000000000000000000000000000000000000000000000000000000020000000000000000000000000000000000000000000000000000000000000040000000000000000000000000000000000000000000000000000000000000014000000000000000000000000000000000000000000000000000000000000000c4f702040500000000000000000000000014807b50354328e7cc652313854277868a189f15000000000000000000000000e00a4b02b812dfecb61b4acc6c8808f5a34a4dca0000000000000000000000000000000000000000000000000000000000000bb8000000000000000000000000000000000000000000000000000000000000003c00000000000000000000000000000000000000000000000000000000000000000000000000000000000000000000000000000001000000000000000000000000000000000000000000000000000000000000000000000000000000000000000000000000000000000000000000000000000000000000000000000364dd46508f00000000000000000000000000000000000000000000000000000000000000400000000000000000000000000000000000000000000000000000000068adb54b0000000000000000000000000000000000000000000000000000000000000300000000000000000000000000000000000000000000000000000000000000004000000000000000000000000000000000000000000000000000000000000000800000000000000000000000000000000000000000000000000000000000000002020d00000000000000000000000000000000000000000000000000000000000000000000000000000000000000000000000000000000000000000000000000020000000000000000000000000000000000000000000000000000000000000040000000000000000000000000000000000000000000000000000000000000020000000000000000000000000000000000000000000000000000000000000001a000000000000000000000000014807b50354328e7cc652313854277868a189f15000000000000000000000000e00a4b02b812dfecb61b4acc6c8808f5a34a4dca0000000000000000000000000000000000000000000000000000000000000bb8000000000000000000000000000000000000000000000000000000000000003c0000000000000000000000000000000000000000000000000000000000000000ffffffffffffffffffffffffffffffffffffffffffffffffffffffffffffe50c0000000000000000000000000000000000000000000000000000000000001af4000000000000000000000000000000000000000000000001dba54259a921806f0000000000000000000000000000000000000000000000008ac7230489e800000000000000000000000000000000000000000000000000008ac7230489e80000000000000000000000000000aab6f44b46f19d061582727b66c9a0c84c97a2f600000000000000000000000000000000000000000000000000000000000001800000000000000000000000000000000000000000000000000000000000000000000000000000000000000000000000000000000000000000000000000000004000000000000000000000000014807b50354328e7cc652313854277868a189f15000000000000000000000000e00a4b02b812dfecb61b4acc6c8808f5a34a4dca00000000000000000000000000000000000000000000000000000000",
        "nonce": "0x96",
        "chainId": "0x1235"
      },
      "additionalContracts": [],
      "isFixedGasLimit": false
    }
  ],
  "receipts": [
    {
      "status": "0x1",
      "cumulativeGasUsed": "0x6fdc6",
      "logs": [
        {
          "address": "0x4e8c56bec0907f8e70e2341ff28fcfd8589e3a2d",
          "topics": [
            "0xdd466e674ea557f56295e2d0218a125ea4b4f0f6f3307b95f85e6110838d6438",
            "0x12afc349aab68a5e1d4616e5b1499227070ed8400f48a8c859a9fa8f421df549",
            "0x00000000000000000000000014807b50354328e7cc652313854277868a189f15",
            "0x000000000000000000000000e00a4b02b812dfecb61b4acc6c8808f5a34a4dca"
          ],
          "data": "0x0000000000000000000000000000000000000000000000000000000000000bb8000000000000000000000000000000000000000000000000000000000000003c000000000000000000000000000000000000000000000000000000000000000000000000000000000000000000000000000000010000000000000000000000000000000000000000000000000000000000000000000000000000000000000000",
          "blockHash": "0x9035b1d282232626a96958a58b7707bb9154f63fa6cf03ca4ed8445277c9d471",
          "blockNumber": "0x1e384",
          "transactionHash": "0xbfeac110c52cf660cb04cc45d0e87f64ef1c46bb1456d8f8e8a000d1094cd7a0",
          "transactionIndex": "0x1",
          "logIndex": "0x0",
          "removed": false
        },
        {
          "address": "0x63d91b09dd0e27c672228e52bcf4ec08e694c0cb",
          "topics": [
            "0xddf252ad1be2c89b69c2b068fc378daa952ba7f163c4a11628f55a4df523b3ef",
            "0x0000000000000000000000000000000000000000000000000000000000000000",
            "0x000000000000000000000000aab6f44b46f19d061582727b66c9a0c84c97a2f6",
            "0x0000000000000000000000000000000000000000000000000000000000000001"
          ],
          "data": "0x",
          "blockHash": "0x9035b1d282232626a96958a58b7707bb9154f63fa6cf03ca4ed8445277c9d471",
          "blockNumber": "0x1e384",
          "transactionHash": "0xbfeac110c52cf660cb04cc45d0e87f64ef1c46bb1456d8f8e8a000d1094cd7a0",
          "transactionIndex": "0x1",
          "logIndex": "0x1",
          "removed": false
        },
        {
          "address": "0x4e8c56bec0907f8e70e2341ff28fcfd8589e3a2d",
          "topics": [
            "0xf208f4912782fd25c7f114ca3723a2d5dd6f3bcc3ac8db5af63baa85f711d5ec",
            "0x12afc349aab68a5e1d4616e5b1499227070ed8400f48a8c859a9fa8f421df549",
            "0x00000000000000000000000063d91b09dd0e27c672228e52bcf4ec08e694c0cb"
          ],
          "data": "0xffffffffffffffffffffffffffffffffffffffffffffffffffffffffffffe50c0000000000000000000000000000000000000000000000000000000000001af4000000000000000000000000000000000000000000000001dba54259a921806f0000000000000000000000000000000000000000000000000000000000000001",
          "blockHash": "0x9035b1d282232626a96958a58b7707bb9154f63fa6cf03ca4ed8445277c9d471",
          "blockNumber": "0x1e384",
          "transactionHash": "0xbfeac110c52cf660cb04cc45d0e87f64ef1c46bb1456d8f8e8a000d1094cd7a0",
          "transactionIndex": "0x1",
          "logIndex": "0x2",
          "removed": false
        },
        {
          "address": "0x14807b50354328e7cc652313854277868a189f15",
          "topics": [
            "0xddf252ad1be2c89b69c2b068fc378daa952ba7f163c4a11628f55a4df523b3ef",
            "0x000000000000000000000000aab6f44b46f19d061582727b66c9a0c84c97a2f6",
            "0x0000000000000000000000004e8c56bec0907f8e70e2341ff28fcfd8589e3a2d"
          ],
          "data": "0x0000000000000000000000000000000000000000000000008ac7230489e80000",
          "blockHash": "0x9035b1d282232626a96958a58b7707bb9154f63fa6cf03ca4ed8445277c9d471",
          "blockNumber": "0x1e384",
          "transactionHash": "0xbfeac110c52cf660cb04cc45d0e87f64ef1c46bb1456d8f8e8a000d1094cd7a0",
          "transactionIndex": "0x1",
          "logIndex": "0x3",
          "removed": false
        },
        {
          "address": "0xe00a4b02b812dfecb61b4acc6c8808f5a34a4dca",
          "topics": [
            "0xddf252ad1be2c89b69c2b068fc378daa952ba7f163c4a11628f55a4df523b3ef",
            "0x000000000000000000000000aab6f44b46f19d061582727b66c9a0c84c97a2f6",
            "0x0000000000000000000000004e8c56bec0907f8e70e2341ff28fcfd8589e3a2d"
          ],
          "data": "0x0000000000000000000000000000000000000000000000008ac7230489e80000",
          "blockHash": "0x9035b1d282232626a96958a58b7707bb9154f63fa6cf03ca4ed8445277c9d471",
          "blockNumber": "0x1e384",
          "transactionHash": "0xbfeac110c52cf660cb04cc45d0e87f64ef1c46bb1456d8f8e8a000d1094cd7a0",
          "transactionIndex": "0x1",
          "logIndex": "0x4",
          "removed": false
        }
      ],
      "logsBloom": "0x00000400000000004001000020000000200000100100000000000000000000040000000000000000000000000100002000000000000000000000000000040000000000000000000000000088000000000000000000040000000000000000000000000000020000000000000000000800000000000080000000000010020000200000000001000008000040000102000000020001000000000000000000200040000004000000020000000000000000000000000000000000000000000000000002000002800000006000000000000000100010000000000000002000000060000000000000000000000000000000000004000000000000000000004002040000",
      "type": "0x2",
      "transactionHash": "0xbfeac110c52cf660cb04cc45d0e87f64ef1c46bb1456d8f8e8a000d1094cd7a0",
      "transactionIndex": "0x1",
      "blockHash": "0x9035b1d282232626a96958a58b7707bb9154f63fa6cf03ca4ed8445277c9d471",
      "blockNumber": "0x1e384",
      "gasUsed": "0x6fdc6",
      "effectiveGasPrice": "0x989680",
      "from": "0xaab6f44b46f19d061582727b66c9a0c84c97a2f6",
      "to": "0x63d91b09dd0e27c672228e52bcf4ec08e694c0cb",
      "contractAddress": null,
      "gasUsedForL1": "0x0",
      "l1BlockNumber": "0x8a5e31"
    }
  ],
  "libraries": [],
  "pending": [],
  "returns": {},
  "timestamp": 1756214503,
  "chain": 4661,
  "commit": "d555b5e"
}