{
  "transactions": [
    {
      "hash": "0x4c1c47fe3efb8fe75fd97fa76e1ede7d071df18e2896cc7b330876d592c65de4",
      "transactionType": "CALL",
      "contractName": null,
      "contractAddress": "0x000000000022d473030f116ddee9f6b43ac78ba3",
      "function": "approve(address,address,uint160,uint48)",
      "arguments": [
        "0x14807B50354328E7cC652313854277868a189f15",
        "0x63D91b09DD0e27C672228E52bCF4Ec08E694c0cB",
        "340282366920938463463374607431768211455",
        "281474976710655"
      ],
      "transaction": {
        "from": "0xaab6f44b46f19d061582727b66c9a0c84c97a2f6",
        "to": "0x000000000022d473030f116ddee9f6b43ac78ba3",
        "gas": "0xa579",
        "value": "0x0",
        "input": "0x87517c4500000000000000000000000014807b50354328e7cc652313854277868a189f1500000000000000000000000063d91b09dd0e27c672228e52bcf4ec08e694c0cb00000000000000000000000000000000ffffffffffffffffffffffffffffffff0000000000000000000000000000000000000000000000000000ffffffffffff",
        "nonce": "0x8e",
        "chainId": "0x1235"
      },
      "additionalContracts": [],
      "isFixedGasLimit": false
    },
    {
      "hash": "0xf906e087da121bc9fa98a65d1612905fd68f871426dc18271e19d6f95206e0ba",
      "transactionType": "CALL",
      "contractName": null,
      "contractAddress": "0x000000000022d473030f116ddee9f6b43ac78ba3",
      "function": "approve(address,address,uint160,uint48)",
      "arguments": [
        "0xe00A4b02B812DFEcB61b4acC6C8808f5a34a4dCA",
        "0x63D91b09DD0e27C672228E52bCF4Ec08E694c0cB",
        "340282366920938463463374607431768211455",
        "281474976710655"
      ],
      "transaction": {
        "from": "0xaab6f44b46f19d061582727b66c9a0c84c97a2f6",
        "to": "0x000000000022d473030f116ddee9f6b43ac78ba3",
        "gas": "0xa579",
        "value": "0x0",
        "input": "0x87517c45000000000000000000000000e00a4b02b812dfecb61b4acc6c8808f5a34a4dca00000000000000000000000063d91b09dd0e27c672228e52bcf4ec08e694c0cb00000000000000000000000000000000ffffffffffffffffffffffffffffffff0000000000000000000000000000000000000000000000000000ffffffffffff",
        "nonce": "0x8f",
        "chainId": "0x1235"
      },
      "additionalContracts": [],
      "isFixedGasLimit": false
    },
    {
      "hash": "0x04d01a5c64c8ae405982bb168e0963bfd0a244264d17b3327beba5aceb1add56",
      "transactionType": "CALL",
      "contractName": null,
      "contractAddress": "0x000000000022d473030f116ddee9f6b43ac78ba3",
      "function": "approve(address,address,uint160,uint48)",
      "arguments": [
        "0x14807B50354328E7cC652313854277868a189f15",
        "0xD84241a2F1C35D3b3E484B9A91d5d85A0382bc4d",
        "340282366920938463463374607431768211455",
        "281474976710655"
      ],
      "transaction": {
        "from": "0xaab6f44b46f19d061582727b66c9a0c84c97a2f6",
        "to": "0x000000000022d473030f116ddee9f6b43ac78ba3",
        "gas": "0x965e",
        "value": "0x0",
        "input": "0x87517c4500000000000000000000000014807b50354328e7cc652313854277868a189f15000000000000000000000000d84241a2f1c35d3b3e484b9a91d5d85a0382bc4d00000000000000000000000000000000ffffffffffffffffffffffffffffffff0000000000000000000000000000000000000000000000000000ffffffffffff",
        "nonce": "0x90",
        "chainId": "0x1235"
      },
      "additionalContracts": [],
      "isFixedGasLimit": false
    },
    {
      "hash": "0x2070f6120fcc9661fb0f68628282bd9dc6d23b2cf20bb7e24240f27a50509f81",
      "transactionType": "CALL",
      "contractName": null,
      "contractAddress": "0x000000000022d473030f116ddee9f6b43ac78ba3",
      "function": "approve(address,address,uint160,uint48)",
      "arguments": [
        "0xe00A4b02B812DFEcB61b4acC6C8808f5a34a4dCA",
        "0xD84241a2F1C35D3b3E484B9A91d5d85A0382bc4d",
        "340282366920938463463374607431768211455",
        "281474976710655"
      ],
      "transaction": {
        "from": "0xaab6f44b46f19d061582727b66c9a0c84c97a2f6",
        "to": "0x000000000022d473030f116ddee9f6b43ac78ba3",
        "gas": "0x965e",
        "value": "0x0",
        "input": "0x87517c45000000000000000000000000e00a4b02b812dfecb61b4acc6c8808f5a34a4dca000000000000000000000000d84241a2f1c35d3b3e484b9a91d5d85a0382bc4d00000000000000000000000000000000ffffffffffffffffffffffffffffffff0000000000000000000000000000000000000000000000000000ffffffffffff",
        "nonce": "0x91",
        "chainId": "0x1235"
      },
      "additionalContracts": [],
      "isFixedGasLimit": false
    }
  ],
  "receipts": [
    {
      "status": "0x1",
      "cumulativeGasUsed": "0x77ce",
      "logs": [
        {
          "address": "0x000000000022d473030f116ddee9f6b43ac78ba3",
          "topics": [
            "0xda9fa7c1b00402c17d0161b249b1ab8bbec047c5a52207b9c112deffd817036b",
            "0x000000000000000000000000aab6f44b46f19d061582727b66c9a0c84c97a2f6",
            "0x00000000000000000000000014807b50354328e7cc652313854277868a189f15",
            "0x00000000000000000000000063d91b09dd0e27c672228e52bcf4ec08e694c0cb"
          ],
          "data": "0x00000000000000000000000000000000ffffffffffffffffffffffffffffffff0000000000000000000000000000000000000000000000000000ffffffffffff",
          "blockHash": "0xb64ab4ec455a2373be445f9e5288857996a07628924416155c0b0df1bce6affd",
          "blockNumber": "0x1e37f",
          "transactionHash": "0x4c1c47fe3efb8fe75fd97fa76e1ede7d071df18e2896cc7b330876d592c65de4",
          "transactionIndex": "0x1",
          "logIndex": "0x0",
          "removed": false
        }
      ],
      "logsBloom": "0x00010000000000000000000000000000000000000000000000000000000000000000000000000000000000000100002000000000000000000000000000080000000000000000000000000000000000000000000000000000000000000000000000000000000000000000000000000000000000000080000000000000000000000020000000000000000000000000000000020000000000000000000000000040000000000000000000000000000000000000000000000000000000080000000000000000000000000000000000000000000010000000000040002000000000000000000000000000000000000000000000000000000000000000000002040400",
      "type": "0x2",
      "transactionHash": "0x4c1c47fe3efb8fe75fd97fa76e1ede7d071df18e2896cc7b330876d592c65de4",
      "transactionIndex": "0x1",
      "blockHash": "0xb64ab4ec455a2373be445f9e5288857996a07628924416155c0b0df1bce6affd",
      "blockNumber": "0x1e37f",
      "gasUsed": "0x77ce",
      "effectiveGasPrice": "0x989680",
      "from": "0xaab6f44b46f19d061582727b66c9a0c84c97a2f6",
      "to": "0x000000000022d473030f116ddee9f6b43ac78ba3",
      "contractAddress": null,
      "gasUsedForL1": "0x0",
      "l1BlockNumber": "0x8a5e07"
    },
    {
      "status": "0x1",
      "cumulativeGasUsed": "0x77ce",
      "logs": [
        {
          "address": "0x000000000022d473030f116ddee9f6b43ac78ba3",
          "topics": [
            "0xda9fa7c1b00402c17d0161b249b1ab8bbec047c5a52207b9c112deffd817036b",
            "0x000000000000000000000000aab6f44b46f19d061582727b66c9a0c84c97a2f6",
            "0x000000000000000000000000e00a4b02b812dfecb61b4acc6c8808f5a34a4dca",
            "0x00000000000000000000000063d91b09dd0e27c672228e52bcf4ec08e694c0cb"
          ],
          "data": "0x00000000000000000000000000000000ffffffffffffffffffffffffffffffff0000000000000000000000000000000000000000000000000000ffffffffffff",
          "blockHash": "0xee3ead9c4d1989e11297365b551657321c2f602ab1c20f5904f74bf8dcb2dce3",
          "blockNumber": "0x1e380",
          "transactionHash": "0xf906e087da121bc9fa98a65d1612905fd68f871426dc18271e19d6f95206e0ba",
          "transactionIndex": "0x1",
          "logIndex": "0x0",
          "removed": false
        }
      ],
      "logsBloom": "0x00010000000000004001000000000000000000000000000000000000000000000000000000000000000000000000002000000000000000000000000000080000000000000000000000000000000000000000000000000000000000000000000000000000000000000000000000000000000000000000000000000000000000000020000000000000000000000000000000000000000000000000000000000040000000000000000000000000000000000000000000000000000000080000000000000000000000002000000000000000000010000000000040002000000000000000000000000000000000000000000000000000000000000000000002040400",
      "type": "0x2",
      "transactionHash": "0xf906e087da121bc9fa98a65d1612905fd68f871426dc18271e19d6f95206e0ba",
      "transactionIndex": "0x1",
      "blockHash": "0xee3ead9c4d1989e11297365b551657321c2f602ab1c20f5904f74bf8dcb2dce3",
      "blockNumber": "0x1e380",
      "gasUsed": "0x77ce",
      "effectiveGasPrice": "0x989680",
      "from": "0xaab6f44b46f19d061582727b66c9a0c84c97a2f6",
      "to": "0x000000000022d473030f116ddee9f6b43ac78ba3",
      "contractAddress": null,
      "gasUsedForL1": "0x0",
      "l1BlockNumber": "0x8a5e07"
    },
    {
      "status": "0x1",
      "cumulativeGasUsed": "0x6cde",
      "logs": [
        {
          "address": "0x000000000022d473030f116ddee9f6b43ac78ba3",
          "topics": [
            "0xda9fa7c1b00402c17d0161b249b1ab8bbec047c5a52207b9c112deffd817036b",
            "0x000000000000000000000000aab6f44b46f19d061582727b66c9a0c84c97a2f6",
            "0x00000000000000000000000014807b50354328e7cc652313854277868a189f15",
            "0x000000000000000000000000d84241a2f1c35d3b3e484b9a91d5d85a0382bc4d"
          ],
          "data": "0x00000000000000000000000000000000ffffffffffffffffffffffffffffffff0000000000000000000000000000000000000000000000000000ffffffffffff",
          "blockHash": "0x502ba7f778c27d1d2f14aaeedd9c416da26747a7018ea42d790d1b0b7dd32f9e",
          "blockNumber": "0x1e381",
          "transactionHash": "0x04d01a5c64c8ae405982bb168e0963bfd0a244264d17b3327beba5aceb1add56",
          "transactionIndex": "0x1",
          "logIndex": "0x0",
          "removed": false
        }
      ],
      "logsBloom": "0x00010000000000000000000000000000000000000000000000000000000000000000000000000000000000000100002000000000000000000000000000081000000000000000000000000000000000100000000000000000000000000000000000000000000800000000000000000000000000000080000000000000000000000020000000000000000000000000000000020000000000000000000000000000000000000000000000000000000000000000000000000000000000080000000000000000000000000000000000000000000010000000000040000000000000000000000000000000000000000000000000000000000000000000000002000400",
      "type": "0x2",
      "transactionHash": "0x04d01a5c64c8ae405982bb168e0963bfd0a244264d17b3327beba5aceb1add56",
      "transactionIndex": "0x1",
      "blockHash": "0x502ba7f778c27d1d2f14aaeedd9c416da26747a7018ea42d790d1b0b7dd32f9e",
      "blockNumber": "0x1e381",
      "gasUsed": "0x6cde",
      "effectiveGasPrice": "0x989680",
      "from": "0xaab6f44b46f19d061582727b66c9a0c84c97a2f6",
      "to": "0x000000000022d473030f116ddee9f6b43ac78ba3",
      "contractAddress": null,
      "gasUsedForL1": "0x0",
      "l1BlockNumber": "0x8a5e07"
    },
    {
      "status": "0x1",
      "cumulativeGasUsed": "0xd9bc",
      "logs": [
        {
          "address": "0x000000000022d473030f116ddee9f6b43ac78ba3",
          "topics": [
            "0xda9fa7c1b00402c17d0161b249b1ab8bbec047c5a52207b9c112deffd817036b",
            "0x000000000000000000000000aab6f44b46f19d061582727b66c9a0c84c97a2f6",
            "0x000000000000000000000000e00a4b02b812dfecb61b4acc6c8808f5a34a4dca",
            "0x000000000000000000000000d84241a2f1c35d3b3e484b9a91d5d85a0382bc4d"
          ],
          "data": "0x00000000000000000000000000000000ffffffffffffffffffffffffffffffff0000000000000000000000000000000000000000000000000000ffffffffffff",
          "blockHash": "0x502ba7f778c27d1d2f14aaeedd9c416da26747a7018ea42d790d1b0b7dd32f9e",
          "blockNumber": "0x1e381",
          "transactionHash": "0x2070f6120fcc9661fb0f68628282bd9dc6d23b2cf20bb7e24240f27a50509f81",
          "transactionIndex": "0x2",
          "logIndex": "0x1",
          "removed": false
        }
      ],
      "logsBloom": "0x00010000000000004001000000000000000000000000000000000000000000000000000000000000000000000000002000000000000000000000000000081000000000000000000000000000000000100000000000000000000000000000000000000000000800000000000000000000000000000000000000000000000000000020000000000000000000000000000000000000000000000000000000000000000000000000000000000000000000000000000000000000000000080000000000000000000000002000000000000000000010000000000040000000000000000000000000000000000000000000000000000000000000000000000002000400",
      "type": "0x2",
      "transactionHash": "0x2070f6120fcc9661fb0f68628282bd9dc6d23b2cf20bb7e24240f27a50509f81",
      "transactionIndex": "0x2",
      "blockHash": "0x502ba7f778c27d1d2f14aaeedd9c416da26747a7018ea42d790d1b0b7dd32f9e",
      "blockNumber": "0x1e381",
      "gasUsed": "0x6cde",
      "effectiveGasPrice": "0x989680",
      "from": "0xaab6f44b46f19d061582727b66c9a0c84c97a2f6",
      "to": "0x000000000022d473030f116ddee9f6b43ac78ba3",
      "contractAddress": null,
      "gasUsedForL1": "0x0",
      "l1BlockNumber": "0x8a5e07"
    }
  ],
  "libraries": [],
  "pending": [],
  "returns": {},
  "timestamp": 1756214011,
  "chain": 4661,
  "commit": "d555b5e"
}