{
  "deployments": [
    {
      "transactions": [
        {
          "hash": "0x62dc66040f4ed3bd8287da9e85e24ea5a626c21693281e573b9d904ebe6bd735",
          "transactionType": "CALL",
          "contractName": null,
          "contractAddress": "0x4ef1b0dc0e2ea41aecba2903e9041ef33045fa10",
          "function": "approveAll(address,address)",
          "arguments": [
            "0xaf88d065e77c8cC2239327C5EDb3A432268e5831",
            "0xe8CDF27AcD73a434D661C84887215F7598e7d0d3"
          ],
          "transaction": {
            "from": "0xaab6f44b46f19d061582727b66c9a0c84c97a2f6",
            "to": "0x4ef1b0dc0e2ea41aecba2903e9041ef33045fa10",
            "gas": "0x20031",
            "value": "0x0",
            "input": "0x0a443276000000000000000000000000af88d065e77c8cc2239327c5edb3a432268e5831000000000000000000000000e8cdf27acd73a434d661c84887215f7598e7d0d3",
            "nonce": "0x35",
            "chainId": "0xa4b1"
          },
          "additionalContracts": [],
          "isFixedGasLimit": false
        },
        {
          "hash": "0x2745f55ec1616a5238ec5dd4b14d8c4288274f1e3bf477c94763d2c3862e8ee7",
          "transactionType": "CALL",
          "contractName": null,
          "contractAddress": "0x4ef1b0dc0e2ea41aecba2903e9041ef33045fa10",
          "function": "approveAll(address,address)",
          "arguments": [
            "0xFd086bC7CD5C481DCC9C85ebE478A1C0b69FCbb9",
            "0xcE8CcA271Ebc0533920C83d39F417ED6A0abB7D0"
          ],
          "transaction": {
            "from": "0xaab6f44b46f19d061582727b66c9a0c84c97a2f6",
            "to": "0x4ef1b0dc0e2ea41aecba2903e9041ef33045fa10",
            "gas": "0x1f6ad",
            "value": "0x0",
            "input": "0x0a443276000000000000000000000000fd086bc7cd5c481dcc9c85ebe478a1c0b69fcbb9000000000000000000000000ce8cca271ebc0533920c83d39f417ed6a0abb7d0",
            "nonce": "0x36",
            "chainId": "0xa4b1"
          },
          "additionalContracts": [],
          "isFixedGasLimit": false
        }
      ],
      "receipts": [
        {
          "status": "0x1",
          "cumulativeGasUsed": "0x42d5f",
          "logs": [
            {
              "address": "0xaf88d065e77c8cc2239327c5edb3a432268e5831",
              "topics": [
                "0x8c5be1e5ebec7d5bd14f71427d1e84f3dd0314c0f7b2291e5b200ac8c7c3b925",
                "0x0000000000000000000000004ef1b0dc0e2ea41aecba2903e9041ef33045fa10",
                "0x000000000000000000000000e8cdf27acd73a434d661c84887215f7598e7d0d3"
              ],
              "data": "0xffffffffffffffffffffffffffffffffffffffffffffffffffffffffffffffff",
              "blockHash": "0x19725b00d30dc612c31e72a3d2ba5346301ba78b20ac326bf55bbc9cf160592f",
              "blockNumber": "0x14ece662",
              "transactionHash": "0x62dc66040f4ed3bd8287da9e85e24ea5a626c21693281e573b9d904ebe6bd735",
              "transactionIndex": "0x4",
              "logIndex": "0x2",
              "removed": false
            }
          ],
          "logsBloom": "0x00000000000000000000000000000000000000000000000000000000000000000000000000000000000000000000000000000001000000000000000000200000000000000004000000000000000000000000000000000000000000000000000000004000000000000000000000400000000000000000000000000000000000000000000000000000000000000000000100000000000000000000000000000000020100004000000000000000000000000000000000000000000000000000000000002000000000000000000000000000000000000000000000000000000000000010000000000000000000000000200000000000000000000000000000000000",
          "type": "0x2",
          "transactionHash": "0x62dc66040f4ed3bd8287da9e85e24ea5a626c21693281e573b9d904ebe6bd735",
          "transactionIndex": "0x4",
          "blockHash": "0x19725b00d30dc612c31e72a3d2ba5346301ba78b20ac326bf55bbc9cf160592f",
          "blockNumber": "0x14ece662",
          "gasUsed": "0x1573b",
          "effectiveGasPrice": "0xcdd750",
          "from": "0xaab6f44b46f19d061582727b66c9a0c84c97a2f6",
          "to": "0x4ef1b0dc0e2ea41aecba2903e9041ef33045fa10",
          "contractAddress": null,
          "gasUsedForL1": "0x7128",
          "l1BlockNumber": "0x15b9f5f",
          "timeboosted": false
        },
        {
          "status": "0x1",
          "cumulativeGasUsed": "0x261ec",
          "logs": [
            {
              "address": "0xfd086bc7cd5c481dcc9c85ebe478a1c0b69fcbb9",
              "topics": [
                "0x8c5be1e5ebec7d5bd14f71427d1e84f3dd0314c0f7b2291e5b200ac8c7c3b925",
                "0x0000000000000000000000004ef1b0dc0e2ea41aecba2903e9041ef33045fa10",
                "0x000000000000000000000000ce8cca271ebc0533920c83d39f417ed6a0abb7d0"
              ],
              "data": "0xffffffffffffffffffffffffffffffffffffffffffffffffffffffffffffffff",
              "blockHash": "0x5d9ff772887fa21615baa069ad48b42d2e1783c75cc35da7ce5c5c86632d6244",
              "blockNumber": "0x14ece668",
              "transactionHash": "0x2745f55ec1616a5238ec5dd4b14d8c4288274f1e3bf477c94763d2c3862e8ee7",
              "transactionIndex": "0x2",
              "logIndex": "0x1",
              "removed": false
            }
          ],
          "logsBloom": "0x00000000000000000000000000000000000000000000000000000000000000000000000000000000000000000000000000000000400000000000000000200000000010000000000000000000000000000000000000000000000000000000000000000000000000000000000000000000000000000000000000000000000000000000000000000000000000000000000100000000080000000000000000000000020100004000000000000000000000000000000000000000000000000000000000008000000000000000000000000000000000000000000000000000000000000018000000000000000000000000000010000000000000000000000000000000",
          "type": "0x2",
          "transactionHash": "0x2745f55ec1616a5238ec5dd4b14d8c4288274f1e3bf477c94763d2c3862e8ee7",
          "transactionIndex": "0x2",
          "blockHash": "0x5d9ff772887fa21615baa069ad48b42d2e1783c75cc35da7ce5c5c86632d6244",
          "blockNumber": "0x14ece668",
          "gasUsed": "0x15072",
          "effectiveGasPrice": "0xccecf0",
          "from": "0xaab6f44b46f19d061582727b66c9a0c84c97a2f6",
          "to": "0x4ef1b0dc0e2ea41aecba2903e9041ef33045fa10",
          "contractAddress": null,
          "gasUsedForL1": "0x71aa",
          "l1BlockNumber": "0x15b9f5f",
          "timeboosted": false
        }
      ],
      "libraries": [],
      "pending": [],
      "returns": {},
      "timestamp": 1750858641,
      "chain": 42161,
      "commit": "577b7c0"
    },
    {
      "transactions": [
        {
          "hash": "0xd28b4923e0faf05b5a724982c2a8ef6cc2341955b201f76ebb7d4cd224e4394d",
          "transactionType": "CALL",
          "contractName": null,
          "contractAddress": "0x4ef1b0dc0e2ea41aecba2903e9041ef33045fa10",
          "function": "approveAll(address,address)",
          "arguments": [
            "0xA0b86991c6218b36c1d19D4a2e9Eb0cE3606eB48",
            "0xc026395860Db2d07ee33e05fE50ed7bD583189C7"
          ],
          "transaction": {
            "from": "0xaab6f44b46f19d061582727b66c9a0c84c97a2f6",
            "to": "0x4ef1b0dc0e2ea41aecba2903e9041ef33045fa10",
            "gas": "0x13e70",
            "value": "0x0",
            "input": "0x0a443276000000000000000000000000a0b86991c6218b36c1d19d4a2e9eb0ce3606eb48000000000000000000000000c026395860db2d07ee33e05fe50ed7bd583189c7",
            "nonce": "0x2e",
            "chainId": "0x1"
          },
          "additionalContracts": [],
          "isFixedGasLimit": false
        }
      ],
      "receipts": [
        {
          "status": "0x1",
          "cumulativeGasUsed": "0xbb053a",
          "logs": [
            {
              "address": "0xa0b86991c6218b36c1d19d4a2e9eb0ce3606eb48",
              "topics": [
                "0x8c5be1e5ebec7d5bd14f71427d1e84f3dd0314c0f7b2291e5b200ac8c7c3b925",
                "0x0000000000000000000000004ef1b0dc0e2ea41aecba2903e9041ef33045fa10",
                "0x000000000000000000000000c026395860db2d07ee33e05fe50ed7bd583189c7"
              ],
              "data": "0xffffffffffffffffffffffffffffffffffffffffffffffffffffffffffffffff",
              "blockHash": "0xa9616bec99236d6f191c16edf80f386b9abf2e0d890772e0a55574c301ebcfb8",
              "blockNumber": "0x15b9f62",
              "blockTimestamp": "0x685bfb9f",
              "transactionHash": "0xd28b4923e0faf05b5a724982c2a8ef6cc2341955b201f76ebb7d4cd224e4394d",
              "transactionIndex": "0xc0",
              "logIndex": "0x133",
              "removed": false
            }
          ],
          "logsBloom": "0x00000000001000000000000000000800000000000000000000000000000000000000000000000000000000000000000000000000000000000000000000200000000000000000000008000000000000000000000000000000000000000000000000000000000000000000000000000000000000000000000000000000000000000000000000000000000000000000000100000000010000000000000000000000120100004000200000000000000000000000000000000000000000000000000000000000000000000000000000000000000000000000000000000000000000000010000000000000000000000000000000000000000000000000000000000000",
          "type": "0x2",
          "transactionHash": "0xd28b4923e0faf05b5a724982c2a8ef6cc2341955b201f76ebb7d4cd224e4394d",
          "transactionIndex": "0xc0",
          "blockHash": "0xa9616bec99236d6f191c16edf80f386b9abf2e0d890772e0a55574c301ebcfb8",
          "blockNumber": "0x15b9f62",
          "gasUsed": "0xe68c",
          "effectiveGasPrice": "0x12c93de07",
          "from": "0xaab6f44b46f19d061582727b66c9a0c84c97a2f6",
          "to": "0x4ef1b0dc0e2ea41aecba2903e9041ef33045fa10",
          "contractAddress": null
        }
      ],
      "libraries": [],
      "pending": [],
      "returns": {},
      "timestamp": 1750858641,
      "chain": 1,
      "commit": "577b7c0"
    },
    {
      "transactions": [
        {
          "hash": "0xd648dcd032af7243d5564757b63a94cd90b7a1495e8dc914117f9779b495ec32",
          "transactionType": "CALL",
          "contractName": null,
          "contractAddress": "0x4ef1b0dc0e2ea41aecba2903e9041ef33045fa10",
          "function": "approveAll(address,address)",
          "arguments": [
            "0x3c499c542cEF5E3811e1192ce70d8cC03d5c3359",
            "0x9Aa02D4Fae7F58b8E8f34c66E756cC734DAc7fe4"
          ],
          "transaction": {
            "from": "0xaab6f44b46f19d061582727b66c9a0c84c97a2f6",
            "to": "0x4ef1b0dc0e2ea41aecba2903e9041ef33045fa10",
            "gas": "0x1507b",
            "value": "0x0",
            "input": "0x0a4432760000000000000000000000003c499c542cef5e3811e1192ce70d8cc03d5c33590000000000000000000000009aa02d4fae7f58b8e8f34c66e756cc734dac7fe4",
            "nonce": "0x8b",
            "chainId": "0x89"
          },
          "additionalContracts": [],
          "isFixedGasLimit": false
        },
        {
          "hash": "0x50cdf86c00c04b771162445f54e69147e63165ec2b284de0e7badf7d452efe1d",
          "transactionType": "CALL",
          "contractName": null,
          "contractAddress": "0x4ef1b0dc0e2ea41aecba2903e9041ef33045fa10",
          "function": "approveAll(address,address)",
          "arguments": [
            "0xc2132D05D31c914a87C6611C10748AEb04B58e8F",
            "0xd47b03ee6d86Cf251ee7860FB2ACf9f91B9fD4d7"
          ],
          "transaction": {
            "from": "0xaab6f44b46f19d061582727b66c9a0c84c97a2f6",
            "to": "0x4ef1b0dc0e2ea41aecba2903e9041ef33045fa10",
            "gas": "0x13b45",
            "value": "0x0",
            "input": "0x0a443276000000000000000000000000c2132d05d31c914a87c6611c10748aeb04b58e8f000000000000000000000000d47b03ee6d86cf251ee7860fb2acf9f91b9fd4d7",
            "nonce": "0x8c",
            "chainId": "0x89"
          },
          "additionalContracts": [],
          "isFixedGasLimit": false
        }
      ],
      "receipts": [
        {
          "status": "0x1",
          "cumulativeGasUsed": "0x12c34af",
          "logs": [
            {
              "address": "0x3c499c542cef5e3811e1192ce70d8cc03d5c3359",
              "topics": [
                "0x8c5be1e5ebec7d5bd14f71427d1e84f3dd0314c0f7b2291e5b200ac8c7c3b925",
                "0x0000000000000000000000004ef1b0dc0e2ea41aecba2903e9041ef33045fa10",
                "0x0000000000000000000000009aa02d4fae7f58b8e8f34c66e756cc734dac7fe4"
              ],
              "data": "0xffffffffffffffffffffffffffffffffffffffffffffffffffffffffffffffff",
              "blockHash": "0xceb1341c701bdecf36406c1322a2a5221f6f40468b52085af0e66ab610647e06",
              "blockNumber": "0x45d05ca",
              "transactionHash": "0xd648dcd032af7243d5564757b63a94cd90b7a1495e8dc914117f9779b495ec32",
              "transactionIndex": "0x5f",
              "logIndex": "0x2cf",
              "removed": false
            },
            {
              "address": "0x0000000000000000000000000000000000001010",
              "topics": [
                "0x4dfe1bbbcf077ddc3e01291eea2d5c70c2b422b415d95645b9adcfd678cb1d63",
                "0x0000000000000000000000000000000000000000000000000000000000001010",
                "0x000000000000000000000000aab6f44b46f19d061582727b66c9a0c84c97a2f6",
                "0x00000000000000000000000067b94473d81d0cd00849d563c94d0432ac988b49"
              ],
              "data": "0x000000000000000000000000000000000000000000000000000570c6cb49cc0000000000000000000000000000000000000000000000000122b96fa425af44b500000000000000000000000000000000000000000000002cd572eefa7dc7367c00000000000000000000000000000000000000000000000122b3fedd5a6578b500000000000000000000000000000000000000000000002cd5785fc14911027c",
              "blockHash": "0xceb1341c701bdecf36406c1322a2a5221f6f40468b52085af0e66ab610647e06",
              "blockNumber": "0x45d05ca",
              "transactionHash": "0xd648dcd032af7243d5564757b63a94cd90b7a1495e8dc914117f9779b495ec32",
              "transactionIndex": "0x5f",
              "logIndex": "0x2d0",
              "removed": false
            }
          ],
          "logsBloom": "0x04000000000000000000000000000000000000000000000000000000000000000000000000000000000000000000002000008000000000000000000000200000000000000000000000000000000000800010000000000000000100000000000000000000000000000000000000000000000000000000000080000000000800000000000000000000000000000000000100000000000000000000000000000000220100004000000000000000000000000800000000000000000000000000004000800000000000000001000000008000000010000000000000100000000000000010020000000000000000000000010000000000100000000000000002100000",
          "type": "0x2",
          "transactionHash": "0xd648dcd032af7243d5564757b63a94cd90b7a1495e8dc914117f9779b495ec32",
          "transactionIndex": "0x5f",
          "blockHash": "0xceb1341c701bdecf36406c1322a2a5221f6f40468b52085af0e66ab610647e06",
          "blockNumber": "0x45d05ca",
          "gasUsed": "0xe613",
          "effectiveGasPrice": "0x60db88429",
          "from": "0xaab6f44b46f19d061582727b66c9a0c84c97a2f6",
          "to": "0x4ef1b0dc0e2ea41aecba2903e9041ef33045fa10",
          "contractAddress": null
        },
        {
          "status": "0x1",
          "cumulativeGasUsed": "0x12d0c41",
          "logs": [
            {
              "address": "0xc2132d05d31c914a87c6611c10748aeb04b58e8f",
              "topics": [
                "0x8c5be1e5ebec7d5bd14f71427d1e84f3dd0314c0f7b2291e5b200ac8c7c3b925",
                "0x0000000000000000000000004ef1b0dc0e2ea41aecba2903e9041ef33045fa10",
                "0x000000000000000000000000d47b03ee6d86cf251ee7860fb2acf9f91b9fd4d7"
              ],
              "data": "0xffffffffffffffffffffffffffffffffffffffffffffffffffffffffffffffff",
              "blockHash": "0xceb1341c701bdecf36406c1322a2a5221f6f40468b52085af0e66ab610647e06",
              "blockNumber": "0x45d05ca",
              "transactionHash": "0x50cdf86c00c04b771162445f54e69147e63165ec2b284de0e7badf7d452efe1d",
              "transactionIndex": "0x60",
              "logIndex": "0x2d1",
              "removed": false
            },
            {
              "address": "0x0000000000000000000000000000000000001010",
              "topics": [
                "0x4dfe1bbbcf077ddc3e01291eea2d5c70c2b422b415d95645b9adcfd678cb1d63",
                "0x0000000000000000000000000000000000000000000000000000000000001010",
                "0x000000000000000000000000aab6f44b46f19d061582727b66c9a0c84c97a2f6",
                "0x00000000000000000000000067b94473d81d0cd00849d563c94d0432ac988b49"
              ],
              "data": "0x000000000000000000000000000000000000000000000000000518f9ca17480000000000000000000000000000000000000000000000000122b3fedd5a409faa00000000000000000000000000000000000000000000002cd5785fc14911027c00000000000000000000000000000000000000000000000122aee5e3902957aa00000000000000000000000000000000000000000000002cd57d78bb13284a7c",
              "blockHash": "0xceb1341c701bdecf36406c1322a2a5221f6f40468b52085af0e66ab610647e06",
              "blockNumber": "0x45d05ca",
              "transactionHash": "0x50cdf86c00c04b771162445f54e69147e63165ec2b284de0e7badf7d452efe1d",
              "transactionIndex": "0x60",
              "logIndex": "0x2d2",
              "removed": false
            }
          ],
          "logsBloom": "0x00000000000000000000000000000000000000000000000000000000000000000000000000000000000000000010002100008000000000000000000000200000000000000000000000000000000000800000000000000000000100000000000000000000000000000000000100000000000000000000000080000000000000000000000000080000000000000000000100000000000000000000000000000000220100004000000000000000000000000000000000000400000000000000004000800000000000000001000000008000400010000000000000100000000000000010020000000000000000000000000000000000000000000000000002100000",
          "type": "0x2",
          "transactionHash": "0x50cdf86c00c04b771162445f54e69147e63165ec2b284de0e7badf7d452efe1d",
          "transactionIndex": "0x60",
          "blockHash": "0xceb1341c701bdecf36406c1322a2a5221f6f40468b52085af0e66ab610647e06",
          "blockNumber": "0x45d05ca",
          "gasUsed": "0xd792",
          "effectiveGasPrice": "0x60db88429",
          "from": "0xaab6f44b46f19d061582727b66c9a0c84c97a2f6",
          "to": "0x4ef1b0dc0e2ea41aecba2903e9041ef33045fa10",
          "contractAddress": null
        }
      ],
      "libraries": [],
      "pending": [],
      "returns": {},
      "timestamp": 1750858641,
      "chain": 137,
      "commit": "577b7c0"
    }
  ],
  "timestamp": 1750858661
}