{
  "deployments": [
    {
      "transactions": [
        {
          "hash": "0xa2b973fe4de2d64d57105ce8799d2b7251210df7fb8fbd62d2398d063cdfdfae",
          "transactionType": "CALL",
          "contractName": null,
          "contractAddress": "0x1d3c5381dd07d5eef757c1edbba01db4a262bb86",
          "function": "approveAll(address,address)",
          "arguments": [
            "0x17906b1Cd88aA8EfaEfC5e82891B52a22219BD45",
            "0xae1E04F18D1323d8EaC7Ba5b2c683c95DC3baC97"
          ],
          "transaction": {
            "from": "0xaab6f44b46f19d061582727b66c9a0c84c97a2f6",
            "to": "0x1d3c5381dd07d5eef757c1edbba01db4a262bb86",
            "gas": "0x11add",
            "value": "0x0",
            "input": "0x0a44327600000000000000000000000017906b1cd88aa8efaefc5e82891b52a22219bd45000000000000000000000000ae1e04f18d1323d8eac7ba5b2c683c95dc3bac97",
            "nonce": "0x41",
            "chainId": "0xa"
          },
          "additionalContracts": [],
          "isFixedGasLimit": false
        },
        {
          "hash": null,
          "transactionType": "CALL",
          "contractName": null,
          "contractAddress": "0x1d3c5381dd07d5eef757c1edbba01db4a262bb86",
          "function": "approveAll(address,address)",
          "arguments": [
            "0x2416092f143378750bb29b79eD961ab195CcEea5",
            "0xacEB607CdF59EB8022Cc0699eEF3eCF246d149e2"
          ],
          "transaction": {
            "from": "0xaab6f44b46f19d061582727b66c9a0c84c97a2f6",
            "to": "0x1d3c5381dd07d5eef757c1edbba01db4a262bb86",
            "gas": "0x132e5",
            "value": "0x0",
            "input": "0x0a4432760000000000000000000000002416092f143378750bb29b79ed961ab195cceea5000000000000000000000000aceb607cdf59eb8022cc0699eef3ecf246d149e2",
            "nonce": "0x42",
            "chainId": "0xa"
          },
          "additionalContracts": [],
          "isFixedGasLimit": false
        },
        {
          "hash": null,
          "transactionType": "CALL",
          "contractName": null,
          "contractAddress": "0x1d3c5381dd07d5eef757c1edbba01db4a262bb86",
          "function": "approveAll(address,address)",
          "arguments": [
            "0x4200000000000000000000000000000000000042",
            "0x0Ea3C23A4dC198c289D5443ac302335aBc86E6b1"
          ],
          "transaction": {
            "from": "0xaab6f44b46f19d061582727b66c9a0c84c97a2f6",
            "to": "0x1d3c5381dd07d5eef757c1edbba01db4a262bb86",
            "gas": "0x10e7f",
            "value": "0x0",
            "input": "0x0a44327600000000000000000000000042000000000000000000000000000000000000420000000000000000000000000ea3c23a4dc198c289d5443ac302335abc86e6b1",
            "nonce": "0x43",
            "chainId": "0xa"
          },
          "additionalContracts": [],
          "isFixedGasLimit": false
        }
      ],
      "receipts": [],
      "libraries": [],
      "pending": [
        "0xa2b973fe4de2d64d57105ce8799d2b7251210df7fb8fbd62d2398d063cdfdfae"
      ],
      "returns": {},
      "timestamp": 1751396814,
      "chain": 10,
      "commit": "f7af6da"
    },
    {
      "transactions": [
        {
          "hash": null,
          "transactionType": "CALL",
          "contractName": null,
          "contractAddress": "0x1d3c5381dd07d5eef757c1edbba01db4a262bb86",
          "function": "approveAll(address,address)",
          "arguments": [
            "0xC316C8252B5F2176d0135Ebb0999E99296998F2e",
            "0xa7D6042eEf06E81168e640b5C41632eE5295227D"
          ],
          "transaction": {
            "from": "0xaab6f44b46f19d061582727b66c9a0c84c97a2f6",
            "to": "0x1d3c5381dd07d5eef757c1edbba01db4a262bb86",
            "gas": "0x15063",
            "value": "0x0",
            "input": "0x0a443276000000000000000000000000c316c8252b5f2176d0135ebb0999e99296998f2e000000000000000000000000a7d6042eef06e81168e640b5c41632ee5295227d",
            "nonce": "0x12",
            "chainId": "0x14d2"
          },
          "additionalContracts": [],
          "isFixedGasLimit": false
        },
        {
          "hash": null,
          "transactionType": "CALL",
          "contractName": null,
          "contractAddress": "0x1d3c5381dd07d5eef757c1edbba01db4a262bb86",
          "function": "approveAll(address,address)",
          "arguments": [
            "0x6f36DBD829DE9b7e077DB8A35b480d4329ceB331",
            "0x0a78BC3CBBC79C4C6E5d4e5b2bbD042E58e93484"
          ],
          "transaction": {
            "from": "0xaab6f44b46f19d061582727b66c9a0c84c97a2f6",
            "to": "0x1d3c5381dd07d5eef757c1edbba01db4a262bb86",
            "gas": "0x15063",
            "value": "0x0",
            "input": "0x0a4432760000000000000000000000006f36dbd829de9b7e077db8a35b480d4329ceb3310000000000000000000000000a78bc3cbbc79c4c6e5d4e5b2bbd042e58e93484",
            "nonce": "0x13",
            "chainId": "0x14d2"
          },
          "additionalContracts": [],
          "isFixedGasLimit": false
        },
        {
          "hash": null,
          "transactionType": "CALL",
          "contractName": null,
          "contractAddress": "0x1d3c5381dd07d5eef757c1edbba01db4a262bb86",
          "function": "approveAll(address,address)",
          "arguments": [
            "0x6EA1fFcbD7F5D210dB07D9E773862B0512fA219B",
            "0xA1863B4b02b7DCd7429F62C775816328D63020F4"
          ],
          "transaction": {
            "from": "0xaab6f44b46f19d061582727b66c9a0c84c97a2f6",
            "to": "0x1d3c5381dd07d5eef757c1edbba01db4a262bb86",
            "gas": "0x10cd9",
            "value": "0x0",
            "input": "0x0a4432760000000000000000000000006ea1ffcbd7f5d210db07d9e773862b0512fa219b000000000000000000000000a1863b4b02b7dcd7429f62c775816328d63020f4",
            "nonce": "0x14",
            "chainId": "0x14d2"
          },
          "additionalContracts": [],
          "isFixedGasLimit": false
        }
      ],
      "receipts": [],
      "libraries": [],
      "pending": [],
      "returns": {},
      "timestamp": 1751396815,
      "chain": 5330,
      "commit": "f7af6da"
    },
    {
      "transactions": [
        {
          "hash": null,
          "transactionType": "CALL",
          "contractName": null,
          "contractAddress": "0x1d3c5381dd07d5eef757c1edbba01db4a262bb86",
          "function": "approveAll(address,address)",
          "arguments": [
            "0x2416092f143378750bb29b79eD961ab195CcEea5",
            "0xB26bBfC6d1F469C821Ea25099017862e7368F4E8"
          ],
          "transaction": {
            "from": "0xaab6f44b46f19d061582727b66c9a0c84c97a2f6",
            "to": "0x1d3c5381dd07d5eef757c1edbba01db4a262bb86",
            "gas": "0x15e20",
            "value": "0x0",
            "input": "0x0a4432760000000000000000000000002416092f143378750bb29b79ed961ab195cceea5000000000000000000000000b26bbfc6d1f469c821ea25099017862e7368f4e8",
            "nonce": "0x38",
            "chainId": "0xa4b1"
          },
          "additionalContracts": [],
          "isFixedGasLimit": false
        }
      ],
      "receipts": [],
      "libraries": [],
      "pending": [],
      "returns": {},
      "timestamp": 1751396815,
      "chain": 42161,
      "commit": "f7af6da"
    },
    {
      "transactions": [
        {
          "hash": null,
          "transactionType": "CALL",
          "contractName": null,
          "contractAddress": "0x1d3c5381dd07d5eef757c1edbba01db4a262bb86",
          "function": "approveAll(address,address)",
          "arguments": [
            "0x2416092f143378750bb29b79eD961ab195CcEea5",
            "0xE00C6185a5c19219F1FFeD213b4406a254968c26"
          ],
          "transaction": {
            "from": "0xaab6f44b46f19d061582727b66c9a0c84c97a2f6",
            "to": "0x1d3c5381dd07d5eef757c1edbba01db4a262bb86",
            "gas": "0x132e5",
            "value": "0x0",
            "input": "0x0a4432760000000000000000000000002416092f143378750bb29b79ed961ab195cceea5000000000000000000000000e00c6185a5c19219f1ffed213b4406a254968c26",
            "nonce": "0x4d",
            "chainId": "0x38"
          },
          "additionalContracts": [],
          "isFixedGasLimit": false
        }
      ],
      "receipts": [],
      "libraries": [],
      "pending": [],
      "returns": {},
      "timestamp": 1751396815,
      "chain": 56,
      "commit": "f7af6da"
    },
    {
      "transactions": [
        {
          "hash": null,
          "transactionType": "CALL",
          "contractName": null,
          "contractAddress": "0x1d3c5381dd07d5eef757c1edbba01db4a262bb86",
          "function": "approveAll(address,address)",
          "arguments": [
            "0xcbB7C0000aB88B473b1f5aFd9ef808440eed33Bf",
            "0x7710d2FC9A2E0452b28a2cBf550429b579347199"
          ],
          "transaction": {
            "from": "0xaab6f44b46f19d061582727b66c9a0c84c97a2f6",
            "to": "0x1d3c5381dd07d5eef757c1edbba01db4a262bb86",
            "gas": "0x16a1d",
            "value": "0x0",
            "input": "0x0a443276000000000000000000000000cbb7c0000ab88b473b1f5afd9ef808440eed33bf0000000000000000000000007710d2fc9a2e0452b28a2cbf550429b579347199",
            "nonce": "0x33",
            "chainId": "0x1"
          },
          "additionalContracts": [],
          "isFixedGasLimit": false
        },
        {
          "hash": null,
          "transactionType": "CALL",
          "contractName": null,
          "contractAddress": "0x1d3c5381dd07d5eef757c1edbba01db4a262bb86",
          "function": "approveAll(address,address)",
          "arguments": [
            "0x17906b1Cd88aA8EfaEfC5e82891B52a22219BD45",
            "0xbc808c98beA0a097346273A9Fd7a5B231fc2d889"
          ],
          "transaction": {
            "from": "0xaab6f44b46f19d061582727b66c9a0c84c97a2f6",
            "to": "0x1d3c5381dd07d5eef757c1edbba01db4a262bb86",
            "gas": "0x11add",
            "value": "0x0",
            "input": "0x0a44327600000000000000000000000017906b1cd88aa8efaefc5e82891b52a22219bd45000000000000000000000000bc808c98bea0a097346273a9fd7a5b231fc2d889",
            "nonce": "0x34",
            "chainId": "0x1"
          },
          "additionalContracts": [],
          "isFixedGasLimit": false
        },
        {
          "hash": null,
          "transactionType": "CALL",
          "contractName": null,
          "contractAddress": "0x1d3c5381dd07d5eef757c1edbba01db4a262bb86",
          "function": "approveAll(address,address)",
          "arguments": [
            "0xbf5495Efe5DB9ce00f80364C8B423567e58d2110",
            "0xC59336D8edDa9722B4f1Ec104007191Ec16f7087"
          ],
          "transaction": {
            "from": "0xaab6f44b46f19d061582727b66c9a0c84c97a2f6",
            "to": "0x1d3c5381dd07d5eef757c1edbba01db4a262bb86",
            "gas": "0x13338",
            "value": "0x0",
            "input": "0x0a443276000000000000000000000000bf5495efe5db9ce00f80364c8b423567e58d2110000000000000000000000000c59336d8edda9722b4f1ec104007191ec16f7087",
            "nonce": "0x35",
            "chainId": "0x1"
          },
          "additionalContracts": [],
          "isFixedGasLimit": false
        },
        {
          "hash": null,
          "transactionType": "CALL",
          "contractName": null,
          "contractAddress": "0x1d3c5381dd07d5eef757c1edbba01db4a262bb86",
          "function": "approveAll(address,address)",
          "arguments": [
            "0xbe0Ed4138121EcFC5c0E56B40517da27E6c5226B",
            "0x235E11459c8C21B2656484F8c6a7418242cfBde0"
          ],
          "transaction": {
            "from": "0xaab6f44b46f19d061582727b66c9a0c84c97a2f6",
            "to": "0x1d3c5381dd07d5eef757c1edbba01db4a262bb86",
            "gas": "0x10c3d",
            "value": "0x0",
            "input": "0x0a443276000000000000000000000000be0ed4138121ecfc5c0e56b40517da27e6c5226b000000000000000000000000235e11459c8c21b2656484f8c6a7418242cfbde0",
            "nonce": "0x36",
            "chainId": "0x1"
          },
          "additionalContracts": [],
          "isFixedGasLimit": false
        },
        {
          "hash": null,
          "transactionType": "CALL",
          "contractName": null,
          "contractAddress": "0x1d3c5381dd07d5eef757c1edbba01db4a262bb86",
          "function": "approveAll(address,address)",
          "arguments": [
            "0x0f7dC5D02CC1E1f5Ee47854d534D332A1081cCC8",
            "0x1731Fe5aED11f397C88aC2551384aF8E346Fc699"
          ],
          "transaction": {
            "from": "0xaab6f44b46f19d061582727b66c9a0c84c97a2f6",
            "to": "0x1d3c5381dd07d5eef757c1edbba01db4a262bb86",
            "gas": "0x11bc9",
            "value": "0x0",
            "input": "0x0a4432760000000000000000000000000f7dc5d02cc1e1f5ee47854d534d332a1081ccc80000000000000000000000001731fe5aed11f397c88ac2551384af8e346fc699",
            "nonce": "0x37",
            "chainId": "0x1"
          },
          "additionalContracts": [],
          "isFixedGasLimit": false
        },
        {
          "hash": null,
          "transactionType": "CALL",
          "contractName": null,
          "contractAddress": "0x1d3c5381dd07d5eef757c1edbba01db4a262bb86",
          "function": "approveAll(address,address)",
          "arguments": [
            "0x310C8F00b9dE3c31Ab95ea68feb6C877538f7947",
            "0xD971CDfFaC53d9DF56bad78E01711272C0570fb9"
          ],
          "transaction": {
            "from": "0xaab6f44b46f19d061582727b66c9a0c84c97a2f6",
            "to": "0x1d3c5381dd07d5eef757c1edbba01db4a262bb86",
            "gas": "0x133c2",
            "value": "0x0",
            "input": "0x0a443276000000000000000000000000310c8f00b9de3c31ab95ea68feb6c877538f7947000000000000000000000000d971cdffac53d9df56bad78e01711272c0570fb9",
            "nonce": "0x38",
            "chainId": "0x1"
          },
          "additionalContracts": [],
          "isFixedGasLimit": false
        }
      ],
      "receipts": [],
      "libraries": [],
      "pending": [],
      "returns": {},
      "timestamp": 1751396815,
      "chain": 1,
      "commit": "f7af6da"
    },
    {
      "transactions": [
        {
          "hash": null,
          "transactionType": "CALL",
          "contractName": null,
          "contractAddress": "0x1d3c5381dd07d5eef757c1edbba01db4a262bb86",
          "function": "approveAll(address,address)",
          "arguments": [
            "0x765Af38A6e8FDcB1EFEF8a3dd2213EFD3090B00F",
            "0x38A357A34ea7e9E41718593Bb624CC628698eDc8"
          ],
          "transaction": {
            "from": "0xaab6f44b46f19d061582727b66c9a0c84c97a2f6",
            "to": "0x1d3c5381dd07d5eef757c1edbba01db4a262bb86",
            "gas": "0x10b82",
            "value": "0x0",
            "input": "0x0a443276000000000000000000000000765af38a6e8fdcb1efef8a3dd2213efd3090b00f00000000000000000000000038a357a34ea7e9e41718593bb624cc628698edc8",
            "nonce": "0xa0",
            "chainId": "0x89"
          },
          "additionalContracts": [],
          "isFixedGasLimit": false
        }
      ],
      "receipts": [],
      "libraries": [],
      "pending": [],
      "returns": {},
      "timestamp": 1751396815,
      "chain": 137,
      "commit": "f7af6da"
    }
  ],
  "timestamp": 1751396816
}