{
  "deployments": [
    {
      "transactions": [
        {
          "hash": "0x82d4841b390e73fa0ddb92958f82e0fe89a2edb34cad8e792cb83ba584854792",
          "transactionType": "CALL",
          "contractName": null,
          "contractAddress": "0x586bdfe433ed38912ac96b2608d8181cd3bb0dec",
          "function": "approveAll(address,address)",
          "arguments": [
            "0x833589fCD6eDb6E08f4c7C32D4f71b54bdA02913",
            "0x955132016f9B6376B1392aA7BFF50538d21Ababc"
          ],
          "transaction": {
            "from": "0xaab6f44b46f19d061582727b66c9a0c84c97a2f6",
            "to": "0x586bdfe433ed38912ac96b2608d8181cd3bb0dec",
            "gas": "0x13db9",
            "value": "0x0",
            "input": "0x0a443276000000000000000000000000833589fcd6edb6e08f4c7c32d4f71b54bda02913000000000000000000000000955132016f9b6376b1392aa7bff50538d21ababc",
            "nonce": "0xeb",
            "chainId": "0x2105"
          },
          "additionalContracts": [],
          "isFixedGasLimit": false
        },
        {
          "hash": "0x58eb970749335867627b564f246ee71900fa08a791b1d2ff0ebee7eea22be87a",
          "transactionType": "CALL",
          "contractName": null,
          "contractAddress": "0x586bdfe433ed38912ac96b2608d8181cd3bb0dec",
          "function": "approveAll(address,address)",
          "arguments": [
            "0xcbB7C0000aB88B473b1f5aFd9ef808440eed33Bf",
            "0x66477F84bd21697c7781fc3992b3163463e3B224"
          ],
          "transaction": {
            "from": "0xaab6f44b46f19d061582727b66c9a0c84c97a2f6",
            "to": "0x586bdfe433ed38912ac96b2608d8181cd3bb0dec",
            "gas": "0x15604",
            "value": "0x0",
            "input": "0x0a443276000000000000000000000000cbb7c0000ab88b473b1f5afd9ef808440eed33bf00000000000000000000000066477f84bd21697c7781fc3992b3163463e3b224",
            "nonce": "0xec",
            "chainId": "0x2105"
          },
          "additionalContracts": [],
          "isFixedGasLimit": false
        },
        {
          "hash": "0xd01db06b354934fcd50e9c272b069e9aa0ce04723a841acfd0fb1237255da5d6",
          "transactionType": "CALL",
          "contractName": null,
          "contractAddress": "0x586bdfe433ed38912ac96b2608d8181cd3bb0dec",
          "function": "approveAll(address,address)",
          "arguments": [
            "0x17906b1Cd88aA8EfaEfC5e82891B52a22219BD45",
            "0x458BDDd0793fe4f70912535f172466a5473f2e77"
          ],
          "transaction": {
            "from": "0xaab6f44b46f19d061582727b66c9a0c84c97a2f6",
            "to": "0x586bdfe433ed38912ac96b2608d8181cd3bb0dec",
            "gas": "0x10b2b",
            "value": "0x0",
            "input": "0x0a44327600000000000000000000000017906b1cd88aa8efaefc5e82891b52a22219bd45000000000000000000000000458bddd0793fe4f70912535f172466a5473f2e77",
            "nonce": "0xed",
            "chainId": "0x2105"
          },
          "additionalContracts": [],
          "isFixedGasLimit": false
        },
        {
          "hash": "0xff1a78a0093ae3da5fa29fc1b2b36ce9fd613fbeaf4400f4ae653bdbea61b226",
          "transactionType": "CALL",
          "contractName": null,
          "contractAddress": "0x586bdfe433ed38912ac96b2608d8181cd3bb0dec",
          "function": "approveAll(address,address)",
          "arguments": [
            "0x2416092f143378750bb29b79eD961ab195CcEea5",
            "0x2552516453368e42705D791F674b312b8b87CD9e"
          ],
          "transaction": {
            "from": "0xaab6f44b46f19d061582727b66c9a0c84c97a2f6",
            "to": "0x586bdfe433ed38912ac96b2608d8181cd3bb0dec",
            "gas": "0x132ea",
            "value": "0x0",
            "input": "0x0a4432760000000000000000000000002416092f143378750bb29b79ed961ab195cceea50000000000000000000000002552516453368e42705d791f674b312b8b87cd9e",
            "nonce": "0xee",
            "chainId": "0x2105"
          },
          "additionalContracts": [],
          "isFixedGasLimit": false
        },
        {
          "hash": "0x3adb145feae37c8698e7fb6d1ead040c28631f4c4469826262e078b4c040803c",
          "transactionType": "CALL",
          "contractName": null,
          "contractAddress": "0x586bdfe433ed38912ac96b2608d8181cd3bb0dec",
          "function": "approveAll(address,address)",
          "arguments": [
            "0x795ABCB2A9901F6EC510e18D40de08B84628c354",
            "0x0a905B4670c9f1A08F45f941374895eE7257a0F8"
          ],
          "transaction": {
            "from": "0xaab6f44b46f19d061582727b66c9a0c84c97a2f6",
            "to": "0x586bdfe433ed38912ac96b2608d8181cd3bb0dec",
            "gas": "0x129b8",
            "value": "0x0",
            "input": "0x0a443276000000000000000000000000795abcb2a9901f6ec510e18d40de08b84628c3540000000000000000000000000a905b4670c9f1a08f45f941374895ee7257a0f8",
            "nonce": "0xef",
            "chainId": "0x2105"
          },
          "additionalContracts": [],
          "isFixedGasLimit": false
        },
        {
          "hash": "0xbe9a26a13e67a76b436ca8dc0683bc658246f3b23af7ba5e59360c2bc14bc0ea",
          "transactionType": "CALL",
          "contractName": null,
          "contractAddress": "0xfb99dc60542fb919255d5fccc6ec38956a513a5f",
          "function": "approveAll(address,address)",
          "arguments": [
            "0x833589fCD6eDb6E08f4c7C32D4f71b54bdA02913",
            "0x27a16dc786820B16E5c9028b75B99F6f604b5d26"
          ],
          "transaction": {
            "from": "0xaab6f44b46f19d061582727b66c9a0c84c97a2f6",
            "to": "0xfb99dc60542fb919255d5fccc6ec38956a513a5f",
            "gas": "0x1507b",
            "value": "0x0",
            "input": "0x0a443276000000000000000000000000833589fcd6edb6e08f4c7c32d4f71b54bda0291300000000000000000000000027a16dc786820b16e5c9028b75b99f6f604b5d26",
            "nonce": "0xf0",
            "chainId": "0x2105"
          },
          "additionalContracts": [],
          "isFixedGasLimit": false
        }
      ],
      "receipts": [
        {
          "status": "0x1",
          "cumulativeGasUsed": "0xa58754",
          "logs": [
            {
              "address": "0x833589fcd6edb6e08f4c7c32d4f71b54bda02913",
              "topics": [
                "0x8c5be1e5ebec7d5bd14f71427d1e84f3dd0314c0f7b2291e5b200ac8c7c3b925",
                "0x000000000000000000000000586bdfe433ed38912ac96b2608d8181cd3bb0dec",
                "0x000000000000000000000000955132016f9b6376b1392aa7bff50538d21ababc"
              ],
              "data": "0xffffffffffffffffffffffffffffffffffffffffffffffffffffffffffffffff",
              "blockHash": "0x9731691d758b40e98a9f678b5236bf28c9e288533a0b28ef99505575515a0058",
              "blockNumber": "0x21c277b",
              "blockTimestamp": "0x68c2abd9",
              "transactionHash": "0x82d4841b390e73fa0ddb92958f82e0fe89a2edb34cad8e792cb83ba584854792",
              "transactionIndex": "0x3a",
              "logIndex": "0xa0",
              "removed": false
            }
          ],
          "logsBloom": "0x00000000000000000000000000000002000000000000000040000000000000000000000000000000040000000000100000000000000000000000000000200000000080000000000000000000000000000000000020080000000000000000000000800000200000000000000000000000000000000000000000000000000000000000000000000000000000000000000000000000000000000000000000000000020000000000000000000000000000000000000000000000000000000000000000000000000000000000000000000000000000000000000000000000000000000010000000000000000000000000000000000000000000000000000000000000",
          "type": "0x2",
          "transactionHash": "0x82d4841b390e73fa0ddb92958f82e0fe89a2edb34cad8e792cb83ba584854792",
          "transactionIndex": "0x3a",
          "blockHash": "0x9731691d758b40e98a9f678b5236bf28c9e288533a0b28ef99505575515a0058",
          "blockNumber": "0x21c277b",
          "gasUsed": "0xe607",
          "effectiveGasPrice": "0x282308",
          "from": "0xaab6f44b46f19d061582727b66c9a0c84c97a2f6",
          "to": "0x586bdfe433ed38912ac96b2608d8181cd3bb0dec",
          "contractAddress": null,
          "l1BaseFeeScalar": "0x8dd",
          "l1BlobBaseFee": "0x1",
          "l1BlobBaseFeeScalar": "0x101c12",
          "l1Fee": "0x3697f005",
          "l1GasPrice": "0xf09b226",
          "l1GasUsed": "0x640"
        },
        {
          "status": "0x1",
          "cumulativeGasUsed": "0xaa5102",
          "logs": [
            {
              "address": "0xcbb7c0000ab88b473b1f5afd9ef808440eed33bf",
              "topics": [
                "0x8c5be1e5ebec7d5bd14f71427d1e84f3dd0314c0f7b2291e5b200ac8c7c3b925",
                "0x000000000000000000000000586bdfe433ed38912ac96b2608d8181cd3bb0dec",
                "0x00000000000000000000000066477f84bd21697c7781fc3992b3163463e3b224"
              ],
              "data": "0xffffffffffffffffffffffffffffffffffffffffffffffffffffffffffffffff",
              "blockHash": "0x9731691d758b40e98a9f678b5236bf28c9e288533a0b28ef99505575515a0058",
              "blockNumber": "0x21c277b",
              "blockTimestamp": "0x68c2abd9",
              "transactionHash": "0x58eb970749335867627b564f246ee71900fa08a791b1d2ff0ebee7eea22be87a",
              "transactionIndex": "0x3e",
              "logIndex": "0xa7",
              "removed": false
            }
          ],
          "logsBloom": "0x00000000000000000000000000000000000000000000000040000000000000000000000000000000040000000000000002000000000000000000000000240000000000000000000000000000000000000000000000000000001000000000000000000000200000000000000000000000000000020000000000000000000000000000000000000000000000000000000000000000000000000000000000000000020000000000000000000000000000000000000000000000000000000000000000000000000000000000000000000000000000000000000000000000000400000010000000000000000000000000008000000000000000000000000000000000",
          "type": "0x2",
          "transactionHash": "0x58eb970749335867627b564f246ee71900fa08a791b1d2ff0ebee7eea22be87a",
          "transactionIndex": "0x3e",
          "blockHash": "0x9731691d758b40e98a9f678b5236bf28c9e288533a0b28ef99505575515a0058",
          "blockNumber": "0x21c277b",
          "gasUsed": "0xf79e",
          "effectiveGasPrice": "0x282308",
          "from": "0xaab6f44b46f19d061582727b66c9a0c84c97a2f6",
          "to": "0x586bdfe433ed38912ac96b2608d8181cd3bb0dec",
          "contractAddress": null,
          "l1BaseFeeScalar": "0x8dd",
          "l1BlobBaseFee": "0x1",
          "l1BlobBaseFeeScalar": "0x101c12",
          "l1Fee": "0x3697f005",
          "l1GasPrice": "0xf09b226",
          "l1GasUsed": "0x640"
        },
        {
          "status": "0x1",
          "cumulativeGasUsed": "0xab1270",
          "logs": [
            {
              "address": "0x17906b1cd88aa8efaefc5e82891b52a22219bd45",
              "topics": [
                "0x8c5be1e5ebec7d5bd14f71427d1e84f3dd0314c0f7b2291e5b200ac8c7c3b925",
                "0x000000000000000000000000586bdfe433ed38912ac96b2608d8181cd3bb0dec",
                "0x000000000000000000000000458bddd0793fe4f70912535f172466a5473f2e77"
              ],
              "data": "0xffffffffffffffffffffffffffffffffffffffffffffffffffffffffffffffff",
              "blockHash": "0x9731691d758b40e98a9f678b5236bf28c9e288533a0b28ef99505575515a0058",
              "blockNumber": "0x21c277b",
              "blockTimestamp": "0x68c2abd9",
              "transactionHash": "0xd01db06b354934fcd50e9c272b069e9aa0ce04723a841acfd0fb1237255da5d6",
              "transactionIndex": "0x3f",
              "logIndex": "0xa8",
              "removed": false
            }
          ],
          "logsBloom": "0x00000000000000000000000000000040000000000000000040000000000000000000000000000000040000000000000000000000000000000000000000200000000000000000000000000008000400000000000000000000000000000000000000000000200000000000000000000004000000000000000000000000000000000000000020000000000000000000000000000000000000000000000000000000020040000000000000000000000000000000000000000000000000000000000000000000000000000000000000000000000000000000000000000000000000000010000000000000000000000000000000000000000000000000000000000000",
          "type": "0x2",
          "transactionHash": "0xd01db06b354934fcd50e9c272b069e9aa0ce04723a841acfd0fb1237255da5d6",
          "transactionIndex": "0x3f",
          "blockHash": "0x9731691d758b40e98a9f678b5236bf28c9e288533a0b28ef99505575515a0058",
          "blockNumber": "0x21c277b",
          "gasUsed": "0xc16e",
          "effectiveGasPrice": "0x282308",
          "from": "0xaab6f44b46f19d061582727b66c9a0c84c97a2f6",
          "to": "0x586bdfe433ed38912ac96b2608d8181cd3bb0dec",
          "contractAddress": null,
          "l1BaseFeeScalar": "0x8dd",
          "l1BlobBaseFee": "0x1",
          "l1BlobBaseFeeScalar": "0x101c12",
          "l1Fee": "0x3697f005",
          "l1GasPrice": "0xf09b226",
          "l1GasUsed": "0x640"
        },
        {
          "status": "0x1",
          "cumulativeGasUsed": "0xabf0a4",
          "logs": [
            {
              "address": "0x2416092f143378750bb29b79ed961ab195cceea5",
              "topics": [
                "0x8c5be1e5ebec7d5bd14f71427d1e84f3dd0314c0f7b2291e5b200ac8c7c3b925",
                "0x000000000000000000000000586bdfe433ed38912ac96b2608d8181cd3bb0dec",
                "0x0000000000000000000000002552516453368e42705d791f674b312b8b87cd9e"
              ],
              "data": "0xffffffffffffffffffffffffffffffffffffffffffffffffffffffffffffffff",
              "blockHash": "0x4dfbf32364e044c6e590bdee5a9857ab3ad3b130c8e9ca764f361c66c6f31137",
              "blockNumber": "0x21c277b",
              "blockTimestamp": "0x68c2abd9",
              "transactionHash": "0xff1a78a0093ae3da5fa29fc1b2b36ce9fd613fbeaf4400f4ae653bdbea61b226",
              "transactionIndex": "0x40",
              "logIndex": "0xa9",
              "removed": false
            }
          ],
          "logsBloom": "0x00000004000000000000000000002000000000000000000040000000000000040000000000000080040000000000000000000000000000000000000000200000000000000400000000000000000000000000000000000000000000000000000000000000200000000000000000000000000000000000000000000000000000000000000000000000000000000000000000000000000000000000000000000000020000000000000000000000000000000000000200000000000000000000000000000000000000000000000000000000000000000000000000000000000000000010000000000000000000000000000000000000000000000000000000000000",
          "type": "0x2",
          "transactionHash": "0xff1a78a0093ae3da5fa29fc1b2b36ce9fd613fbeaf4400f4ae653bdbea61b226",
          "transactionIndex": "0x40",
          "blockHash": "0x4dfbf32364e044c6e590bdee5a9857ab3ad3b130c8e9ca764f361c66c6f31137",
          "blockNumber": "0x21c277b",
          "gasUsed": "0xde34",
          "effectiveGasPrice": "0x282308",
          "from": "0xaab6f44b46f19d061582727b66c9a0c84c97a2f6",
          "to": "0x586bdfe433ed38912ac96b2608d8181cd3bb0dec",
          "contractAddress": null,
          "l1BaseFeeScalar": "0x8dd",
          "l1BlobBaseFee": "0x1",
          "l1BlobBaseFeeScalar": "0x101c12",
          "l1Fee": "0x3697f005",
          "l1GasPrice": "0xf09b226",
          "l1GasUsed": "0x640"
        },
        {
          "status": "0x1",
          "cumulativeGasUsed": "0xacbc36",
          "logs": [
            {
              "address": "0x795abcb2a9901f6ec510e18d40de08b84628c354",
              "topics": [
                "0x8c5be1e5ebec7d5bd14f71427d1e84f3dd0314c0f7b2291e5b200ac8c7c3b925",
                "0x000000000000000000000000586bdfe433ed38912ac96b2608d8181cd3bb0dec",
                "0x0000000000000000000000000a905b4670c9f1a08f45f941374895ee7257a0f8"
              ],
              "data": "0xffffffffffffffffffffffffffffffffffffffffffffffffffffffffffffffff",
              "blockHash": "0x9731691d758b40e98a9f678b5236bf28c9e288533a0b28ef99505575515a0058",
              "blockNumber": "0x21c277b",
              "blockTimestamp": "0x68c2abd9",
              "transactionHash": "0x3adb145feae37c8698e7fb6d1ead040c28631f4c4469826262e078b4c040803c",
              "transactionIndex": "0x41",
              "logIndex": "0xaa",
              "removed": false
            }
          ],
          "logsBloom": "0x00000000000000000000000000000000000000000000000040000000000000000000000000000000040000000000000000000000000000000000000000200000000000000000000000000000000000000000000000000000000000000000000000000000200010000000000000000000200000000000000000000000000000000000000000000000000000000000080000000200000000000000000000000000020000000000000080000000000000000000000000000000000000000000000000000000000000000000000000000020000000000000000000000000000000000010000000000000000000000000000000000000000000000000000000000000",
          "type": "0x2",
          "transactionHash": "0x3adb145feae37c8698e7fb6d1ead040c28631f4c4469826262e078b4c040803c",
          "transactionIndex": "0x41",
          "blockHash": "0x9731691d758b40e98a9f678b5236bf28c9e288533a0b28ef99505575515a0058",
          "blockNumber": "0x21c277b",
          "gasUsed": "0xcb92",
          "effectiveGasPrice": "0x282308",
          "from": "0xaab6f44b46f19d061582727b66c9a0c84c97a2f6",
          "to": "0x586bdfe433ed38912ac96b2608d8181cd3bb0dec",
          "contractAddress": null,
          "l1BaseFeeScalar": "0x8dd",
          "l1BlobBaseFee": "0x1",
          "l1BlobBaseFeeScalar": "0x101c12",
          "l1Fee": "0x3697f005",
          "l1GasPrice": "0xf09b226",
          "l1GasUsed": "0x640"
        },
        {
          "status": "0x1",
          "cumulativeGasUsed": "0xada249",
          "logs": [
            {
              "address": "0x833589fcd6edb6e08f4c7c32d4f71b54bda02913",
              "topics": [
                "0x8c5be1e5ebec7d5bd14f71427d1e84f3dd0314c0f7b2291e5b200ac8c7c3b925",
                "0x000000000000000000000000fb99dc60542fb919255d5fccc6ec38956a513a5f",
                "0x00000000000000000000000027a16dc786820b16e5c9028b75b99f6f604b5d26"
              ],
              "data": "0xffffffffffffffffffffffffffffffffffffffffffffffffffffffffffffffff",
              "blockHash": "0x4dfbf32364e044c6e590bdee5a9857ab3ad3b130c8e9ca764f361c66c6f31137",
              "blockNumber": "0x21c277b",
              "blockTimestamp": "0x68c2abd9",
              "transactionHash": "0xbe9a26a13e67a76b436ca8dc0683bc658246f3b23af7ba5e59360c2bc14bc0ea",
              "transactionIndex": "0x42",
              "logIndex": "0xab",
              "removed": false
            }
          ],
          "logsBloom": "0x08000000000000000000000000000000000000000000000000000000000000000000000000000000000000000000100000000000000000000000000000200000000000000000000000000000000000000000000000080000000000000000000000800000000000004000000000000000000000000000000000000000000000000000000000000000000000080000000000000000000000000000000000000000020000000000000000000000000000000000000000000040000000000000000000000000000000000000000000100000000000000000000000800000000000000010000000000000000000000000000000000000000000000000000000000000",
          "type": "0x2",
          "transactionHash": "0xbe9a26a13e67a76b436ca8dc0683bc658246f3b23af7ba5e59360c2bc14bc0ea",
          "transactionIndex": "0x42",
          "blockHash": "0x4dfbf32364e044c6e590bdee5a9857ab3ad3b130c8e9ca764f361c66c6f31137",
          "blockNumber": "0x21c277b",
          "gasUsed": "0xe613",
          "effectiveGasPrice": "0x282308",
          "from": "0xaab6f44b46f19d061582727b66c9a0c84c97a2f6",
          "to": "0xfb99dc60542fb919255d5fccc6ec38956a513a5f",
          "contractAddress": null,
          "l1BaseFeeScalar": "0x8dd",
          "l1BlobBaseFee": "0x1",
          "l1BlobBaseFeeScalar": "0x101c12",
          "l1Fee": "0x3697f005",
          "l1GasPrice": "0xf09b226",
          "l1GasUsed": "0x640"
        }
      ],
      "libraries": [],
      "pending": [],
      "returns": {},
      "timestamp": 1757588436,
      "chain": 8453,
      "commit": "eb0500b"
    },
    {
      "transactions": [
        {
          "hash": "0xed01b7aa863b4c828bb849d1a9faaa2eb662e631f911bc285ccf08f5834a42e0",
          "transactionType": "CALL",
          "contractName": null,
          "contractAddress": "0x586bdfe433ed38912ac96b2608d8181cd3bb0dec",
          "function": "approveAll(address,address)",
          "arguments": [
            "0x0b2C639c533813f4Aa9D7837CAf62653d097Ff85",
            "0x741B077c69FA219CEdb11364706a3880A792423e"
          ],
          "transaction": {
            "from": "0xaab6f44b46f19d061582727b66c9a0c84c97a2f6",
            "to": "0x586bdfe433ed38912ac96b2608d8181cd3bb0dec",
            "gas": "0x13db9",
            "value": "0x0",
            "input": "0x0a4432760000000000000000000000000b2c639c533813f4aa9d7837caf62653d097ff85000000000000000000000000741b077c69fa219cedb11364706a3880a792423e",
            "nonce": "0x59",
            "chainId": "0xa"
          },
          "additionalContracts": [],
          "isFixedGasLimit": false
        },
        {
          "hash": "0xe104b9bd1311b2a5f682414bdafe12809800e1cabbf3152c33c0933ac9cd4bf6",
          "transactionType": "CALL",
          "contractName": null,
          "contractAddress": "0x586bdfe433ed38912ac96b2608d8181cd3bb0dec",
          "function": "approveAll(address,address)",
          "arguments": [
            "0x17906b1Cd88aA8EfaEfC5e82891B52a22219BD45",
            "0xae1E04F18D1323d8EaC7Ba5b2c683c95DC3baC97"
          ],
          "transaction": {
            "from": "0xaab6f44b46f19d061582727b66c9a0c84c97a2f6",
            "to": "0x586bdfe433ed38912ac96b2608d8181cd3bb0dec",
            "gas": "0x10b2b",
            "value": "0x0",
            "input": "0x0a44327600000000000000000000000017906b1cd88aa8efaefc5e82891b52a22219bd45000000000000000000000000ae1e04f18d1323d8eac7ba5b2c683c95dc3bac97",
            "nonce": "0x5a",
            "chainId": "0xa"
          },
          "additionalContracts": [],
          "isFixedGasLimit": false
        },
        {
          "hash": "0x39702eff025a25fae6a875b2e51bd31661ddb32440c741f9fb22bf4e4d1d7360",
          "transactionType": "CALL",
          "contractName": null,
          "contractAddress": "0x586bdfe433ed38912ac96b2608d8181cd3bb0dec",
          "function": "approveAll(address,address)",
          "arguments": [
            "0x2416092f143378750bb29b79eD961ab195CcEea5",
            "0xacEB607CdF59EB8022Cc0699eEF3eCF246d149e2"
          ],
          "transaction": {
            "from": "0xaab6f44b46f19d061582727b66c9a0c84c97a2f6",
            "to": "0x586bdfe433ed38912ac96b2608d8181cd3bb0dec",
            "gas": "0x132ea",
            "value": "0x0",
            "input": "0x0a4432760000000000000000000000002416092f143378750bb29b79ed961ab195cceea5000000000000000000000000aceb607cdf59eb8022cc0699eef3ecf246d149e2",
            "nonce": "0x5b",
            "chainId": "0xa"
          },
          "additionalContracts": [],
          "isFixedGasLimit": false
        },
        {
          "hash": "0xa81478dbfdca531ccc627920ce74d04d69a00f344c6b91c692507841d36d283a",
          "transactionType": "CALL",
          "contractName": null,
          "contractAddress": "0x586bdfe433ed38912ac96b2608d8181cd3bb0dec",
          "function": "approveAll(address,address)",
          "arguments": [
            "0x4200000000000000000000000000000000000042",
            "0x0Ea3C23A4dC198c289D5443ac302335aBc86E6b1"
          ],
          "transaction": {
            "from": "0xaab6f44b46f19d061582727b66c9a0c84c97a2f6",
            "to": "0x586bdfe433ed38912ac96b2608d8181cd3bb0dec",
            "gas": "0x11e6e",
            "value": "0x0",
            "input": "0x0a44327600000000000000000000000042000000000000000000000000000000000000420000000000000000000000000ea3c23a4dc198c289d5443ac302335abc86e6b1",
            "nonce": "0x5c",
            "chainId": "0xa"
          },
          "additionalContracts": [],
          "isFixedGasLimit": false
        },
        {
          "hash": "0x627b0496d112fa44491c6b0a3325dc3d4761510af90db463aff469551a9ffa3f",
          "transactionType": "CALL",
          "contractName": null,
          "contractAddress": "0xfb99dc60542fb919255d5fccc6ec38956a513a5f",
          "function": "approveAll(address,address)",
          "arguments": [
            "0x0b2C639c533813f4Aa9D7837CAf62653d097Ff85",
            "0xcE8CcA271Ebc0533920C83d39F417ED6A0abB7D0"
          ],
          "transaction": {
            "from": "0xaab6f44b46f19d061582727b66c9a0c84c97a2f6",
            "to": "0xfb99dc60542fb919255d5fccc6ec38956a513a5f",
            "gas": "0x1507b",
            "value": "0x0",
            "input": "0x0a4432760000000000000000000000000b2c639c533813f4aa9d7837caf62653d097ff85000000000000000000000000ce8cca271ebc0533920c83d39f417ed6a0abb7d0",
            "nonce": "0x5d",
            "chainId": "0xa"
          },
          "additionalContracts": [],
          "isFixedGasLimit": false
        },
        {
          "hash": "0x6260a02c2a31f9b72092577a9391a6af8bcfd644d2dd013d0b2aa38ab80dd833",
          "transactionType": "CALL",
          "contractName": null,
          "contractAddress": "0xfb99dc60542fb919255d5fccc6ec38956a513a5f",
          "function": "approveAll(address,address)",
          "arguments": [
            "0x94b008aA00579c1307B0EF2c499aD98a8ce58e58",
            "0x19cFCE47eD54a88614648DC3f19A5980097007dD"
          ],
          "transaction": {
            "from": "0xaab6f44b46f19d061582727b66c9a0c84c97a2f6",
            "to": "0xfb99dc60542fb919255d5fccc6ec38956a513a5f",
            "gas": "0x11c9b",
            "value": "0x0",
            "input": "0x0a44327600000000000000000000000094b008aa00579c1307b0ef2c499ad98a8ce58e5800000000000000000000000019cfce47ed54a88614648dc3f19a5980097007dd",
            "nonce": "0x5e",
            "chainId": "0xa"
          },
          "additionalContracts": [],
          "isFixedGasLimit": false
        }
      ],
      "receipts": [
        {
          "status": "0x1",
          "cumulativeGasUsed": "0x458900",
          "logs": [
            {
              "address": "0x0b2c639c533813f4aa9d7837caf62653d097ff85",
              "topics": [
                "0x8c5be1e5ebec7d5bd14f71427d1e84f3dd0314c0f7b2291e5b200ac8c7c3b925",
                "0x000000000000000000000000586bdfe433ed38912ac96b2608d8181cd3bb0dec",
                "0x000000000000000000000000741b077c69fa219cedb11364706a3880a792423e"
              ],
              "data": "0xffffffffffffffffffffffffffffffffffffffffffffffffffffffffffffffff",
              "blockHash": "0xa6c408b3e04e1452483fb37b5a25a6200ab38c277154eb8ee033647d6f11d3f7",
              "blockNumber": "0x8676911",
              "transactionHash": "0xed01b7aa863b4c828bb849d1a9faaa2eb662e631f911bc285ccf08f5834a42e0",
              "transactionIndex": "0x10",
              "logIndex": "0x51",
              "removed": false
            }
          ],
          "logsBloom": "0x00002000000000000000000000000000000000080000000040000000000000000000000000000000040000000000000000000000000000000000000000200000000000000000000000000000000000000000000000000000000000000000000000000000200000000000000000000000000000000000000000000000000000000000000000000000000000000000000000000000000000000000000002000000020000000000000000000000000400000000000000000000000000000000000000000000000000000000000000000000000000000000000000000000000000000010000000000002000000000000000000000000000000400000000000000000",
          "type": "0x2",
          "transactionHash": "0xed01b7aa863b4c828bb849d1a9faaa2eb662e631f911bc285ccf08f5834a42e0",
          "transactionIndex": "0x10",
          "blockHash": "0xa6c408b3e04e1452483fb37b5a25a6200ab38c277154eb8ee033647d6f11d3f7",
          "blockNumber": "0x8676911",
          "gasUsed": "0xe607",
          "effectiveGasPrice": "0x247",
          "from": "0xaab6f44b46f19d061582727b66c9a0c84c97a2f6",
          "to": "0x586bdfe433ed38912ac96b2608d8181cd3bb0dec",
          "contractAddress": null,
          "l1BaseFeeScalar": "0x146b",
          "l1BlobBaseFee": "0x1",
          "l1BlobBaseFeeScalar": "0xf79c5",
          "l1Fee": "0x8cb17e15",
          "l1GasPrice": "0x10d2a9f1",
          "l1GasUsed": "0x640"
        },
        {
          "status": "0x1",
          "cumulativeGasUsed": "0x464a6e",
          "logs": [
            {
              "address": "0x17906b1cd88aa8efaefc5e82891b52a22219bd45",
              "topics": [
                "0x8c5be1e5ebec7d5bd14f71427d1e84f3dd0314c0f7b2291e5b200ac8c7c3b925",
                "0x000000000000000000000000586bdfe433ed38912ac96b2608d8181cd3bb0dec",
                "0x000000000000000000000000ae1e04f18d1323d8eac7ba5b2c683c95dc3bac97"
              ],
              "data": "0xffffffffffffffffffffffffffffffffffffffffffffffffffffffffffffffff",
              "blockHash": "0xa6c408b3e04e1452483fb37b5a25a6200ab38c277154eb8ee033647d6f11d3f7",
              "blockNumber": "0x8676911",
              "transactionHash": "0xe104b9bd1311b2a5f682414bdafe12809800e1cabbf3152c33c0933ac9cd4bf6",
              "transactionIndex": "0x11",
              "logIndex": "0x52",
              "removed": false
            }
          ],
          "logsBloom": "0x00000000000000000000000000000040000000000000080040000000000000000000000000000000040000000000000000000000000000000000000000200000000000000000000000000000000400000000000000000000000000000000000000000000200000000000000000000000000000000000000000000000000000000000000020000000000000000000000000000000000000000000000004000000020000000000000000000000000000000000000000000000000000000000000000000000000000000000000000000000000000000000000000000000000000000010000000000000000000000000000000000000200000000000000000000000",
          "type": "0x2",
          "transactionHash": "0xe104b9bd1311b2a5f682414bdafe12809800e1cabbf3152c33c0933ac9cd4bf6",
          "transactionIndex": "0x11",
          "blockHash": "0xa6c408b3e04e1452483fb37b5a25a6200ab38c277154eb8ee033647d6f11d3f7",
          "blockNumber": "0x8676911",
          "gasUsed": "0xc16e",
          "effectiveGasPrice": "0x247",
          "from": "0xaab6f44b46f19d061582727b66c9a0c84c97a2f6",
          "to": "0x586bdfe433ed38912ac96b2608d8181cd3bb0dec",
          "contractAddress": null,
          "l1BaseFeeScalar": "0x146b",
          "l1BlobBaseFee": "0x1",
          "l1BlobBaseFeeScalar": "0xf79c5",
          "l1Fee": "0x8cb17e15",
          "l1GasPrice": "0x10d2a9f1",
          "l1GasUsed": "0x640"
        },
        {
          "status": "0x1",
          "cumulativeGasUsed": "0x4728a2",
          "logs": [
            {
              "address": "0x2416092f143378750bb29b79ed961ab195cceea5",
              "topics": [
                "0x8c5be1e5ebec7d5bd14f71427d1e84f3dd0314c0f7b2291e5b200ac8c7c3b925",
                "0x000000000000000000000000586bdfe433ed38912ac96b2608d8181cd3bb0dec",
                "0x000000000000000000000000aceb607cdf59eb8022cc0699eef3ecf246d149e2"
              ],
              "data": "0xffffffffffffffffffffffffffffffffffffffffffffffffffffffffffffffff",
              "blockHash": "0xa6c408b3e04e1452483fb37b5a25a6200ab38c277154eb8ee033647d6f11d3f7",
              "blockNumber": "0x8676911",
              "blockTimestamp": "0x68c2abdb",
              "transactionHash": "0x39702eff025a25fae6a875b2e51bd31661ddb32440c741f9fb22bf4e4d1d7360",
              "transactionIndex": "0x12",
              "logIndex": "0x53",
              "removed": false
            }
          ],
          "logsBloom": "0x00000000000000000000000000000000000000000000000040000000000000040000000008000080040000000000000100000000000000000000000000200000000000000400000000000000000000000000000000000000000000000000000000000000200000000000000000000000000000000000000000000000000000000000000000000000000000000000000000000000000000000000000000000000020000000000000000000000000000000000000000000000000000000000000000000000000000000000000000000000000000000000000000000000000000020010000000000000000000000000000000000000000000000000000000000000",
          "type": "0x2",
          "transactionHash": "0x39702eff025a25fae6a875b2e51bd31661ddb32440c741f9fb22bf4e4d1d7360",
          "transactionIndex": "0x12",
          "blockHash": "0xa6c408b3e04e1452483fb37b5a25a6200ab38c277154eb8ee033647d6f11d3f7",
          "blockNumber": "0x8676911",
          "gasUsed": "0xde34",
          "effectiveGasPrice": "0x247",
          "from": "0xaab6f44b46f19d061582727b66c9a0c84c97a2f6",
          "to": "0x586bdfe433ed38912ac96b2608d8181cd3bb0dec",
          "contractAddress": null,
          "l1BaseFeeScalar": "0x146b",
          "l1BlobBaseFee": "0x1",
          "l1BlobBaseFeeScalar": "0xf79c5",
          "l1Fee": "0x8cb17e15",
          "l1GasPrice": "0x10d2a9f1",
          "l1GasUsed": "0x640"
        },
        {
          "status": "0x1",
          "cumulativeGasUsed": "0x47ec7c",
          "logs": [
            {
              "address": "0x4200000000000000000000000000000000000042",
              "topics": [
                "0x8c5be1e5ebec7d5bd14f71427d1e84f3dd0314c0f7b2291e5b200ac8c7c3b925",
                "0x000000000000000000000000586bdfe433ed38912ac96b2608d8181cd3bb0dec",
                "0x0000000000000000000000000ea3c23a4dc198c289d5443ac302335abc86e6b1"
              ],
              "data": "0xffffffffffffffffffffffffffffffffffffffffffffffffffffffffffffffff",
              "blockHash": "0xa6c408b3e04e1452483fb37b5a25a6200ab38c277154eb8ee033647d6f11d3f7",
              "blockNumber": "0x8676911",
              "blockTimestamp": "0x68c2abdb",
              "transactionHash": "0xa81478dbfdca531ccc627920ce74d04d69a00f344c6b91c692507841d36d283a",
              "transactionIndex": "0x13",
              "logIndex": "0x54",
              "removed": false
            }
          ],
          "logsBloom": "0x00000000000000000000000000000000000000000000000040000000000000000000000000000000040000000000000000000000000000000000000000200040000000000000000020000000000000000000000000000000000000000000000000000000200000000000000000000000000000000000000000000000000000000000000000000000000000000000000000000000000000000000000000000000020000000000000000000000000020000000000000000000000000000000000000200000000000000000000000000000008000000000000000000000000000000010000000000000000000000000000000000000000000000200000000000000",
          "type": "0x2",
          "transactionHash": "0xa81478dbfdca531ccc627920ce74d04d69a00f344c6b91c692507841d36d283a",
          "transactionIndex": "0x13",
          "blockHash": "0xa6c408b3e04e1452483fb37b5a25a6200ab38c277154eb8ee033647d6f11d3f7",
          "blockNumber": "0x8676911",
          "gasUsed": "0xc3da",
          "effectiveGasPrice": "0x247",
          "from": "0xaab6f44b46f19d061582727b66c9a0c84c97a2f6",
          "to": "0x586bdfe433ed38912ac96b2608d8181cd3bb0dec",
          "contractAddress": null,
          "l1BaseFeeScalar": "0x146b",
          "l1BlobBaseFee": "0x1",
          "l1BlobBaseFeeScalar": "0xf79c5",
          "l1Fee": "0x8cb17e15",
          "l1GasPrice": "0x10d2a9f1",
          "l1GasUsed": "0x640"
        },
        {
          "status": "0x1",
          "cumulativeGasUsed": "0x48d28f",
          "logs": [
            {
              "address": "0x0b2c639c533813f4aa9d7837caf62653d097ff85",
              "topics": [
                "0x8c5be1e5ebec7d5bd14f71427d1e84f3dd0314c0f7b2291e5b200ac8c7c3b925",
                "0x000000000000000000000000fb99dc60542fb919255d5fccc6ec38956a513a5f",
                "0x000000000000000000000000ce8cca271ebc0533920c83d39f417ed6a0abb7d0"
              ],
              "data": "0xffffffffffffffffffffffffffffffffffffffffffffffffffffffffffffffff",
              "blockHash": "0xa6c408b3e04e1452483fb37b5a25a6200ab38c277154eb8ee033647d6f11d3f7",
              "blockNumber": "0x8676911",
              "transactionHash": "0x627b0496d112fa44491c6b0a3325dc3d4761510af90db463aff469551a9ffa3f",
              "transactionIndex": "0x14",
              "logIndex": "0x55",
              "removed": false
            }
          ],
          "logsBloom": "0x00002000000000000000000000000000000000080000000000000000000000000000000000000000000000000000000000000000400000000000000000200000000000000000000000000000000000000000000000000000000000000000000000000000000000004000000000000000000000000000000000000000000000000000000000000000000000000000000000000000080000000000000002000000020000000000000000000000000000000000000000000040000000000000000000000000000000000000000000100000000000000000000000000000000000000018000000000000000000000000000000000000000000000000000000000000",
          "type": "0x2",
          "transactionHash": "0x627b0496d112fa44491c6b0a3325dc3d4761510af90db463aff469551a9ffa3f",
          "transactionIndex": "0x14",
          "blockHash": "0xa6c408b3e04e1452483fb37b5a25a6200ab38c277154eb8ee033647d6f11d3f7",
          "blockNumber": "0x8676911",
          "gasUsed": "0xe613",
          "effectiveGasPrice": "0x247",
          "from": "0xaab6f44b46f19d061582727b66c9a0c84c97a2f6",
          "to": "0xfb99dc60542fb919255d5fccc6ec38956a513a5f",
          "contractAddress": null,
          "l1BaseFeeScalar": "0x146b",
          "l1BlobBaseFee": "0x1",
          "l1BlobBaseFeeScalar": "0xf79c5",
          "l1Fee": "0x8cb17e15",
          "l1GasPrice": "0x10d2a9f1",
          "l1GasUsed": "0x640",
          "operatorFeeConstant": "0x0",
          "operatorFeeScalar": "0x0"
        },
        {
          "status": "0x1",
          "cumulativeGasUsed": "0x49952a",
          "logs": [
            {
              "address": "0x94b008aa00579c1307b0ef2c499ad98a8ce58e58",
              "topics": [
                "0x8c5be1e5ebec7d5bd14f71427d1e84f3dd0314c0f7b2291e5b200ac8c7c3b925",
                "0x000000000000000000000000fb99dc60542fb919255d5fccc6ec38956a513a5f",
                "0x00000000000000000000000019cfce47ed54a88614648dc3f19a5980097007dd"
              ],
              "data": "0xffffffffffffffffffffffffffffffffffffffffffffffffffffffffffffffff",
              "blockHash": "0xa6c408b3e04e1452483fb37b5a25a6200ab38c277154eb8ee033647d6f11d3f7",
              "blockNumber": "0x8676911",
              "blockTimestamp": "0x68c2abdb",
              "transactionHash": "0x6260a02c2a31f9b72092577a9391a6af8bcfd644d2dd013d0b2aa38ab80dd833",
              "transactionIndex": "0x15",
              "logIndex": "0x56",
              "removed": false
            }
          ],
          "logsBloom": "0x00000000000000000000000000000000000000000000000000000000000000000000200000000000000000000000000000000000000000000000004000200000000000000000000000000000000000000000000000000000000000000000000000000000000000004000000000100000000000000000000000000000000000000000000000000000000000000000000000000000000000000000000000000000020000000000100000000000000000000000000000000040000000000000000000000000000000000000000000100000000000000000000000000000000000000010000800000000000000000000000000000000000008000000000000000000",
          "type": "0x2",
          "transactionHash": "0x6260a02c2a31f9b72092577a9391a6af8bcfd644d2dd013d0b2aa38ab80dd833",
          "transactionIndex": "0x15",
          "blockHash": "0xa6c408b3e04e1452483fb37b5a25a6200ab38c277154eb8ee033647d6f11d3f7",
          "blockNumber": "0x8676911",
          "gasUsed": "0xc29b",
          "effectiveGasPrice": "0x247",
          "from": "0xaab6f44b46f19d061582727b66c9a0c84c97a2f6",
          "to": "0xfb99dc60542fb919255d5fccc6ec38956a513a5f",
          "contractAddress": null,
          "l1BaseFeeScalar": "0x146b",
          "l1BlobBaseFee": "0x1",
          "l1BlobBaseFeeScalar": "0xf79c5",
          "l1Fee": "0x8cb17e15",
          "l1GasPrice": "0x10d2a9f1",
          "l1GasUsed": "0x640"
        }
      ],
      "libraries": [],
      "pending": [],
      "returns": {},
      "timestamp": 1757588437,
      "chain": 10,
      "commit": "eb0500b"
    },
    {
      "transactions": [
        {
          "hash": "0x067d078f19ec6353fe2ea2aaa6262722e5b5c13da343e6d91fd37d0d2c56181d",
          "transactionType": "CALL",
          "contractName": null,
          "contractAddress": "0x586bdfe433ed38912ac96b2608d8181cd3bb0dec",
          "function": "approveAll(address,address)",
          "arguments": [
            "0xC316C8252B5F2176d0135Ebb0999E99296998F2e",
            "0xa7D6042eEf06E81168e640b5C41632eE5295227D"
          ],
          "transaction": {
            "from": "0xaab6f44b46f19d061582727b66c9a0c84c97a2f6",
            "to": "0x586bdfe433ed38912ac96b2608d8181cd3bb0dec",
            "gas": "0x13db9",
            "value": "0x0",
            "input": "0x0a443276000000000000000000000000c316c8252b5f2176d0135ebb0999e99296998f2e000000000000000000000000a7d6042eef06e81168e640b5c41632ee5295227d",
            "nonce": "0x1a",
            "chainId": "0x14d2"
          },
          "additionalContracts": [],
          "isFixedGasLimit": false
        },
        {
          "hash": "0x77e8f9e4e95e87ba47361850ccb9145f766f4b681451695c9efb64e1a4fcfe7d",
          "transactionType": "CALL",
          "contractName": null,
          "contractAddress": "0x586bdfe433ed38912ac96b2608d8181cd3bb0dec",
          "function": "approveAll(address,address)",
          "arguments": [
            "0x6f36DBD829DE9b7e077DB8A35b480d4329ceB331",
            "0x0a78BC3CBBC79C4C6E5d4e5b2bbD042E58e93484"
          ],
          "transaction": {
            "from": "0xaab6f44b46f19d061582727b66c9a0c84c97a2f6",
            "to": "0x586bdfe433ed38912ac96b2608d8181cd3bb0dec",
            "gas": "0x13db9",
            "value": "0x0",
            "input": "0x0a4432760000000000000000000000006f36dbd829de9b7e077db8a35b480d4329ceb3310000000000000000000000000a78bc3cbbc79c4c6e5d4e5b2bbd042e58e93484",
            "nonce": "0x1b",
            "chainId": "0x14d2"
          },
          "additionalContracts": [],
          "isFixedGasLimit": false
        },
        {
          "hash": "0x5185ffa855c60029e5de4a795cb3814cd55a58d5d210bea637fb607bdfc3ba60",
          "transactionType": "CALL",
          "contractName": null,
          "contractAddress": "0x586bdfe433ed38912ac96b2608d8181cd3bb0dec",
          "function": "approveAll(address,address)",
          "arguments": [
            "0x6EA1fFcbD7F5D210dB07D9E773862B0512fA219B",
            "0xA1863B4b02b7DCd7429F62C775816328D63020F4"
          ],
          "transaction": {
            "from": "0xaab6f44b46f19d061582727b66c9a0c84c97a2f6",
            "to": "0x586bdfe433ed38912ac96b2608d8181cd3bb0dec",
            "gas": "0x11cb0",
            "value": "0x0",
            "input": "0x0a4432760000000000000000000000006ea1ffcbd7f5d210db07d9e773862b0512fa219b000000000000000000000000a1863b4b02b7dcd7429f62c775816328d63020f4",
            "nonce": "0x1c",
            "chainId": "0x14d2"
          },
          "additionalContracts": [],
          "isFixedGasLimit": false
        }
      ],
      "receipts": [
        {
          "status": "0x1",
          "cumulativeGasUsed": "0x19a23",
          "logs": [
            {
              "address": "0xc316c8252b5f2176d0135ebb0999e99296998f2e",
              "topics": [
                "0x8c5be1e5ebec7d5bd14f71427d1e84f3dd0314c0f7b2291e5b200ac8c7c3b925",
                "0x000000000000000000000000586bdfe433ed38912ac96b2608d8181cd3bb0dec",
                "0x000000000000000000000000a7d6042eef06e81168e640b5c41632ee5295227d"
              ],
              "data": "0xffffffffffffffffffffffffffffffffffffffffffffffffffffffffffffffff",
              "blockHash": "0x3534c4fca8c412649bb33fae727cb0d2edf76d187f1f3cf7f3820c227811d8e9",
              "blockNumber": "0xefa13e",
              "transactionHash": "0x067d078f19ec6353fe2ea2aaa6262722e5b5c13da343e6d91fd37d0d2c56181d",
              "transactionIndex": "0x1",
              "logIndex": "0x0",
              "removed": false
            }
          ],
          "logsBloom": "0x00000000000000000000000000000000000000000000000040000000000000000000000000000000040000000000000200000000000000000000000000200000080000000000000000000000000000000000000000000000000000000000000000000000200000000000000000000000000000000000000000000000000000000000000000000000000000000000000000000000000000000000000000000000020000000000000000000000000000000000400000000000000000100000000000020000000000000000000000000000000000000000000000000000000000000010800000000000000000000000000000000000000000000000000000000000",
          "type": "0x2",
          "transactionHash": "0x067d078f19ec6353fe2ea2aaa6262722e5b5c13da343e6d91fd37d0d2c56181d",
          "transactionIndex": "0x1",
          "blockHash": "0x3534c4fca8c412649bb33fae727cb0d2edf76d187f1f3cf7f3820c227811d8e9",
          "blockNumber": "0xefa13e",
          "gasUsed": "0xe607",
          "effectiveGasPrice": "0xfd",
          "from": "0xaab6f44b46f19d061582727b66c9a0c84c97a2f6",
          "to": "0x586bdfe433ed38912ac96b2608d8181cd3bb0dec",
          "contractAddress": null,
          "l1BaseFeeScalar": "0x14dfc0",
          "l1BlobBaseFee": "0x1",
          "l1BlobBaseFeeScalar": "0x0",
          "l1Fee": "0x939a055940",
          "l1GasPrice": "0x11436aeb",
          "l1GasUsed": "0x640"
        },
        {
          "status": "0x1",
          "cumulativeGasUsed": "0x2802a",
          "logs": [
            {
              "address": "0x6f36dbd829de9b7e077db8a35b480d4329ceb331",
              "topics": [
                "0x8c5be1e5ebec7d5bd14f71427d1e84f3dd0314c0f7b2291e5b200ac8c7c3b925",
                "0x000000000000000000000000586bdfe433ed38912ac96b2608d8181cd3bb0dec",
                "0x0000000000000000000000000a78bc3cbbc79c4c6e5d4e5b2bbd042e58e93484"
              ],
              "data": "0xffffffffffffffffffffffffffffffffffffffffffffffffffffffffffffffff",
              "blockHash": "0x3534c4fca8c412649bb33fae727cb0d2edf76d187f1f3cf7f3820c227811d8e9",
              "blockNumber": "0xefa13e",
              "transactionHash": "0x77e8f9e4e95e87ba47361850ccb9145f766f4b681451695c9efb64e1a4fcfe7d",
              "transactionIndex": "0x2",
              "logIndex": "0x1",
              "removed": false
            }
          ],
          "logsBloom": "0x00000000000000000100000000000000000000000000000040000000000000000000000000040000040000000000000000000000000400000000000000200000000000000000000000000000000000000000000000000000000000000000000000000000200000000400000000000000000000000000000000000000000000000000000000000000000000000000000000000010000000000000000000000000020000000000000000000000000000000000000000000000000000000000000000000000000000000000000000000000000000000000000000000000000000000010000000000000000000000000000000000000000000000000000000000100",
          "type": "0x2",
          "transactionHash": "0x77e8f9e4e95e87ba47361850ccb9145f766f4b681451695c9efb64e1a4fcfe7d",
          "transactionIndex": "0x2",
          "blockHash": "0x3534c4fca8c412649bb33fae727cb0d2edf76d187f1f3cf7f3820c227811d8e9",
          "blockNumber": "0xefa13e",
          "gasUsed": "0xe607",
          "effectiveGasPrice": "0xfd",
          "from": "0xaab6f44b46f19d061582727b66c9a0c84c97a2f6",
          "to": "0x586bdfe433ed38912ac96b2608d8181cd3bb0dec",
          "contractAddress": null,
          "l1BaseFeeScalar": "0x14dfc0",
          "l1BlobBaseFee": "0x1",
          "l1BlobBaseFeeScalar": "0x0",
          "l1Fee": "0x939a055940",
          "l1GasPrice": "0x11436aeb",
          "l1GasUsed": "0x640"
        },
        {
          "status": "0x1",
          "cumulativeGasUsed": "0x342d3",
          "logs": [
            {
              "address": "0x6ea1ffcbd7f5d210db07d9e773862b0512fa219b",
              "topics": [
                "0x8c5be1e5ebec7d5bd14f71427d1e84f3dd0314c0f7b2291e5b200ac8c7c3b925",
                "0x000000000000000000000000586bdfe433ed38912ac96b2608d8181cd3bb0dec",
                "0x000000000000000000000000a1863b4b02b7dcd7429f62c775816328d63020f4"
              ],
              "data": "0xffffffffffffffffffffffffffffffffffffffffffffffffffffffffffffffff",
              "blockHash": "0x3534c4fca8c412649bb33fae727cb0d2edf76d187f1f3cf7f3820c227811d8e9",
              "blockNumber": "0xefa13e",
              "transactionHash": "0x5185ffa855c60029e5de4a795cb3814cd55a58d5d210bea637fb607bdfc3ba60",
              "transactionIndex": "0x3",
              "logIndex": "0x2",
              "removed": false
            }
          ],
          "logsBloom": "0x00000000000000000000000000000000000000000000000040000000000000000000000000000000040000000000000000000000000000000000000000200000000000000000000000000000000000000000000000000000000000000000000000000000200000000000000000000000000000000000000000000000000000000000000000100000000000020000000000000000000100000000000000000000020000000000000000000000000001000000000000000000000000000000000000000000000000000080000000000000000000000000000000000000000000000010000000000000000000000000000000000008000000000000000000000000",
          "type": "0x2",
          "transactionHash": "0x5185ffa855c60029e5de4a795cb3814cd55a58d5d210bea637fb607bdfc3ba60",
          "transactionIndex": "0x3",
          "blockHash": "0x3534c4fca8c412649bb33fae727cb0d2edf76d187f1f3cf7f3820c227811d8e9",
          "blockNumber": "0xefa13e",
          "gasUsed": "0xc2a9",
          "effectiveGasPrice": "0xfd",
          "from": "0xaab6f44b46f19d061582727b66c9a0c84c97a2f6",
          "to": "0x586bdfe433ed38912ac96b2608d8181cd3bb0dec",
          "contractAddress": null,
          "l1BaseFeeScalar": "0x14dfc0",
          "l1BlobBaseFee": "0x1",
          "l1BlobBaseFeeScalar": "0x0",
          "l1Fee": "0x939a055940",
          "l1GasPrice": "0x11436aeb",
          "l1GasUsed": "0x640"
        }
      ],
      "libraries": [],
      "pending": [],
      "returns": {},
      "timestamp": 1757588437,
      "chain": 5330,
      "commit": "eb0500b"
    },
    {
      "transactions": [
        {
          "hash": "0x8c192c5197448c46fe03c45238e6badb5dff2179bf9deaf25a52efb717888df6",
          "transactionType": "CALL",
          "contractName": null,
          "contractAddress": "0x586bdfe433ed38912ac96b2608d8181cd3bb0dec",
          "function": "approveAll(address,address)",
          "arguments": [
            "0x2416092f143378750bb29b79eD961ab195CcEea5",
            "0xB26bBfC6d1F469C821Ea25099017862e7368F4E8"
          ],
          "transaction": {
            "from": "0xaab6f44b46f19d061582727b66c9a0c84c97a2f6",
            "to": "0x586bdfe433ed38912ac96b2608d8181cd3bb0dec",
            "gas": "0x12e31",
            "value": "0x0",
            "input": "0x0a4432760000000000000000000000002416092f143378750bb29b79ed961ab195cceea5000000000000000000000000b26bbfc6d1f469c821ea25099017862e7368f4e8",
            "nonce": "0x46",
            "chainId": "0xa4b1"
          },
          "additionalContracts": [],
          "isFixedGasLimit": false
        },
        {
          "hash": "0x35f66a4760ce640268c6b043bbfad39d94793e3ea619cea901805e15bd204178",
          "transactionType": "CALL",
          "contractName": null,
          "contractAddress": "0xfb99dc60542fb919255d5fccc6ec38956a513a5f",
          "function": "approveAll(address,address)",
          "arguments": [
            "0xaf88d065e77c8cC2239327C5EDb3A432268e5831",
            "0xe8CDF27AcD73a434D661C84887215F7598e7d0d3"
          ],
          "transaction": {
            "from": "0xaab6f44b46f19d061582727b66c9a0c84c97a2f6",
            "to": "0xfb99dc60542fb919255d5fccc6ec38956a513a5f",
            "gas": "0x13877",
            "value": "0x0",
            "input": "0x0a443276000000000000000000000000af88d065e77c8cc2239327c5edb3a432268e5831000000000000000000000000e8cdf27acd73a434d661c84887215f7598e7d0d3",
            "nonce": "0x47",
            "chainId": "0xa4b1"
          },
          "additionalContracts": [],
          "isFixedGasLimit": false
        },
        {
          "hash": "0x9721f9ce7c8ea8a8c6ff6790772d83ba80bb7ed35bf74a89a948b307fd2fd4f1",
          "transactionType": "CALL",
          "contractName": null,
          "contractAddress": "0xfb99dc60542fb919255d5fccc6ec38956a513a5f",
          "function": "approveAll(address,address)",
          "arguments": [
            "0xFd086bC7CD5C481DCC9C85ebE478A1C0b69FCbb9",
            "0xcE8CcA271Ebc0533920C83d39F417ED6A0abB7D0"
          ],
          "transaction": {
            "from": "0xaab6f44b46f19d061582727b66c9a0c84c97a2f6",
            "to": "0xfb99dc60542fb919255d5fccc6ec38956a513a5f",
            "gas": "0x12ef2",
            "value": "0x0",
            "input": "0x0a443276000000000000000000000000fd086bc7cd5c481dcc9c85ebe478a1c0b69fcbb9000000000000000000000000ce8cca271ebc0533920c83d39f417ed6a0abb7d0",
            "nonce": "0x48",
            "chainId": "0xa4b1"
          },
          "additionalContracts": [],
          "isFixedGasLimit": false
        }
      ],
      "receipts": [
        {
          "status": "0x1",
          "cumulativeGasUsed": "0x910a2",
          "logs": [
            {
              "address": "0x2416092f143378750bb29b79ed961ab195cceea5",
              "topics": [
                "0x8c5be1e5ebec7d5bd14f71427d1e84f3dd0314c0f7b2291e5b200ac8c7c3b925",
                "0x000000000000000000000000586bdfe433ed38912ac96b2608d8181cd3bb0dec",
                "0x000000000000000000000000b26bbfc6d1f469c821ea25099017862e7368f4e8"
              ],
              "data": "0xffffffffffffffffffffffffffffffffffffffffffffffffffffffffffffffff",
              "blockHash": "0x189e3aa44d147171724ca0db1dfd4aead9fbc7b13c7bc423de0c2f196b66693c",
              "blockNumber": "0x1687d9d5",
              "transactionHash": "0x8c192c5197448c46fe03c45238e6badb5dff2179bf9deaf25a52efb717888df6",
              "transactionIndex": "0x4",
              "logIndex": "0x13",
              "removed": false
            }
          ],
          "logsBloom": "0x00000000000000000000000000000000000000000000004040000000000000040000000000000080040000000000000000000000000000000000000000200000000000000400000000000000000000000000000000000000000000000000000000000000200000000800000000000000000000000000000000000000000000000000000000000000000000000000000000000000000000000000000000000000020000000000800000000000000000000000000000000000000000000000000000000000000000000000000000000000000000000000000000000000000000000010000000000000000000000000000000000000000000000000000000000000",
          "type": "0x2",
          "transactionHash": "0x8c192c5197448c46fe03c45238e6badb5dff2179bf9deaf25a52efb717888df6",
          "transactionIndex": "0x4",
          "blockHash": "0x189e3aa44d147171724ca0db1dfd4aead9fbc7b13c7bc423de0c2f196b66693c",
          "blockNumber": "0x1687d9d5",
          "gasUsed": "0xe3e0",
          "effectiveGasPrice": "0x989680",
          "from": "0xaab6f44b46f19d061582727b66c9a0c84c97a2f6",
          "to": "0x586bdfe433ed38912ac96b2608d8181cd3bb0dec",
          "contractAddress": null,
          "gasUsedForL1": "0x5ac",
          "l1BlockNumber": "0x1642175",
          "timeboosted": false
        },
        {
          "status": "0x1",
          "cumulativeGasUsed": "0x10fc6c",
          "logs": [
            {
              "address": "0xaf88d065e77c8cc2239327c5edb3a432268e5831",
              "topics": [
                "0x8c5be1e5ebec7d5bd14f71427d1e84f3dd0314c0f7b2291e5b200ac8c7c3b925",
                "0x000000000000000000000000fb99dc60542fb919255d5fccc6ec38956a513a5f",
                "0x000000000000000000000000e8cdf27acd73a434d661c84887215f7598e7d0d3"
              ],
              "data": "0xffffffffffffffffffffffffffffffffffffffffffffffffffffffffffffffff",
              "blockHash": "0x61bd378b62ea3f7667ebd20769e6a2df930e742ff743481dd3ecb53f8cbc49fe",
              "blockNumber": "0x1687d9d8",
              "transactionHash": "0x35f66a4760ce640268c6b043bbfad39d94793e3ea619cea901805e15bd204178",
              "transactionIndex": "0x6",
              "logIndex": "0x25",
              "removed": false
            }
          ],
          "logsBloom": "0x00000000000000000000000000000000000000000000000000000000000000000000000000000000000000000000000000000001000000000000000000200000000000000004000000000000000000000000000000000000000000000000000000004000000000004000000000400000000000000000000000000000000000000000000000000000000000000000000000000000000000000000000000000000020000000000000000000000000000000000000000000040000000000000000000002000000000000000000000100000000000000000000000000000000000000010000000000000000000000000200000000000000000000000000000000000",
          "type": "0x2",
          "transactionHash": "0x35f66a4760ce640268c6b043bbfad39d94793e3ea619cea901805e15bd204178",
          "transactionIndex": "0x6",
          "blockHash": "0x61bd378b62ea3f7667ebd20769e6a2df930e742ff743481dd3ecb53f8cbc49fe",
          "blockNumber": "0x1687d9d8",
          "gasUsed": "0xebbf",
          "effectiveGasPrice": "0x989680",
          "from": "0xaab6f44b46f19d061582727b66c9a0c84c97a2f6",
          "to": "0xfb99dc60542fb919255d5fccc6ec38956a513a5f",
          "contractAddress": null,
          "gasUsedForL1": "0x5ac",
          "l1BlockNumber": "0x1642175"
        },
        {
          "status": "0x1",
          "cumulativeGasUsed": "0xe474",
          "logs": [
            {
              "address": "0xfd086bc7cd5c481dcc9c85ebe478a1c0b69fcbb9",
              "topics": [
                "0x8c5be1e5ebec7d5bd14f71427d1e84f3dd0314c0f7b2291e5b200ac8c7c3b925",
                "0x000000000000000000000000fb99dc60542fb919255d5fccc6ec38956a513a5f",
                "0x000000000000000000000000ce8cca271ebc0533920c83d39f417ed6a0abb7d0"
              ],
              "data": "0xffffffffffffffffffffffffffffffffffffffffffffffffffffffffffffffff",
              "blockHash": "0x857ce1c284c20353e3112aaa46bbe2e1328c0915931439d465299351bbf04e3d",
              "blockNumber": "0x1687d9de",
              "transactionHash": "0x9721f9ce7c8ea8a8c6ff6790772d83ba80bb7ed35bf74a89a948b307fd2fd4f1",
              "transactionIndex": "0x1",
              "logIndex": "0x0",
              "removed": false
            }
          ],
          "logsBloom": "0x00000000000000000000000000000000000000000000000000000000000000000000000000000000000000000000000000000000400000000000000000200000000010000000000000000000000000000000000000000000000000000000000000000000000000004000000000000000000000000000000000000000000000000000000000000000000000000000000000000000080000000000000000000000020000000000000000000000000000000000000000000040000000000000000000008000000000000000000000100000000000000000000000000000000000000018000000000000000000000000000010000000000000000000000000000000",
          "type": "0x2",
          "transactionHash": "0x9721f9ce7c8ea8a8c6ff6790772d83ba80bb7ed35bf74a89a948b307fd2fd4f1",
          "transactionIndex": "0x1",
          "blockHash": "0x857ce1c284c20353e3112aaa46bbe2e1328c0915931439d465299351bbf04e3d",
          "blockNumber": "0x1687d9de",
          "gasUsed": "0xe474",
          "effectiveGasPrice": "0x989680",
          "from": "0xaab6f44b46f19d061582727b66c9a0c84c97a2f6",
          "to": "0xfb99dc60542fb919255d5fccc6ec38956a513a5f",
          "contractAddress": null,
          "gasUsedForL1": "0x5ac",
          "l1BlockNumber": "0x1642175",
          "timeboosted": false
        }
      ],
      "libraries": [],
      "pending": [],
      "returns": {},
      "timestamp": 1757588437,
      "chain": 42161,
      "commit": "eb0500b"
    },
    {
      "transactions": [
        {
          "hash": "0x40fce9764ff93e541a06cabb22004c13f0ae96d5e6e86fb6cae6128b0ecfcb98",
          "transactionType": "CALL",
          "contractName": null,
          "contractAddress": "0x586bdfe433ed38912ac96b2608d8181cd3bb0dec",
          "function": "approveAll(address,address)",
          "arguments": [
            "0x2416092f143378750bb29b79eD961ab195CcEea5",
            "0xE00C6185a5c19219F1FFeD213b4406a254968c26"
          ],
          "transaction": {
            "from": "0xaab6f44b46f19d061582727b66c9a0c84c97a2f6",
            "to": "0x586bdfe433ed38912ac96b2608d8181cd3bb0dec",
            "gas": "0x132ea",
            "value": "0x0",
            "input": "0x0a4432760000000000000000000000002416092f143378750bb29b79ed961ab195cceea5000000000000000000000000e00c6185a5c19219f1ffed213b4406a254968c26",
            "nonce": "0x58",
            "chainId": "0x38"
          },
          "additionalContracts": [],
          "isFixedGasLimit": false
        },
        {
          "hash": "0x57d4f29d5c0f91aab3edc3206d0196f3017edb12ce70a14d3009b8461e84fcd2",
          "transactionType": "CALL",
          "contractName": null,
          "contractAddress": "0xfb99dc60542fb919255d5fccc6ec38956a513a5f",
          "function": "approveAll(address,address)",
          "arguments": [
            "0x8AC76a51cc950d9822D68b83fE1Ad97B32Cd580d",
            "0x962Bd449E630b0d928f308Ce63f1A21F02576057"
          ],
          "transaction": {
            "from": "0xaab6f44b46f19d061582727b66c9a0c84c97a2f6",
            "to": "0xfb99dc60542fb919255d5fccc6ec38956a513a5f",
            "gas": "0x144de",
            "value": "0x0",
            "input": "0x0a4432760000000000000000000000008ac76a51cc950d9822d68b83fe1ad97b32cd580d000000000000000000000000962bd449e630b0d928f308ce63f1a21f02576057",
            "nonce": "0x59",
            "chainId": "0x38"
          },
          "additionalContracts": [],
          "isFixedGasLimit": false
        },
        {
          "hash": "0x57c050b520af20957083831c7a1c26f6624af15a361d48d826a3cbea9eb97073",
          "transactionType": "CALL",
          "contractName": null,
          "contractAddress": "0xfb99dc60542fb919255d5fccc6ec38956a513a5f",
          "function": "approveAll(address,address)",
          "arguments": [
            "0x55d398326f99059fF775485246999027B3197955",
            "0x138EB30f73BC423c6455C53df6D89CB01d9eBc63"
          ],
          "transaction": {
            "from": "0xaab6f44b46f19d061582727b66c9a0c84c97a2f6",
            "to": "0xfb99dc60542fb919255d5fccc6ec38956a513a5f",
            "gas": "0x10bb9",
            "value": "0x0",
            "input": "0x0a44327600000000000000000000000055d398326f99059ff775485246999027b3197955000000000000000000000000138eb30f73bc423c6455c53df6d89cb01d9ebc63",
            "nonce": "0x5a",
            "chainId": "0x38"
          },
          "additionalContracts": [],
          "isFixedGasLimit": false
        }
      ],
      "receipts": [
        {
          "status": "0x1",
          "cumulativeGasUsed": "0x1411050",
          "logs": [
            {
              "address": "0x2416092f143378750bb29b79ed961ab195cceea5",
              "topics": [
                "0x8c5be1e5ebec7d5bd14f71427d1e84f3dd0314c0f7b2291e5b200ac8c7c3b925",
                "0x000000000000000000000000586bdfe433ed38912ac96b2608d8181cd3bb0dec",
                "0x000000000000000000000000e00c6185a5c19219f1ffed213b4406a254968c26"
              ],
              "data": "0xffffffffffffffffffffffffffffffffffffffffffffffffffffffffffffffff",
              "blockHash": "0x55b047ddd72a69c68ad71e6c80fa46d965b898d88e33c2f1b215211ab8ca08eb",
              "blockNumber": "0x39f86c9",
              "transactionHash": "0x40fce9764ff93e541a06cabb22004c13f0ae96d5e6e86fb6cae6128b0ecfcb98",
              "transactionIndex": "0x95",
              "logIndex": "0x224",
              "removed": false
            }
          ],
          "logsBloom": "0x00000000000000000000000000000000000000000000000040000000000000040000000000000080040000000000000000000000000000000000000000200000000000000400000000000000000000000000000000000000000000000000000000000000200000000000100000000000000000000000000000000000000000000000000000000000000000000000000000000000000000000000000008000000020000000000000000000000000000000008000000000000000000000000000000000000000000000000000000000000000000000000000000000000000000000010000000000000000000000000000000000000000000000000000000000000",
          "type": "0x0",
          "transactionHash": "0x40fce9764ff93e541a06cabb22004c13f0ae96d5e6e86fb6cae6128b0ecfcb98",
          "transactionIndex": "0x95",
          "blockHash": "0x55b047ddd72a69c68ad71e6c80fa46d965b898d88e33c2f1b215211ab8ca08eb",
          "blockNumber": "0x39f86c9",
          "gasUsed": "0xde34",
          "effectiveGasPrice": "0x5f5e100",
          "from": "0xaab6f44b46f19d061582727b66c9a0c84c97a2f6",
          "to": "0x586bdfe433ed38912ac96b2608d8181cd3bb0dec",
          "contractAddress": null
        },
        {
          "status": "0x1",
          "cumulativeGasUsed": "0x142407a",
          "logs": [
            {
              "address": "0x8ac76a51cc950d9822d68b83fe1ad97b32cd580d",
              "topics": [
                "0x8c5be1e5ebec7d5bd14f71427d1e84f3dd0314c0f7b2291e5b200ac8c7c3b925",
                "0x000000000000000000000000fb99dc60542fb919255d5fccc6ec38956a513a5f",
                "0x000000000000000000000000962bd449e630b0d928f308ce63f1a21f02576057"
              ],
              "data": "0xffffffffffffffffffffffffffffffffffffffffffffffffffffffffffffffff",
              "blockHash": "0x55b047ddd72a69c68ad71e6c80fa46d965b898d88e33c2f1b215211ab8ca08eb",
              "blockNumber": "0x39f86c9",
              "transactionHash": "0x57d4f29d5c0f91aab3edc3206d0196f3017edb12ce70a14d3009b8461e84fcd2",
              "transactionIndex": "0x97",
              "logIndex": "0x225",
              "removed": false
            }
          ],
          "logsBloom": "0x00000000000000000000000000000000000000000020000000000000000000000000000000000000000000000000000000000000000000000000000000200080000000000000000000000000000000000000000000000000000000004000000000000000000000004000000000000000000000000000000000000000000000000000000000000000000000000000008000000000000000000000000000000000020000000000000000000000000000000000000000000040000000000000000000000000000000000000000000100000000000000000000000000000000000000010000010004000000000000000000000000000000000000000000000000000",
          "type": "0x0",
          "transactionHash": "0x57d4f29d5c0f91aab3edc3206d0196f3017edb12ce70a14d3009b8461e84fcd2",
          "transactionIndex": "0x97",
          "blockHash": "0x55b047ddd72a69c68ad71e6c80fa46d965b898d88e33c2f1b215211ab8ca08eb",
          "blockNumber": "0x39f86c9",
          "gasUsed": "0xde22",
          "effectiveGasPrice": "0x5f5e100",
          "from": "0xaab6f44b46f19d061582727b66c9a0c84c97a2f6",
          "to": "0xfb99dc60542fb919255d5fccc6ec38956a513a5f",
          "contractAddress": null
        },
        {
          "status": "0x1",
          "cumulativeGasUsed": "0x143a65e",
          "logs": [
            {
              "address": "0x55d398326f99059ff775485246999027b3197955",
              "topics": [
                "0x8c5be1e5ebec7d5bd14f71427d1e84f3dd0314c0f7b2291e5b200ac8c7c3b925",
                "0x000000000000000000000000fb99dc60542fb919255d5fccc6ec38956a513a5f",
                "0x000000000000000000000000138eb30f73bc423c6455c53df6d89cb01d9ebc63"
              ],
              "data": "0xffffffffffffffffffffffffffffffffffffffffffffffffffffffffffffffff",
              "blockHash": "0x55b047ddd72a69c68ad71e6c80fa46d965b898d88e33c2f1b215211ab8ca08eb",
              "blockNumber": "0x39f86c9",
              "transactionHash": "0x57c050b520af20957083831c7a1c26f6624af15a361d48d826a3cbea9eb97073",
              "transactionIndex": "0x9a",
              "logIndex": "0x226",
              "removed": false
            }
          ],
          "logsBloom": "0x00000000000000000000000000000000000000000000000000000040000000000000000000000000000000000000000000000000000000000000000000200000000000000000000001000000000000000000000000000000000000008000000000000000000000004000000000000000000000000000000000000000000000000000000000000000008000000000000000000000000000000080000000000000020000000000000000000000000000000000000000000040000000000000000000000000000000000000000000100000200000000000000000000000000000000010000000000000000000000000000000000000000000000000000000000000",
          "type": "0x0",
          "transactionHash": "0x57c050b520af20957083831c7a1c26f6624af15a361d48d826a3cbea9eb97073",
          "transactionIndex": "0x9a",
          "blockHash": "0x55b047ddd72a69c68ad71e6c80fa46d965b898d88e33c2f1b215211ab8ca08eb",
          "blockNumber": "0x39f86c9",
          "gasUsed": "0xc1d4",
          "effectiveGasPrice": "0x5f5e100",
          "from": "0xaab6f44b46f19d061582727b66c9a0c84c97a2f6",
          "to": "0xfb99dc60542fb919255d5fccc6ec38956a513a5f",
          "contractAddress": null
        }
      ],
      "libraries": [],
      "pending": [],
      "returns": {},
      "timestamp": 1757588438,
      "chain": 56,
      "commit": "eb0500b"
    },
    {
      "transactions": [
        {
          "hash": "0x8d7ecba73af28e3772e3ea88aaa882a2708cc4f4c850e246cf87699544323c0f",
          "transactionType": "CALL",
          "contractName": null,
          "contractAddress": "0x586bdfe433ed38912ac96b2608d8181cd3bb0dec",
          "function": "approveAll(address,address)",
          "arguments": [
            "0xcbB7C0000aB88B473b1f5aFd9ef808440eed33Bf",
            "0x7710d2FC9A2E0452b28a2cBf550429b579347199"
          ],
          "transaction": {
            "from": "0xaab6f44b46f19d061582727b66c9a0c84c97a2f6",
            "to": "0x586bdfe433ed38912ac96b2608d8181cd3bb0dec",
            "gas": "0x15604",
            "value": "0x0",
            "input": "0x0a443276000000000000000000000000cbb7c0000ab88b473b1f5afd9ef808440eed33bf0000000000000000000000007710d2fc9a2e0452b28a2cbf550429b579347199",
            "nonce": "0x42",
            "chainId": "0x1"
          },
          "additionalContracts": [],
          "isFixedGasLimit": false
        },
        {
          "hash": "0x916312b510d7d1ea23d2e119adf6fdbe95fb67265630b2c5ec898417fd21bfab",
          "transactionType": "CALL",
          "contractName": null,
          "contractAddress": "0x586bdfe433ed38912ac96b2608d8181cd3bb0dec",
          "function": "approveAll(address,address)",
          "arguments": [
            "0x17906b1Cd88aA8EfaEfC5e82891B52a22219BD45",
            "0xbc808c98beA0a097346273A9Fd7a5B231fc2d889"
          ],
          "transaction": {
            "from": "0xaab6f44b46f19d061582727b66c9a0c84c97a2f6",
            "to": "0x586bdfe433ed38912ac96b2608d8181cd3bb0dec",
            "gas": "0x10b2b",
            "value": "0x0",
            "input": "0x0a44327600000000000000000000000017906b1cd88aa8efaefc5e82891b52a22219bd45000000000000000000000000bc808c98bea0a097346273a9fd7a5b231fc2d889",
            "nonce": "0x43",
            "chainId": "0x1"
          },
          "additionalContracts": [],
          "isFixedGasLimit": false
        },
        {
          "hash": "0x6081bd967ac7bcf07a645e7dc4668e6921ec16b4ce765484ebe8acb7f7049dba",
          "transactionType": "CALL",
          "contractName": null,
          "contractAddress": "0x586bdfe433ed38912ac96b2608d8181cd3bb0dec",
          "function": "approveAll(address,address)",
          "arguments": [
            "0xbf5495Efe5DB9ce00f80364C8B423567e58d2110",
            "0xC59336D8edDa9722B4f1Ec104007191Ec16f7087"
          ],
          "transaction": {
            "from": "0xaab6f44b46f19d061582727b66c9a0c84c97a2f6",
            "to": "0x586bdfe433ed38912ac96b2608d8181cd3bb0dec",
            "gas": "0x14551",
            "value": "0x0",
            "input": "0x0a443276000000000000000000000000bf5495efe5db9ce00f80364c8b423567e58d2110000000000000000000000000c59336d8edda9722b4f1ec104007191ec16f7087",
            "nonce": "0x44",
            "chainId": "0x1"
          },
          "additionalContracts": [],
          "isFixedGasLimit": false
        },
        {
          "hash": "0x5560dfb1ff860ade10d5f901c76a55b13fd7b4ad12c19897d748f384c823d2cd",
          "transactionType": "CALL",
          "contractName": null,
          "contractAddress": "0x586bdfe433ed38912ac96b2608d8181cd3bb0dec",
          "function": "approveAll(address,address)",
          "arguments": [
            "0xbe0Ed4138121EcFC5c0E56B40517da27E6c5226B",
            "0x235E11459c8C21B2656484F8c6a7418242cfBde0"
          ],
          "transaction": {
            "from": "0xaab6f44b46f19d061582727b66c9a0c84c97a2f6",
            "to": "0x586bdfe433ed38912ac96b2608d8181cd3bb0dec",
            "gas": "0x10c43",
            "value": "0x0",
            "input": "0x0a443276000000000000000000000000be0ed4138121ecfc5c0e56b40517da27e6c5226b000000000000000000000000235e11459c8c21b2656484f8c6a7418242cfbde0",
            "nonce": "0x45",
            "chainId": "0x1"
          },
          "additionalContracts": [],
          "isFixedGasLimit": false
        },
        {
          "hash": "0x13d93c3be1c0f64445d00d7adc3092211cca98c459cc82a6e88ac17f9d0edb55",
          "transactionType": "CALL",
          "contractName": null,
          "contractAddress": "0x586bdfe433ed38912ac96b2608d8181cd3bb0dec",
          "function": "approveAll(address,address)",
          "arguments": [
            "0x0f7dC5D02CC1E1f5Ee47854d534D332A1081cCC8",
            "0x1731Fe5aED11f397C88aC2551384aF8E346Fc699"
          ],
          "transaction": {
            "from": "0xaab6f44b46f19d061582727b66c9a0c84c97a2f6",
            "to": "0x586bdfe433ed38912ac96b2608d8181cd3bb0dec",
            "gas": "0x10c09",
            "value": "0x0",
            "input": "0x0a4432760000000000000000000000000f7dc5d02cc1e1f5ee47854d534d332a1081ccc80000000000000000000000001731fe5aed11f397c88ac2551384af8e346fc699",
            "nonce": "0x46",
            "chainId": "0x1"
          },
          "additionalContracts": [],
          "isFixedGasLimit": false
        },
        {
          "hash": "0xfd67f1eb9134d5d99cbc3625465bb987725c1956ecedd1d6dcdc3f4aca143826",
          "transactionType": "CALL",
          "contractName": null,
          "contractAddress": "0x586bdfe433ed38912ac96b2608d8181cd3bb0dec",
          "function": "approveAll(address,address)",
          "arguments": [
            "0x310C8F00b9dE3c31Ab95ea68feb6C877538f7947",
            "0xD971CDfFaC53d9DF56bad78E01711272C0570fb9"
          ],
          "transaction": {
            "from": "0xaab6f44b46f19d061582727b66c9a0c84c97a2f6",
            "to": "0x586bdfe433ed38912ac96b2608d8181cd3bb0dec",
            "gas": "0x133c7",
            "value": "0x0",
            "input": "0x0a443276000000000000000000000000310c8f00b9de3c31ab95ea68feb6c877538f7947000000000000000000000000d971cdffac53d9df56bad78e01711272c0570fb9",
            "nonce": "0x47",
            "chainId": "0x1"
          },
          "additionalContracts": [],
          "isFixedGasLimit": false
        },
        {
          "hash": "0xbc63a64aa2f2105ff645ba3cb8f60612082ae57d5df153294f7b9db2dd982ad5",
          "transactionType": "CALL",
          "contractName": null,
          "contractAddress": "0xfb99dc60542fb919255d5fccc6ec38956a513a5f",
          "function": "approveAll(address,address)",
          "arguments": [
            "0xA0b86991c6218b36c1d19D4a2e9Eb0cE3606eB48",
            "0xc026395860Db2d07ee33e05fE50ed7bD583189C7"
          ],
          "transaction": {
            "from": "0xaab6f44b46f19d061582727b66c9a0c84c97a2f6",
            "to": "0xfb99dc60542fb919255d5fccc6ec38956a513a5f",
            "gas": "0x13e70",
            "value": "0x0",
            "input": "0x0a443276000000000000000000000000a0b86991c6218b36c1d19d4a2e9eb0ce3606eb48000000000000000000000000c026395860db2d07ee33e05fe50ed7bd583189c7",
            "nonce": "0x48",
            "chainId": "0x1"
          },
          "additionalContracts": [],
          "isFixedGasLimit": false
        }
      ],
      "receipts": [
        {
          "status": "0x1",
          "cumulativeGasUsed": "0x2a9215b",
          "logs": [
            {
              "address": "0xcbb7c0000ab88b473b1f5afd9ef808440eed33bf",
              "topics": [
                "0x8c5be1e5ebec7d5bd14f71427d1e84f3dd0314c0f7b2291e5b200ac8c7c3b925",
                "0x000000000000000000000000586bdfe433ed38912ac96b2608d8181cd3bb0dec",
                "0x0000000000000000000000007710d2fc9a2e0452b28a2cbf550429b579347199"
              ],
              "data": "0xffffffffffffffffffffffffffffffffffffffffffffffffffffffffffffffff",
              "blockHash": "0xdf24071db90af46731ec118330add12fdcea3e2aa62a9bb1e210c644bd3ef845",
              "blockNumber": "0x164217b",
              "blockTimestamp": "0x68c2ac1b",
              "transactionHash": "0x8d7ecba73af28e3772e3ea88aaa882a2708cc4f4c850e246cf87699544323c0f",
              "transactionIndex": "0x1e9",
              "logIndex": "0x442",
              "removed": false
            }
          ],
          "logsBloom": "0x00000000000000000000000000000000000000000000000040000000000000000000000000000000040000000000000000000000000000000000000000240000000000010000000000000000000000000000000000000000000000000000000000000000200000000000000008000000000000020000000000000000000000000000000000000000000000000000000000000000000000000000000000000000020000000000000000000000000000000000000000000000000000000000000000000000000000000000000000000000000000000000000000000000000000000010000000000000000000000000008000000000000000000000000000000000",
          "type": "0x2",
          "transactionHash": "0x8d7ecba73af28e3772e3ea88aaa882a2708cc4f4c850e246cf87699544323c0f",
          "transactionIndex": "0x1e9",
          "blockHash": "0xdf24071db90af46731ec118330add12fdcea3e2aa62a9bb1e210c644bd3ef845",
          "blockNumber": "0x164217b",
          "gasUsed": "0xf79e",
          "effectiveGasPrice": "0x10da5873",
          "from": "0xaab6f44b46f19d061582727b66c9a0c84c97a2f6",
          "to": "0x586bdfe433ed38912ac96b2608d8181cd3bb0dec",
          "contractAddress": null
        },
        {
          "status": "0x1",
          "cumulativeGasUsed": "0x2a9e2c9",
          "logs": [
            {
              "address": "0x17906b1cd88aa8efaefc5e82891b52a22219bd45",
              "topics": [
                "0x8c5be1e5ebec7d5bd14f71427d1e84f3dd0314c0f7b2291e5b200ac8c7c3b925",
                "0x000000000000000000000000586bdfe433ed38912ac96b2608d8181cd3bb0dec",
                "0x000000000000000000000000bc808c98bea0a097346273a9fd7a5b231fc2d889"
              ],
              "data": "0xffffffffffffffffffffffffffffffffffffffffffffffffffffffffffffffff",
              "blockHash": "0xdf24071db90af46731ec118330add12fdcea3e2aa62a9bb1e210c644bd3ef845",
              "blockNumber": "0x164217b",
              "blockTimestamp": "0x68c2ac1b",
              "transactionHash": "0x916312b510d7d1ea23d2e119adf6fdbe95fb67265630b2c5ec898417fd21bfab",
              "transactionIndex": "0x1ea",
              "logIndex": "0x443",
              "removed": false
            }
          ],
          "logsBloom": "0x00000000000000000000000000000040000000000000000040000000000000000000000004000000040000000000000000000000000000000000000000200000000000000000000000000000000400000000000000000000000000000000000000000000200800000000000000000000000000000000000000000000000000000000000020000000000000000000004000000000000000000000000000000000020000000000000000000000000000000000000000000000000000000000000000000000000000000000000000000000000000000000000000000000000000000010000000000000000000000000000000000000000000000000000000000000",
          "type": "0x2",
          "transactionHash": "0x916312b510d7d1ea23d2e119adf6fdbe95fb67265630b2c5ec898417fd21bfab",
          "transactionIndex": "0x1ea",
          "blockHash": "0xdf24071db90af46731ec118330add12fdcea3e2aa62a9bb1e210c644bd3ef845",
          "blockNumber": "0x164217b",
          "gasUsed": "0xc16e",
          "effectiveGasPrice": "0x10da5873",
          "from": "0xaab6f44b46f19d061582727b66c9a0c84c97a2f6",
          "to": "0x586bdfe433ed38912ac96b2608d8181cd3bb0dec",
          "contractAddress": null
        },
        {
          "status": "0x1",
          "cumulativeGasUsed": "0x1aa1577",
          "logs": [
            {
              "address": "0xbf5495efe5db9ce00f80364c8b423567e58d2110",
              "topics": [
                "0x8c5be1e5ebec7d5bd14f71427d1e84f3dd0314c0f7b2291e5b200ac8c7c3b925",
                "0x000000000000000000000000586bdfe433ed38912ac96b2608d8181cd3bb0dec",
                "0x000000000000000000000000c59336d8edda9722b4f1ec104007191ec16f7087"
              ],
              "data": "0xffffffffffffffffffffffffffffffffffffffffffffffffffffffffffffffff",
              "blockHash": "0xafea0c22e123709103df69d03e3bb47da4b2d02de624d87c3640b9b12e93b759",
              "blockNumber": "0x164217d",
              "blockTimestamp": "0x68c2ac33",
              "transactionHash": "0x6081bd967ac7bcf07a645e7dc4668e6921ec16b4ce765484ebe8acb7f7049dba",
              "transactionIndex": "0x13c",
              "logIndex": "0x350",
              "removed": false
            }
          ],
          "logsBloom": "0x00000000000000000000000000010000000000000000000040000800000000000080000000000000040000000000000000000000000000000000000000200000000000000000000000000000000000000000000000000000000000000000000000000000200000000000000000000000000000000000000000000000000000000000000000000000000000800000000000100000000000000000000000000000020000000000000000000000000000000000000000000000000000000000000000000000000000000000000000000000000000000000000000000000000000000010000000000000000000000000000000000000000000000000000000001000",
          "type": "0x2",
          "transactionHash": "0x6081bd967ac7bcf07a645e7dc4668e6921ec16b4ce765484ebe8acb7f7049dba",
          "transactionIndex": "0x13c",
          "blockHash": "0xafea0c22e123709103df69d03e3bb47da4b2d02de624d87c3640b9b12e93b759",
          "blockNumber": "0x164217d",
          "gasUsed": "0xde71",
          "effectiveGasPrice": "0x11cc5e42",
          "from": "0xaab6f44b46f19d061582727b66c9a0c84c97a2f6",
          "to": "0x586bdfe433ed38912ac96b2608d8181cd3bb0dec",
          "contractAddress": null
        },
        {
          "status": "0x1",
          "cumulativeGasUsed": "0x1aad7af",
          "logs": [
            {
              "address": "0xbe0ed4138121ecfc5c0e56b40517da27e6c5226b",
              "topics": [
                "0x8c5be1e5ebec7d5bd14f71427d1e84f3dd0314c0f7b2291e5b200ac8c7c3b925",
                "0x000000000000000000000000586bdfe433ed38912ac96b2608d8181cd3bb0dec",
                "0x000000000000000000000000235e11459c8c21b2656484f8c6a7418242cfbde0"
              ],
              "data": "0xffffffffffffffffffffffffffffffffffffffffffffffffffffffffffffffff",
              "blockHash": "0xafea0c22e123709103df69d03e3bb47da4b2d02de624d87c3640b9b12e93b759",
              "blockNumber": "0x164217d",
              "blockTimestamp": "0x68c2ac33",
              "transactionHash": "0x5560dfb1ff860ade10d5f901c76a55b13fd7b4ad12c19897d748f384c823d2cd",
              "transactionIndex": "0x13d",
              "logIndex": "0x351",
              "removed": false
            }
          ],
          "logsBloom": "0x00000000000000000000000000000000000000000000000040000000000000000000000000000000040000000000000000000000000000000000000000200000000000000000000000000000000000000000000000000000000000000000000000400000200000000000000000000000000000080000000000000000000010000000000000000000000000000000000000000000000000000000000000000000020000000000000000000000000000000000000000000000000040000000000000000000000000000000000000000000000000000000000000000000008000000010000000000000000000000000000000000000000000000000000000008000",
          "type": "0x2",
          "transactionHash": "0x5560dfb1ff860ade10d5f901c76a55b13fd7b4ad12c19897d748f384c823d2cd",
          "transactionIndex": "0x13d",
          "blockHash": "0xafea0c22e123709103df69d03e3bb47da4b2d02de624d87c3640b9b12e93b759",
          "blockNumber": "0x164217d",
          "gasUsed": "0xc238",
          "effectiveGasPrice": "0x11cc5e42",
          "from": "0xaab6f44b46f19d061582727b66c9a0c84c97a2f6",
          "to": "0x586bdfe433ed38912ac96b2608d8181cd3bb0dec",
          "contractAddress": null
        },
        {
          "status": "0x1",
          "cumulativeGasUsed": "0x1ab99be",
          "logs": [
            {
              "address": "0x0f7dc5d02cc1e1f5ee47854d534d332a1081ccc8",
              "topics": [
                "0x8c5be1e5ebec7d5bd14f71427d1e84f3dd0314c0f7b2291e5b200ac8c7c3b925",
                "0x000000000000000000000000586bdfe433ed38912ac96b2608d8181cd3bb0dec",
                "0x0000000000000000000000001731fe5aed11f397c88ac2551384af8e346fc699"
              ],
              "data": "0xffffffffffffffffffffffffffffffffffffffffffffffffffffffffffffffff",
              "blockHash": "0xafea0c22e123709103df69d03e3bb47da4b2d02de624d87c3640b9b12e93b759",
              "blockNumber": "0x164217d",
              "blockTimestamp": "0x68c2ac33",
              "transactionHash": "0x13d93c3be1c0f64445d00d7adc3092211cca98c459cc82a6e88ac17f9d0edb55",
              "transactionIndex": "0x13e",
              "logIndex": "0x352",
              "removed": false
            }
          ],
          "logsBloom": "0x00000000000000000000000000000000000000000000000040000000000000000000000000000000040000000000000000000000000000000000000000200000000000000000000000000000000000000000000000000000000000000000000000000000200000000000000000000000000000000000000000000000000000000000000000000000000000100000000000000000000000000000002000000000020001000000000000000000000000000000000000000000000000000000004000000000040000000000000000000200000000000000000000000000000000000010000000000000000000000000000000000000000000000000000000000000",
          "type": "0x2",
          "transactionHash": "0x13d93c3be1c0f64445d00d7adc3092211cca98c459cc82a6e88ac17f9d0edb55",
          "transactionIndex": "0x13e",
          "blockHash": "0xafea0c22e123709103df69d03e3bb47da4b2d02de624d87c3640b9b12e93b759",
          "blockNumber": "0x164217d",
          "gasUsed": "0xc20f",
          "effectiveGasPrice": "0x11cc5e42",
          "from": "0xaab6f44b46f19d061582727b66c9a0c84c97a2f6",
          "to": "0x586bdfe433ed38912ac96b2608d8181cd3bb0dec",
          "contractAddress": null
        },
        {
          "status": "0x1",
          "cumulativeGasUsed": "0x1ac7892",
          "logs": [
            {
              "address": "0x310c8f00b9de3c31ab95ea68feb6c877538f7947",
              "topics": [
                "0x8c5be1e5ebec7d5bd14f71427d1e84f3dd0314c0f7b2291e5b200ac8c7c3b925",
                "0x000000000000000000000000586bdfe433ed38912ac96b2608d8181cd3bb0dec",
                "0x000000000000000000000000d971cdffac53d9df56bad78e01711272c0570fb9"
              ],
              "data": "0xffffffffffffffffffffffffffffffffffffffffffffffffffffffffffffffff",
              "blockHash": "0xafea0c22e123709103df69d03e3bb47da4b2d02de624d87c3640b9b12e93b759",
              "blockNumber": "0x164217d",
              "blockTimestamp": "0x68c2ac33",
              "transactionHash": "0xfd67f1eb9134d5d99cbc3625465bb987725c1956ecedd1d6dcdc3f4aca143826",
              "transactionIndex": "0x13f",
              "logIndex": "0x353",
              "removed": false
            }
          ],
          "logsBloom": "0x00000000000000000000000000000000000000000000000040000000000000000000000000000000040000000000000000000000000000000000000000200000000000000000000000000000000000000000000000000000000000000000000000000000200000000001000000000000000000000000000000000000000000080000000000000000000000000000000000000000000000000000000000000000020000000000000000000000000000000000008200000000000000000800000000000000000000000000000000000000000000000000000000000000002000000010000000000000000000000000000000000000000000000000000000000000",
          "type": "0x2",
          "transactionHash": "0xfd67f1eb9134d5d99cbc3625465bb987725c1956ecedd1d6dcdc3f4aca143826",
          "transactionIndex": "0x13f",
          "blockHash": "0xafea0c22e123709103df69d03e3bb47da4b2d02de624d87c3640b9b12e93b759",
          "blockNumber": "0x164217d",
          "gasUsed": "0xded4",
          "effectiveGasPrice": "0x11cc5e42",
          "from": "0xaab6f44b46f19d061582727b66c9a0c84c97a2f6",
          "to": "0x586bdfe433ed38912ac96b2608d8181cd3bb0dec",
          "contractAddress": null
        },
        {
          "status": "0x1",
          "cumulativeGasUsed": "0x1ad5f1e",
          "logs": [
            {
              "address": "0xa0b86991c6218b36c1d19d4a2e9eb0ce3606eb48",
              "topics": [
                "0x8c5be1e5ebec7d5bd14f71427d1e84f3dd0314c0f7b2291e5b200ac8c7c3b925",
                "0x000000000000000000000000fb99dc60542fb919255d5fccc6ec38956a513a5f",
                "0x000000000000000000000000c026395860db2d07ee33e05fe50ed7bd583189c7"
              ],
              "data": "0xffffffffffffffffffffffffffffffffffffffffffffffffffffffffffffffff",
              "blockHash": "0xafea0c22e123709103df69d03e3bb47da4b2d02de624d87c3640b9b12e93b759",
              "blockNumber": "0x164217d",
              "blockTimestamp": "0x68c2ac33",
              "transactionHash": "0xbc63a64aa2f2105ff645ba3cb8f60612082ae57d5df153294f7b9db2dd982ad5",
              "transactionIndex": "0x140",
              "logIndex": "0x354",
              "removed": false
            }
          ],
          "logsBloom": "0x00000000001000000000000000000800000000000000000000000000000000000000000000000000000000000000000000000000000000000000000000200000000000000000000008000000000000000000000000000000000000000000000000000000000000004000000000000000000000000000000000000000000000000000000000000000000000000000000000000000010000000000000000000000120000000000200000000000000000000000000000000040000000000000000000000000000000000000000000100000000000000000000000000000000000000010000000000000000000000000000000000000000000000000000000000000",
          "type": "0x2",
          "transactionHash": "0xbc63a64aa2f2105ff645ba3cb8f60612082ae57d5df153294f7b9db2dd982ad5",
          "transactionIndex": "0x140",
          "blockHash": "0xafea0c22e123709103df69d03e3bb47da4b2d02de624d87c3640b9b12e93b759",
          "blockNumber": "0x164217d",
          "gasUsed": "0xe68c",
          "effectiveGasPrice": "0x11cc5e42",
          "from": "0xaab6f44b46f19d061582727b66c9a0c84c97a2f6",
          "to": "0xfb99dc60542fb919255d5fccc6ec38956a513a5f",
          "contractAddress": null
        }
      ],
      "libraries": [],
      "pending": [],
      "returns": {},
      "timestamp": 1757588438,
      "chain": 1,
      "commit": "eb0500b"
    },
    {
      "transactions": [
        {
          "hash": "0x43ca9bf052eb3bb1eb0fa1e9daca73a7b50825016bd5625d946e680dbea6521f",
          "transactionType": "CALL",
          "contractName": null,
          "contractAddress": "0x586bdfe433ed38912ac96b2608d8181cd3bb0dec",
          "function": "approveAll(address,address)",
          "arguments": [
            "0x765Af38A6e8FDcB1EFEF8a3dd2213EFD3090B00F",
            "0x38A357A34ea7e9E41718593Bb624CC628698eDc8"
          ],
          "transaction": {
            "from": "0xaab6f44b46f19d061582727b66c9a0c84c97a2f6",
            "to": "0x586bdfe433ed38912ac96b2608d8181cd3bb0dec",
            "gas": "0x11b45",
            "value": "0x0",
            "input": "0x0a443276000000000000000000000000765af38a6e8fdcb1efef8a3dd2213efd3090b00f00000000000000000000000038a357a34ea7e9e41718593bb624cc628698edc8",
            "nonce": "0xad",
            "chainId": "0x89"
          },
          "additionalContracts": [],
          "isFixedGasLimit": false
        },
        {
          "hash": "0x7f569c8c7870ee8bd155b8d62df3053edaa0f5354ac52cbfda5ee4e4fdbb21ea",
          "transactionType": "CALL",
          "contractName": null,
          "contractAddress": "0xfb99dc60542fb919255d5fccc6ec38956a513a5f",
          "function": "approveAll(address,address)",
          "arguments": [
            "0x3c499c542cEF5E3811e1192ce70d8cC03d5c3359",
            "0x9Aa02D4Fae7F58b8E8f34c66E756cC734DAc7fe4"
          ],
          "transaction": {
            "from": "0xaab6f44b46f19d061582727b66c9a0c84c97a2f6",
            "to": "0xfb99dc60542fb919255d5fccc6ec38956a513a5f",
            "gas": "0x1507b",
            "value": "0x0",
            "input": "0x0a4432760000000000000000000000003c499c542cef5e3811e1192ce70d8cc03d5c33590000000000000000000000009aa02d4fae7f58b8e8f34c66e756cc734dac7fe4",
            "nonce": "0xae",
            "chainId": "0x89"
          },
          "additionalContracts": [],
          "isFixedGasLimit": false
        },
        {
          "hash": "0x7d07187d8e96df7073a04a766b58b90b82248a63200fb3c0d6ad4b03951dd3b4",
          "transactionType": "CALL",
          "contractName": null,
          "contractAddress": "0xfb99dc60542fb919255d5fccc6ec38956a513a5f",
          "function": "approveAll(address,address)",
          "arguments": [
            "0xc2132D05D31c914a87C6611C10748AEb04B58e8F",
            "0xd47b03ee6d86Cf251ee7860FB2ACf9f91B9fD4d7"
          ],
          "transaction": {
            "from": "0xaab6f44b46f19d061582727b66c9a0c84c97a2f6",
            "to": "0xfb99dc60542fb919255d5fccc6ec38956a513a5f",
            "gas": "0x1295a",
            "value": "0x0",
            "input": "0x0a443276000000000000000000000000c2132d05d31c914a87c6611c10748aeb04b58e8f000000000000000000000000d47b03ee6d86cf251ee7860fb2acf9f91b9fd4d7",
            "nonce": "0xaf",
            "chainId": "0x89"
          },
          "additionalContracts": [],
          "isFixedGasLimit": false
        }
      ],
      "receipts": [
        {
          "status": "0x1",
          "cumulativeGasUsed": "0xe81239",
          "logs": [
            {
              "address": "0x765af38a6e8fdcb1efef8a3dd2213efd3090b00f",
              "topics": [
                "0x8c5be1e5ebec7d5bd14f71427d1e84f3dd0314c0f7b2291e5b200ac8c7c3b925",
                "0x000000000000000000000000586bdfe433ed38912ac96b2608d8181cd3bb0dec",
                "0x00000000000000000000000038a357a34ea7e9e41718593bb624cc628698edc8"
              ],
              "data": "0xffffffffffffffffffffffffffffffffffffffffffffffffffffffffffffffff",
              "blockHash": "0x1d78b8f855867f1a1f00dac83129c101b388ad38ffdbbabd00c03b4bff9a238b",
              "blockNumber": "0x48c8235",
              "transactionHash": "0x43ca9bf052eb3bb1eb0fa1e9daca73a7b50825016bd5625d946e680dbea6521f",
              "transactionIndex": "0x35",
              "logIndex": "0x180",
              "removed": false
            },
            {
              "address": "0x0000000000000000000000000000000000001010",
              "topics": [
                "0x4dfe1bbbcf077ddc3e01291eea2d5c70c2b422b415d95645b9adcfd678cb1d63",
                "0x0000000000000000000000000000000000000000000000000000000000001010",
                "0x000000000000000000000000aab6f44b46f19d061582727b66c9a0c84c97a2f6",
                "0x000000000000000000000000ce7fcb674ba27a952c71061b649fb5a5746f3b2b"
              ],
              "data": "0x000000000000000000000000000000000000000000000000000548eb3955ec0000000000000000000000000000000000000000000000000036951ad06b18159a000000000000000000000000000000000000000000004bca1b7a754728fdd37e000000000000000000000000000000000000000000000000368fd1e531c2299a000000000000000000000000000000000000000000004bca1b7fbe326253bf7e",
              "blockHash": "0x1d78b8f855867f1a1f00dac83129c101b388ad38ffdbbabd00c03b4bff9a238b",
              "blockNumber": "0x48c8235",
              "transactionHash": "0x43ca9bf052eb3bb1eb0fa1e9daca73a7b50825016bd5625d946e680dbea6521f",
              "transactionIndex": "0x35",
              "logIndex": "0x181",
              "removed": false
            }
          ],
          "logsBloom": "0x00000000000000000000000000000000000000000000100040000000000000000000000000000000040000008000002000008000000000000000000040200000000000000000002000000000000000800000001000000000000120000000000000000000200000000000000000000000000000000000000080000000000000000000000000000000000000000080000000000000000000000008000000000000220000000000000000000000000000000000000000000000000000000000004000000000004000000001000000000000000010000000000000100000000000000010000000000000000000000000000000000000000000000000000002100000",
          "type": "0x2",
          "transactionHash": "0x43ca9bf052eb3bb1eb0fa1e9daca73a7b50825016bd5625d946e680dbea6521f",
          "transactionIndex": "0x35",
          "blockHash": "0x1d78b8f855867f1a1f00dac83129c101b388ad38ffdbbabd00c03b4bff9a238b",
          "blockNumber": "0x48c8235",
          "gasUsed": "0xc1b1",
          "effectiveGasPrice": "0x6fc23ac89",
          "from": "0xaab6f44b46f19d061582727b66c9a0c84c97a2f6",
          "to": "0x586bdfe433ed38912ac96b2608d8181cd3bb0dec",
          "contractAddress": null
        },
        {
          "status": "0x1",
          "cumulativeGasUsed": "0xe8f84c",
          "logs": [
            {
              "address": "0x3c499c542cef5e3811e1192ce70d8cc03d5c3359",
              "topics": [
                "0x8c5be1e5ebec7d5bd14f71427d1e84f3dd0314c0f7b2291e5b200ac8c7c3b925",
                "0x000000000000000000000000fb99dc60542fb919255d5fccc6ec38956a513a5f",
                "0x0000000000000000000000009aa02d4fae7f58b8e8f34c66e756cc734dac7fe4"
              ],
              "data": "0xffffffffffffffffffffffffffffffffffffffffffffffffffffffffffffffff",
              "blockHash": "0x1d78b8f855867f1a1f00dac83129c101b388ad38ffdbbabd00c03b4bff9a238b",
              "blockNumber": "0x48c8235",
              "transactionHash": "0x7f569c8c7870ee8bd155b8d62df3053edaa0f5354ac52cbfda5ee4e4fdbb21ea",
              "transactionIndex": "0x36",
              "logIndex": "0x182",
              "removed": false
            },
            {
              "address": "0x0000000000000000000000000000000000001010",
              "topics": [
                "0x4dfe1bbbcf077ddc3e01291eea2d5c70c2b422b415d95645b9adcfd678cb1d63",
                "0x0000000000000000000000000000000000000000000000000000000000001010",
                "0x000000000000000000000000aab6f44b46f19d061582727b66c9a0c84c97a2f6",
                "0x000000000000000000000000ce7fcb674ba27a952c71061b649fb5a5746f3b2b"
              ],
              "data": "0x0000000000000000000000000000000000000000000000000006470cc32dc400000000000000000000000000000000000000000000000000368fd1e5315a81e1000000000000000000000000000000000000000000004bca1b7fbe326253bf7e00000000000000000000000000000000000000000000000036898ad86e2cbde1000000000000000000000000000000000000000000004bca1b86053f2581837e",
              "blockHash": "0x1d78b8f855867f1a1f00dac83129c101b388ad38ffdbbabd00c03b4bff9a238b",
              "blockNumber": "0x48c8235",
              "transactionHash": "0x7f569c8c7870ee8bd155b8d62df3053edaa0f5354ac52cbfda5ee4e4fdbb21ea",
              "transactionIndex": "0x36",
              "logIndex": "0x183",
              "removed": false
            }
          ],
          "logsBloom": "0x04000000000000000000000000000000000000000000000000000000000000000000000000000000000000000000002000008000000000000000000000200000000000000000000000000000000000800010000000000000000120000000000000000000000000004000000000000000000000000000000080000000000800000000000000000000000000000080000000000000000000000000000000000000220000000000000000000000000000000800000000000040000000000000004000000000004000000001000000100000000010000000000000100000000000000010000000000000000000000000010000000000100000000000000002100000",
          "type": "0x2",
          "transactionHash": "0x7f569c8c7870ee8bd155b8d62df3053edaa0f5354ac52cbfda5ee4e4fdbb21ea",
          "transactionIndex": "0x36",
          "blockHash": "0x1d78b8f855867f1a1f00dac83129c101b388ad38ffdbbabd00c03b4bff9a238b",
          "blockNumber": "0x48c8235",
          "gasUsed": "0xe613",
          "effectiveGasPrice": "0x6fc23ac89",
          "from": "0xaab6f44b46f19d061582727b66c9a0c84c97a2f6",
          "to": "0xfb99dc60542fb919255d5fccc6ec38956a513a5f",
          "contractAddress": null
        },
        {
          "status": "0x1",
          "cumulativeGasUsed": "0xea219c",
          "logs": [
            {
              "address": "0xc2132d05d31c914a87c6611c10748aeb04b58e8f",
              "topics": [
                "0x8c5be1e5ebec7d5bd14f71427d1e84f3dd0314c0f7b2291e5b200ac8c7c3b925",
                "0x000000000000000000000000fb99dc60542fb919255d5fccc6ec38956a513a5f",
                "0x000000000000000000000000d47b03ee6d86cf251ee7860fb2acf9f91b9fd4d7"
              ],
              "data": "0xffffffffffffffffffffffffffffffffffffffffffffffffffffffffffffffff",
              "blockHash": "0x1d78b8f855867f1a1f00dac83129c101b388ad38ffdbbabd00c03b4bff9a238b",
              "blockNumber": "0x48c8235",
              "transactionHash": "0x7d07187d8e96df7073a04a766b58b90b82248a63200fb3c0d6ad4b03951dd3b4",
              "transactionIndex": "0x38",
              "logIndex": "0x186",
              "removed": false
            },
            {
              "address": "0x0000000000000000000000000000000000001010",
              "topics": [
                "0x4dfe1bbbcf077ddc3e01291eea2d5c70c2b422b415d95645b9adcfd678cb1d63",
                "0x0000000000000000000000000000000000000000000000000000000000001010",
                "0x000000000000000000000000aab6f44b46f19d061582727b66c9a0c84c97a2f6",
                "0x000000000000000000000000ce7fcb674ba27a952c71061b649fb5a5746f3b2b"
              ],
              "data": "0x0000000000000000000000000000000000000000000000000005dfb8df7c600000000000000000000000000000000000000000000000000036898ad86db19db6000000000000000000000000000000000000000000004bca1b88423a73b6e37e0000000000000000000000000000000000000000000000003683ab1f8e353db6000000000000000000000000000000000000000000004bca1b8e21f35333437e",
              "blockHash": "0x1d78b8f855867f1a1f00dac83129c101b388ad38ffdbbabd00c03b4bff9a238b",
              "blockNumber": "0x48c8235",
              "transactionHash": "0x7d07187d8e96df7073a04a766b58b90b82248a63200fb3c0d6ad4b03951dd3b4",
              "transactionIndex": "0x38",
              "logIndex": "0x187",
              "removed": false
            }
          ],
          "logsBloom": "0x00000000000000000000000000000000000000000000000000000000000000000000000000000000000000000010002100008000000000000000000000200000000000000000000000000000000000800000000000000000000120000000000000000000000000004000000100000000000000000000000080000000000000000000000000080000000000000080000000000000000000000000000000000000220000000000000000000000000000000000000000000440000000000000004000000000004000000001000000100000400010000000000000100000000000000010000000000000000000000000000000000000000000000000000002100000",
          "type": "0x2",
          "transactionHash": "0x7d07187d8e96df7073a04a766b58b90b82248a63200fb3c0d6ad4b03951dd3b4",
          "transactionIndex": "0x38",
          "blockHash": "0x1d78b8f855867f1a1f00dac83129c101b388ad38ffdbbabd00c03b4bff9a238b",
          "blockNumber": "0x48c8235",
          "gasUsed": "0xd748",
          "effectiveGasPrice": "0x6fc23ac89",
          "from": "0xaab6f44b46f19d061582727b66c9a0c84c97a2f6",
          "to": "0xfb99dc60542fb919255d5fccc6ec38956a513a5f",
          "contractAddress": null
        }
      ],
      "libraries": [],
      "pending": [],
      "returns": {},
      "timestamp": 1757588438,
      "chain": 137,
      "commit": "eb0500b"
    },
    {
      "transactions": [
        {
          "hash": "0x31587d9d2b781574c7c722770038027ba1c48a2d642e003294af59730fc11be2",
          "transactionType": "CALL",
          "contractName": null,
          "contractAddress": "0xfb99dc60542fb919255d5fccc6ec38956a513a5f",
          "function": "approveAll(address,address)",
          "arguments": [
            "0xB97EF9Ef8734C71904D8002F8b6Bc66Dd9c48a6E",
            "0x5634c4a5FEd09819E3c46D86A965Dd9447d86e47"
          ],
          "transaction": {
            "from": "0xaab6f44b46f19d061582727b66c9a0c84c97a2f6",
            "to": "0xfb99dc60542fb919255d5fccc6ec38956a513a5f",
            "gas": "0x13db9",
            "value": "0x0",
            "input": "0x0a443276000000000000000000000000b97ef9ef8734c71904d8002f8b6bc66dd9c48a6e0000000000000000000000005634c4a5fed09819e3c46d86a965dd9447d86e47",
            "nonce": "0x1f",
            "chainId": "0xa86a"
          },
          "additionalContracts": [],
          "isFixedGasLimit": false
        },
        {
          "hash": "0xddf036059690d88a6ccd47aa29a8acc3ed7f3c064b28121b4005e25572abc34b",
          "transactionType": "CALL",
          "contractName": null,
          "contractAddress": "0xfb99dc60542fb919255d5fccc6ec38956a513a5f",
          "function": "approveAll(address,address)",
          "arguments": [
            "0x9702230A8Ea53601f5cD2dc00fDBc13d4dF4A8c7",
            "0x12dC9256Acc9895B076f6638D628382881e62CeE"
          ],
          "transaction": {
            "from": "0xaab6f44b46f19d061582727b66c9a0c84c97a2f6",
            "to": "0xfb99dc60542fb919255d5fccc6ec38956a513a5f",
            "gas": "0x145f7",
            "value": "0x0",
            "input": "0x0a4432760000000000000000000000009702230a8ea53601f5cd2dc00fdbc13d4df4a8c700000000000000000000000012dc9256acc9895b076f6638d628382881e62cee",
            "nonce": "0x20",
            "chainId": "0xa86a"
          },
          "additionalContracts": [],
          "isFixedGasLimit": false
        }
      ],
      "receipts": [
        {
          "status": "0x1",
          "cumulativeGasUsed": "0x21fdbe",
          "logs": [
            {
              "address": "0x9702230a8ea53601f5cd2dc00fdbc13d4df4a8c7",
              "topics": [
                "0x8c5be1e5ebec7d5bd14f71427d1e84f3dd0314c0f7b2291e5b200ac8c7c3b925",
                "0x000000000000000000000000fb99dc60542fb919255d5fccc6ec38956a513a5f",
                "0x00000000000000000000000012dc9256acc9895b076f6638d628382881e62cee"
              ],
              "data": "0xffffffffffffffffffffffffffffffffffffffffffffffffffffffffffffffff",
              "blockHash": "0x8ee20b5de331dcc89d0a245522f626db624bbc1acb17380ae571c47376bb57b9",
              "blockNumber": "0x416602f",
              "transactionHash": "0xddf036059690d88a6ccd47aa29a8acc3ed7f3c064b28121b4005e25572abc34b",
              "transactionIndex": "0x24",
              "logIndex": "0x1f",
              "removed": false
            }
          ],
          "logsBloom": "0x00000000000000000000000000000000000000000000000000000000000000000000000000000000000000000000000000000000000000000000000000200000000000000000000000000000000000000000000000000000000000000000000000000000000008004000000000000000000000000000000000000000000000000000000800000000000000000000000000000010000000000000000000000000020000000000000000000000000000000000000000000040000000000000000000000000000008000000000000100000000000000000000000000000000000000010000000000000000000000000000000000400000000020000000000000000",
          "type": "0x2",
          "transactionHash": "0xddf036059690d88a6ccd47aa29a8acc3ed7f3c064b28121b4005e25572abc34b",
          "transactionIndex": "0x24",
          "blockHash": "0x8ee20b5de331dcc89d0a245522f626db624bbc1acb17380ae571c47376bb57b9",
          "blockNumber": "0x416602f",
          "gasUsed": "0xdee2",
          "effectiveGasPrice": "0x2096c7fe",
          "from": "0xaab6f44b46f19d061582727b66c9a0c84c97a2f6",
          "to": "0xfb99dc60542fb919255d5fccc6ec38956a513a5f",
          "contractAddress": null
        }
      ],
      "libraries": [],
      "pending": [
        "0x31587d9d2b781574c7c722770038027ba1c48a2d642e003294af59730fc11be2"
      ],
      "returns": {},
      "timestamp": 1757588438,
      "chain": 43114,
      "commit": "eb0500b"
    }
  ],
  "timestamp": 1757588538
}