{
  "transactions": [
    {
      "hash": "0x5221524fbb04b1b29b9f9d3d26f35031f7bd876a65d5296491adce47058e79f6",
      "transactionType": "CALL",
      "contractName": null,
      "contractAddress": "0xe3664722a685de10b27460d9097767813b5e0459",
      "function": "enrollRemoteRouter(uint32,bytes32)",
      "arguments": [
        "84532",
        "0x00000000000000000000000005cad57113cb3fa213982dc9553498018c1d08b7"
      ],
      "transaction": {
        "from": "0xaab6f44b46f19d061582727b66c9a0c84c97a2f6",
        "to": "0xe3664722a685de10b27460d9097767813b5e0459",
        "gas": "0x2882a",
        "value": "0x0",
        "input": "0xb49c53a70000000000000000000000000000000000000000000000000000000000014a3400000000000000000000000005cad57113cb3fa213982dc9553498018c1d08b7",
        "nonce": "0xc2",
        "chainId": "0xaa36a7"
      },
      "additionalContracts": [],
      "isFixedGasLimit": false
    },
    {
      "hash": "0x3201b0c603d0dafe2b042adee6ec9955a973b8b73a624db1efae0474f5175b86",
      "transactionType": "CALL",
      "contractName": null,
      "contractAddress": "0x5f2785f8c06fff20f44e7d1c4940694cd271343b",
      "function": "enrollRemoteRouter(uint32,bytes32)",
      "arguments": [
        "84532",
        "0x0000000000000000000000003744d204595af66329b325a7651b005fbdcd77a4"
      ],
      "transaction": {
        "from": "0xaab6f44b46f19d061582727b66c9a0c84c97a2f6",
        "to": "0x5f2785f8c06fff20f44e7d1c4940694cd271343b",
        "gas": "0x26417",
        "value": "0x0",
        "input": "0xb49c53a70000000000000000000000000000000000000000000000000000000000014a340000000000000000000000003744d204595af66329b325a7651b005fbdcd77a4",
        "nonce": "0xc3",
        "chainId": "0xaa36a7"
      },
      "additionalContracts": [],
      "isFixedGasLimit": false
    },
    {
      "hash": "0xa3a024d777fd2ac59bf8b22719756f9780469823fb2d641ea3f5b6de31d231a5",
      "transactionType": "CALL",
      "contractName": null,
      "contractAddress": "0xe3664722a685de10b27460d9097767813b5e0459",
      "function": "enrollRemoteRouter(uint32,bytes32)",
      "arguments": [
        "1301",
        "0x000000000000000000000000274d622afa517251bdf73ea08377b78dd9f49f2b"
      ],
      "transaction": {
        "from": "0xaab6f44b46f19d061582727b66c9a0c84c97a2f6",
        "to": "0xe3664722a685de10b27460d9097767813b5e0459",
        "gas": "0x22668",
        "value": "0x0",
        "input": "0xb49c53a70000000000000000000000000000000000000000000000000000000000000515000000000000000000000000274d622afa517251bdf73ea08377b78dd9f49f2b",
        "nonce": "0xc4",
        "chainId": "0xaa36a7"
      },
      "additionalContracts": [],
      "isFixedGasLimit": false
    },
    {
      "hash": "0x0faf46227823d08905412d7dbfa7a52797a25088dfc3c2c12045accf56f3d45d",
      "transactionType": "CALL",
      "contractName": null,
      "contractAddress": "0x5f2785f8c06fff20f44e7d1c4940694cd271343b",
      "function": "enrollRemoteRouter(uint32,bytes32)",
      "arguments": [
        "1301",
        "0x0000000000000000000000005983458d6d58b80257744872a778ece9e82ceec0"
      ],
      "transaction": {
        "from": "0xaab6f44b46f19d061582727b66c9a0c84c97a2f6",
        "to": "0x5f2785f8c06fff20f44e7d1c4940694cd271343b",
        "gas": "0x22668",
        "value": "0x0",
        "input": "0xb49c53a700000000000000000000000000000000000000000000000000000000000005150000000000000000000000005983458d6d58b80257744872a778ece9e82ceec0",
        "nonce": "0xc5",
        "chainId": "0xaa36a7"
      },
      "additionalContracts": [],
      "isFixedGasLimit": false
    },
    {
      "hash": "0x685320562d10fd68cb54e29dd8b75f134c5e4882be3e7f57ecd90d37f1f6424a",
      "transactionType": "CALL",
      "contractName": null,
      "contractAddress": "0xe3664722a685de10b27460d9097767813b5e0459",
      "function": "enrollRemoteRouter(uint32,bytes32)",
      "arguments": [
        "763373",
        "0x000000000000000000000000274d622afa517251bdf73ea08377b78dd9f49f2b"
      ],
      "transaction": {
        "from": "0xaab6f44b46f19d061582727b66c9a0c84c97a2f6",
        "to": "0xe3664722a685de10b27460d9097767813b5e0459",
        "gas": "0x207e4",
        "value": "0x0",
        "input": "0xb49c53a700000000000000000000000000000000000000000000000000000000000ba5ed000000000000000000000000274d622afa517251bdf73ea08377b78dd9f49f2b",
        "nonce": "0xc6",
        "chainId": "0xaa36a7"
      },
      "additionalContracts": [],
      "isFixedGasLimit": false
    },
    {
      "hash": "0xf758866f60692c4e35965dbf723cc5b9c9859c74d9dfdc50010c40242f317ead",
      "transactionType": "CALL",
      "contractName": null,
      "contractAddress": "0x5f2785f8c06fff20f44e7d1c4940694cd271343b",
      "function": "enrollRemoteRouter(uint32,bytes32)",
      "arguments": [
        "763373",
        "0x0000000000000000000000005983458d6d58b80257744872a778ece9e82ceec0"
      ],
      "transaction": {
        "from": "0xaab6f44b46f19d061582727b66c9a0c84c97a2f6",
        "to": "0x5f2785f8c06fff20f44e7d1c4940694cd271343b",
        "gas": "0x207e4",
        "value": "0x0",
        "input": "0xb49c53a700000000000000000000000000000000000000000000000000000000000ba5ed0000000000000000000000005983458d6d58b80257744872a778ece9e82ceec0",
        "nonce": "0xc7",
        "chainId": "0xaa36a7"
      },
      "additionalContracts": [],
      "isFixedGasLimit": false
    }
  ],
  "receipts": [
    {
      "status": "0x1",
      "cumulativeGasUsed": "0x5208",
      "logs": [],
      "logsBloom": "0x00000000000000000000000000000000000000000000000000000000000000000000000000000000000000000000000000000000000000000000000000000000000000000000000000000000000000000000000000000000000000000000000000000000000000000000000000000000000000000000000000000000000000000000000000000000000000000000000000000000000000000000000000000000000000000000000000000000000000000000000000000000000000000000000000000000000000000000000000000000000000000000000000000000000000000000000000000000000000000000000000000000000000000000000000000000",
      "type": "0x2",
      "transactionHash": "0x5221524fbb04b1b29b9f9d3d26f35031f7bd876a65d5296491adce47058e79f6",
      "transactionIndex": "0x0",
      "blockHash": "0x324af28037095abf74b158bdee235b840b5284c9bfec8667afd336aef78da86a",
      "blockNumber": "0x1a133f",
      "gasUsed": "0x5208",
      "effectiveGasPrice": "0x4d7c6d00",
      "from": "0xf29a6c0f8ee500dc87d0d4eb8b26a6fac7a76767",
      "to": "0x5c972854eff3dc5e10470a5b2610c364c8016e29",
      "contractAddress": null
    },
    {
      "status": "0x1",
      "cumulativeGasUsed": "0x99c6e8",
      "logs": [],
      "logsBloom": "0x00000000000000000000000000000000000000000000000000000000000000000000000000000000000000000000000000000000000000000000000000000000000000000000000000000000000000000000000000000000000000000000000000000000000000000000000000000000000000000000000000000000000000000000000000000000000000000000000000000000000000000000000000000000000000000000000000000000000000000000000000000000000000000000000000000000000000000000000000000000000000000000000000000000000000000000000000000000000000000000000000000000000000000000000000000000",
      "type": "0x2",
      "transactionHash": "0x3201b0c603d0dafe2b042adee6ec9955a973b8b73a624db1efae0474f5175b86",
      "transactionIndex": "0x8f",
      "blockHash": "0x4d7cabaab6a42355cdf20a8d9c085018723916c77e6c118f9f2bae6c4770faee",
      "blockNumber": "0x772fb8",
      "gasUsed": "0x1bb25",
      "effectiveGasPrice": "0x5e38b475",
      "from": "0xaab6f44b46f19d061582727b66c9a0c84c97a2f6",
      "to": "0x5f2785f8c06fff20f44e7d1c4940694cd271343b",
      "contractAddress": null
    },
    {
      "status": "0x1",
      "cumulativeGasUsed": "0x9b3f41",
      "logs": [],
      "logsBloom": "0x00000000000000000000000000000000000000000000000000000000000000000000000000000000000000000000000000000000000000000000000000000000000000000000000000000000000000000000000000000000000000000000000000000000000000000000000000000000000000000000000000000000000000000000000000000000000000000000000000000000000000000000000000000000000000000000000000000000000000000000000000000000000000000000000000000000000000000000000000000000000000000000000000000000000000000000000000000000000000000000000000000000000000000000000000000000",
      "type": "0x2",
      "transactionHash": "0xa3a024d777fd2ac59bf8b22719756f9780469823fb2d641ea3f5b6de31d231a5",
      "transactionIndex": "0x90",
      "blockHash": "0x4d7cabaab6a42355cdf20a8d9c085018723916c77e6c118f9f2bae6c4770faee",
      "blockNumber": "0x772fb8",
      "gasUsed": "0x17859",
      "effectiveGasPrice": "0x5e38b475",
      "from": "0xaab6f44b46f19d061582727b66c9a0c84c97a2f6",
      "to": "0xe3664722a685de10b27460d9097767813b5e0459",
      "contractAddress": null
    },
    {
      "status": "0x1",
      "cumulativeGasUsed": "0x9cb79a",
      "logs": [],
      "logsBloom": "0x00000000000000000000000000000000000000000000000000000000000000000000000000000000000000000000000000000000000000000000000000000000000000000000000000000000000000000000000000000000000000000000000000000000000000000000000000000000000000000000000000000000000000000000000000000000000000000000000000000000000000000000000000000000000000000000000000000000000000000000000000000000000000000000000000000000000000000000000000000000000000000000000000000000000000000000000000000000000000000000000000000000000000000000000000000000",
      "type": "0x2",
      "transactionHash": "0x0faf46227823d08905412d7dbfa7a52797a25088dfc3c2c12045accf56f3d45d",
      "transactionIndex": "0x91",
      "blockHash": "0x4d7cabaab6a42355cdf20a8d9c085018723916c77e6c118f9f2bae6c4770faee",
      "blockNumber": "0x772fb8",
      "gasUsed": "0x17859",
      "effectiveGasPrice": "0x5e38b475",
      "from": "0xaab6f44b46f19d061582727b66c9a0c84c97a2f6",
      "to": "0x5f2785f8c06fff20f44e7d1c4940694cd271343b",
      "contractAddress": null
    },
    {
      "status": "0x1",
      "cumulativeGasUsed": "0x9e8207",
      "logs": [],
      "logsBloom": "0x00000000000000000000000000000000000000000000000000000000000000000000000000000000000000000000000000000000000000000000000000000000000000000000000000000000000000000000000000000000000000000000000000000000000000000000000000000000000000000000000000000000000000000000000000000000000000000000000000000000000000000000000000000000000000000000000000000000000000000000000000000000000000000000000000000000000000000000000000000000000000000000000000000000000000000000000000000000000000000000000000000000000000000000000000000000",
      "type": "0x2",
      "transactionHash": "0x685320562d10fd68cb54e29dd8b75f134c5e4882be3e7f57ecd90d37f1f6424a",
      "transactionIndex": "0x93",
      "blockHash": "0x4d7cabaab6a42355cdf20a8d9c085018723916c77e6c118f9f2bae6c4770faee",
      "blockNumber": "0x772fb8",
      "gasUsed": "0x17865",
      "effectiveGasPrice": "0x5e38b475",
      "from": "0xaab6f44b46f19d061582727b66c9a0c84c97a2f6",
      "to": "0xe3664722a685de10b27460d9097767813b5e0459",
      "contractAddress": null
    },
    {
      "status": "0x1",
      "cumulativeGasUsed": "0xa5e75e",
      "logs": [],
      "logsBloom": "0x00000000000000000000000000000000000000000000000000000000000000000000000000000000000000000000000000000000000000000000000000000000000000000000000000000000000000000000000000000000000000000000000000000000000000000000000000000000000000000000000000000000000000000000000000000000000000000000000000000000000000000000000000000000000000000000000000000000000000000000000000000000000000000000000000000000000000000000000000000000000000000000000000000000000000000000000000000000000000000000000000000000000000000000000000000000",
      "type": "0x2",
      "transactionHash": "0xf758866f60692c4e35965dbf723cc5b9c9859c74d9dfdc50010c40242f317ead",
      "transactionIndex": "0x95",
      "blockHash": "0x4d7cabaab6a42355cdf20a8d9c085018723916c77e6c118f9f2bae6c4770faee",
      "blockNumber": "0x772fb8",
      "gasUsed": "0x17865",
      "effectiveGasPrice": "0x5e38b475",
      "from": "0xaab6f44b46f19d061582727b66c9a0c84c97a2f6",
      "to": "0x5f2785f8c06fff20f44e7d1c4940694cd271343b",
      "contractAddress": null
    }
  ],
  "libraries": [],
  "pending": [],
  "returns": {},
  "timestamp": 1740840733,
  "chain": 11155111,
  "commit": "0092d48"
}