{
  "transactions": [
    {
      "hash": "0x1a9e1f7853cc80a91288aaaf1f93587a302af3b6b1f68f03000fe13a6b052fd4",
      "transactionType": "CALL",
      "contractName": null,
      "contractAddress": "0x586bdfe433ed38912ac96b2608d8181cd3bb0dec",
      "function": "approveAll(address,address)",
      "arguments": [
        "0x6b821901f606F2216436CACA965c3B89cB4f1240",
        "0x3127Fc42fD0a8fB9E1A342D01C5F89Dd84f78F50"
      ],
      "transaction": {
        "from": "0xaab6f44b46f19d061582727b66c9a0c84c97a2f6",
        "to": "0x586bdfe433ed38912ac96b2608d8181cd3bb0dec",
        "gas": "0x10a45",
        "value": "0x0",
        "input": "0x0a4432760000000000000000000000006b821901f606f2216436caca965c3b89cb4f12400000000000000000000000003127fc42fd0a8fb9e1a342d01c5f89dd84f78f50",
        "nonce": "0x253",
        "chainId": "0xaa36a7"
      },
      "additionalContracts": [],
      "isFixedGasLimit": false
    },
    {
      "hash": "0x7f6ccca9f24539e6db363712c905f8c0430d0efa2f0c8ac1d2d2038c5724e6d5",
      "transactionType": "CALL",
      "contractName": null,
      "contractAddress": "0x586bdfe433ed38912ac96b2608d8181cd3bb0dec",
      "function": "approveAll(address,address)",
      "arguments": [
        "0x37c6E14d5BB318f211f71e92857794fD9Dd97Ee9",
        "0xc6BCbD4B62FA6f088DB0f3D668fbFE235CB014fC"
      ],
      "transaction": {
        "from": "0xaab6f44b46f19d061582727b66c9a0c84c97a2f6",
        "to": "0x586bdfe433ed38912ac96b2608d8181cd3bb0dec",
        "gas": "0x10a45",
        "value": "0x0",
        "input": "0x0a44327600000000000000000000000037c6e14d5bb318f211f71e92857794fd9dd97ee9000000000000000000000000c6bcbd4b62fa6f088db0f3d668fbfe235cb014fc",
        "nonce": "0x254",
        "chainId": "0xaa36a7"
      },
      "additionalContracts": [],
      "isFixedGasLimit": false
    }
  ],
  "receipts": [
    {
      "status": "0x1",
      "cumulativeGasUsed": "0x1080a45",
      "logs": [
        {
          "address": "0x6b821901f606f2216436caca965c3b89cb4f1240",
          "topics": [
            "0x8c5be1e5ebec7d5bd14f71427d1e84f3dd0314c0f7b2291e5b200ac8c7c3b925",
            "0x000000000000000000000000586bdfe433ed38912ac96b2608d8181cd3bb0dec",
            "0x0000000000000000000000003127fc42fd0a8fb9e1a342d01c5f89dd84f78f50"
          ],
          "data": "0xffffffffffffffffffffffffffffffffffffffffffffffffffffffffffffffff",
          "blockHash": "0xbae9d54ad992e1536ac369c82b2a403d368221aca8eca364d25d4ef8361c8fc8",
          "blockNumber": "0x8c15dc",
          "transactionHash": "0x1a9e1f7853cc80a91288aaaf1f93587a302af3b6b1f68f03000fe13a6b052fd4",
          "transactionIndex": "0x4a",
          "logIndex": "0x79",
          "removed": false
        }
      ],
      "logsBloom": "0x00000000000000000000000000000000000000000000000040000000000000000000001000000000040000000000000000000000000000000000000000200000000000000001000000000000000000000000000000000000000000000000000000000000200000000000000000000000000000000000000000000000000000000020000000000000000000000000000000000000000000000000000000000000020000000000000000000800000000000000000000000000000000040000000000000000000000000000000000000000000000000000000000000080000000000010000000000000000000000000000000000000000000000000000000000000",
      "type": "0x2",
      "transactionHash": "0x1a9e1f7853cc80a91288aaaf1f93587a302af3b6b1f68f03000fe13a6b052fd4",
      "transactionIndex": "0x4a",
      "blockHash": "0xbae9d54ad992e1536ac369c82b2a403d368221aca8eca364d25d4ef8361c8fc8",
      "blockNumber": "0x8c15dc",
      "gasUsed": "0xc0c7",
      "effectiveGasPrice": "0x12582f",
      "from": "0xaab6f44b46f19d061582727b66c9a0c84c97a2f6",
      "to": "0x586bdfe433ed38912ac96b2608d8181cd3bb0dec",
      "contractAddress": null
    },
    {
      "status": "0x1",
      "cumulativeGasUsed": "0x108cb0c",
      "logs": [
        {
          "address": "0x37c6e14d5bb318f211f71e92857794fd9dd97ee9",
          "topics": [
            "0x8c5be1e5ebec7d5bd14f71427d1e84f3dd0314c0f7b2291e5b200ac8c7c3b925",
            "0x000000000000000000000000586bdfe433ed38912ac96b2608d8181cd3bb0dec",
            "0x000000000000000000000000c6bcbd4b62fa6f088db0f3d668fbfe235cb014fc"
          ],
          "data": "0xffffffffffffffffffffffffffffffffffffffffffffffffffffffffffffffff",
          "blockHash": "0xbae9d54ad992e1536ac369c82b2a403d368221aca8eca364d25d4ef8361c8fc8",
          "blockNumber": "0x8c15dc",
          "transactionHash": "0x7f6ccca9f24539e6db363712c905f8c0430d0efa2f0c8ac1d2d2038c5724e6d5",
          "transactionIndex": "0x4b",
          "logIndex": "0x7a",
          "removed": false
        }
      ],
      "logsBloom": "0x00000000000000000000000000000000000000000000000040000000000000000000000000000000040000000000000000100000000000000000000000200000000000000000000000000000000000200000000000000000000400000000000000000000200000000000000000000000000000000000000000000000000000000000000000000000000000010000000000000000000000000000000000000000020040000000000000000000000004000000000000000000000000000000000000000000000000000000000000000000000000000000000000000000000000000010000000000000000000000000000000000000000000000000000000000000",
      "type": "0x2",
      "transactionHash": "0x7f6ccca9f24539e6db363712c905f8c0430d0efa2f0c8ac1d2d2038c5724e6d5",
      "transactionIndex": "0x4b",
      "blockHash": "0xbae9d54ad992e1536ac369c82b2a403d368221aca8eca364d25d4ef8361c8fc8",
      "blockNumber": "0x8c15dc",
      "gasUsed": "0xc0c7",
      "effectiveGasPrice": "0x12582f",
      "from": "0xaab6f44b46f19d061582727b66c9a0c84c97a2f6",
      "to": "0x586bdfe433ed38912ac96b2608d8181cd3bb0dec",
      "contractAddress": null
    }
  ],
  "libraries": [],
  "pending": [],
  "returns": {},
  "timestamp": 1757588425,
  "chain": 11155111,
  "commit": "eb0500b"
}