{
  "transactions": [
    {
      "hash": "0x045c72fef9849508ab73596e04542c2b921f15641130b4ac2cf4fd58e7fb1389",
      "transactionType": "CALL",
      "contractName": null,
      "contractAddress": "0x2eb2838febfb326803ff33c4f54cd2d3561ce6ed",
      "function": "mint(address,uint256)",
      "arguments": [
        "0xAAb6f44B46f19d061582727B66C9a0c84C97a2F6",
        "100000000000000000000000"
      ],
      "transaction": {
        "from": "0xaab6f44b46f19d061582727b66c9a0c84c97a2f6",
        "to": "0x2eb2838febfb326803ff33c4f54cd2d3561ce6ed",
        "gas": "0xb782",
        "value": "0x0",
        "input": "0x40c10f19000000000000000000000000aab6f44b46f19d061582727b66c9a0c84c97a2f600000000000000000000000000000000000000000000152d02c7e14af6800000",
        "nonce": "0xb8",
        "chainId": "0x190a85c0"
      },
      "additionalContracts": [],
      "isFixedGasLimit": false
    },
    {
      "hash": "0x62350aabc64f1a21c3b99a037d9674dcace08fd013cfe73aa7f268d06fb7e551",
      "transactionType": "CALL",
      "contractName": null,
      "contractAddress": "0x2eb2838febfb326803ff33c4f54cd2d3561ce6ed",
      "function": "approve(address,uint256)",
      "arguments": [
        "0x000000000022D473030F116dDEE9F6B43aC78BA3",
        "115792089237316195423570985008687907853269984665640564039457584007913129639935"
      ],
      "transaction": {
        "from": "0xaab6f44b46f19d061582727b66c9a0c84c97a2f6",
        "to": "0x2eb2838febfb326803ff33c4f54cd2d3561ce6ed",
        "gas": "0x961a",
        "value": "0x0",
        "input": "0x095ea7b3000000000000000000000000000000000022d473030f116ddee9f6b43ac78ba3ffffffffffffffffffffffffffffffffffffffffffffffffffffffffffffffff",
        "nonce": "0xb9",
        "chainId": "0x190a85c0"
      },
      "additionalContracts": [],
      "isFixedGasLimit": false
    },
    {
      "hash": "0x694d1009624ed24a7045afd60c0d1a55e4c78ccb44cc36b7af350e33e051c35e",
      "transactionType": "CALL",
      "contractName": null,
      "contractAddress": "0x000000000022d473030f116ddee9f6b43ac78ba3",
      "function": "approve(address,address,uint160,uint48)",
      "arguments": [
        "0x2Eb2838feBfB326803fF33C4F54cd2d3561ce6Ed",
        "0xb1163e279741D353540afF310ffAb329fbd78C08",
        "1461501637330902918203684832716283019655932542975",
        "281474976710655"
      ],
      "transaction": {
        "from": "0xaab6f44b46f19d061582727b66c9a0c84c97a2f6",
        "to": "0x000000000022d473030f116ddee9f6b43ac78ba3",
        "gas": "0x96a0",
        "value": "0x0",
        "input": "0x87517c450000000000000000000000002eb2838febfb326803ff33c4f54cd2d3561ce6ed000000000000000000000000b1163e279741d353540aff310ffab329fbd78c08000000000000000000000000ffffffffffffffffffffffffffffffffffffffff0000000000000000000000000000000000000000000000000000ffffffffffff",
        "nonce": "0xba",
        "chainId": "0x190a85c0"
      },
      "additionalContracts": [],
      "isFixedGasLimit": false
    },
    {
      "hash": "0x4f087c67bf3a5f8cc5f82436baccba51a74c509279e70514a3be9fb8dea77463",
      "transactionType": "CALL",
      "contractName": null,
      "contractAddress": "0x000000000022d473030f116ddee9f6b43ac78ba3",
      "function": "approve(address,address,uint160,uint48)",
      "arguments": [
        "0x2Eb2838feBfB326803fF33C4F54cd2d3561ce6Ed",
        "0x5e654ADc08b75846bCa12a7FB88eD74309776605",
        "1461501637330902918203684832716283019655932542975",
        "281474976710655"
      ],
      "transaction": {
        "from": "0xaab6f44b46f19d061582727b66c9a0c84c97a2f6",
        "to": "0x000000000022d473030f116ddee9f6b43ac78ba3",
        "gas": "0x96a0",
        "value": "0x0",
        "input": "0x87517c450000000000000000000000002eb2838febfb326803ff33c4f54cd2d3561ce6ed0000000000000000000000005e654adc08b75846bca12a7fb88ed74309776605000000000000000000000000ffffffffffffffffffffffffffffffffffffffff0000000000000000000000000000000000000000000000000000ffffffffffff",
        "nonce": "0xbb",
        "chainId": "0x190a85c0"
      },
      "additionalContracts": [],
      "isFixedGasLimit": false
    },
    {
      "hash": "0xd6a1fda9d50d26cc70fbcd32b5839e0915515fc02ca105b5b1bfc6880e4e0251",
      "transactionType": "CALL",
      "contractName": null,
      "contractAddress": "0x432ee6707ea6a11dbf889fabc12f2d51c6fa79a6",
      "function": "mint(address,uint256)",
      "arguments": [
        "0xAAb6f44B46f19d061582727B66C9a0c84C97a2F6",
        "100000000000000000000000"
      ],
      "transaction": {
        "from": "0xaab6f44b46f19d061582727b66c9a0c84c97a2f6",
        "to": "0x432ee6707ea6a11dbf889fabc12f2d51c6fa79a6",
        "gas": "0xb782",
        "value": "0x0",
        "input": "0x40c10f19000000000000000000000000aab6f44b46f19d061582727b66c9a0c84c97a2f600000000000000000000000000000000000000000000152d02c7e14af6800000",
        "nonce": "0xbc",
        "chainId": "0x190a85c0"
      },
      "additionalContracts": [],
      "isFixedGasLimit": false
    },
    {
      "hash": "0xa4d62ef11b603abca26ad9136114ddfdd49f40b35e10bea74a6fbaf5bbc44cc0",
      "transactionType": "CALL",
      "contractName": null,
      "contractAddress": "0x432ee6707ea6a11dbf889fabc12f2d51c6fa79a6",
      "function": "approve(address,uint256)",
      "arguments": [
        "0x000000000022D473030F116dDEE9F6B43aC78BA3",
        "115792089237316195423570985008687907853269984665640564039457584007913129639935"
      ],
      "transaction": {
        "from": "0xaab6f44b46f19d061582727b66c9a0c84c97a2f6",
        "to": "0x432ee6707ea6a11dbf889fabc12f2d51c6fa79a6",
        "gas": "0x961a",
        "value": "0x0",
        "input": "0x095ea7b3000000000000000000000000000000000022d473030f116ddee9f6b43ac78ba3ffffffffffffffffffffffffffffffffffffffffffffffffffffffffffffffff",
        "nonce": "0xbd",
        "chainId": "0x190a85c0"
      },
      "additionalContracts": [],
      "isFixedGasLimit": false
    },
    {
      "hash": "0xb5a23ac43c95bfe8452820ab1fa39b1cf67dec51420a52cf3cae175d441f3bc8",
      "transactionType": "CALL",
      "contractName": null,
      "contractAddress": "0x000000000022d473030f116ddee9f6b43ac78ba3",
      "function": "approve(address,address,uint160,uint48)",
      "arguments": [
        "0x432EE6707eA6A11dBF889fABc12F2d51c6fA79A6",
        "0xb1163e279741D353540afF310ffAb329fbd78C08",
        "1461501637330902918203684832716283019655932542975",
        "281474976710655"
      ],
      "transaction": {
        "from": "0xaab6f44b46f19d061582727b66c9a0c84c97a2f6",
        "to": "0x000000000022d473030f116ddee9f6b43ac78ba3",
        "gas": "0x96a0",
        "value": "0x0",
        "input": "0x87517c45000000000000000000000000432ee6707ea6a11dbf889fabc12f2d51c6fa79a6000000000000000000000000b1163e279741d353540aff310ffab329fbd78c08000000000000000000000000ffffffffffffffffffffffffffffffffffffffff0000000000000000000000000000000000000000000000000000ffffffffffff",
        "nonce": "0xbe",
        "chainId": "0x190a85c0"
      },
      "additionalContracts": [],
      "isFixedGasLimit": false
    },
    {
      "hash": "0x8e7656d383110b55a57c7ae9fed2f20538cca1f91cd9adfc716e63995a01494f",
      "transactionType": "CALL",
      "contractName": null,
      "contractAddress": "0x000000000022d473030f116ddee9f6b43ac78ba3",
      "function": "approve(address,address,uint160,uint48)",
      "arguments": [
        "0x432EE6707eA6A11dBF889fABc12F2d51c6fA79A6",
        "0x5e654ADc08b75846bCa12a7FB88eD74309776605",
        "1461501637330902918203684832716283019655932542975",
        "281474976710655"
      ],
      "transaction": {
        "from": "0xaab6f44b46f19d061582727b66c9a0c84c97a2f6",
        "to": "0x000000000022d473030f116ddee9f6b43ac78ba3",
        "gas": "0x96a0",
        "value": "0x0",
        "input": "0x87517c45000000000000000000000000432ee6707ea6a11dbf889fabc12f2d51c6fa79a60000000000000000000000005e654adc08b75846bca12a7fb88ed74309776605000000000000000000000000ffffffffffffffffffffffffffffffffffffffff0000000000000000000000000000000000000000000000000000ffffffffffff",
        "nonce": "0xbf",
        "chainId": "0x190a85c0"
      },
      "additionalContracts": [],
      "isFixedGasLimit": false
    },
    {
      "hash": "0x9053423c8ac622d726606e354358d2fb8cef64a09e5160fefb82305621fa2aa5",
      "transactionType": "CALL",
      "contractName": null,
      "contractAddress": "0xb1163e279741d353540aff310ffab329fbd78c08",
      "function": "multicall(bytes[])",
      "arguments": [
        "[0xf70204050000000000000000000000002eb2838febfb326803ff33c4f54cd2d3561ce6ed000000000000000000000000432ee6707ea6a11dbf889fabc12f2d51c6fa79a60000000000000000000000000000000000000000000000000000000000000bb8000000000000000000000000000000000000000000000000000000000000003c00000000000000000000000000000000000000000000000000000000000000000000000000000000000000000000000000000001000000000000000000000000, 0xdd46508f000000000000000000000000000000000000000000000000000000000000004000000000000000000000000000000000000000000000000000000000680a3c1e0000000000000000000000000000000000000000000000000000000000000300000000000000000000000000000000000000000000000000000000000000004000000000000000000000000000000000000000000000000000000000000000800000000000000000000000000000000000000000000000000000000000000002020d00000000000000000000000000000000000000000000000000000000000000000000000000000000000000000000000000000000000000000000000000020000000000000000000000000000000000000000000000000000000000000040000000000000000000000000000000000000000000000000000000000000020000000000000000000000000000000000000000000000000000000000000001a00000000000000000000000002eb2838febfb326803ff33c4f54cd2d3561ce6ed000000000000000000000000432ee6707ea6a11dbf889fabc12f2d51c6fa79a60000000000000000000000000000000000000000000000000000000000000bb8000000000000000000000000000000000000000000000000000000000000003c0000000000000000000000000000000000000000000000000000000000000000ffffffffffffffffffffffffffffffffffffffffffffffffffffffffffffe50c0000000000000000000000000000000000000000000000000000000000001af4000000000000000000000000000000000000000000000012947497809b4f045d000000000000000000000000000000000000000000000a968163f0a57b400000000000000000000000000000000000000000000000000a968163f0a57b400000000000000000000000000000aab6f44b46f19d061582727b66c9a0c84c97a2f60000000000000000000000000000000000000000000000000000000000000180000000000000000000000000000000000000000000000000000000000000000000000000000000000000000000000000000000000000000000000000000000400000000000000000000000002eb2838febfb326803ff33c4f54cd2d3561ce6ed000000000000000000000000432ee6707ea6a11dbf889fabc12f2d51c6fa79a6]"
      ],
      "transaction": {
        "from": "0xaab6f44b46f19d061582727b66c9a0c84c97a2f6",
        "to": "0xb1163e279741d353540aff310ffab329fbd78c08",
        "gas": "0x5bba1",
        "value": "0x0",
        "input": "0xac9650d8000000000000000000000000000000000000000000000000000000000000002000000000000000000000000000000000000000000000000000000000000000020000000000000000000000000000000000000000000000000000000000000040000000000000000000000000000000000000000000000000000000000000014000000000000000000000000000000000000000000000000000000000000000c4f70204050000000000000000000000002eb2838febfb326803ff33c4f54cd2d3561ce6ed000000000000000000000000432ee6707ea6a11dbf889fabc12f2d51c6fa79a60000000000000000000000000000000000000000000000000000000000000bb8000000000000000000000000000000000000000000000000000000000000003c00000000000000000000000000000000000000000000000000000000000000000000000000000000000000000000000000000001000000000000000000000000000000000000000000000000000000000000000000000000000000000000000000000000000000000000000000000000000000000000000000000364dd46508f000000000000000000000000000000000000000000000000000000000000004000000000000000000000000000000000000000000000000000000000680a3c1e0000000000000000000000000000000000000000000000000000000000000300000000000000000000000000000000000000000000000000000000000000004000000000000000000000000000000000000000000000000000000000000000800000000000000000000000000000000000000000000000000000000000000002020d00000000000000000000000000000000000000000000000000000000000000000000000000000000000000000000000000000000000000000000000000020000000000000000000000000000000000000000000000000000000000000040000000000000000000000000000000000000000000000000000000000000020000000000000000000000000000000000000000000000000000000000000001a00000000000000000000000002eb2838febfb326803ff33c4f54cd2d3561ce6ed000000000000000000000000432ee6707ea6a11dbf889fabc12f2d51c6fa79a60000000000000000000000000000000000000000000000000000000000000bb8000000000000000000000000000000000000000000000000000000000000003c0000000000000000000000000000000000000000000000000000000000000000ffffffffffffffffffffffffffffffffffffffffffffffffffffffffffffe50c0000000000000000000000000000000000000000000000000000000000001af4000000000000000000000000000000000000000000000012947497809b4f045d000000000000000000000000000000000000000000000a968163f0a57b400000000000000000000000000000000000000000000000000a968163f0a57b400000000000000000000000000000aab6f44b46f19d061582727b66c9a0c84c97a2f60000000000000000000000000000000000000000000000000000000000000180000000000000000000000000000000000000000000000000000000000000000000000000000000000000000000000000000000000000000000000000000000400000000000000000000000002eb2838febfb326803ff33c4f54cd2d3561ce6ed000000000000000000000000432ee6707ea6a11dbf889fabc12f2d51c6fa79a600000000000000000000000000000000000000000000000000000000",
        "nonce": "0xc0",
        "chainId": "0x190a85c0"
      },
      "additionalContracts": [],
      "isFixedGasLimit": false
    }
  ],
  "receipts": [
    {
      "status": "0x1",
      "cumulativeGasUsed": "0x1ee45",
      "logs": [
        {
          "address": "0x2eb2838febfb326803ff33c4f54cd2d3561ce6ed",
          "topics": [
            "0xddf252ad1be2c89b69c2b068fc378daa952ba7f163c4a11628f55a4df523b3ef",
            "0x0000000000000000000000000000000000000000000000000000000000000000",
            "0x000000000000000000000000aab6f44b46f19d061582727b66c9a0c84c97a2f6"
          ],
          "data": "0x00000000000000000000000000000000000000000000152d02c7e14af6800000",
          "blockHash": "0x29d06d2861bb2e25d6f390e8dc4b186230b0053793348ccabefef4572fb1183f",
          "blockNumber": "0x320ffe",
          "transactionHash": "0x045c72fef9849508ab73596e04542c2b921f15641130b4ac2cf4fd58e7fb1389",
          "transactionIndex": "0x2",
          "logIndex": "0x0",
          "removed": false
        }
      ],
      "logsBloom": "0x00000000000000000400000000000000000000000000000000000000000000000000000000000002000000000000002000000000000000000000000000000000000000000000000000000008000000000000000000000000000000000000000000000000020000000000000000000800000000000000000000000010000000000000000000000000000000000000000000000000000000000000000000000000000000000000000000000000000000000000000000000000000000000000000000000002000000000000000000000000000010000000000000000000000020000000008000000000000000000000000000000000000000000000000002000000",
      "type": "0x2",
      "transactionHash": "0x045c72fef9849508ab73596e04542c2b921f15641130b4ac2cf4fd58e7fb1389",
      "transactionIndex": "0x2",
      "blockHash": "0x29d06d2861bb2e25d6f390e8dc4b186230b0053793348ccabefef4572fb1183f",
      "blockNumber": "0x320ffe",
      "gasUsed": "0x84dc",
      "effectiveGasPrice": "0xfd",
      "from": "0xaab6f44b46f19d061582727b66c9a0c84c97a2f6",
      "to": "0x2eb2838febfb326803ff33c4f54cd2d3561ce6ed",
      "contractAddress": null,
      "l1BaseFeeScalar": "0x558",
      "l1BlobBaseFee": "0x1",
      "l1BlobBaseFeeScalar": "0xc5fc5",
      "l1Fee": "0x10e91df082",
      "l1GasPrice": "0x7b9d977a8",
      "l1GasUsed": "0x640"
    },
    {
      "status": "0x1",
      "cumulativeGasUsed": "0x254e8",
      "logs": [
        {
          "address": "0x2eb2838febfb326803ff33c4f54cd2d3561ce6ed",
          "topics": [
            "0x8c5be1e5ebec7d5bd14f71427d1e84f3dd0314c0f7b2291e5b200ac8c7c3b925",
            "0x000000000000000000000000aab6f44b46f19d061582727b66c9a0c84c97a2f6",
            "0x000000000000000000000000000000000022d473030f116ddee9f6b43ac78ba3"
          ],
          "data": "0xffffffffffffffffffffffffffffffffffffffffffffffffffffffffffffffff",
          "blockHash": "0x29d06d2861bb2e25d6f390e8dc4b186230b0053793348ccabefef4572fb1183f",
          "blockNumber": "0x320ffe",
          "transactionHash": "0x62350aabc64f1a21c3b99a037d9674dcace08fd013cfe73aa7f268d06fb7e551",
          "transactionIndex": "0x3",
          "logIndex": "0x1",
          "removed": false
        }
      ],
      "logsBloom": "0x00000000000000000400000000000000000000000000000000000000000000000000000000000002000000000000002000000000800000000000000000200000000000000000000000004000000000000000000000000800000000000000000000000000000000000000000000000000000000000000000000000000000000000000000000000000000000000000000000000000000000000000000000000000020000000000000000000000000000000000000000000000000000000000000000000000000000000000000000000000000010000000000000000000000000000010008000000000000000000000000000000000000000000000000002000000",
      "type": "0x2",
      "transactionHash": "0x62350aabc64f1a21c3b99a037d9674dcace08fd013cfe73aa7f268d06fb7e551",
      "transactionIndex": "0x3",
      "blockHash": "0x29d06d2861bb2e25d6f390e8dc4b186230b0053793348ccabefef4572fb1183f",
      "blockNumber": "0x320ffe",
      "gasUsed": "0x66a3",
      "effectiveGasPrice": "0xfd",
      "from": "0xaab6f44b46f19d061582727b66c9a0c84c97a2f6",
      "to": "0x2eb2838febfb326803ff33c4f54cd2d3561ce6ed",
      "contractAddress": null,
      "l1BaseFeeScalar": "0x558",
      "l1BlobBaseFee": "0x1",
      "l1BlobBaseFeeScalar": "0xc5fc5",
      "l1Fee": "0x10e91df082",
      "l1GasPrice": "0x7b9d977a8",
      "l1GasUsed": "0x640"
    },
    {
      "status": "0x1",
      "cumulativeGasUsed": "0x2c1f6",
      "logs": [
        {
          "address": "0x000000000022d473030f116ddee9f6b43ac78ba3",
          "topics": [
            "0xda9fa7c1b00402c17d0161b249b1ab8bbec047c5a52207b9c112deffd817036b",
            "0x000000000000000000000000aab6f44b46f19d061582727b66c9a0c84c97a2f6",
            "0x0000000000000000000000002eb2838febfb326803ff33c4f54cd2d3561ce6ed",
            "0x000000000000000000000000b1163e279741d353540aff310ffab329fbd78c08"
          ],
          "data": "0x000000000000000000000000ffffffffffffffffffffffffffffffffffffffff0000000000000000000000000000000000000000000000000000ffffffffffff",
          "blockHash": "0x29d06d2861bb2e25d6f390e8dc4b186230b0053793348ccabefef4572fb1183f",
          "blockNumber": "0x320ffe",
          "transactionHash": "0x694d1009624ed24a7045afd60c0d1a55e4c78ccb44cc36b7af350e33e051c35e",
          "transactionIndex": "0x4",
          "logIndex": "0x2",
          "removed": false
        }
      ],
      "logsBloom": "0x00010000000000000000000000000000000000080000000000000000000000000000000000000008000000000000002000000000000000000000000000080000000000000000000000000000000000010000000000000040000000000000000000000000000000000000000000000000000000000000000000000000000000000020000000000080000000000000000000000000000000000000000000000000000000000000000000000000000000000000000000000000002000080000000000000000000000000000000000000000000010000000000040000000000000000000000000000000000000000000000000000000000000000000000002000400",
      "type": "0x2",
      "transactionHash": "0x694d1009624ed24a7045afd60c0d1a55e4c78ccb44cc36b7af350e33e051c35e",
      "transactionIndex": "0x4",
      "blockHash": "0x29d06d2861bb2e25d6f390e8dc4b186230b0053793348ccabefef4572fb1183f",
      "blockNumber": "0x320ffe",
      "gasUsed": "0x6d0e",
      "effectiveGasPrice": "0xfd",
      "from": "0xaab6f44b46f19d061582727b66c9a0c84c97a2f6",
      "to": "0x000000000022d473030f116ddee9f6b43ac78ba3",
      "contractAddress": null,
      "l1BaseFeeScalar": "0x558",
      "l1BlobBaseFee": "0x1",
      "l1BlobBaseFeeScalar": "0xc5fc5",
      "l1Fee": "0x128b327498",
      "l1GasPrice": "0x7b9d977a8",
      "l1GasUsed": "0x6da"
    },
    {
      "status": "0x1",
      "cumulativeGasUsed": "0x32f04",
      "logs": [
        {
          "address": "0x000000000022d473030f116ddee9f6b43ac78ba3",
          "topics": [
            "0xda9fa7c1b00402c17d0161b249b1ab8bbec047c5a52207b9c112deffd817036b",
            "0x000000000000000000000000aab6f44b46f19d061582727b66c9a0c84c97a2f6",
            "0x0000000000000000000000002eb2838febfb326803ff33c4f54cd2d3561ce6ed",
            "0x0000000000000000000000005e654adc08b75846bca12a7fb88ed74309776605"
          ],
          "data": "0x000000000000000000000000ffffffffffffffffffffffffffffffffffffffff0000000000000000000000000000000000000000000000000000ffffffffffff",
          "blockHash": "0x29d06d2861bb2e25d6f390e8dc4b186230b0053793348ccabefef4572fb1183f",
          "blockNumber": "0x320ffe",
          "transactionHash": "0x4f087c67bf3a5f8cc5f82436baccba51a74c509279e70514a3be9fb8dea77463",
          "transactionIndex": "0x5",
          "logIndex": "0x3",
          "removed": false
        }
      ],
      "logsBloom": "0x00010000000000000000000000000000000000080000000000000000000000000000000000000000000000000000002000000000000000000000000000080000000000000000000010000000000000010000000000000000000000000000000000000000000000000000000000000000000000000000000000000000000000000020000000000000000000100000000000000000000000000000000000000000000000000000000000000000000000000000002000000000002000080000000000000000000000000000000000000000000010000000000040000000000000000000000000000000000000000000000000000000000000000000000002000400",
      "type": "0x2",
      "transactionHash": "0x4f087c67bf3a5f8cc5f82436baccba51a74c509279e70514a3be9fb8dea77463",
      "transactionIndex": "0x5",
      "blockHash": "0x29d06d2861bb2e25d6f390e8dc4b186230b0053793348ccabefef4572fb1183f",
      "blockNumber": "0x320ffe",
      "gasUsed": "0x6d0e",
      "effectiveGasPrice": "0xfd",
      "from": "0xaab6f44b46f19d061582727b66c9a0c84c97a2f6",
      "to": "0x000000000022d473030f116ddee9f6b43ac78ba3",
      "contractAddress": null,
      "l1BaseFeeScalar": "0x558",
      "l1BlobBaseFee": "0x1",
      "l1BlobBaseFeeScalar": "0xc5fc5",
      "l1Fee": "0x128b327498",
      "l1GasPrice": "0x7b9d977a8",
      "l1GasUsed": "0x6da"
    },
    {
      "status": "0x1",
      "cumulativeGasUsed": "0x3b3e0",
      "logs": [
        {
          "address": "0x432ee6707ea6a11dbf889fabc12f2d51c6fa79a6",
          "topics": [
            "0xddf252ad1be2c89b69c2b068fc378daa952ba7f163c4a11628f55a4df523b3ef",
            "0x0000000000000000000000000000000000000000000000000000000000000000",
            "0x000000000000000000000000aab6f44b46f19d061582727b66c9a0c84c97a2f6"
          ],
          "data": "0x00000000000000000000000000000000000000000000152d02c7e14af6800000",
          "blockHash": "0x29d06d2861bb2e25d6f390e8dc4b186230b0053793348ccabefef4572fb1183f",
          "blockNumber": "0x320ffe",
          "transactionHash": "0xd6a1fda9d50d26cc70fbcd32b5839e0915515fc02ca105b5b1bfc6880e4e0251",
          "transactionIndex": "0x6",
          "logIndex": "0x4",
          "removed": false
        }
      ],
      "logsBloom": "0x04000040000000000000000000000000000000000000000000000000000000000000000000000000000000000000002000000000000000000000000000000000000000000000000000000008000000000000000000000000000000000000000000000000020000000000000000000800008000000000000000000010000000000000000000000000000000000000000000000000000000000000000000000000000000000000000000000000000000000000000000000000000000000000000000000002000000000000000000000000000010000000000000000000000020000000000000000000000000000000000000000000000000000000000002000000",
      "type": "0x2",
      "transactionHash": "0xd6a1fda9d50d26cc70fbcd32b5839e0915515fc02ca105b5b1bfc6880e4e0251",
      "transactionIndex": "0x6",
      "blockHash": "0x29d06d2861bb2e25d6f390e8dc4b186230b0053793348ccabefef4572fb1183f",
      "blockNumber": "0x320ffe",
      "gasUsed": "0x84dc",
      "effectiveGasPrice": "0xfd",
      "from": "0xaab6f44b46f19d061582727b66c9a0c84c97a2f6",
      "to": "0x432ee6707ea6a11dbf889fabc12f2d51c6fa79a6",
      "contractAddress": null,
      "l1BaseFeeScalar": "0x558",
      "l1BlobBaseFee": "0x1",
      "l1BlobBaseFeeScalar": "0xc5fc5",
      "l1Fee": "0x10e91df082",
      "l1GasPrice": "0x7b9d977a8",
      "l1GasUsed": "0x640"
    },
    {
      "status": "0x1",
      "cumulativeGasUsed": "0x41a83",
      "logs": [
        {
          "address": "0x432ee6707ea6a11dbf889fabc12f2d51c6fa79a6",
          "topics": [
            "0x8c5be1e5ebec7d5bd14f71427d1e84f3dd0314c0f7b2291e5b200ac8c7c3b925",
            "0x000000000000000000000000aab6f44b46f19d061582727b66c9a0c84c97a2f6",
            "0x000000000000000000000000000000000022d473030f116ddee9f6b43ac78ba3"
          ],
          "data": "0xffffffffffffffffffffffffffffffffffffffffffffffffffffffffffffffff",
          "blockHash": "0x29d06d2861bb2e25d6f390e8dc4b186230b0053793348ccabefef4572fb1183f",
          "blockNumber": "0x320ffe",
          "transactionHash": "0xa4d62ef11b603abca26ad9136114ddfdd49f40b35e10bea74a6fbaf5bbc44cc0",
          "transactionIndex": "0x7",
          "logIndex": "0x5",
          "removed": false
        }
      ],
      "logsBloom": "0x04000040000000000000000000000000000000000000000000000000000000000000000000000000000000000000002000000000800000000000000000200000000000000000000000004000000000000000000000000800000000000000000000000000000000000000000000000000008000000000000000000000000000000000000000000000000000000000000000000000000000000000000000000000020000000000000000000000000000000000000000000000000000000000000000000000000000000000000000000000000010000000000000000000000000000010000000000000000000000000000000000000000000000000000002000000",
      "type": "0x2",
      "transactionHash": "0xa4d62ef11b603abca26ad9136114ddfdd49f40b35e10bea74a6fbaf5bbc44cc0",
      "transactionIndex": "0x7",
      "blockHash": "0x29d06d2861bb2e25d6f390e8dc4b186230b0053793348ccabefef4572fb1183f",
      "blockNumber": "0x320ffe",
      "gasUsed": "0x66a3",
      "effectiveGasPrice": "0xfd",
      "from": "0xaab6f44b46f19d061582727b66c9a0c84c97a2f6",
      "to": "0x432ee6707ea6a11dbf889fabc12f2d51c6fa79a6",
      "contractAddress": null,
      "l1BaseFeeScalar": "0x558",
      "l1BlobBaseFee": "0x1",
      "l1BlobBaseFeeScalar": "0xc5fc5",
      "l1Fee": "0x10e91df082",
      "l1GasPrice": "0x7b9d977a8",
      "l1GasUsed": "0x640"
    },
    {
      "status": "0x1",
      "cumulativeGasUsed": "0x48791",
      "logs": [
        {
          "address": "0x000000000022d473030f116ddee9f6b43ac78ba3",
          "topics": [
            "0xda9fa7c1b00402c17d0161b249b1ab8bbec047c5a52207b9c112deffd817036b",
            "0x000000000000000000000000aab6f44b46f19d061582727b66c9a0c84c97a2f6",
            "0x000000000000000000000000432ee6707ea6a11dbf889fabc12f2d51c6fa79a6",
            "0x000000000000000000000000b1163e279741d353540aff310ffab329fbd78c08"
          ],
          "data": "0x000000000000000000000000ffffffffffffffffffffffffffffffffffffffff0000000000000000000000000000000000000000000000000000ffffffffffff",
          "blockHash": "0x29d06d2861bb2e25d6f390e8dc4b186230b0053793348ccabefef4572fb1183f",
          "blockNumber": "0x320ffe",
          "transactionHash": "0xb5a23ac43c95bfe8452820ab1fa39b1cf67dec51420a52cf3cae175d441f3bc8",
          "transactionIndex": "0x8",
          "logIndex": "0x6",
          "removed": false
        }
      ],
      "logsBloom": "0x0001000000000000000000000000000000000000000000000000000008000000000000000000000800000000000000200000000000000000000000000008000000000000000000000000000000000000000000000000004000000000000000000000000000000000000000000000000000000000000000000000000000000000002000000000008000000000000000000000000000000000000000000000000000000000000000000000000000000000000000000000000000000028000000000000000000000000000000000000000000001000000000004000000000000000000000000000000000000000000000000000000000000000000000000a000400",
      "type": "0x2",
      "transactionHash": "0xb5a23ac43c95bfe8452820ab1fa39b1cf67dec51420a52cf3cae175d441f3bc8",
      "transactionIndex": "0x8",
      "blockHash": "0x29d06d2861bb2e25d6f390e8dc4b186230b0053793348ccabefef4572fb1183f",
      "blockNumber": "0x320ffe",
      "gasUsed": "0x6d0e",
      "effectiveGasPrice": "0xfd",
      "from": "0xaab6f44b46f19d061582727b66c9a0c84c97a2f6",
      "to": "0x000000000022d473030f116ddee9f6b43ac78ba3",
      "contractAddress": null,
      "l1BaseFeeScalar": "0x558",
      "l1BlobBaseFee": "0x1",
      "l1BlobBaseFeeScalar": "0xc5fc5",
      "l1Fee": "0x128b327498",
      "l1GasPrice": "0x7b9d977a8",
      "l1GasUsed": "0x6da"
    },
    {
      "status": "0x1",
      "cumulativeGasUsed": "0x4f49f",
      "logs": [
        {
          "address": "0x000000000022d473030f116ddee9f6b43ac78ba3",
          "topics": [
            "0xda9fa7c1b00402c17d0161b249b1ab8bbec047c5a52207b9c112deffd817036b",
            "0x000000000000000000000000aab6f44b46f19d061582727b66c9a0c84c97a2f6",
            "0x000000000000000000000000432ee6707ea6a11dbf889fabc12f2d51c6fa79a6",
            "0x0000000000000000000000005e654adc08b75846bca12a7fb88ed74309776605"
          ],
          "data": "0x000000000000000000000000ffffffffffffffffffffffffffffffffffffffff0000000000000000000000000000000000000000000000000000ffffffffffff",
          "blockHash": "0x29d06d2861bb2e25d6f390e8dc4b186230b0053793348ccabefef4572fb1183f",
          "blockNumber": "0x320ffe",
          "transactionHash": "0x8e7656d383110b55a57c7ae9fed2f20538cca1f91cd9adfc716e63995a01494f",
          "transactionIndex": "0x9",
          "logIndex": "0x7",
          "removed": false
        }
      ],
      "logsBloom": "0x0001000000000000000000000000000000000000000000000000000008000000000000000000000000000000000000200000000000000000000000000008000000000000000000001000000000000000000000000000000000000000000000000000000000000000000000000000000000000000000000000000000000000000002000000000000000000010000000000000000000000000000000000000000000000000000000000000000000000000000000200000000000000028000000000000000000000000000000000000000000001000000000004000000000000000000000000000000000000000000000000000000000000000000000000a000400",
      "type": "0x2",
      "transactionHash": "0x8e7656d383110b55a57c7ae9fed2f20538cca1f91cd9adfc716e63995a01494f",
      "transactionIndex": "0x9",
      "blockHash": "0x29d06d2861bb2e25d6f390e8dc4b186230b0053793348ccabefef4572fb1183f",
      "blockNumber": "0x320ffe",
      "gasUsed": "0x6d0e",
      "effectiveGasPrice": "0xfd",
      "from": "0xaab6f44b46f19d061582727b66c9a0c84c97a2f6",
      "to": "0x000000000022d473030f116ddee9f6b43ac78ba3",
      "contractAddress": null,
      "l1BaseFeeScalar": "0x558",
      "l1BlobBaseFee": "0x1",
      "l1BlobBaseFeeScalar": "0xc5fc5",
      "l1Fee": "0x128b327498",
      "l1GasPrice": "0x7b9d977a8",
      "l1GasUsed": "0x6da"
    },
    {
      "status": "0x1",
      "cumulativeGasUsed": "0x8e021",
      "logs": [
        {
          "address": "0xb1163e279741d353540aff310ffab329fbd78c08",
          "topics": [
            "0xddf252ad1be2c89b69c2b068fc378daa952ba7f163c4a11628f55a4df523b3ef",
            "0x0000000000000000000000000000000000000000000000000000000000000000",
            "0x000000000000000000000000aab6f44b46f19d061582727b66c9a0c84c97a2f6",
            "0x0000000000000000000000000000000000000000000000000000000000000006"
          ],
          "data": "0x",
          "blockHash": "0x29d06d2861bb2e25d6f390e8dc4b186230b0053793348ccabefef4572fb1183f",
          "blockNumber": "0x320ffe",
          "transactionHash": "0x9053423c8ac622d726606e354358d2fb8cef64a09e5160fefb82305621fa2aa5",
          "transactionIndex": "0xa",
          "logIndex": "0x8",
          "removed": false
        },
        {
          "address": "0x4e8c56bec0907f8e70e2341ff28fcfd8589e3a2d",
          "topics": [
            "0xf208f4912782fd25c7f114ca3723a2d5dd6f3bcc3ac8db5af63baa85f711d5ec",
            "0xd37e06af423c35308748e1e815e5c953be3a96fb278bc31b1d3fee27dd77b8cc",
            "0x000000000000000000000000b1163e279741d353540aff310ffab329fbd78c08"
          ],
          "data": "0xffffffffffffffffffffffffffffffffffffffffffffffffffffffffffffe50c0000000000000000000000000000000000000000000000000000000000001af4000000000000000000000000000000000000000000000012947497809b4f045d0000000000000000000000000000000000000000000000000000000000000006",
          "blockHash": "0x29d06d2861bb2e25d6f390e8dc4b186230b0053793348ccabefef4572fb1183f",
          "blockNumber": "0x320ffe",
          "transactionHash": "0x9053423c8ac622d726606e354358d2fb8cef64a09e5160fefb82305621fa2aa5",
          "transactionIndex": "0xa",
          "logIndex": "0x9",
          "removed": false
        },
        {
          "address": "0x2eb2838febfb326803ff33c4f54cd2d3561ce6ed",
          "topics": [
            "0xddf252ad1be2c89b69c2b068fc378daa952ba7f163c4a11628f55a4df523b3ef",
            "0x000000000000000000000000aab6f44b46f19d061582727b66c9a0c84c97a2f6",
            "0x0000000000000000000000004e8c56bec0907f8e70e2341ff28fcfd8589e3a2d"
          ],
          "data": "0x000000000000000000000000000000000000000000000005715030aa137d0000",
          "blockHash": "0x29d06d2861bb2e25d6f390e8dc4b186230b0053793348ccabefef4572fb1183f",
          "blockNumber": "0x320ffe",
          "transactionHash": "0x9053423c8ac622d726606e354358d2fb8cef64a09e5160fefb82305621fa2aa5",
          "transactionIndex": "0xa",
          "logIndex": "0xa",
          "removed": false
        },
        {
          "address": "0x432ee6707ea6a11dbf889fabc12f2d51c6fa79a6",
          "topics": [
            "0xddf252ad1be2c89b69c2b068fc378daa952ba7f163c4a11628f55a4df523b3ef",
            "0x000000000000000000000000aab6f44b46f19d061582727b66c9a0c84c97a2f6",
            "0x0000000000000000000000004e8c56bec0907f8e70e2341ff28fcfd8589e3a2d"
          ],
          "data": "0x0000000000000000000000000000000000000000000000056640313bcbd33434",
          "blockHash": "0x29d06d2861bb2e25d6f390e8dc4b186230b0053793348ccabefef4572fb1183f",
          "blockNumber": "0x320ffe",
          "transactionHash": "0x9053423c8ac622d726606e354358d2fb8cef64a09e5160fefb82305621fa2aa5",
          "transactionIndex": "0xa",
          "logIndex": "0xb",
          "removed": false
        }
      ],
      "logsBloom": "0x0400004000020000040000000000000020000000000000000000000000000004000100000080000a000000000000002000000000000400000000000000000000000000000000000000000008000000000000000000000040000000000000000000000000020000000000000000000800048000000000000000000010020000000000000401000080000000000100000000000000000000000000000000000000000004000000000000000000004000000000000000000000000000080000020000000002800000000000000000000000100010000000000000000000000020000000008000000000000000000000000004000000000000000000000002000000",
      "type": "0x2",
      "transactionHash": "0x9053423c8ac622d726606e354358d2fb8cef64a09e5160fefb82305621fa2aa5",
      "transactionIndex": "0xa",
      "blockHash": "0x29d06d2861bb2e25d6f390e8dc4b186230b0053793348ccabefef4572fb1183f",
      "blockNumber": "0x320ffe",
      "gasUsed": "0x3eb82",
      "effectiveGasPrice": "0xfd",
      "from": "0xaab6f44b46f19d061582727b66c9a0c84c97a2f6",
      "to": "0xb1163e279741d353540aff310ffab329fbd78c08",
      "contractAddress": null,
      "l1BaseFeeScalar": "0x558",
      "l1BlobBaseFee": "0x1",
      "l1BlobBaseFeeScalar": "0xc5fc5",
      "l1Fee": "0x313d6e8c35",
      "l1GasPrice": "0x7b9d977a8",
      "l1GasUsed": "0x1232"
    }
  ],
  "libraries": [],
  "pending": [],
  "returns": {},
  "timestamp": 1745500941,
  "chain": 420120000,
  "commit": "e21ea32"
}