{
  "transactions": [
    {
      "hash": "0x1125363e91812fa3f2b60a4d5dd0713db1b13b7df2cf2341e1700ee245dc554c",
      "transactionType": "CALL",
      "contractName": null,
      "contractAddress": "0x2eb2838febfb326803ff33c4f54cd2d3561ce6ed",
      "function": "mint(address,uint256)",
      "arguments": [
        "0xAAb6f44B46f19d061582727B66C9a0c84C97a2F6",
        "100000000000000000000000"
      ],
      "transaction": {
        "from": "0xaab6f44b46f19d061582727b66c9a0c84c97a2f6",
        "to": "0x2eb2838febfb326803ff33c4f54cd2d3561ce6ed",
        "gas": "0xb782",
        "value": "0x0",
        "input": "0x40c10f19000000000000000000000000aab6f44b46f19d061582727b66c9a0c84c97a2f600000000000000000000000000000000000000000000152d02c7e14af6800000",
        "nonce": "0xa6",
        "chainId": "0x190a85c0"
      },
      "additionalContracts": [],
      "isFixedGasLimit": false
    },
    {
      "hash": "0xda27488d473dddebd4923202531bd05750bc422e304a885e876e905772bdf2ed",
      "transactionType": "CALL",
      "contractName": null,
      "contractAddress": "0x2eb2838febfb326803ff33c4f54cd2d3561ce6ed",
      "function": "approve(address,uint256)",
      "arguments": [
        "0x000000000022D473030F116dDEE9F6B43aC78BA3",
        "115792089237316195423570985008687907853269984665640564039457584007913129639935"
      ],
      "transaction": {
        "from": "0xaab6f44b46f19d061582727b66c9a0c84c97a2f6",
        "to": "0x2eb2838febfb326803ff33c4f54cd2d3561ce6ed",
        "gas": "0x961a",
        "value": "0x0",
        "input": "0x095ea7b3000000000000000000000000000000000022d473030f116ddee9f6b43ac78ba3ffffffffffffffffffffffffffffffffffffffffffffffffffffffffffffffff",
        "nonce": "0xa7",
        "chainId": "0x190a85c0"
      },
      "additionalContracts": [],
      "isFixedGasLimit": false
    },
    {
      "hash": "0x7b0d9e578e34ef189fe4f8c84aa9fdea71cfb41b07204ebbac901e2a5032e7ac",
      "transactionType": "CALL",
      "contractName": null,
      "contractAddress": "0x000000000022d473030f116ddee9f6b43ac78ba3",
      "function": "approve(address,address,uint160,uint48)",
      "arguments": [
        "0x2Eb2838feBfB326803fF33C4F54cd2d3561ce6Ed",
        "0xb1163e279741D353540afF310ffAb329fbd78C08",
        "1461501637330902918203684832716283019655932542975",
        "281474976710655"
      ],
      "transaction": {
        "from": "0xaab6f44b46f19d061582727b66c9a0c84c97a2f6",
        "to": "0x000000000022d473030f116ddee9f6b43ac78ba3",
        "gas": "0x96a0",
        "value": "0x0",
        "input": "0x87517c450000000000000000000000002eb2838febfb326803ff33c4f54cd2d3561ce6ed000000000000000000000000b1163e279741d353540aff310ffab329fbd78c08000000000000000000000000ffffffffffffffffffffffffffffffffffffffff0000000000000000000000000000000000000000000000000000ffffffffffff",
        "nonce": "0xa8",
        "chainId": "0x190a85c0"
      },
      "additionalContracts": [],
      "isFixedGasLimit": false
    },
    {
      "hash": "0xa8ad83f7e2e40423fcf15b0ff77c8bd746bae33b0d84cca03f00b3001e4b14b1",
      "transactionType": "CALL",
      "contractName": null,
      "contractAddress": "0x000000000022d473030f116ddee9f6b43ac78ba3",
      "function": "approve(address,address,uint160,uint48)",
      "arguments": [
        "0x2Eb2838feBfB326803fF33C4F54cd2d3561ce6Ed",
        "0x5e654ADc08b75846bCa12a7FB88eD74309776605",
        "1461501637330902918203684832716283019655932542975",
        "281474976710655"
      ],
      "transaction": {
        "from": "0xaab6f44b46f19d061582727b66c9a0c84c97a2f6",
        "to": "0x000000000022d473030f116ddee9f6b43ac78ba3",
        "gas": "0x96a0",
        "value": "0x0",
        "input": "0x87517c450000000000000000000000002eb2838febfb326803ff33c4f54cd2d3561ce6ed0000000000000000000000005e654adc08b75846bca12a7fb88ed74309776605000000000000000000000000ffffffffffffffffffffffffffffffffffffffff0000000000000000000000000000000000000000000000000000ffffffffffff",
        "nonce": "0xa9",
        "chainId": "0x190a85c0"
      },
      "additionalContracts": [],
      "isFixedGasLimit": false
    },
    {
      "hash": "0x7cb9f77725630fa39b3a0b7af3e6a9c3fe6f0faa928beebc0f21fdee1f61ec5e",
      "transactionType": "CALL",
      "contractName": null,
      "contractAddress": "0x432ee6707ea6a11dbf889fabc12f2d51c6fa79a6",
      "function": "mint(address,uint256)",
      "arguments": [
        "0xAAb6f44B46f19d061582727B66C9a0c84C97a2F6",
        "100000000000000000000000"
      ],
      "transaction": {
        "from": "0xaab6f44b46f19d061582727b66c9a0c84c97a2f6",
        "to": "0x432ee6707ea6a11dbf889fabc12f2d51c6fa79a6",
        "gas": "0xb782",
        "value": "0x0",
        "input": "0x40c10f19000000000000000000000000aab6f44b46f19d061582727b66c9a0c84c97a2f600000000000000000000000000000000000000000000152d02c7e14af6800000",
        "nonce": "0xaa",
        "chainId": "0x190a85c0"
      },
      "additionalContracts": [],
      "isFixedGasLimit": false
    },
    {
      "hash": "0xfa9c831a4cb8968adfe298b9d2276e19e186636dc9f779118229cf95d2df9bc3",
      "transactionType": "CALL",
      "contractName": null,
      "contractAddress": "0x432ee6707ea6a11dbf889fabc12f2d51c6fa79a6",
      "function": "approve(address,uint256)",
      "arguments": [
        "0x000000000022D473030F116dDEE9F6B43aC78BA3",
        "115792089237316195423570985008687907853269984665640564039457584007913129639935"
      ],
      "transaction": {
        "from": "0xaab6f44b46f19d061582727b66c9a0c84c97a2f6",
        "to": "0x432ee6707ea6a11dbf889fabc12f2d51c6fa79a6",
        "gas": "0x961a",
        "value": "0x0",
        "input": "0x095ea7b3000000000000000000000000000000000022d473030f116ddee9f6b43ac78ba3ffffffffffffffffffffffffffffffffffffffffffffffffffffffffffffffff",
        "nonce": "0xab",
        "chainId": "0x190a85c0"
      },
      "additionalContracts": [],
      "isFixedGasLimit": false
    },
    {
      "hash": "0xe316e88a433ee90d3f942aaa9135195f73b9e4e589ef1337a1f6bea70626f0f3",
      "transactionType": "CALL",
      "contractName": null,
      "contractAddress": "0x000000000022d473030f116ddee9f6b43ac78ba3",
      "function": "approve(address,address,uint160,uint48)",
      "arguments": [
        "0x432EE6707eA6A11dBF889fABc12F2d51c6fA79A6",
        "0xb1163e279741D353540afF310ffAb329fbd78C08",
        "1461501637330902918203684832716283019655932542975",
        "281474976710655"
      ],
      "transaction": {
        "from": "0xaab6f44b46f19d061582727b66c9a0c84c97a2f6",
        "to": "0x000000000022d473030f116ddee9f6b43ac78ba3",
        "gas": "0x96a0",
        "value": "0x0",
        "input": "0x87517c45000000000000000000000000432ee6707ea6a11dbf889fabc12f2d51c6fa79a6000000000000000000000000b1163e279741d353540aff310ffab329fbd78c08000000000000000000000000ffffffffffffffffffffffffffffffffffffffff0000000000000000000000000000000000000000000000000000ffffffffffff",
        "nonce": "0xac",
        "chainId": "0x190a85c0"
      },
      "additionalContracts": [],
      "isFixedGasLimit": false
    },
    {
      "hash": "0x5461d823954f41ecab3ce2004b67cc3bf3a95c470dd74f42d0865ae11e18f25f",
      "transactionType": "CALL",
      "contractName": null,
      "contractAddress": "0x000000000022d473030f116ddee9f6b43ac78ba3",
      "function": "approve(address,address,uint160,uint48)",
      "arguments": [
        "0x432EE6707eA6A11dBF889fABc12F2d51c6fA79A6",
        "0x5e654ADc08b75846bCa12a7FB88eD74309776605",
        "1461501637330902918203684832716283019655932542975",
        "281474976710655"
      ],
      "transaction": {
        "from": "0xaab6f44b46f19d061582727b66c9a0c84c97a2f6",
        "to": "0x000000000022d473030f116ddee9f6b43ac78ba3",
        "gas": "0x96a0",
        "value": "0x0",
        "input": "0x87517c45000000000000000000000000432ee6707ea6a11dbf889fabc12f2d51c6fa79a60000000000000000000000005e654adc08b75846bca12a7fb88ed74309776605000000000000000000000000ffffffffffffffffffffffffffffffffffffffff0000000000000000000000000000000000000000000000000000ffffffffffff",
        "nonce": "0xad",
        "chainId": "0x190a85c0"
      },
      "additionalContracts": [],
      "isFixedGasLimit": false
    },
    {
      "hash": "0xd9902c5b3e786e0f404457123744cbc2f2f46ef320c03c3312cbdb600239bf07",
      "transactionType": "CALL",
      "contractName": null,
      "contractAddress": "0xb1163e279741d353540aff310ffab329fbd78c08",
      "function": "multicall(bytes[])",
      "arguments": [
        "[0xf70204050000000000000000000000002eb2838febfb326803ff33c4f54cd2d3561ce6ed000000000000000000000000432ee6707ea6a11dbf889fabc12f2d51c6fa79a60000000000000000000000000000000000000000000000000000000000000bb8000000000000000000000000000000000000000000000000000000000000003c00000000000000000000000000000000000000000000000000000000000000000000000000000000000000000000000000000001000000000000000000000000, 0xdd46508f000000000000000000000000000000000000000000000000000000000000004000000000000000000000000000000000000000000000000000000000680a09c20000000000000000000000000000000000000000000000000000000000000300000000000000000000000000000000000000000000000000000000000000004000000000000000000000000000000000000000000000000000000000000000800000000000000000000000000000000000000000000000000000000000000002020d00000000000000000000000000000000000000000000000000000000000000000000000000000000000000000000000000000000000000000000000000020000000000000000000000000000000000000000000000000000000000000040000000000000000000000000000000000000000000000000000000000000020000000000000000000000000000000000000000000000000000000000000001a00000000000000000000000002eb2838febfb326803ff33c4f54cd2d3561ce6ed000000000000000000000000432ee6707ea6a11dbf889fabc12f2d51c6fa79a60000000000000000000000000000000000000000000000000000000000000bb8000000000000000000000000000000000000000000000000000000000000003c0000000000000000000000000000000000000000000000000000000000000000ffffffffffffffffffffffffffffffffffffffffffffffffffffffffffffe50c0000000000000000000000000000000000000000000000000000000000001af4000000000000000000000000000000000000000000000012947497809b4f045d000000000000000000000000000000000000000000000a968163f0a57b400000000000000000000000000000000000000000000000000a968163f0a57b400000000000000000000000000000aab6f44b46f19d061582727b66c9a0c84c97a2f60000000000000000000000000000000000000000000000000000000000000180000000000000000000000000000000000000000000000000000000000000000000000000000000000000000000000000000000000000000000000000000000400000000000000000000000002eb2838febfb326803ff33c4f54cd2d3561ce6ed000000000000000000000000432ee6707ea6a11dbf889fabc12f2d51c6fa79a6]"
      ],
      "transaction": {
        "from": "0xaab6f44b46f19d061582727b66c9a0c84c97a2f6",
        "to": "0xb1163e279741d353540aff310ffab329fbd78c08",
        "gas": "0x4feb9",
        "value": "0x0",
        "input": "0xac9650d8000000000000000000000000000000000000000000000000000000000000002000000000000000000000000000000000000000000000000000000000000000020000000000000000000000000000000000000000000000000000000000000040000000000000000000000000000000000000000000000000000000000000014000000000000000000000000000000000000000000000000000000000000000c4f70204050000000000000000000000002eb2838febfb326803ff33c4f54cd2d3561ce6ed000000000000000000000000432ee6707ea6a11dbf889fabc12f2d51c6fa79a60000000000000000000000000000000000000000000000000000000000000bb8000000000000000000000000000000000000000000000000000000000000003c00000000000000000000000000000000000000000000000000000000000000000000000000000000000000000000000000000001000000000000000000000000000000000000000000000000000000000000000000000000000000000000000000000000000000000000000000000000000000000000000000000364dd46508f000000000000000000000000000000000000000000000000000000000000004000000000000000000000000000000000000000000000000000000000680a09c20000000000000000000000000000000000000000000000000000000000000300000000000000000000000000000000000000000000000000000000000000004000000000000000000000000000000000000000000000000000000000000000800000000000000000000000000000000000000000000000000000000000000002020d00000000000000000000000000000000000000000000000000000000000000000000000000000000000000000000000000000000000000000000000000020000000000000000000000000000000000000000000000000000000000000040000000000000000000000000000000000000000000000000000000000000020000000000000000000000000000000000000000000000000000000000000001a00000000000000000000000002eb2838febfb326803ff33c4f54cd2d3561ce6ed000000000000000000000000432ee6707ea6a11dbf889fabc12f2d51c6fa79a60000000000000000000000000000000000000000000000000000000000000bb8000000000000000000000000000000000000000000000000000000000000003c0000000000000000000000000000000000000000000000000000000000000000ffffffffffffffffffffffffffffffffffffffffffffffffffffffffffffe50c0000000000000000000000000000000000000000000000000000000000001af4000000000000000000000000000000000000000000000012947497809b4f045d000000000000000000000000000000000000000000000a968163f0a57b400000000000000000000000000000000000000000000000000a968163f0a57b400000000000000000000000000000aab6f44b46f19d061582727b66c9a0c84c97a2f60000000000000000000000000000000000000000000000000000000000000180000000000000000000000000000000000000000000000000000000000000000000000000000000000000000000000000000000000000000000000000000000400000000000000000000000002eb2838febfb326803ff33c4f54cd2d3561ce6ed000000000000000000000000432ee6707ea6a11dbf889fabc12f2d51c6fa79a600000000000000000000000000000000000000000000000000000000",
        "nonce": "0xae",
        "chainId": "0x190a85c0"
      },
      "additionalContracts": [],
      "isFixedGasLimit": false
    }
  ],
  "receipts": [
    {
      "status": "0x1",
      "cumulativeGasUsed": "0x1ee39",
      "logs": [
        {
          "address": "0x2eb2838febfb326803ff33c4f54cd2d3561ce6ed",
          "topics": [
            "0xddf252ad1be2c89b69c2b068fc378daa952ba7f163c4a11628f55a4df523b3ef",
            "0x0000000000000000000000000000000000000000000000000000000000000000",
            "0x000000000000000000000000aab6f44b46f19d061582727b66c9a0c84c97a2f6"
          ],
          "data": "0x00000000000000000000000000000000000000000000152d02c7e14af6800000",
          "blockHash": "0x621c834ccb9162b6f5d8122197b3f6774061f1a3609dcbf245d6924f472bbaa1",
          "blockNumber": "0x31f6cf",
          "transactionHash": "0x1125363e91812fa3f2b60a4d5dd0713db1b13b7df2cf2341e1700ee245dc554c",
          "transactionIndex": "0x2",
          "logIndex": "0x0",
          "removed": false
        }
      ],
      "logsBloom": "0x00000000000000000400000000000000000000000000000000000000000000000000000000000002000000000000002000000000000000000000000000000000000000000000000000000008000000000000000000000000000000000000000000000000020000000000000000000800000000000000000000000010000000000000000000000000000000000000000000000000000000000000000000000000000000000000000000000000000000000000000000000000000000000000000000000002000000000000000000000000000010000000000000000000000020000000008000000000000000000000000000000000000000000000000002000000",
      "type": "0x2",
      "transactionHash": "0x1125363e91812fa3f2b60a4d5dd0713db1b13b7df2cf2341e1700ee245dc554c",
      "transactionIndex": "0x2",
      "blockHash": "0x621c834ccb9162b6f5d8122197b3f6774061f1a3609dcbf245d6924f472bbaa1",
      "blockNumber": "0x31f6cf",
      "gasUsed": "0x84dc",
      "effectiveGasPrice": "0xfd",
      "from": "0xaab6f44b46f19d061582727b66c9a0c84c97a2f6",
      "to": "0x2eb2838febfb326803ff33c4f54cd2d3561ce6ed",
      "contractAddress": null,
      "l1BaseFeeScalar": "0x558",
      "l1BlobBaseFee": "0x1",
      "l1BlobBaseFeeScalar": "0xc5fc5",
      "l1Fee": "0x154b7b5216",
      "l1GasPrice": "0x9baa03365",
      "l1GasUsed": "0x640"
    },
    {
      "status": "0x1",
      "cumulativeGasUsed": "0x254dc",
      "logs": [
        {
          "address": "0x2eb2838febfb326803ff33c4f54cd2d3561ce6ed",
          "topics": [
            "0x8c5be1e5ebec7d5bd14f71427d1e84f3dd0314c0f7b2291e5b200ac8c7c3b925",
            "0x000000000000000000000000aab6f44b46f19d061582727b66c9a0c84c97a2f6",
            "0x000000000000000000000000000000000022d473030f116ddee9f6b43ac78ba3"
          ],
          "data": "0xffffffffffffffffffffffffffffffffffffffffffffffffffffffffffffffff",
          "blockHash": "0x621c834ccb9162b6f5d8122197b3f6774061f1a3609dcbf245d6924f472bbaa1",
          "blockNumber": "0x31f6cf",
          "transactionHash": "0xda27488d473dddebd4923202531bd05750bc422e304a885e876e905772bdf2ed",
          "transactionIndex": "0x3",
          "logIndex": "0x1",
          "removed": false
        }
      ],
      "logsBloom": "0x00000000000000000400000000000000000000000000000000000000000000000000000000000002000000000000002000000000800000000000000000200000000000000000000000004000000000000000000000000800000000000000000000000000000000000000000000000000000000000000000000000000000000000000000000000000000000000000000000000000000000000000000000000000020000000000000000000000000000000000000000000000000000000000000000000000000000000000000000000000000010000000000000000000000000000010008000000000000000000000000000000000000000000000000002000000",
      "type": "0x2",
      "transactionHash": "0xda27488d473dddebd4923202531bd05750bc422e304a885e876e905772bdf2ed",
      "transactionIndex": "0x3",
      "blockHash": "0x621c834ccb9162b6f5d8122197b3f6774061f1a3609dcbf245d6924f472bbaa1",
      "blockNumber": "0x31f6cf",
      "gasUsed": "0x66a3",
      "effectiveGasPrice": "0xfd",
      "from": "0xaab6f44b46f19d061582727b66c9a0c84c97a2f6",
      "to": "0x2eb2838febfb326803ff33c4f54cd2d3561ce6ed",
      "contractAddress": null,
      "l1BaseFeeScalar": "0x558",
      "l1BlobBaseFee": "0x1",
      "l1BlobBaseFeeScalar": "0xc5fc5",
      "l1Fee": "0x154b7b5216",
      "l1GasPrice": "0x9baa03365",
      "l1GasUsed": "0x640"
    },
    {
      "status": "0x1",
      "cumulativeGasUsed": "0x2c1ea",
      "logs": [
        {
          "address": "0x000000000022d473030f116ddee9f6b43ac78ba3",
          "topics": [
            "0xda9fa7c1b00402c17d0161b249b1ab8bbec047c5a52207b9c112deffd817036b",
            "0x000000000000000000000000aab6f44b46f19d061582727b66c9a0c84c97a2f6",
            "0x0000000000000000000000002eb2838febfb326803ff33c4f54cd2d3561ce6ed",
            "0x000000000000000000000000b1163e279741d353540aff310ffab329fbd78c08"
          ],
          "data": "0x000000000000000000000000ffffffffffffffffffffffffffffffffffffffff0000000000000000000000000000000000000000000000000000ffffffffffff",
          "blockHash": "0x621c834ccb9162b6f5d8122197b3f6774061f1a3609dcbf245d6924f472bbaa1",
          "blockNumber": "0x31f6cf",
          "transactionHash": "0x7b0d9e578e34ef189fe4f8c84aa9fdea71cfb41b07204ebbac901e2a5032e7ac",
          "transactionIndex": "0x4",
          "logIndex": "0x2",
          "removed": false
        }
      ],
      "logsBloom": "0x00010000000000000000000000000000000000080000000000000000000000000000000000000008000000000000002000000000000000000000000000080000000000000000000000000000000000010000000000000040000000000000000000000000000000000000000000000000000000000000000000000000000000000020000000000080000000000000000000000000000000000000000000000000000000000000000000000000000000000000000000000000002000080000000000000000000000000000000000000000000010000000000040000000000000000000000000000000000000000000000000000000000000000000000002000400",
      "type": "0x2",
      "transactionHash": "0x7b0d9e578e34ef189fe4f8c84aa9fdea71cfb41b07204ebbac901e2a5032e7ac",
      "transactionIndex": "0x4",
      "blockHash": "0x621c834ccb9162b6f5d8122197b3f6774061f1a3609dcbf245d6924f472bbaa1",
      "blockNumber": "0x31f6cf",
      "gasUsed": "0x6d0e",
      "effectiveGasPrice": "0xfd",
      "from": "0xaab6f44b46f19d061582727b66c9a0c84c97a2f6",
      "to": "0x000000000022d473030f116ddee9f6b43ac78ba3",
      "contractAddress": null,
      "l1BaseFeeScalar": "0x558",
      "l1BlobBaseFee": "0x1",
      "l1BlobBaseFeeScalar": "0xc5fc5",
      "l1Fee": "0x1759f3ff7b",
      "l1GasPrice": "0x9baa03365",
      "l1GasUsed": "0x6da"
    },
    {
      "status": "0x1",
      "cumulativeGasUsed": "0x32ef8",
      "logs": [
        {
          "address": "0x000000000022d473030f116ddee9f6b43ac78ba3",
          "topics": [
            "0xda9fa7c1b00402c17d0161b249b1ab8bbec047c5a52207b9c112deffd817036b",
            "0x000000000000000000000000aab6f44b46f19d061582727b66c9a0c84c97a2f6",
            "0x0000000000000000000000002eb2838febfb326803ff33c4f54cd2d3561ce6ed",
            "0x0000000000000000000000005e654adc08b75846bca12a7fb88ed74309776605"
          ],
          "data": "0x000000000000000000000000ffffffffffffffffffffffffffffffffffffffff0000000000000000000000000000000000000000000000000000ffffffffffff",
          "blockHash": "0x621c834ccb9162b6f5d8122197b3f6774061f1a3609dcbf245d6924f472bbaa1",
          "blockNumber": "0x31f6cf",
          "transactionHash": "0xa8ad83f7e2e40423fcf15b0ff77c8bd746bae33b0d84cca03f00b3001e4b14b1",
          "transactionIndex": "0x5",
          "logIndex": "0x3",
          "removed": false
        }
      ],
      "logsBloom": "0x00010000000000000000000000000000000000080000000000000000000000000000000000000000000000000000002000000000000000000000000000080000000000000000000010000000000000010000000000000000000000000000000000000000000000000000000000000000000000000000000000000000000000000020000000000000000000100000000000000000000000000000000000000000000000000000000000000000000000000000002000000000002000080000000000000000000000000000000000000000000010000000000040000000000000000000000000000000000000000000000000000000000000000000000002000400",
      "type": "0x2",
      "transactionHash": "0xa8ad83f7e2e40423fcf15b0ff77c8bd746bae33b0d84cca03f00b3001e4b14b1",
      "transactionIndex": "0x5",
      "blockHash": "0x621c834ccb9162b6f5d8122197b3f6774061f1a3609dcbf245d6924f472bbaa1",
      "blockNumber": "0x31f6cf",
      "gasUsed": "0x6d0e",
      "effectiveGasPrice": "0xfd",
      "from": "0xaab6f44b46f19d061582727b66c9a0c84c97a2f6",
      "to": "0x000000000022d473030f116ddee9f6b43ac78ba3",
      "contractAddress": null,
      "l1BaseFeeScalar": "0x558",
      "l1BlobBaseFee": "0x1",
      "l1BlobBaseFeeScalar": "0xc5fc5",
      "l1Fee": "0x1759f3ff7b",
      "l1GasPrice": "0x9baa03365",
      "l1GasUsed": "0x6da"
    },
    {
      "status": "0x1",
      "cumulativeGasUsed": "0x3b3d4",
      "logs": [
        {
          "address": "0x432ee6707ea6a11dbf889fabc12f2d51c6fa79a6",
          "topics": [
            "0xddf252ad1be2c89b69c2b068fc378daa952ba7f163c4a11628f55a4df523b3ef",
            "0x0000000000000000000000000000000000000000000000000000000000000000",
            "0x000000000000000000000000aab6f44b46f19d061582727b66c9a0c84c97a2f6"
          ],
          "data": "0x00000000000000000000000000000000000000000000152d02c7e14af6800000",
          "blockHash": "0x621c834ccb9162b6f5d8122197b3f6774061f1a3609dcbf245d6924f472bbaa1",
          "blockNumber": "0x31f6cf",
          "transactionHash": "0x7cb9f77725630fa39b3a0b7af3e6a9c3fe6f0faa928beebc0f21fdee1f61ec5e",
          "transactionIndex": "0x6",
          "logIndex": "0x4",
          "removed": false
        }
      ],
      "logsBloom": "0x04000040000000000000000000000000000000000000000000000000000000000000000000000000000000000000002000000000000000000000000000000000000000000000000000000008000000000000000000000000000000000000000000000000020000000000000000000800008000000000000000000010000000000000000000000000000000000000000000000000000000000000000000000000000000000000000000000000000000000000000000000000000000000000000000000002000000000000000000000000000010000000000000000000000020000000000000000000000000000000000000000000000000000000000002000000",
      "type": "0x2",
      "transactionHash": "0x7cb9f77725630fa39b3a0b7af3e6a9c3fe6f0faa928beebc0f21fdee1f61ec5e",
      "transactionIndex": "0x6",
      "blockHash": "0x621c834ccb9162b6f5d8122197b3f6774061f1a3609dcbf245d6924f472bbaa1",
      "blockNumber": "0x31f6cf",
      "gasUsed": "0x84dc",
      "effectiveGasPrice": "0xfd",
      "from": "0xaab6f44b46f19d061582727b66c9a0c84c97a2f6",
      "to": "0x432ee6707ea6a11dbf889fabc12f2d51c6fa79a6",
      "contractAddress": null,
      "l1BaseFeeScalar": "0x558",
      "l1BlobBaseFee": "0x1",
      "l1BlobBaseFeeScalar": "0xc5fc5",
      "l1Fee": "0x154b7b5216",
      "l1GasPrice": "0x9baa03365",
      "l1GasUsed": "0x640"
    },
    {
      "status": "0x1",
      "cumulativeGasUsed": "0x41a77",
      "logs": [
        {
          "address": "0x432ee6707ea6a11dbf889fabc12f2d51c6fa79a6",
          "topics": [
            "0x8c5be1e5ebec7d5bd14f71427d1e84f3dd0314c0f7b2291e5b200ac8c7c3b925",
            "0x000000000000000000000000aab6f44b46f19d061582727b66c9a0c84c97a2f6",
            "0x000000000000000000000000000000000022d473030f116ddee9f6b43ac78ba3"
          ],
          "data": "0xffffffffffffffffffffffffffffffffffffffffffffffffffffffffffffffff",
          "blockHash": "0x621c834ccb9162b6f5d8122197b3f6774061f1a3609dcbf245d6924f472bbaa1",
          "blockNumber": "0x31f6cf",
          "transactionHash": "0xfa9c831a4cb8968adfe298b9d2276e19e186636dc9f779118229cf95d2df9bc3",
          "transactionIndex": "0x7",
          "logIndex": "0x5",
          "removed": false
        }
      ],
      "logsBloom": "0x04000040000000000000000000000000000000000000000000000000000000000000000000000000000000000000002000000000800000000000000000200000000000000000000000004000000000000000000000000800000000000000000000000000000000000000000000000000008000000000000000000000000000000000000000000000000000000000000000000000000000000000000000000000020000000000000000000000000000000000000000000000000000000000000000000000000000000000000000000000000010000000000000000000000000000010000000000000000000000000000000000000000000000000000002000000",
      "type": "0x2",
      "transactionHash": "0xfa9c831a4cb8968adfe298b9d2276e19e186636dc9f779118229cf95d2df9bc3",
      "transactionIndex": "0x7",
      "blockHash": "0x621c834ccb9162b6f5d8122197b3f6774061f1a3609dcbf245d6924f472bbaa1",
      "blockNumber": "0x31f6cf",
      "gasUsed": "0x66a3",
      "effectiveGasPrice": "0xfd",
      "from": "0xaab6f44b46f19d061582727b66c9a0c84c97a2f6",
      "to": "0x432ee6707ea6a11dbf889fabc12f2d51c6fa79a6",
      "contractAddress": null,
      "l1BaseFeeScalar": "0x558",
      "l1BlobBaseFee": "0x1",
      "l1BlobBaseFeeScalar": "0xc5fc5",
      "l1Fee": "0x154b7b5216",
      "l1GasPrice": "0x9baa03365",
      "l1GasUsed": "0x640"
    },
    {
      "status": "0x1",
      "cumulativeGasUsed": "0x48785",
      "logs": [
        {
          "address": "0x000000000022d473030f116ddee9f6b43ac78ba3",
          "topics": [
            "0xda9fa7c1b00402c17d0161b249b1ab8bbec047c5a52207b9c112deffd817036b",
            "0x000000000000000000000000aab6f44b46f19d061582727b66c9a0c84c97a2f6",
            "0x000000000000000000000000432ee6707ea6a11dbf889fabc12f2d51c6fa79a6",
            "0x000000000000000000000000b1163e279741d353540aff310ffab329fbd78c08"
          ],
          "data": "0x000000000000000000000000ffffffffffffffffffffffffffffffffffffffff0000000000000000000000000000000000000000000000000000ffffffffffff",
          "blockHash": "0x621c834ccb9162b6f5d8122197b3f6774061f1a3609dcbf245d6924f472bbaa1",
          "blockNumber": "0x31f6cf",
          "transactionHash": "0xe316e88a433ee90d3f942aaa9135195f73b9e4e589ef1337a1f6bea70626f0f3",
          "transactionIndex": "0x8",
          "logIndex": "0x6",
          "removed": false
        }
      ],
      "logsBloom": "0x0001000000000000000000000000000000000000000000000000000008000000000000000000000800000000000000200000000000000000000000000008000000000000000000000000000000000000000000000000004000000000000000000000000000000000000000000000000000000000000000000000000000000000002000000000008000000000000000000000000000000000000000000000000000000000000000000000000000000000000000000000000000000028000000000000000000000000000000000000000000001000000000004000000000000000000000000000000000000000000000000000000000000000000000000a000400",
      "type": "0x2",
      "transactionHash": "0xe316e88a433ee90d3f942aaa9135195f73b9e4e589ef1337a1f6bea70626f0f3",
      "transactionIndex": "0x8",
      "blockHash": "0x621c834ccb9162b6f5d8122197b3f6774061f1a3609dcbf245d6924f472bbaa1",
      "blockNumber": "0x31f6cf",
      "gasUsed": "0x6d0e",
      "effectiveGasPrice": "0xfd",
      "from": "0xaab6f44b46f19d061582727b66c9a0c84c97a2f6",
      "to": "0x000000000022d473030f116ddee9f6b43ac78ba3",
      "contractAddress": null,
      "l1BaseFeeScalar": "0x558",
      "l1BlobBaseFee": "0x1",
      "l1BlobBaseFeeScalar": "0xc5fc5",
      "l1Fee": "0x1759f3ff7b",
      "l1GasPrice": "0x9baa03365",
      "l1GasUsed": "0x6da"
    },
    {
      "status": "0x1",
      "cumulativeGasUsed": "0x1d66b",
      "logs": [
        {
          "address": "0x000000000022d473030f116ddee9f6b43ac78ba3",
          "topics": [
            "0xda9fa7c1b00402c17d0161b249b1ab8bbec047c5a52207b9c112deffd817036b",
            "0x000000000000000000000000aab6f44b46f19d061582727b66c9a0c84c97a2f6",
            "0x000000000000000000000000432ee6707ea6a11dbf889fabc12f2d51c6fa79a6",
            "0x0000000000000000000000005e654adc08b75846bca12a7fb88ed74309776605"
          ],
          "data": "0x000000000000000000000000ffffffffffffffffffffffffffffffffffffffff0000000000000000000000000000000000000000000000000000ffffffffffff",
          "blockHash": "0x08a4f6af7f83ad28ba2a080ecb685c67fa78273c71e3eee155d6c2a8a0c92854",
          "blockNumber": "0x31f6d0",
          "transactionHash": "0x5461d823954f41ecab3ce2004b67cc3bf3a95c470dd74f42d0865ae11e18f25f",
          "transactionIndex": "0x2",
          "logIndex": "0x0",
          "removed": false
        }
      ],
      "logsBloom": "0x0001000000000000000000000000000000000000000000000000000008000000000000000000000000000000000000200000000000000000000000000008000000000000000000001000000000000000000000000000000000000000000000000000000000000000000000000000000000000000000000000000000000000000002000000000000000000010000000000000000000000000000000000000000000000000000000000000000000000000000000200000000000000028000000000000000000000000000000000000000000001000000000004000000000000000000000000000000000000000000000000000000000000000000000000a000400",
      "type": "0x2",
      "transactionHash": "0x5461d823954f41ecab3ce2004b67cc3bf3a95c470dd74f42d0865ae11e18f25f",
      "transactionIndex": "0x2",
      "blockHash": "0x08a4f6af7f83ad28ba2a080ecb685c67fa78273c71e3eee155d6c2a8a0c92854",
      "blockNumber": "0x31f6d0",
      "gasUsed": "0x6d0e",
      "effectiveGasPrice": "0xfd",
      "from": "0xaab6f44b46f19d061582727b66c9a0c84c97a2f6",
      "to": "0x000000000022d473030f116ddee9f6b43ac78ba3",
      "contractAddress": null,
      "l1BaseFeeScalar": "0x558",
      "l1BlobBaseFee": "0x1",
      "l1BlobBaseFeeScalar": "0xc5fc5",
      "l1Fee": "0x1759f3ff7b",
      "l1GasPrice": "0x9baa03365",
      "l1GasUsed": "0x6da"
    },
    {
      "status": "0x1",
      "cumulativeGasUsed": "0x57431",
      "logs": [
        {
          "address": "0xb1163e279741d353540aff310ffab329fbd78c08",
          "topics": [
            "0xddf252ad1be2c89b69c2b068fc378daa952ba7f163c4a11628f55a4df523b3ef",
            "0x0000000000000000000000000000000000000000000000000000000000000000",
            "0x000000000000000000000000aab6f44b46f19d061582727b66c9a0c84c97a2f6",
            "0x0000000000000000000000000000000000000000000000000000000000000004"
          ],
          "data": "0x",
          "blockHash": "0x08a4f6af7f83ad28ba2a080ecb685c67fa78273c71e3eee155d6c2a8a0c92854",
          "blockNumber": "0x31f6d0",
          "transactionHash": "0xd9902c5b3e786e0f404457123744cbc2f2f46ef320c03c3312cbdb600239bf07",
          "transactionIndex": "0x3",
          "logIndex": "0x1",
          "removed": false
        },
        {
          "address": "0x4e8c56bec0907f8e70e2341ff28fcfd8589e3a2d",
          "topics": [
            "0xf208f4912782fd25c7f114ca3723a2d5dd6f3bcc3ac8db5af63baa85f711d5ec",
            "0xd37e06af423c35308748e1e815e5c953be3a96fb278bc31b1d3fee27dd77b8cc",
            "0x000000000000000000000000b1163e279741d353540aff310ffab329fbd78c08"
          ],
          "data": "0xffffffffffffffffffffffffffffffffffffffffffffffffffffffffffffe50c0000000000000000000000000000000000000000000000000000000000001af4000000000000000000000000000000000000000000000012947497809b4f045d0000000000000000000000000000000000000000000000000000000000000004",
          "blockHash": "0x08a4f6af7f83ad28ba2a080ecb685c67fa78273c71e3eee155d6c2a8a0c92854",
          "blockNumber": "0x31f6d0",
          "transactionHash": "0xd9902c5b3e786e0f404457123744cbc2f2f46ef320c03c3312cbdb600239bf07",
          "transactionIndex": "0x3",
          "logIndex": "0x2",
          "removed": false
        },
        {
          "address": "0x2eb2838febfb326803ff33c4f54cd2d3561ce6ed",
          "topics": [
            "0xddf252ad1be2c89b69c2b068fc378daa952ba7f163c4a11628f55a4df523b3ef",
            "0x000000000000000000000000aab6f44b46f19d061582727b66c9a0c84c97a2f6",
            "0x0000000000000000000000004e8c56bec0907f8e70e2341ff28fcfd8589e3a2d"
          ],
          "data": "0x0000000000000000000000000000000000000000000000056bc75e2d63100000",
          "blockHash": "0x08a4f6af7f83ad28ba2a080ecb685c67fa78273c71e3eee155d6c2a8a0c92854",
          "blockNumber": "0x31f6d0",
          "transactionHash": "0xd9902c5b3e786e0f404457123744cbc2f2f46ef320c03c3312cbdb600239bf07",
          "transactionIndex": "0x3",
          "logIndex": "0x3",
          "removed": false
        },
        {
          "address": "0x432ee6707ea6a11dbf889fabc12f2d51c6fa79a6",
          "topics": [
            "0xddf252ad1be2c89b69c2b068fc378daa952ba7f163c4a11628f55a4df523b3ef",
            "0x000000000000000000000000aab6f44b46f19d061582727b66c9a0c84c97a2f6",
            "0x0000000000000000000000004e8c56bec0907f8e70e2341ff28fcfd8589e3a2d"
          ],
          "data": "0x0000000000000000000000000000000000000000000000056bc75e2d63100000",
          "blockHash": "0x08a4f6af7f83ad28ba2a080ecb685c67fa78273c71e3eee155d6c2a8a0c92854",
          "blockNumber": "0x31f6d0",
          "transactionHash": "0xd9902c5b3e786e0f404457123744cbc2f2f46ef320c03c3312cbdb600239bf07",
          "transactionIndex": "0x3",
          "logIndex": "0x4",
          "removed": false
        }
      ],
      "logsBloom": "0x0400004000020000040000000000000020000000000000000000000000000004000100000080000a000000000000002000000000000000000000000000000000000000000000000000000008000000000000000000000040000000000000000008000000020000000000000000000800048000000000000000000010020000000000000001000080000000000100000000000000000000000000000000000000000004000000000000000000004000000000000000000000002000000000020000000002800000000000000000000000100010008000000000000000000020000000008000000000000000000000000004000000000000000000000002000000",
      "type": "0x2",
      "transactionHash": "0xd9902c5b3e786e0f404457123744cbc2f2f46ef320c03c3312cbdb600239bf07",
      "transactionIndex": "0x3",
      "blockHash": "0x08a4f6af7f83ad28ba2a080ecb685c67fa78273c71e3eee155d6c2a8a0c92854",
      "blockNumber": "0x31f6d0",
      "gasUsed": "0x39dc6",
      "effectiveGasPrice": "0xfd",
      "from": "0xaab6f44b46f19d061582727b66c9a0c84c97a2f6",
      "to": "0xb1163e279741d353540aff310ffab329fbd78c08",
      "contractAddress": null,
      "l1BaseFeeScalar": "0x558",
      "l1BlobBaseFee": "0x1",
      "l1BlobBaseFeeScalar": "0xc5fc5",
      "l1Fee": "0x3e01828f09",
      "l1GasPrice": "0x9baa03365",
      "l1GasUsed": "0x1232"
    }
  ],
  "libraries": [],
  "pending": [],
  "returns": {},
  "timestamp": 1745488051,
  "chain": 420120000,
  "commit": "d347efb"
}