{
  "deployments": [
    {
      "transactions": [
        {
          "hash": "0x65ee0c8469e460a4e63ae67032cf6c1cd4f049db3562c02fe5e8ec4ab3a430a4",
          "transactionType": "CALL",
          "contractName": null,
          "contractAddress": "0x1d3c5381dd07d5eef757c1edbba01db4a262bb86",
          "function": "approveAll(address,address)",
          "arguments": [
            "0x4200000000000000000000000000000000000042",
            "0x0Ea3C23A4dC198c289D5443ac302335aBc86E6b1"
          ],
          "transaction": {
            "from": "0xaab6f44b46f19d061582727b66c9a0c84c97a2f6",
            "to": "0x1d3c5381dd07d5eef757c1edbba01db4a262bb86",
            "gas": "0x10e7f",
            "value": "0x0",
            "input": "0x0a44327600000000000000000000000042000000000000000000000000000000000000420000000000000000000000000ea3c23a4dc198c289d5443ac302335abc86e6b1",
            "nonce": "0x43",
            "chainId": "0xa"
          },
          "additionalContracts": [],
          "isFixedGasLimit": false
        }
      ],
      "receipts": [
        {
          "status": "0x1",
          "cumulativeGasUsed": "0xbcf07c",
          "logs": [
            {
              "address": "0x4200000000000000000000000000000000000042",
              "topics": [
                "0x8c5be1e5ebec7d5bd14f71427d1e84f3dd0314c0f7b2291e5b200ac8c7c3b925",
                "0x0000000000000000000000001d3c5381dd07d5eef757c1edbba01db4a262bb86",
                "0x0000000000000000000000000ea3c23a4dc198c289d5443ac302335abc86e6b1"
              ],
              "data": "0xffffffffffffffffffffffffffffffffffffffffffffffffffffffffffffffff",
              "blockHash": "0x21d27637ba20bb67f872443753d0228006a68b3b17253a47d141be88137f1832",
              "blockNumber": "0x8382c4a",
              "blockTimestamp": "0x6864324d",
              "transactionHash": "0x65ee0c8469e460a4e63ae67032cf6c1cd4f049db3562c02fe5e8ec4ab3a430a4",
              "transactionIndex": "0x1e",
              "logIndex": "0x38",
              "removed": false
            }
          ],
          "logsBloom": "0x00000000000000000000000000000000000000000000000000000000000000000000000000000000000000000000000000000000000000000000000000200040000000000000000020000000000000000000000000000000000000000000000000000000000000000000000000000000000000000000000000000000000000000000000000000000000000000000000000000000000000000000000000000000020000000000000000000080000020000000000000000000000000000000000400200000000000000000002000000000008000000000000000000000000000000010000000000000000000000000000000000000000000000200000000000000",
          "type": "0x2",
          "transactionHash": "0x65ee0c8469e460a4e63ae67032cf6c1cd4f049db3562c02fe5e8ec4ab3a430a4",
          "transactionIndex": "0x1e",
          "blockHash": "0x21d27637ba20bb67f872443753d0228006a68b3b17253a47d141be88137f1832",
          "blockNumber": "0x8382c4a",
          "gasUsed": "0xc3d6",
          "effectiveGasPrice": "0x3564",
          "from": "0xaab6f44b46f19d061582727b66c9a0c84c97a2f6",
          "to": "0x1d3c5381dd07d5eef757c1edbba01db4a262bb86",
          "contractAddress": null,
          "l1BaseFeeScalar": "0x146b",
          "l1BlobBaseFee": "0x1",
          "l1BlobBaseFeeScalar": "0xf79c5",
          "l1Fee": "0x5d269d502",
          "l1GasPrice": "0xb235fd8e",
          "l1GasUsed": "0x640"
        }
      ],
      "libraries": [],
      "pending": [],
      "returns": {},
      "timestamp": 1751396939,
      "chain": 10,
      "commit": "f7af6da"
    },
    {
      "transactions": [
        {
          "hash": "0x2c4a5837429e7d22b371969cec7aa07c777653f504d4fbb65761ad9db6cf6cbf",
          "transactionType": "CALL",
          "contractName": null,
          "contractAddress": "0x1d3c5381dd07d5eef757c1edbba01db4a262bb86",
          "function": "approveAll(address,address)",
          "arguments": [
            "0xC316C8252B5F2176d0135Ebb0999E99296998F2e",
            "0xa7D6042eEf06E81168e640b5C41632eE5295227D"
          ],
          "transaction": {
            "from": "0xaab6f44b46f19d061582727b66c9a0c84c97a2f6",
            "to": "0x1d3c5381dd07d5eef757c1edbba01db4a262bb86",
            "gas": "0x15063",
            "value": "0x0",
            "input": "0x0a443276000000000000000000000000c316c8252b5f2176d0135ebb0999e99296998f2e000000000000000000000000a7d6042eef06e81168e640b5c41632ee5295227d",
            "nonce": "0x12",
            "chainId": "0x14d2"
          },
          "additionalContracts": [],
          "isFixedGasLimit": false
        },
        {
          "hash": "0x1cfe78449dea207d7a42751149e65c05dd8e6fcba41cecb8d3024d17c653cd83",
          "transactionType": "CALL",
          "contractName": null,
          "contractAddress": "0x1d3c5381dd07d5eef757c1edbba01db4a262bb86",
          "function": "approveAll(address,address)",
          "arguments": [
            "0x6f36DBD829DE9b7e077DB8A35b480d4329ceB331",
            "0x0a78BC3CBBC79C4C6E5d4e5b2bbD042E58e93484"
          ],
          "transaction": {
            "from": "0xaab6f44b46f19d061582727b66c9a0c84c97a2f6",
            "to": "0x1d3c5381dd07d5eef757c1edbba01db4a262bb86",
            "gas": "0x15063",
            "value": "0x0",
            "input": "0x0a4432760000000000000000000000006f36dbd829de9b7e077db8a35b480d4329ceb3310000000000000000000000000a78bc3cbbc79c4c6e5d4e5b2bbd042e58e93484",
            "nonce": "0x13",
            "chainId": "0x14d2"
          },
          "additionalContracts": [],
          "isFixedGasLimit": false
        },
        {
          "hash": "0xfd5623baf3890a05456c773a3c4ba7e2bf4158a4996048a8011d219a7c954aea",
          "transactionType": "CALL",
          "contractName": null,
          "contractAddress": "0x1d3c5381dd07d5eef757c1edbba01db4a262bb86",
          "function": "approveAll(address,address)",
          "arguments": [
            "0x6EA1fFcbD7F5D210dB07D9E773862B0512fA219B",
            "0xA1863B4b02b7DCd7429F62C775816328D63020F4"
          ],
          "transaction": {
            "from": "0xaab6f44b46f19d061582727b66c9a0c84c97a2f6",
            "to": "0x1d3c5381dd07d5eef757c1edbba01db4a262bb86",
            "gas": "0x10cd9",
            "value": "0x0",
            "input": "0x0a4432760000000000000000000000006ea1ffcbd7f5d210db07d9e773862b0512fa219b000000000000000000000000a1863b4b02b7dcd7429f62c775816328d63020f4",
            "nonce": "0x14",
            "chainId": "0x14d2"
          },
          "additionalContracts": [],
          "isFixedGasLimit": false
        }
      ],
      "receipts": [
        {
          "status": "0x1",
          "cumulativeGasUsed": "0x1baef",
          "logs": [
            {
              "address": "0xc316c8252b5f2176d0135ebb0999e99296998f2e",
              "topics": [
                "0x8c5be1e5ebec7d5bd14f71427d1e84f3dd0314c0f7b2291e5b200ac8c7c3b925",
                "0x0000000000000000000000001d3c5381dd07d5eef757c1edbba01db4a262bb86",
                "0x000000000000000000000000a7d6042eef06e81168e640b5c41632ee5295227d"
              ],
              "data": "0xffffffffffffffffffffffffffffffffffffffffffffffffffffffffffffffff",
              "blockHash": "0xce645f7c8c68efd07bb06b90f4ec6ce3c8271eb4c05ae26e800591cba7ebb4e8",
              "blockNumber": "0xc06477",
              "transactionHash": "0x2c4a5837429e7d22b371969cec7aa07c777653f504d4fbb65761ad9db6cf6cbf",
              "transactionIndex": "0x1",
              "logIndex": "0x0",
              "removed": false
            }
          ],
          "logsBloom": "0x00000000000000000000000000000000000000000000000000000000000000000000000000000000000000000000000200000000000000000000000000200000080000000000000000000000000000000000000000000000000000000000000000000000000000000000000000000000000000000000000000000000000000000000000000000000000000000000000000000000000000000000000000000000020000000000000000000080000000000000400000000000000000100000000400020000000000000000002000000000000000000000000000000000000000000010800000000000000000000000000000000000000000000000000000000000",
          "type": "0x2",
          "transactionHash": "0x2c4a5837429e7d22b371969cec7aa07c777653f504d4fbb65761ad9db6cf6cbf",
          "transactionIndex": "0x1",
          "blockHash": "0xce645f7c8c68efd07bb06b90f4ec6ce3c8271eb4c05ae26e800591cba7ebb4e8",
          "blockNumber": "0xc06477",
          "gasUsed": "0xe603",
          "effectiveGasPrice": "0xfd",
          "from": "0xaab6f44b46f19d061582727b66c9a0c84c97a2f6",
          "to": "0x1d3c5381dd07d5eef757c1edbba01db4a262bb86",
          "contractAddress": null,
          "l1BaseFeeScalar": "0xa6fe0",
          "l1BlobBaseFee": "0x1",
          "l1BlobBaseFeeScalar": "0x0",
          "l1Fee": "0x2c2e051ab13",
          "l1GasPrice": "0xa559e631",
          "l1GasUsed": "0x640"
        },
        {
          "status": "0x1",
          "cumulativeGasUsed": "0x2a0f2",
          "logs": [
            {
              "address": "0x6f36dbd829de9b7e077db8a35b480d4329ceb331",
              "topics": [
                "0x8c5be1e5ebec7d5bd14f71427d1e84f3dd0314c0f7b2291e5b200ac8c7c3b925",
                "0x0000000000000000000000001d3c5381dd07d5eef757c1edbba01db4a262bb86",
                "0x0000000000000000000000000a78bc3cbbc79c4c6e5d4e5b2bbd042e58e93484"
              ],
              "data": "0xffffffffffffffffffffffffffffffffffffffffffffffffffffffffffffffff",
              "blockHash": "0xce645f7c8c68efd07bb06b90f4ec6ce3c8271eb4c05ae26e800591cba7ebb4e8",
              "blockNumber": "0xc06477",
              "transactionHash": "0x1cfe78449dea207d7a42751149e65c05dd8e6fcba41cecb8d3024d17c653cd83",
              "transactionIndex": "0x2",
              "logIndex": "0x1",
              "removed": false
            }
          ],
          "logsBloom": "0x00000000000000000100000000000000000000000000000000000000000000000000000000040000000000000000000000000000000400000000000000200000000000000000000000000000000000000000000000000000000000000000000000000000000000000400000000000000000000000000000000000000000000000000000000000000000000000000000000000010000000000000000000000000020000000000000000000080000000000000000000000000000000000000000400000000000000000000002000000000000000000000000000000000000000000010000000000000000000000000000000000000000000000000000000000100",
          "type": "0x2",
          "transactionHash": "0x1cfe78449dea207d7a42751149e65c05dd8e6fcba41cecb8d3024d17c653cd83",
          "transactionIndex": "0x2",
          "blockHash": "0xce645f7c8c68efd07bb06b90f4ec6ce3c8271eb4c05ae26e800591cba7ebb4e8",
          "blockNumber": "0xc06477",
          "gasUsed": "0xe603",
          "effectiveGasPrice": "0xfd",
          "from": "0xaab6f44b46f19d061582727b66c9a0c84c97a2f6",
          "to": "0x1d3c5381dd07d5eef757c1edbba01db4a262bb86",
          "contractAddress": null,
          "l1BaseFeeScalar": "0xa6fe0",
          "l1BlobBaseFee": "0x1",
          "l1BlobBaseFeeScalar": "0x0",
          "l1Fee": "0x2c2e051ab13",
          "l1GasPrice": "0xa559e631",
          "l1GasUsed": "0x640"
        },
        {
          "status": "0x1",
          "cumulativeGasUsed": "0x36397",
          "logs": [
            {
              "address": "0x6ea1ffcbd7f5d210db07d9e773862b0512fa219b",
              "topics": [
                "0x8c5be1e5ebec7d5bd14f71427d1e84f3dd0314c0f7b2291e5b200ac8c7c3b925",
                "0x0000000000000000000000001d3c5381dd07d5eef757c1edbba01db4a262bb86",
                "0x000000000000000000000000a1863b4b02b7dcd7429f62c775816328d63020f4"
              ],
              "data": "0xffffffffffffffffffffffffffffffffffffffffffffffffffffffffffffffff",
              "blockHash": "0xce645f7c8c68efd07bb06b90f4ec6ce3c8271eb4c05ae26e800591cba7ebb4e8",
              "blockNumber": "0xc06477",
              "transactionHash": "0xfd5623baf3890a05456c773a3c4ba7e2bf4158a4996048a8011d219a7c954aea",
              "transactionIndex": "0x3",
              "logIndex": "0x2",
              "removed": false
            }
          ],
          "logsBloom": "0x00000000000000000000000000000000000000000000000000000000000000000000000000000000000000000000000000000000000000000000000000200000000000000000000000000000000000000000000000000000000000000000000000000000000000000000000000000000000000000000000000000000000000000000000000100000000000020000000000000000000100000000000000000000020000000000000000000080000001000000000000000000000000000000000400000000000000000080002000000000000000000000000000000000000000000010000000000000000000000000000000000008000000000000000000000000",
          "type": "0x2",
          "transactionHash": "0xfd5623baf3890a05456c773a3c4ba7e2bf4158a4996048a8011d219a7c954aea",
          "transactionIndex": "0x3",
          "blockHash": "0xce645f7c8c68efd07bb06b90f4ec6ce3c8271eb4c05ae26e800591cba7ebb4e8",
          "blockNumber": "0xc06477",
          "gasUsed": "0xc2a5",
          "effectiveGasPrice": "0xfd",
          "from": "0xaab6f44b46f19d061582727b66c9a0c84c97a2f6",
          "to": "0x1d3c5381dd07d5eef757c1edbba01db4a262bb86",
          "contractAddress": null,
          "l1BaseFeeScalar": "0xa6fe0",
          "l1BlobBaseFee": "0x1",
          "l1BlobBaseFeeScalar": "0x0",
          "l1Fee": "0x2c2e051ab13",
          "l1GasPrice": "0xa559e631",
          "l1GasUsed": "0x640"
        }
      ],
      "libraries": [],
      "pending": [],
      "returns": {},
      "timestamp": 1751396939,
      "chain": 5330,
      "commit": "f7af6da"
    },
    {
      "transactions": [
        {
          "hash": "0x7093577170805dd8c760acb201be927f70f2d1492fd4766ac4e82f1d6ba04d81",
          "transactionType": "CALL",
          "contractName": null,
          "contractAddress": "0x1d3c5381dd07d5eef757c1edbba01db4a262bb86",
          "function": "approveAll(address,address)",
          "arguments": [
            "0x2416092f143378750bb29b79eD961ab195CcEea5",
            "0xB26bBfC6d1F469C821Ea25099017862e7368F4E8"
          ],
          "transaction": {
            "from": "0xaab6f44b46f19d061582727b66c9a0c84c97a2f6",
            "to": "0x1d3c5381dd07d5eef757c1edbba01db4a262bb86",
            "gas": "0x1858e",
            "value": "0x0",
            "input": "0x0a4432760000000000000000000000002416092f143378750bb29b79ed961ab195cceea5000000000000000000000000b26bbfc6d1f469c821ea25099017862e7368f4e8",
            "nonce": "0x38",
            "chainId": "0xa4b1"
          },
          "additionalContracts": [],
          "isFixedGasLimit": false
        }
      ],
      "receipts": [
        {
          "status": "0x1",
          "cumulativeGasUsed": "0x765eb",
          "logs": [
            {
              "address": "0x2416092f143378750bb29b79ed961ab195cceea5",
              "topics": [
                "0x8c5be1e5ebec7d5bd14f71427d1e84f3dd0314c0f7b2291e5b200ac8c7c3b925",
                "0x0000000000000000000000001d3c5381dd07d5eef757c1edbba01db4a262bb86",
                "0x000000000000000000000000b26bbfc6d1f469c821ea25099017862e7368f4e8"
              ],
              "data": "0xffffffffffffffffffffffffffffffffffffffffffffffffffffffffffffffff",
              "blockHash": "0xfc37c14699900f8e440e4c268be3120fac7ca9cb507a44ca56b513cc005c08a9",
              "blockNumber": "0x150db4a7",
              "transactionHash": "0x7093577170805dd8c760acb201be927f70f2d1492fd4766ac4e82f1d6ba04d81",
              "transactionIndex": "0x2",
              "logIndex": "0x6",
              "removed": false
            }
          ],
          "logsBloom": "0x00000000000000000000000000000000000000000000004000000000000000040000000000000080000000000000000000000000000000000000000000200000000000000400000000000000000000000000000000000000000000000000000000000000000000000800000000000000000000000000000000000000000000000000000000000000000000000000000000000000000000000000000000000000020000000000800000000080000000000000000000000000000000000000000400000000000000000000002000000000000000000000000000000000000000000010000000000000000000000000000000000000000000000000000000000000",
          "type": "0x2",
          "transactionHash": "0x7093577170805dd8c760acb201be927f70f2d1492fd4766ac4e82f1d6ba04d81",
          "transactionIndex": "0x2",
          "blockHash": "0xfc37c14699900f8e440e4c268be3120fac7ca9cb507a44ca56b513cc005c08a9",
          "blockNumber": "0x150db4a7",
          "gasUsed": "0x1199a",
          "effectiveGasPrice": "0x989680",
          "from": "0xaab6f44b46f19d061582727b66c9a0c84c97a2f6",
          "to": "0x1d3c5381dd07d5eef757c1edbba01db4a262bb86",
          "contractAddress": null,
          "gasUsedForL1": "0x3b6a",
          "l1BlockNumber": "0x15c4d88",
          "timeboosted": false
        }
      ],
      "libraries": [],
      "pending": [],
      "returns": {},
      "timestamp": 1751396940,
      "chain": 42161,
      "commit": "f7af6da"
    },
    {
      "transactions": [
        {
          "hash": "0x7b0fa5d47360daaabcfcd6d934fd5110819b1933ea9383661e98c93b59f0055a",
          "transactionType": "CALL",
          "contractName": null,
          "contractAddress": "0x1d3c5381dd07d5eef757c1edbba01db4a262bb86",
          "function": "approveAll(address,address)",
          "arguments": [
            "0x2416092f143378750bb29b79eD961ab195CcEea5",
            "0xE00C6185a5c19219F1FFeD213b4406a254968c26"
          ],
          "transaction": {
            "from": "0xaab6f44b46f19d061582727b66c9a0c84c97a2f6",
            "to": "0x1d3c5381dd07d5eef757c1edbba01db4a262bb86",
            "gas": "0x132e5",
            "value": "0x0",
            "input": "0x0a4432760000000000000000000000002416092f143378750bb29b79ed961ab195cceea5000000000000000000000000e00c6185a5c19219f1ffed213b4406a254968c26",
            "nonce": "0x4d",
            "chainId": "0x38"
          },
          "additionalContracts": [],
          "isFixedGasLimit": false
        }
      ],
      "receipts": [
        {
          "status": "0x1",
          "cumulativeGasUsed": "0x8c8497",
          "logs": [
            {
              "address": "0x2416092f143378750bb29b79ed961ab195cceea5",
              "topics": [
                "0x8c5be1e5ebec7d5bd14f71427d1e84f3dd0314c0f7b2291e5b200ac8c7c3b925",
                "0x0000000000000000000000001d3c5381dd07d5eef757c1edbba01db4a262bb86",
                "0x000000000000000000000000e00c6185a5c19219f1ffed213b4406a254968c26"
              ],
              "data": "0xffffffffffffffffffffffffffffffffffffffffffffffffffffffffffffffff",
              "blockHash": "0xbe2fb5cf4887f487979239a7467f5c7241dab4f6df7373e78871a1b60c734b2c",
              "blockNumber": "0x32193f7",
              "transactionHash": "0x7b0fa5d47360daaabcfcd6d934fd5110819b1933ea9383661e98c93b59f0055a",
              "transactionIndex": "0x4a",
              "logIndex": "0x133",
              "removed": false
            }
          ],
          "logsBloom": "0x00000000000000000000000000000000000000000000000000000000000000040000000000000080000000000000000000000000000000000000000000200000000000000400000000000000000000000000000000000000000000000000000000000000000000000000100000000000000000000000000000000000000000000000000000000000000000000000000000000000000000000000000008000000020000000000000000000080000000000008000000000000000000000000000400000000000000000000002000000000000000000000000000000000000000000010000000000000000000000000000000000000000000000000000000000000",
          "type": "0x0",
          "transactionHash": "0x7b0fa5d47360daaabcfcd6d934fd5110819b1933ea9383661e98c93b59f0055a",
          "transactionIndex": "0x4a",
          "blockHash": "0xbe2fb5cf4887f487979239a7467f5c7241dab4f6df7373e78871a1b60c734b2c",
          "blockNumber": "0x32193f7",
          "gasUsed": "0xde30",
          "effectiveGasPrice": "0x5f5e100",
          "from": "0xaab6f44b46f19d061582727b66c9a0c84c97a2f6",
          "to": "0x1d3c5381dd07d5eef757c1edbba01db4a262bb86",
          "contractAddress": null
        }
      ],
      "libraries": [],
      "pending": [],
      "returns": {},
      "timestamp": 1751396940,
      "chain": 56,
      "commit": "f7af6da"
    },
    {
      "transactions": [
        {
          "hash": "0xbba34286ed55fee1f3e5765ab1d964b6744e8bf0c4fecd1eb8f271950f824948",
          "transactionType": "CALL",
          "contractName": null,
          "contractAddress": "0x1d3c5381dd07d5eef757c1edbba01db4a262bb86",
          "function": "approveAll(address,address)",
          "arguments": [
            "0xcbB7C0000aB88B473b1f5aFd9ef808440eed33Bf",
            "0x7710d2FC9A2E0452b28a2cBf550429b579347199"
          ],
          "transaction": {
            "from": "0xaab6f44b46f19d061582727b66c9a0c84c97a2f6",
            "to": "0x1d3c5381dd07d5eef757c1edbba01db4a262bb86",
            "gas": "0x16a1d",
            "value": "0x0",
            "input": "0x0a443276000000000000000000000000cbb7c0000ab88b473b1f5afd9ef808440eed33bf0000000000000000000000007710d2fc9a2e0452b28a2cbf550429b579347199",
            "nonce": "0x33",
            "chainId": "0x1"
          },
          "additionalContracts": [],
          "isFixedGasLimit": false
        },
        {
          "hash": "0xf8102b2289d0ffdb6d085d5be2c248023ccffe750b61d2586283f70b0d138a41",
          "transactionType": "CALL",
          "contractName": null,
          "contractAddress": "0x1d3c5381dd07d5eef757c1edbba01db4a262bb86",
          "function": "approveAll(address,address)",
          "arguments": [
            "0x17906b1Cd88aA8EfaEfC5e82891B52a22219BD45",
            "0xbc808c98beA0a097346273A9Fd7a5B231fc2d889"
          ],
          "transaction": {
            "from": "0xaab6f44b46f19d061582727b66c9a0c84c97a2f6",
            "to": "0x1d3c5381dd07d5eef757c1edbba01db4a262bb86",
            "gas": "0x11add",
            "value": "0x0",
            "input": "0x0a44327600000000000000000000000017906b1cd88aa8efaefc5e82891b52a22219bd45000000000000000000000000bc808c98bea0a097346273a9fd7a5b231fc2d889",
            "nonce": "0x34",
            "chainId": "0x1"
          },
          "additionalContracts": [],
          "isFixedGasLimit": false
        },
        {
          "hash": "0xb8780ab7e46a03008af7eeb167e775e885cf09668087b2d4218ac5e7b18dfbd7",
          "transactionType": "CALL",
          "contractName": null,
          "contractAddress": "0x1d3c5381dd07d5eef757c1edbba01db4a262bb86",
          "function": "approveAll(address,address)",
          "arguments": [
            "0xbf5495Efe5DB9ce00f80364C8B423567e58d2110",
            "0xC59336D8edDa9722B4f1Ec104007191Ec16f7087"
          ],
          "transaction": {
            "from": "0xaab6f44b46f19d061582727b66c9a0c84c97a2f6",
            "to": "0x1d3c5381dd07d5eef757c1edbba01db4a262bb86",
            "gas": "0x13338",
            "value": "0x0",
            "input": "0x0a443276000000000000000000000000bf5495efe5db9ce00f80364c8b423567e58d2110000000000000000000000000c59336d8edda9722b4f1ec104007191ec16f7087",
            "nonce": "0x35",
            "chainId": "0x1"
          },
          "additionalContracts": [],
          "isFixedGasLimit": false
        },
        {
          "hash": "0x3900acd57379c0f5807aef2ba936f8fb89822c4360f43aa7e0deaab81f857b41",
          "transactionType": "CALL",
          "contractName": null,
          "contractAddress": "0x1d3c5381dd07d5eef757c1edbba01db4a262bb86",
          "function": "approveAll(address,address)",
          "arguments": [
            "0xbe0Ed4138121EcFC5c0E56B40517da27E6c5226B",
            "0x235E11459c8C21B2656484F8c6a7418242cfBde0"
          ],
          "transaction": {
            "from": "0xaab6f44b46f19d061582727b66c9a0c84c97a2f6",
            "to": "0x1d3c5381dd07d5eef757c1edbba01db4a262bb86",
            "gas": "0x10c3d",
            "value": "0x0",
            "input": "0x0a443276000000000000000000000000be0ed4138121ecfc5c0e56b40517da27e6c5226b000000000000000000000000235e11459c8c21b2656484f8c6a7418242cfbde0",
            "nonce": "0x36",
            "chainId": "0x1"
          },
          "additionalContracts": [],
          "isFixedGasLimit": false
        },
        {
          "hash": "0xbe7404fcc1b61c6a7c369946029e3c74853278b5e7a808e7b758b7dced094c29",
          "transactionType": "CALL",
          "contractName": null,
          "contractAddress": "0x1d3c5381dd07d5eef757c1edbba01db4a262bb86",
          "function": "approveAll(address,address)",
          "arguments": [
            "0x0f7dC5D02CC1E1f5Ee47854d534D332A1081cCC8",
            "0x1731Fe5aED11f397C88aC2551384aF8E346Fc699"
          ],
          "transaction": {
            "from": "0xaab6f44b46f19d061582727b66c9a0c84c97a2f6",
            "to": "0x1d3c5381dd07d5eef757c1edbba01db4a262bb86",
            "gas": "0x11bc9",
            "value": "0x0",
            "input": "0x0a4432760000000000000000000000000f7dc5d02cc1e1f5ee47854d534d332a1081ccc80000000000000000000000001731fe5aed11f397c88ac2551384af8e346fc699",
            "nonce": "0x37",
            "chainId": "0x1"
          },
          "additionalContracts": [],
          "isFixedGasLimit": false
        },
        {
          "hash": "0x03f561dc3ef93d817167b59db379aa3ad3fbfdd62cfc57447a474bde7b487843",
          "transactionType": "CALL",
          "contractName": null,
          "contractAddress": "0x1d3c5381dd07d5eef757c1edbba01db4a262bb86",
          "function": "approveAll(address,address)",
          "arguments": [
            "0x310C8F00b9dE3c31Ab95ea68feb6C877538f7947",
            "0xD971CDfFaC53d9DF56bad78E01711272C0570fb9"
          ],
          "transaction": {
            "from": "0xaab6f44b46f19d061582727b66c9a0c84c97a2f6",
            "to": "0x1d3c5381dd07d5eef757c1edbba01db4a262bb86",
            "gas": "0x133c2",
            "value": "0x0",
            "input": "0x0a443276000000000000000000000000310c8f00b9de3c31ab95ea68feb6c877538f7947000000000000000000000000d971cdffac53d9df56bad78e01711272c0570fb9",
            "nonce": "0x38",
            "chainId": "0x1"
          },
          "additionalContracts": [],
          "isFixedGasLimit": false
        }
      ],
      "receipts": [
        {
          "status": "0x1",
          "cumulativeGasUsed": "0xb14b28",
          "logs": [
            {
              "address": "0xcbb7c0000ab88b473b1f5afd9ef808440eed33bf",
              "topics": [
                "0x8c5be1e5ebec7d5bd14f71427d1e84f3dd0314c0f7b2291e5b200ac8c7c3b925",
                "0x0000000000000000000000001d3c5381dd07d5eef757c1edbba01db4a262bb86",
                "0x0000000000000000000000007710d2fc9a2e0452b28a2cbf550429b579347199"
              ],
              "data": "0xffffffffffffffffffffffffffffffffffffffffffffffffffffffffffffffff",
              "blockHash": "0x1f1636ed6f55a5762216622550483dad668ec42f78739febd44dfd42b67b66c7",
              "blockNumber": "0x15c4d8a",
              "blockTimestamp": "0x68643257",
              "transactionHash": "0xbba34286ed55fee1f3e5765ab1d964b6744e8bf0c4fecd1eb8f271950f824948",
              "transactionIndex": "0x7d",
              "logIndex": "0x125",
              "removed": false
            }
          ],
          "logsBloom": "0x00000000000000000000000000000000000000000000000000000000000000000000000000000000000000000000000000000000000000000000000000240000000000010000000000000000000000000000000000000000000000000000000000000000000000000000000008000000000000020000000000000000000000000000000000000000000000000000000000000000000000000000000000000000020000000000000000000080000000000000000000000000000000000000000400000000000000000000002000000000000000000000000000000000000000000010000000000000000000000000008000000000000000000000000000000000",
          "type": "0x2",
          "transactionHash": "0xbba34286ed55fee1f3e5765ab1d964b6744e8bf0c4fecd1eb8f271950f824948",
          "transactionIndex": "0x7d",
          "blockHash": "0x1f1636ed6f55a5762216622550483dad668ec42f78739febd44dfd42b67b66c7",
          "blockNumber": "0x15c4d8a",
          "gasUsed": "0xf79a",
          "effectiveGasPrice": "0xabbc6783",
          "from": "0xaab6f44b46f19d061582727b66c9a0c84c97a2f6",
          "to": "0x1d3c5381dd07d5eef757c1edbba01db4a262bb86",
          "contractAddress": null
        },
        {
          "status": "0x1",
          "cumulativeGasUsed": "0xb43e71",
          "logs": [
            {
              "address": "0x17906b1cd88aa8efaefc5e82891b52a22219bd45",
              "topics": [
                "0x8c5be1e5ebec7d5bd14f71427d1e84f3dd0314c0f7b2291e5b200ac8c7c3b925",
                "0x0000000000000000000000001d3c5381dd07d5eef757c1edbba01db4a262bb86",
                "0x000000000000000000000000bc808c98bea0a097346273a9fd7a5b231fc2d889"
              ],
              "data": "0xffffffffffffffffffffffffffffffffffffffffffffffffffffffffffffffff",
              "blockHash": "0x1f1636ed6f55a5762216622550483dad668ec42f78739febd44dfd42b67b66c7",
              "blockNumber": "0x15c4d8a",
              "blockTimestamp": "0x68643257",
              "transactionHash": "0xf8102b2289d0ffdb6d085d5be2c248023ccffe750b61d2586283f70b0d138a41",
              "transactionIndex": "0x80",
              "logIndex": "0x129",
              "removed": false
            }
          ],
          "logsBloom": "0x00000000000000000000000000000040000000000000000000000000000000000000000004000000000000000000000000000000000000000000000000200000000000000000000000000000000400000000000000000000000000000000000000000000000800000000000000000000000000000000000000000000000000000000000020000000000000000000004000000000000000000000000000000000020000000000000000000080000000000000000000000000000000000000000400000000000000000000002000000000000000000000000000000000000000000010000000000000000000000000000000000000000000000000000000000000",
          "type": "0x2",
          "transactionHash": "0xf8102b2289d0ffdb6d085d5be2c248023ccffe750b61d2586283f70b0d138a41",
          "transactionIndex": "0x80",
          "blockHash": "0x1f1636ed6f55a5762216622550483dad668ec42f78739febd44dfd42b67b66c7",
          "blockNumber": "0x15c4d8a",
          "gasUsed": "0xc16a",
          "effectiveGasPrice": "0xabbc6783",
          "from": "0xaab6f44b46f19d061582727b66c9a0c84c97a2f6",
          "to": "0x1d3c5381dd07d5eef757c1edbba01db4a262bb86",
          "contractAddress": null
        },
        {
          "status": "0x1",
          "cumulativeGasUsed": "0x1133ad5",
          "logs": [
            {
              "address": "0xbf5495efe5db9ce00f80364c8b423567e58d2110",
              "topics": [
                "0x8c5be1e5ebec7d5bd14f71427d1e84f3dd0314c0f7b2291e5b200ac8c7c3b925",
                "0x0000000000000000000000001d3c5381dd07d5eef757c1edbba01db4a262bb86",
                "0x000000000000000000000000c59336d8edda9722b4f1ec104007191ec16f7087"
              ],
              "data": "0xffffffffffffffffffffffffffffffffffffffffffffffffffffffffffffffff",
              "blockHash": "0x4c35b2be7bb9a05f0039d64f8643d19c84040ec10814808537b8d011488c059e",
              "blockNumber": "0x15c4d8b",
              "blockTimestamp": "0x68643263",
              "transactionHash": "0xb8780ab7e46a03008af7eeb167e775e885cf09668087b2d4218ac5e7b18dfbd7",
              "transactionIndex": "0xa9",
              "logIndex": "0x316",
              "removed": false
            }
          ],
          "logsBloom": "0x00000000000000000000000000010000000000000000000000000800000000000080000000000000000000000000000000000000000000000000000000200000000000000000000000000000000000000000000000000000000000000000000000000000000000000000000000000000000000000000000000000000000000000000000000000000000000800000000000100000000000000000000000000000020000000000000000000080000000000000000000000000000000000000000400000000000000000000002000000000000000000000000000000000000000000010000000000000000000000000000000000000000000000000000000001000",
          "type": "0x2",
          "transactionHash": "0xb8780ab7e46a03008af7eeb167e775e885cf09668087b2d4218ac5e7b18dfbd7",
          "transactionIndex": "0xa9",
          "blockHash": "0x4c35b2be7bb9a05f0039d64f8643d19c84040ec10814808537b8d011488c059e",
          "blockNumber": "0x15c4d8b",
          "gasUsed": "0xde6d",
          "effectiveGasPrice": "0xa6ea53fb",
          "from": "0xaab6f44b46f19d061582727b66c9a0c84c97a2f6",
          "to": "0x1d3c5381dd07d5eef757c1edbba01db4a262bb86",
          "contractAddress": null
        },
        {
          "status": "0x1",
          "cumulativeGasUsed": "0x13a3c58",
          "logs": [
            {
              "address": "0xbe0ed4138121ecfc5c0e56b40517da27e6c5226b",
              "topics": [
                "0x8c5be1e5ebec7d5bd14f71427d1e84f3dd0314c0f7b2291e5b200ac8c7c3b925",
                "0x0000000000000000000000001d3c5381dd07d5eef757c1edbba01db4a262bb86",
                "0x000000000000000000000000235e11459c8c21b2656484f8c6a7418242cfbde0"
              ],
              "data": "0xffffffffffffffffffffffffffffffffffffffffffffffffffffffffffffffff",
              "blockHash": "0x3a6073e5791505e0fdb2ef9c0e363a4e75ff8a45e2b023b92b4bcab13eed0107",
              "blockNumber": "0x15c4d8c",
              "blockTimestamp": "0x6864326f",
              "transactionHash": "0x3900acd57379c0f5807aef2ba936f8fb89822c4360f43aa7e0deaab81f857b41",
              "transactionIndex": "0xcc",
              "logIndex": "0x449",
              "removed": false
            }
          ],
          "logsBloom": "0x00000000000000000000000000000000000000000000000000000000000000000000000000000000000000000000000000000000000000000000000000200000000000000000000000000000000000000000000000000000000000000000000000400000000000000000000000000000000000080000000000000000000010000000000000000000000000000000000000000000000000000000000000000000020000000000000000000080000000000000000000000000000040000000000400000000000000000000002000000000000000000000000000000000008000000010000000000000000000000000000000000000000000000000000000008000",
          "type": "0x2",
          "transactionHash": "0x3900acd57379c0f5807aef2ba936f8fb89822c4360f43aa7e0deaab81f857b41",
          "transactionIndex": "0xcc",
          "blockHash": "0x3a6073e5791505e0fdb2ef9c0e363a4e75ff8a45e2b023b92b4bcab13eed0107",
          "blockNumber": "0x15c4d8c",
          "gasUsed": "0xc234",
          "effectiveGasPrice": "0xab2800d6",
          "from": "0xaab6f44b46f19d061582727b66c9a0c84c97a2f6",
          "to": "0x1d3c5381dd07d5eef757c1edbba01db4a262bb86",
          "contractAddress": null
        },
        {
          "status": "0x1",
          "cumulativeGasUsed": "0x13afe63",
          "logs": [
            {
              "address": "0x0f7dc5d02cc1e1f5ee47854d534d332a1081ccc8",
              "topics": [
                "0x8c5be1e5ebec7d5bd14f71427d1e84f3dd0314c0f7b2291e5b200ac8c7c3b925",
                "0x0000000000000000000000001d3c5381dd07d5eef757c1edbba01db4a262bb86",
                "0x0000000000000000000000001731fe5aed11f397c88ac2551384af8e346fc699"
              ],
              "data": "0xffffffffffffffffffffffffffffffffffffffffffffffffffffffffffffffff",
              "blockHash": "0x3a6073e5791505e0fdb2ef9c0e363a4e75ff8a45e2b023b92b4bcab13eed0107",
              "blockNumber": "0x15c4d8c",
              "blockTimestamp": "0x6864326f",
              "transactionHash": "0xbe7404fcc1b61c6a7c369946029e3c74853278b5e7a808e7b758b7dced094c29",
              "transactionIndex": "0xcd",
              "logIndex": "0x44a",
              "removed": false
            }
          ],
          "logsBloom": "0x00000000000000000000000000000000000000000000000000000000000000000000000000000000000000000000000000000000000000000000000000200000000000000000000000000000000000000000000000000000000000000000000000000000000000000000000000000000000000000000000000000000000000000000000000000000000000100000000000000000000000000000002000000000020001000000000000000080000000000000000000000000000000000000004400000000040000000000002000000200000000000000000000000000000000000010000000000000000000000000000000000000000000000000000000000000",
          "type": "0x2",
          "transactionHash": "0xbe7404fcc1b61c6a7c369946029e3c74853278b5e7a808e7b758b7dced094c29",
          "transactionIndex": "0xcd",
          "blockHash": "0x3a6073e5791505e0fdb2ef9c0e363a4e75ff8a45e2b023b92b4bcab13eed0107",
          "blockNumber": "0x15c4d8c",
          "gasUsed": "0xc20b",
          "effectiveGasPrice": "0xab2800d6",
          "from": "0xaab6f44b46f19d061582727b66c9a0c84c97a2f6",
          "to": "0x1d3c5381dd07d5eef757c1edbba01db4a262bb86",
          "contractAddress": null
        },
        {
          "status": "0x1",
          "cumulativeGasUsed": "0x13bdd33",
          "logs": [
            {
              "address": "0x310c8f00b9de3c31ab95ea68feb6c877538f7947",
              "topics": [
                "0x8c5be1e5ebec7d5bd14f71427d1e84f3dd0314c0f7b2291e5b200ac8c7c3b925",
                "0x0000000000000000000000001d3c5381dd07d5eef757c1edbba01db4a262bb86",
                "0x000000000000000000000000d971cdffac53d9df56bad78e01711272c0570fb9"
              ],
              "data": "0xffffffffffffffffffffffffffffffffffffffffffffffffffffffffffffffff",
              "blockHash": "0x3a6073e5791505e0fdb2ef9c0e363a4e75ff8a45e2b023b92b4bcab13eed0107",
              "blockNumber": "0x15c4d8c",
              "blockTimestamp": "0x6864326f",
              "transactionHash": "0x03f561dc3ef93d817167b59db379aa3ad3fbfdd62cfc57447a474bde7b487843",
              "transactionIndex": "0xce",
              "logIndex": "0x44b",
              "removed": false
            }
          ],
          "logsBloom": "0x00000000000000000000000000000000000000000000000000000000000000000000000000000000000000000000000000000000000000000000000000200000000000000000000000000000000000000000000000000000000000000000000000000000000000000001000000000000000000000000000000000000000000080000000000000000000000000000000000000000000000000000000000000000020000000000000000000080000000000000008200000000000000000800000400000000000000000000002000000000000000000000000000000000002000000010000000000000000000000000000000000000000000000000000000000000",
          "type": "0x2",
          "transactionHash": "0x03f561dc3ef93d817167b59db379aa3ad3fbfdd62cfc57447a474bde7b487843",
          "transactionIndex": "0xce",
          "blockHash": "0x3a6073e5791505e0fdb2ef9c0e363a4e75ff8a45e2b023b92b4bcab13eed0107",
          "blockNumber": "0x15c4d8c",
          "gasUsed": "0xded0",
          "effectiveGasPrice": "0xab2800d6",
          "from": "0xaab6f44b46f19d061582727b66c9a0c84c97a2f6",
          "to": "0x1d3c5381dd07d5eef757c1edbba01db4a262bb86",
          "contractAddress": null
        }
      ],
      "libraries": [],
      "pending": [],
      "returns": {},
      "timestamp": 1751396940,
      "chain": 1,
      "commit": "f7af6da"
    },
    {
      "transactions": [
        {
          "hash": "0x4a6433cf6e983e37c2b0a44cf975efe6072d2a433fbec9dbdeeb5cfffd073eb0",
          "transactionType": "CALL",
          "contractName": null,
          "contractAddress": "0x1d3c5381dd07d5eef757c1edbba01db4a262bb86",
          "function": "approveAll(address,address)",
          "arguments": [
            "0x765Af38A6e8FDcB1EFEF8a3dd2213EFD3090B00F",
            "0x38A357A34ea7e9E41718593Bb624CC628698eDc8"
          ],
          "transaction": {
            "from": "0xaab6f44b46f19d061582727b66c9a0c84c97a2f6",
            "to": "0x1d3c5381dd07d5eef757c1edbba01db4a262bb86",
            "gas": "0x10b82",
            "value": "0x0",
            "input": "0x0a443276000000000000000000000000765af38a6e8fdcb1efef8a3dd2213efd3090b00f00000000000000000000000038a357a34ea7e9e41718593bb624cc628698edc8",
            "nonce": "0xa0",
            "chainId": "0x89"
          },
          "additionalContracts": [],
          "isFixedGasLimit": false
        }
      ],
      "receipts": [
        {
          "status": "0x1",
          "cumulativeGasUsed": "0x49f8be",
          "logs": [
            {
              "address": "0x765af38a6e8fdcb1efef8a3dd2213efd3090b00f",
              "topics": [
                "0x8c5be1e5ebec7d5bd14f71427d1e84f3dd0314c0f7b2291e5b200ac8c7c3b925",
                "0x0000000000000000000000001d3c5381dd07d5eef757c1edbba01db4a262bb86",
                "0x00000000000000000000000038a357a34ea7e9e41718593bb624cc628698edc8"
              ],
              "data": "0xffffffffffffffffffffffffffffffffffffffffffffffffffffffffffffffff",
              "blockHash": "0x53af0bc555ed2e870294490abbe15ac8494547bfa058f69eee94c09b4fda7bfd",
              "blockNumber": "0x460dd8d",
              "transactionHash": "0x4a6433cf6e983e37c2b0a44cf975efe6072d2a433fbec9dbdeeb5cfffd073eb0",
              "transactionIndex": "0x22",
              "logIndex": "0x68",
              "removed": false
            },
            {
              "address": "0x0000000000000000000000000000000000001010",
              "topics": [
                "0x4dfe1bbbcf077ddc3e01291eea2d5c70c2b422b415d95645b9adcfd678cb1d63",
                "0x0000000000000000000000000000000000000000000000000000000000001010",
                "0x000000000000000000000000aab6f44b46f19d061582727b66c9a0c84c97a2f6",
                "0x000000000000000000000000127685d6dd6683085da4b6a041efcef1681e5c9c"
              ],
              "data": "0x000000000000000000000000000000000000000000000000000548cf48c73c000000000000000000000000000000000000000000000000007d4c304d899f2fdb0000000000000000000000000000000000000000000003fb47d330423771ef890000000000000000000000000000000000000000000000007d46e77e40d7f3db0000000000000000000000000000000000000000000003fb47d8791180392b89",
              "blockHash": "0x53af0bc555ed2e870294490abbe15ac8494547bfa058f69eee94c09b4fda7bfd",
              "blockNumber": "0x460dd8d",
              "transactionHash": "0x4a6433cf6e983e37c2b0a44cf975efe6072d2a433fbec9dbdeeb5cfffd073eb0",
              "transactionIndex": "0x22",
              "logIndex": "0x69",
              "removed": false
            }
          ],
          "logsBloom": "0x00000000000000000000000000000000000000000000100000000000000000000000000000000000000000008000002000008000000000000000000040200000000000000000002000000000000000800000001000000000000100000000000000000000000000000000000000000000000000000000000080000000000000000000000000000000000000000000000000000000000000000008000000000000220000000000000000000080000000000000000000000000000000000000004400000000000000000001002000000000080010000000000000100000000000000010000000000000000000000000000000000000000004000000000002100020",
          "type": "0x2",
          "transactionHash": "0x4a6433cf6e983e37c2b0a44cf975efe6072d2a433fbec9dbdeeb5cfffd073eb0",
          "transactionIndex": "0x22",
          "blockHash": "0x53af0bc555ed2e870294490abbe15ac8494547bfa058f69eee94c09b4fda7bfd",
          "blockNumber": "0x460dd8d",
          "gasUsed": "0xc1ad",
          "effectiveGasPrice": "0x6fc23ac9b",
          "from": "0xaab6f44b46f19d061582727b66c9a0c84c97a2f6",
          "to": "0x1d3c5381dd07d5eef757c1edbba01db4a262bb86",
          "contractAddress": null
        }
      ],
      "libraries": [],
      "pending": [],
      "returns": {},
      "timestamp": 1751396940,
      "chain": 137,
      "commit": "f7af6da"
    }
  ],
  "timestamp": 1751447635
}