{
  "transactions": [
    {
      "hash": "0x5d855cd1f85a7efca2358f537b0e30088655c27572819b0d7b96d07f870de130",
      "transactionType": "CREATE2",
      "contractName": "BasketFixedUnits",
      "contractAddress": "0x5516234f75f184205396f2ca854ee7c2ae367252",
      "function": null,
      "arguments": [
        "Polyong Infra Basket Market Cap",
        "PIB.MC",
        "0xAAb6f44B46f19d061582727B66C9a0c84C97a2F6",
        "5000",
        "[(0x53E0bca35eC356BD5ddDFebbD1Fc0fD03FaBad39, 1000), (0xb33EaAd8d922B1083446DC23f610c2567fB5180f, 1000), (0xC3C7d422809852031b44ab29EEC9F1EfF2A58756, 7000), (0xD6DF932A45C0f255f85145f286eA0b292B21C90B, 6)]"
      ],
      "transaction": {
        "from": "0xaab6f44b46f19d061582727b66c9a0c84c97a2f6",
        "to": "0x4e59b44847b379578588920ca78fbf26c0b4956c",
        "gas": "0x197130",
        "value": "0x0",
        "input": "0x000000000000000000000000000000000000000000000000000000000000000060c06040523461061957611697803803806100198161061d565b92833981019060a0818303126106195780516001600160401b0381116106195782610045918301610642565b60208201519092906001600160401b0381116106195781610067918401610642565b9161007460408201610693565b9260608201519160808101519060018060401b03821161061957019483601f87011215610619578551936001600160401b03851161038b576100bb60208660051b0161061d565b9660208887815201916020839760061b8301019181831161061957602001925b8284106105ce5750508251929150506001600160401b03821161038b5760035490600182811c921680156105c4575b60208310146104c75781601f849311610556575b50602090601f83116001146104f0575f926104e5575b50508160011b915f199060031b1c1916176003555b8051906001600160401b03821161038b5760045490600182811c921680156104db575b60208310146104c75781601f849311610459575b50602090601f83116001146103f3575f926103e8575b50508160011b915f199060031b1c1916176004555b8351156103d9575f5b845181101561026f5760206101c982876106a7565b51015115610260578015158061020e575b6101e6576001016101b4565b6001600160a01b03906101f990866106a7565b515116631f3a6ceb60e01b5f5260045260245ffd5b505f19810181811161024c576001600160a01b039061022d90876106a7565b5151166001600160a01b0361024283886106a7565b51511611156101da565b634e487b7160e01b5f52601160045260245ffd5b63c46babb160e01b5f5260045ffd5b509092916001600160a01b0381166103b6578161039f575b60805260a052519068010000000000000000821161038b5760055482600555808310610338575b509060055f5260205f205f925b82841061030657604051610fc790816106d082396080518181816102d101528181610375015281816103d50152818161044f015261065c015260a05181818161027b01526106d90152f35b60026020828160019451858060a01b03815116868060a01b0319885416178755015184860155019201930192906102bb565b6001600160ff1b038116810361024c576001600160ff1b038316830361024c5760055f5260205f209060011b8101908360011b015b81811061037a57506102ae565b5f808255600182015560020161036d565b634e487b7160e01b5f52604160045260245ffd5b50637f16270360e01b5f526004525f60245260445ffd5b6127108211156102875750637f16270360e01b5f5260045261271060245260445ffd5b6338f6c55560e01b5f5260045ffd5b015190505f80610196565b60045f9081528281209350601f198516905b8181106104415750908460019594939210610429575b505050811b016004556101ab565b01515f1960f88460031b161c191690555f808061041b565b92936020600181928786015181550195019301610405565b60045f529091507f8a35acfbc15ff81a39ae7d344fd709f28e8600b4aa8c65c6b64bfe7fe36bd19b601f840160051c810191602085106104bd575b90601f859493920160051c01905b8181106104af5750610180565b5f81558493506001016104a2565b9091508190610494565b634e487b7160e01b5f52602260045260245ffd5b91607f169161016c565b015190505f80610134565b60035f9081528281209350601f198516905b81811061053e5750908460019594939210610526575b505050811b01600355610149565b01515f1960f88460031b161c191690555f8080610518565b92936020600181928786015181550195019301610502565b60035f529091507fc2575a0e9e593c00f959f8c92f12db2869c3395a3b0502d05e2516446f71f85b601f840160051c810191602085106105ba575b90601f859493920160051c01905b8181106105ac575061011e565b5f815584935060010161059f565b9091508190610591565b91607f169161010a565b604084830312610619576040805191908201906001600160401b0382118383101761038b57604092602092845261060487610693565b815282870151838201528152019301926100db565b5f80fd5b6040519190601f01601f191682016001600160401b0381118382101761038b57604052565b81601f82011215610619578051906001600160401b03821161038b57610671601f8301601f191660200161061d565b928284526020838301011161061957815f9260208093018386015e8301015290565b51906001600160a01b038216820361061957565b80518210156106bb5760209160051b010190565b634e487b7160e01b5f52603260045260245ffdfe6080806040526004361015610012575f80fd5b5f3560e01c90816306fdde0314610b6c57508063095ea7b314610aea57806318160ddd14610acd5780631d538dbc146109f257806323b872dd14610913578063313ce567146108f857806342966c68146106fc578063596df8ec146106c257806370a082311461068b5780638da5cb5b1461064757806395d89b4114610547578063a9059cbb14610516578063cd6ef2b014610486578063da39b3e7146101155763dd62ed3e146100c1575f80fd5b34610111576040366003190112610111576100da610c4e565b6100e2610c64565b6001600160a01b039182165f908152600160209081526040808320949093168252928352819020549051908152f35b5f80fd5b60603660031901126101115760043561012c610c64565b604435906001600160a01b03821690818303610111578315610477575f5b6005548110156102765761016661016082610d1e565b50610d4e565b90610175602083015187610d89565b82519092906001600160a01b03166101b157509080340361019b57506001905b0161014a565b63172af06760e01b5f523460045260245260445ffd5b6001600160a01b03831161025557516001600160a01b03166e22d473030f116ddee9f6b43ac78ba33b1561011157604051631b63c28b60e11b81523360048201523060248201526001600160a01b03909316604484015260648301525f82608481836e22d473030f116ddee9f6b43ac78ba35af191821561024a5760019261023a575b50610195565b5f61024491610ce4565b86610234565b6040513d5f823e3d90fd5b637f16270360e01b5f90815260048490526001600160a01b03602452604490fd5b5083837f000000000000000000000000000000000000000000000000000000000000000080158015610441575b1561031d5750506102b48183610f5a565b604080519182525f60208301819052908201526001600160a01b037f000000000000000000000000000000000000000000000000000000000000000081169216907feca801b067fae3d181506c21fb55d44a644d16cdb863595643131a7e105b5f0190606090a4005b620f424061032c818386610eda565b918409610435575b80830390838211610421577feca801b067fae3d181506c21fb55d44a644d16cdb863595643131a7e105b5f019261036d60609387610f5a565b866103c457507f00000000000000000000000000000000000000000000000000000000000000009061039f8183610f5a565b6040805195865260208601919091525f908501526001600160a01b03908116941692a4005b906103d39060011c8092610f5a565b7f0000000000000000000000000000000000000000000000000000000000000000906103ff8183610f5a565b60408051958652602086018290528501526001600160a01b03908116941692a4005b634e487b7160e01b5f52601160045260245ffd5b60010180610334575f80fd5b506001600160a01b038481167f0000000000000000000000000000000000000000000000000000000000000000909116146102a3565b631f2a200560e01b5f5260045ffd5b34610111575f366003190112610111576005546104a281610d06565b906104b06040519283610ce4565b8082526020820160055f527f036b6384b5eca791c62761152d0c79bb0604c104a5fb6f4eb0703f3154bb3db05f915b8383106104f857604051806104f48782610c7a565b0390f35b6002602060019261050885610d4e565b8152019201920191906104df565b346101115760403660031901126101115761053c610532610c4e565b6024359033610db5565b602060405160018152f35b34610111575f366003190112610111576040515f6004548060011c9060018116801561063d575b6020831081146106295782855290811561060557506001146105a7575b6104f48361059b81850382610ce4565b60405191829182610c24565b91905060045f527f8a35acfbc15ff81a39ae7d344fd709f28e8600b4aa8c65c6b64bfe7fe36bd19b915f905b8082106105eb5750909150810160200161059b61058b565b9192600181602092548385880101520191019092916105d3565b60ff191660208086019190915291151560051b8401909101915061059b905061058b565b634e487b7160e01b5f52602260045260245ffd5b91607f169161056e565b34610111575f366003190112610111576040517f00000000000000000000000000000000000000000000000000000000000000006001600160a01b03168152602090f35b34610111576020366003190112610111576001600160a01b036106ac610c4e565b165f525f602052602060405f2054604051908152f35b34610111575f3660031901126101115760206040517f00000000000000000000000000000000000000000000000000000000000000008152f35b346101115760203660031901126101115760043580156104775733156108e557335f525f6020528060405f20548181106108cc57335f525f6020520360405f205580600254036002555f6040518281527fddf252ad1be2c89b69c2b068fc378daa952ba7f163c4a11628f55a4df523b3ef60203392a35f805b6005548110156108255761078b61016082610d1e565b610799602082015185610e5f565b90516001600160a01b0316806107b6575091506001905b01610775565b905f6020916040518381019163a9059cbb60e01b83523360248301526044820152604481526107e6606482610ce4565b519082855af11561024a575f513d61081c5750803b155b61080a57506001906107b0565b635274afe760e01b5f5260045260245ffd5b600114156107fd565b508061082d57005b8047106108b6575f80808093335af13d156108ae573d9067ffffffffffffffff821161089a576040519161086b601f8201601f191660200184610ce4565b82523d5f602084013e5b1561087c57005b80511561088b57805190602001fd5b63d6bda27560e01b5f5260045ffd5b634e487b7160e01b5f52604160045260245ffd5b606090610875565b4763cf47918160e01b5f5260045260245260445ffd5b63391434e360e21b5f523360045260245260445260645ffd5b634b637e8f60e11b5f525f60045260245ffd5b34610111575f36600319011261011157602060405160128152f35b346101115760603660031901126101115761092c610c4e565b610934610c64565b6001600160a01b0382165f818152600160209081526040808320338452909152902054909260443592915f198110610972575b5061053c9350610db5565b8381106109d75784156109c45733156109b15761053c945f52600160205260405f2060018060a01b0333165f526020528360405f209103905584610967565b634a1406b160e11b5f525f60045260245ffd5b63e602df0560e01b5f525f60045260245ffd5b8390637dc7a0d960e11b5f523360045260245260445260645ffd5b3461011157602036600319011261011157600435600554610a1281610d06565b91610a206040519384610ce4565b818352601f19610a2f83610d06565b015f5b818110610aaa5750505f5b828110610a5257604051806104f48682610c7a565b80610a61610160600193610d1e565b610a6f602082015185610d89565b90838060a01b039051169060405191610a8783610cc8565b82526020820152610a988287610d75565b52610aa38186610d75565b5001610a3d565b602090604051610ab981610cc8565b5f81525f8382015282828801015201610a32565b34610111575f366003190112610111576020600254604051908152f35b3461011157604036600319011261011157610b03610c4e565b6024359033156109c4576001600160a01b03169081156109b157335f52600160205260405f20825f526020528060405f20556040519081527f8c5be1e5ebec7d5bd14f71427d1e84f3dd0314c0f7b2291e5b200ac8c7c3b92560203392a3602060405160018152f35b34610111575f366003190112610111575f6003548060011c90600181168015610c1a575b602083108114610629578285529081156106055750600114610bbc576104f48361059b81850382610ce4565b91905060035f527fc2575a0e9e593c00f959f8c92f12db2869c3395a3b0502d05e2516446f71f85b915f905b808210610c005750909150810160200161059b61058b565b919260018160209254838588010152019101909291610be8565b91607f1691610b90565b602060409281835280519182918282860152018484015e5f828201840152601f01601f1916010190565b600435906001600160a01b038216820361011157565b602435906001600160a01b038216820361011157565b60206040818301928281528451809452019201905f5b818110610c9d5750505090565b825180516001600160a01b031685526020908101518186015260409094019390920191600101610c90565b6040810190811067ffffffffffffffff82111761089a57604052565b90601f8019910116810190811067ffffffffffffffff82111761089a57604052565b67ffffffffffffffff811161089a5760051b60200190565b600554811015610d3a5760055f5260205f209060011b01905f90565b634e487b7160e01b5f52603260045260245ffd5b90604051610d5b81610cc8565b82546001600160a01b031681526001909201546020830152565b8051821015610d3a5760209160051b010190565b9190670de0b6b3a764000090610da0828286610eda565b9309610da857565b9060010190811561011157565b6001600160a01b03169081156108e5576001600160a01b0316918215610e4c57815f525f60205260405f2054818110610e3357817fddf252ad1be2c89b69c2b068fc378daa952ba7f163c4a11628f55a4df523b3ef92602092855f525f84520360405f2055845f525f825260405f20818154019055604051908152a3565b8263391434e360e21b5f5260045260245260445260645ffd5b63ec442f0560e01b5f525f60045260245ffd5b808202905f1983820990828083109203918083039283670de0b6b3a764000011156101115714610ec9577faccb18165bd6fe31ae1cf318dc5b51eee0e1ba569b88cd74c1773b91fac1066993670de0b6b3a7640000910990828211900360ee1b910360121c170290565b5050670de0b6b3a764000091500490565b91818302915f19818509938380861095039480860395868511156101115714610f52579082910981805f03168092046002816003021880820260020302808202600203028082026002030280820260020302808202600203028091026002030293600183805f03040190848311900302920304170290565b505091500490565b6001600160a01b0316908115610e4c57600254908082018092116104215760207fddf252ad1be2c89b69c2b068fc378daa952ba7f163c4a11628f55a4df523b3ef915f9360025584845283825260408420818154019055604051908152a356fea164736f6c634300081a000a00000000000000000000000000000000000000000000000000000000000000a000000000000000000000000000000000000000000000000000000000000000e0000000000000000000000000aab6f44b46f19d061582727b66c9a0c84c97a2f600000000000000000000000000000000000000000000000000000000000013880000000000000000000000000000000000000000000000000000000000000120000000000000000000000000000000000000000000000000000000000000001f506f6c796f6e6720496e667261204261736b6574204d61726b6574204361700000000000000000000000000000000000000000000000000000000000000000065049422e4d430000000000000000000000000000000000000000000000000000000000000000000000000000000000000000000000000000000000000000000400000000000000000000000053e0bca35ec356bd5dddfebbd1fc0fd03fabad3900000000000000000000000000000000000000000000000000000000000003e8000000000000000000000000b33eaad8d922b1083446dc23f610c2567fb5180f00000000000000000000000000000000000000000000000000000000000003e8000000000000000000000000c3c7d422809852031b44ab29eec9f1eff2a587560000000000000000000000000000000000000000000000000000000000001b58000000000000000000000000d6df932a45c0f255f85145f286ea0b292b21c90b0000000000000000000000000000000000000000000000000000000000000006",
        "nonce": "0x71",
        "chainId": "0x89"
      },
      "additionalContracts": [],
      "isFixedGasLimit": false
    },
    {
      "hash": "0x2f232a4e8f7160e58d4e2b1cd08129892391e3f4692396bae7c69d02f9564cdc",
      "transactionType": "CALL",
      "contractName": null,
      "contractAddress": "0x0ca6a3316608f2770dcbdf4fbd28cba19103e298",
      "function": "approveAll(address,address)",
      "arguments": [
        "0x53E0bca35eC356BD5ddDFebbD1Fc0fD03FaBad39",
        "0x5516234F75f184205396F2cA854ee7c2Ae367252"
      ],
      "transaction": {
        "from": "0xaab6f44b46f19d061582727b66c9a0c84c97a2f6",
        "to": "0x0ca6a3316608f2770dcbdf4fbd28cba19103e298",
        "gas": "0x1becc",
        "value": "0x0",
        "input": "0x0a44327600000000000000000000000053e0bca35ec356bd5dddfebbd1fc0fd03fabad390000000000000000000000005516234f75f184205396f2ca854ee7c2ae367252",
        "nonce": "0x72",
        "chainId": "0x89"
      },
      "additionalContracts": [],
      "isFixedGasLimit": false
    },
    {
      "hash": "0x881f028ea8a28c69d465d43aeba8d3c7bbbab4d5a4f9756c219464c523c106a1",
      "transactionType": "CALL",
      "contractName": null,
      "contractAddress": "0x0ca6a3316608f2770dcbdf4fbd28cba19103e298",
      "function": "approveAll(address,address)",
      "arguments": [
        "0xb33EaAd8d922B1083446DC23f610c2567fB5180f",
        "0x5516234F75f184205396F2cA854ee7c2Ae367252"
      ],
      "transaction": {
        "from": "0xaab6f44b46f19d061582727b66c9a0c84c97a2f6",
        "to": "0x0ca6a3316608f2770dcbdf4fbd28cba19103e298",
        "gas": "0x1dd6b",
        "value": "0x0",
        "input": "0x0a443276000000000000000000000000b33eaad8d922b1083446dc23f610c2567fb5180f0000000000000000000000005516234f75f184205396f2ca854ee7c2ae367252",
        "nonce": "0x73",
        "chainId": "0x89"
      },
      "additionalContracts": [],
      "isFixedGasLimit": false
    },
    {
      "hash": "0x387fb7b5d597b5443e4a33d20c9fbf6979f70e42d2d4d7b3d41fe31fdb7e3cf3",
      "transactionType": "CALL",
      "contractName": null,
      "contractAddress": "0x0ca6a3316608f2770dcbdf4fbd28cba19103e298",
      "function": "approveAll(address,address)",
      "arguments": [
        "0xC3C7d422809852031b44ab29EEC9F1EfF2A58756",
        "0x5516234F75f184205396F2cA854ee7c2Ae367252"
      ],
      "transaction": {
        "from": "0xaab6f44b46f19d061582727b66c9a0c84c97a2f6",
        "to": "0x0ca6a3316608f2770dcbdf4fbd28cba19103e298",
        "gas": "0x1dd6b",
        "value": "0x0",
        "input": "0x0a443276000000000000000000000000c3c7d422809852031b44ab29eec9f1eff2a587560000000000000000000000005516234f75f184205396f2ca854ee7c2ae367252",
        "nonce": "0x74",
        "chainId": "0x89"
      },
      "additionalContracts": [],
      "isFixedGasLimit": false
    },
    {
      "hash": "0x13b7176c776f219cb63bae45b5bb3bebb6b0e3de09eeeb6679fbbda52e39e9f9",
      "transactionType": "CALL",
      "contractName": null,
      "contractAddress": "0x0ca6a3316608f2770dcbdf4fbd28cba19103e298",
      "function": "approveAll(address,address)",
      "arguments": [
        "0xD6DF932A45C0f255f85145f286eA0b292B21C90B",
        "0x5516234F75f184205396F2cA854ee7c2Ae367252"
      ],
      "transaction": {
        "from": "0xaab6f44b46f19d061582727b66c9a0c84c97a2f6",
        "to": "0x0ca6a3316608f2770dcbdf4fbd28cba19103e298",
        "gas": "0x1dd6b",
        "value": "0x0",
        "input": "0x0a443276000000000000000000000000d6df932a45c0f255f85145f286ea0b292b21c90b0000000000000000000000005516234f75f184205396f2ca854ee7c2ae367252",
        "nonce": "0x75",
        "chainId": "0x89"
      },
      "additionalContracts": [],
      "isFixedGasLimit": false
    }
  ],
  "receipts": [
    {
      "status": "0x1",
      "cumulativeGasUsed": "0xb5259f",
      "logs": [
        {
          "address": "0x0000000000000000000000000000000000001010",
          "topics": [
            "0x4dfe1bbbcf077ddc3e01291eea2d5c70c2b422b415d95645b9adcfd678cb1d63",
            "0x0000000000000000000000000000000000000000000000000000000000001010",
            "0x000000000000000000000000aab6f44b46f19d061582727b66c9a0c84c97a2f6",
            "0x00000000000000000000000083d69448f88bf9c701c1b93f43e1f753d39b2632"
          ],
          "data": "0x000000000000000000000000000000000000000000000000007f4024b638046c0000000000000000000000000000000000000000000000012c81457c0fe284460000000000000000000000000000000000000000000016beb0c53a90b87dfa770000000000000000000000000000000000000000000000012c02055759aa7fda0000000000000000000000000000000000000000000016beb1447ab56eb5fee3",
          "blockHash": "0xe151a498207fe1cbd6fbd7498f25e08fba2b33330e0cef98cbf10421870a3164",
          "blockNumber": "0x4471fb5",
          "transactionHash": "0x5d855cd1f85a7efca2358f537b0e30088655c27572819b0d7b96d07f870de130",
          "transactionIndex": "0x3c",
          "logIndex": "0x14d",
          "removed": false
        }
      ],
      "logsBloom": "0x00000000000000000000000000000000000000000000000000000000000000000000000000000000000000000000002000008000000000000000000000000000000000000000008000000000000000800000000000000000000100000000000000000000000000000000000000000000000000000800100080000000000000000000000000000000000000000000000000000000000000000000000000000000200000000000000000000000000000000000000000000000000000000000004000000000000000000001000000000000000010000000000000100000000000000000000000000000000000000000000000000000000000000000000002100000",
      "type": "0x2",
      "transactionHash": "0x5d855cd1f85a7efca2358f537b0e30088655c27572819b0d7b96d07f870de130",
      "transactionIndex": "0x3c",
      "blockHash": "0xe151a498207fe1cbd6fbd7498f25e08fba2b33330e0cef98cbf10421870a3164",
      "blockNumber": "0x4471fb5",
      "gasUsed": "0x126b6f",
      "effectiveGasPrice": "0x7e9b5d64f",
      "from": "0xaab6f44b46f19d061582727b66c9a0c84c97a2f6",
      "to": "0x4e59b44847b379578588920ca78fbf26c0b4956c",
      "contractAddress": "0x5516234f75f184205396f2ca854ee7c2ae367252"
    },
    {
      "status": "0x1",
      "cumulativeGasUsed": "0xb65720",
      "logs": [
        {
          "address": "0x53e0bca35ec356bd5dddfebbd1fc0fd03fabad39",
          "topics": [
            "0x8c5be1e5ebec7d5bd14f71427d1e84f3dd0314c0f7b2291e5b200ac8c7c3b925",
            "0x0000000000000000000000000ca6a3316608f2770dcbdf4fbd28cba19103e298",
            "0x0000000000000000000000005516234f75f184205396f2ca854ee7c2ae367252"
          ],
          "data": "0xffffffffffffffffffffffffffffffffffffffffffffffffffffffffffffffff",
          "blockHash": "0xe151a498207fe1cbd6fbd7498f25e08fba2b33330e0cef98cbf10421870a3164",
          "blockNumber": "0x4471fb5",
          "transactionHash": "0x2f232a4e8f7160e58d4e2b1cd08129892391e3f4692396bae7c69d02f9564cdc",
          "transactionIndex": "0x3d",
          "logIndex": "0x14e",
          "removed": false
        },
        {
          "address": "0x000000000022d473030f116ddee9f6b43ac78ba3",
          "topics": [
            "0xda9fa7c1b00402c17d0161b249b1ab8bbec047c5a52207b9c112deffd817036b",
            "0x0000000000000000000000000ca6a3316608f2770dcbdf4fbd28cba19103e298",
            "0x00000000000000000000000053e0bca35ec356bd5dddfebbd1fc0fd03fabad39",
            "0x0000000000000000000000005516234f75f184205396f2ca854ee7c2ae367252"
          ],
          "data": "0x000000000000000000000000ffffffffffffffffffffffffffffffffffffffff0000000000000000000000000000000000000000000000000000ffffffffffff",
          "blockHash": "0xe151a498207fe1cbd6fbd7498f25e08fba2b33330e0cef98cbf10421870a3164",
          "blockNumber": "0x4471fb5",
          "transactionHash": "0x2f232a4e8f7160e58d4e2b1cd08129892391e3f4692396bae7c69d02f9564cdc",
          "transactionIndex": "0x3d",
          "logIndex": "0x14f",
          "removed": false
        },
        {
          "address": "0x0000000000000000000000000000000000001010",
          "topics": [
            "0x4dfe1bbbcf077ddc3e01291eea2d5c70c2b422b415d95645b9adcfd678cb1d63",
            "0x0000000000000000000000000000000000000000000000000000000000001010",
            "0x000000000000000000000000aab6f44b46f19d061582727b66c9a0c84c97a2f6",
            "0x00000000000000000000000083d69448f88bf9c701c1b93f43e1f753d39b2632"
          ],
          "data": "0x00000000000000000000000000000000000000000000000000083e8bc06bba540000000000000000000000000000000000000000000000012bef8495a7e993050000000000000000000000000000000000000000000016beb1447ab56eb5fee30000000000000000000000000000000000000000000000012be74609e77dd8b10000000000000000000000000000000000000000000016beb14cb9412f21b937",
          "blockHash": "0xe151a498207fe1cbd6fbd7498f25e08fba2b33330e0cef98cbf10421870a3164",
          "blockNumber": "0x4471fb5",
          "transactionHash": "0x2f232a4e8f7160e58d4e2b1cd08129892391e3f4692396bae7c69d02f9564cdc",
          "transactionIndex": "0x3d",
          "logIndex": "0x150",
          "removed": false
        }
      ],
      "logsBloom": "0x00010000000000000000000000000000000000000000000000000004000108000000000000000000001000000000002000008000000000000000000000280000000000000000008000000000000000800000000000000000000100000000000000000000000000000000000000000400000000000804100080000000000000000020000000000000000000000000000000000000000000000000200000000000220000000000000000000000000000004000000000000000000000080000004000000000000000000001000000000000000010000000000040100000000000000010000008002000000000000000000000080000000000000000000002110400",
      "type": "0x2",
      "transactionHash": "0x2f232a4e8f7160e58d4e2b1cd08129892391e3f4692396bae7c69d02f9564cdc",
      "transactionIndex": "0x3d",
      "blockHash": "0xe151a498207fe1cbd6fbd7498f25e08fba2b33330e0cef98cbf10421870a3164",
      "blockNumber": "0x4471fb5",
      "gasUsed": "0x13181",
      "effectiveGasPrice": "0x7e9b5d64f",
      "from": "0xaab6f44b46f19d061582727b66c9a0c84c97a2f6",
      "to": "0x0ca6a3316608f2770dcbdf4fbd28cba19103e298",
      "contractAddress": null
    },
    {
      "status": "0x1",
      "cumulativeGasUsed": "0xb79d91",
      "logs": [
        {
          "address": "0xb33eaad8d922b1083446dc23f610c2567fb5180f",
          "topics": [
            "0x8c5be1e5ebec7d5bd14f71427d1e84f3dd0314c0f7b2291e5b200ac8c7c3b925",
            "0x0000000000000000000000000ca6a3316608f2770dcbdf4fbd28cba19103e298",
            "0x0000000000000000000000005516234f75f184205396f2ca854ee7c2ae367252"
          ],
          "data": "0xffffffffffffffffffffffffffffffffffffffffffffffffffffffffffffffff",
          "blockHash": "0xe151a498207fe1cbd6fbd7498f25e08fba2b33330e0cef98cbf10421870a3164",
          "blockNumber": "0x4471fb5",
          "transactionHash": "0x881f028ea8a28c69d465d43aeba8d3c7bbbab4d5a4f9756c219464c523c106a1",
          "transactionIndex": "0x3e",
          "logIndex": "0x151",
          "removed": false
        },
        {
          "address": "0x000000000022d473030f116ddee9f6b43ac78ba3",
          "topics": [
            "0xda9fa7c1b00402c17d0161b249b1ab8bbec047c5a52207b9c112deffd817036b",
            "0x0000000000000000000000000ca6a3316608f2770dcbdf4fbd28cba19103e298",
            "0x000000000000000000000000b33eaad8d922b1083446dc23f610c2567fb5180f",
            "0x0000000000000000000000005516234f75f184205396f2ca854ee7c2ae367252"
          ],
          "data": "0x000000000000000000000000ffffffffffffffffffffffffffffffffffffffff0000000000000000000000000000000000000000000000000000ffffffffffff",
          "blockHash": "0xe151a498207fe1cbd6fbd7498f25e08fba2b33330e0cef98cbf10421870a3164",
          "blockNumber": "0x4471fb5",
          "transactionHash": "0x881f028ea8a28c69d465d43aeba8d3c7bbbab4d5a4f9756c219464c523c106a1",
          "transactionIndex": "0x3e",
          "logIndex": "0x152",
          "removed": false
        },
        {
          "address": "0x0000000000000000000000000000000000001010",
          "topics": [
            "0x4dfe1bbbcf077ddc3e01291eea2d5c70c2b422b415d95645b9adcfd678cb1d63",
            "0x0000000000000000000000000000000000000000000000000000000000001010",
            "0x000000000000000000000000aab6f44b46f19d061582727b66c9a0c84c97a2f6",
            "0x00000000000000000000000083d69448f88bf9c701c1b93f43e1f753d39b2632"
          ],
          "data": "0x0000000000000000000000000000000000000000000000000008cf30d2c6d9140000000000000000000000000000000000000000000000012be613273ef476360000000000000000000000000000000000000000000016beb14cb9412f21b9370000000000000000000000000000000000000000000000012bdd43f66c2d9d220000000000000000000000000000000000000000000016beb155887201e8924b",
          "blockHash": "0xe151a498207fe1cbd6fbd7498f25e08fba2b33330e0cef98cbf10421870a3164",
          "blockNumber": "0x4471fb5",
          "transactionHash": "0x881f028ea8a28c69d465d43aeba8d3c7bbbab4d5a4f9756c219464c523c106a1",
          "transactionIndex": "0x3e",
          "logIndex": "0x153",
          "removed": false
        }
      ],
      "logsBloom": "0x00010000000000000000000000040000000000000000000000000004000108000000000000000000000000000000002000008000000000000000000000280000000000000000008000000000000000800000000000000000000100000080000000000000000000000000000000000000000000000800100080000000000000004020000000000000000008000000000000000000000000000000200000000000221000000000000000000000000000000000000000000000000000080000004020000000000000000001000000000000000010000000000040100000000000000010000008000000000000000000000000080000000000000000000002100400",
      "type": "0x2",
      "transactionHash": "0x881f028ea8a28c69d465d43aeba8d3c7bbbab4d5a4f9756c219464c523c106a1",
      "transactionIndex": "0x3e",
      "blockHash": "0xe151a498207fe1cbd6fbd7498f25e08fba2b33330e0cef98cbf10421870a3164",
      "blockNumber": "0x4471fb5",
      "gasUsed": "0x14671",
      "effectiveGasPrice": "0x7e9b5d64f",
      "from": "0xaab6f44b46f19d061582727b66c9a0c84c97a2f6",
      "to": "0x0ca6a3316608f2770dcbdf4fbd28cba19103e298",
      "contractAddress": null
    },
    {
      "status": "0x1",
      "cumulativeGasUsed": "0xb8e402",
      "logs": [
        {
          "address": "0xc3c7d422809852031b44ab29eec9f1eff2a58756",
          "topics": [
            "0x8c5be1e5ebec7d5bd14f71427d1e84f3dd0314c0f7b2291e5b200ac8c7c3b925",
            "0x0000000000000000000000000ca6a3316608f2770dcbdf4fbd28cba19103e298",
            "0x0000000000000000000000005516234f75f184205396f2ca854ee7c2ae367252"
          ],
          "data": "0xffffffffffffffffffffffffffffffffffffffffffffffffffffffffffffffff",
          "blockHash": "0xe151a498207fe1cbd6fbd7498f25e08fba2b33330e0cef98cbf10421870a3164",
          "blockNumber": "0x4471fb5",
          "transactionHash": "0x387fb7b5d597b5443e4a33d20c9fbf6979f70e42d2d4d7b3d41fe31fdb7e3cf3",
          "transactionIndex": "0x3f",
          "logIndex": "0x154",
          "removed": false
        },
        {
          "address": "0x000000000022d473030f116ddee9f6b43ac78ba3",
          "topics": [
            "0xda9fa7c1b00402c17d0161b249b1ab8bbec047c5a52207b9c112deffd817036b",
            "0x0000000000000000000000000ca6a3316608f2770dcbdf4fbd28cba19103e298",
            "0x000000000000000000000000c3c7d422809852031b44ab29eec9f1eff2a58756",
            "0x0000000000000000000000005516234f75f184205396f2ca854ee7c2ae367252"
          ],
          "data": "0x000000000000000000000000ffffffffffffffffffffffffffffffffffffffff0000000000000000000000000000000000000000000000000000ffffffffffff",
          "blockHash": "0xe151a498207fe1cbd6fbd7498f25e08fba2b33330e0cef98cbf10421870a3164",
          "blockNumber": "0x4471fb5",
          "transactionHash": "0x387fb7b5d597b5443e4a33d20c9fbf6979f70e42d2d4d7b3d41fe31fdb7e3cf3",
          "transactionIndex": "0x3f",
          "logIndex": "0x155",
          "removed": false
        },
        {
          "address": "0x0000000000000000000000000000000000001010",
          "topics": [
            "0x4dfe1bbbcf077ddc3e01291eea2d5c70c2b422b415d95645b9adcfd678cb1d63",
            "0x0000000000000000000000000000000000000000000000000000000000001010",
            "0x000000000000000000000000aab6f44b46f19d061582727b66c9a0c84c97a2f6",
            "0x00000000000000000000000083d69448f88bf9c701c1b93f43e1f753d39b2632"
          ],
          "data": "0x0000000000000000000000000000000000000000000000000008cf30d2c6d9140000000000000000000000000000000000000000000000012bdbfc0b86c843570000000000000000000000000000000000000000000016beb155887201e8924b0000000000000000000000000000000000000000000000012bd32cdab4016a430000000000000000000000000000000000000000000016beb15e57a2d4af6b5f",
          "blockHash": "0xe151a498207fe1cbd6fbd7498f25e08fba2b33330e0cef98cbf10421870a3164",
          "blockNumber": "0x4471fb5",
          "transactionHash": "0x387fb7b5d597b5443e4a33d20c9fbf6979f70e42d2d4d7b3d41fe31fdb7e3cf3",
          "transactionIndex": "0x3f",
          "logIndex": "0x156",
          "removed": false
        }
      ],
      "logsBloom": "0x00010000000000000000000000000000000000000000000000000004000108000020000000000000000000000000002000008400000000000000000000280000000000000000008000000000000000800000000000000000000100000000000000020000000000000000000000000000000000000800100080000000000000000020000000000000000000000080000200000000000000000000200000000000220000000000000000000000000000000000000000000000000000080000004000000008000000000001000000000000000010000000000040100000000000000010000008000000000000000000000000080000000000000000000002100400",
      "type": "0x2",
      "transactionHash": "0x387fb7b5d597b5443e4a33d20c9fbf6979f70e42d2d4d7b3d41fe31fdb7e3cf3",
      "transactionIndex": "0x3f",
      "blockHash": "0xe151a498207fe1cbd6fbd7498f25e08fba2b33330e0cef98cbf10421870a3164",
      "blockNumber": "0x4471fb5",
      "gasUsed": "0x14671",
      "effectiveGasPrice": "0x7e9b5d64f",
      "from": "0xaab6f44b46f19d061582727b66c9a0c84c97a2f6",
      "to": "0x0ca6a3316608f2770dcbdf4fbd28cba19103e298",
      "contractAddress": null
    },
    {
      "status": "0x1",
      "cumulativeGasUsed": "0xba2a73",
      "logs": [
        {
          "address": "0xd6df932a45c0f255f85145f286ea0b292b21c90b",
          "topics": [
            "0x8c5be1e5ebec7d5bd14f71427d1e84f3dd0314c0f7b2291e5b200ac8c7c3b925",
            "0x0000000000000000000000000ca6a3316608f2770dcbdf4fbd28cba19103e298",
            "0x0000000000000000000000005516234f75f184205396f2ca854ee7c2ae367252"
          ],
          "data": "0xffffffffffffffffffffffffffffffffffffffffffffffffffffffffffffffff",
          "blockHash": "0xe151a498207fe1cbd6fbd7498f25e08fba2b33330e0cef98cbf10421870a3164",
          "blockNumber": "0x4471fb5",
          "transactionHash": "0x13b7176c776f219cb63bae45b5bb3bebb6b0e3de09eeeb6679fbbda52e39e9f9",
          "transactionIndex": "0x40",
          "logIndex": "0x157",
          "removed": false
        },
        {
          "address": "0x000000000022d473030f116ddee9f6b43ac78ba3",
          "topics": [
            "0xda9fa7c1b00402c17d0161b249b1ab8bbec047c5a52207b9c112deffd817036b",
            "0x0000000000000000000000000ca6a3316608f2770dcbdf4fbd28cba19103e298",
            "0x000000000000000000000000d6df932a45c0f255f85145f286ea0b292b21c90b",
            "0x0000000000000000000000005516234f75f184205396f2ca854ee7c2ae367252"
          ],
          "data": "0x000000000000000000000000ffffffffffffffffffffffffffffffffffffffff0000000000000000000000000000000000000000000000000000ffffffffffff",
          "blockHash": "0xe151a498207fe1cbd6fbd7498f25e08fba2b33330e0cef98cbf10421870a3164",
          "blockNumber": "0x4471fb5",
          "transactionHash": "0x13b7176c776f219cb63bae45b5bb3bebb6b0e3de09eeeb6679fbbda52e39e9f9",
          "transactionIndex": "0x40",
          "logIndex": "0x158",
          "removed": false
        },
        {
          "address": "0x0000000000000000000000000000000000001010",
          "topics": [
            "0x4dfe1bbbcf077ddc3e01291eea2d5c70c2b422b415d95645b9adcfd678cb1d63",
            "0x0000000000000000000000000000000000000000000000000000000000001010",
            "0x000000000000000000000000aab6f44b46f19d061582727b66c9a0c84c97a2f6",
            "0x00000000000000000000000083d69448f88bf9c701c1b93f43e1f753d39b2632"
          ],
          "data": "0x0000000000000000000000000000000000000000000000000008cf30d2c6d9140000000000000000000000000000000000000000000000012bd1e4efce9c10780000000000000000000000000000000000000000000016beb15e57a2d4af6b5f0000000000000000000000000000000000000000000000012bc915befbd537640000000000000000000000000000000000000000000016beb16726d3a7764473",
          "blockHash": "0xe151a498207fe1cbd6fbd7498f25e08fba2b33330e0cef98cbf10421870a3164",
          "blockNumber": "0x4471fb5",
          "transactionHash": "0x13b7176c776f219cb63bae45b5bb3bebb6b0e3de09eeeb6679fbbda52e39e9f9",
          "transactionIndex": "0x40",
          "logIndex": "0x159",
          "removed": false
        }
      ],
      "logsBloom": "0x00010000000000000000000000000000000000000000000000000004000108000000000000000000000000000000002000008000000000000000040000280000000000000000008000000000000000800000000000000800000100000000000000000000000000000000000000000000400000000800100080000000000000000020000000000000000000200000000000000000000000000200200000000000220000000000000000000000000000000000000000000000000000080000004000000000000000000001000000000000000010000000000040100000000000000010000008000000000000000000000000080000000000000000000002100402",
      "type": "0x2",
      "transactionHash": "0x13b7176c776f219cb63bae45b5bb3bebb6b0e3de09eeeb6679fbbda52e39e9f9",
      "transactionIndex": "0x40",
      "blockHash": "0xe151a498207fe1cbd6fbd7498f25e08fba2b33330e0cef98cbf10421870a3164",
      "blockNumber": "0x4471fb5",
      "gasUsed": "0x14671",
      "effectiveGasPrice": "0x7e9b5d64f",
      "from": "0xaab6f44b46f19d061582727b66c9a0c84c97a2f6",
      "to": "0x0ca6a3316608f2770dcbdf4fbd28cba19103e298",
      "contractAddress": null
    }
  ],
  "libraries": [],
  "pending": [],
  "returns": {},
  "timestamp": 1747790069,
  "chain": 137,
  "commit": "a1522b3"
}