{
  "transactions": [
    {
      "hash": "0x542182c432b8815f10714cf33476bebaf637e94fd78a00f0101617f385e994de",
      "transactionType": "CALL",
      "contractName": null,
      "contractAddress": "0x05cad57113cb3fa213982dc9553498018c1d08b7",
      "function": "enrollRemoteRouter(uint32,bytes32)",
      "arguments": [
        "11155111",
        "0x000000000000000000000000e3664722a685de10b27460d9097767813b5e0459"
      ],
      "transaction": {
        "from": "0xaab6f44b46f19d061582727b66c9a0c84c97a2f6",
        "to": "0x05cad57113cb3fa213982dc9553498018c1d08b7",
        "gas": "0x9cc0",
        "value": "0x0",
        "input": "0xb49c53a70000000000000000000000000000000000000000000000000000000000aa36a7000000000000000000000000e3664722a685de10b27460d9097767813b5e0459",
        "nonce": "0x37",
        "chainId": "0x14a34"
      },
      "additionalContracts": [],
      "isFixedGasLimit": false
    },
    {
      "hash": "0x3fec8bd15bb03322e5c535838fdf5b4df0da815e96395465399a06b08bf7716d",
      "transactionType": "CALL",
      "contractName": null,
      "contractAddress": "0x3744d204595af66329b325a7651b005fbdcd77a4",
      "function": "enrollRemoteRouter(uint32,bytes32)",
      "arguments": [
        "11155111",
        "0x0000000000000000000000005f2785f8c06fff20f44e7d1c4940694cd271343b"
      ],
      "transaction": {
        "from": "0xaab6f44b46f19d061582727b66c9a0c84c97a2f6",
        "to": "0x3744d204595af66329b325a7651b005fbdcd77a4",
        "gas": "0x9cc0",
        "value": "0x0",
        "input": "0xb49c53a70000000000000000000000000000000000000000000000000000000000aa36a70000000000000000000000005f2785f8c06fff20f44e7d1c4940694cd271343b",
        "nonce": "0x38",
        "chainId": "0x14a34"
      },
      "additionalContracts": [],
      "isFixedGasLimit": false
    }
  ],
  "receipts": [
    {
      "status": "0x1",
      "cumulativeGasUsed": "0x2d31ab",
      "logs": [],
      "logsBloom": "0x00000000000000000000000000000000000000000000000000000000000000000000000000000000000000000000000000000000000000000000000000000000000000000000000000000000000000000000000000000000000000000000000000000000000000000000000000000000000000000000000000000000000000000000000000000000000000000000000000000000000000000000000000000000000000000000000000000000000000000000000000000000000000000000000000000000000000000000000000000000000000000000000000000000000000000000000000000000000000000000000000000000000000000000000000000000",
      "type": "0x2",
      "transactionHash": "0x542182c432b8815f10714cf33476bebaf637e94fd78a00f0101617f385e994de",
      "transactionIndex": "0x15",
      "blockHash": "0xc7a4e28fd8ef2fd3c937cc3999f35d899802418591bb992ca1bbd82bd7095e85",
      "blockNumber": "0x157dc1e",
      "gasUsed": "0x717d",
      "effectiveGasPrice": "0xca44c",
      "from": "0xaab6f44b46f19d061582727b66c9a0c84c97a2f6",
      "to": "0x05cad57113cb3fa213982dc9553498018c1d08b7",
      "contractAddress": null,
      "l1BaseFeeScalar": "0x44d",
      "l1BlobBaseFee": "0xcf9ddd1",
      "l1BlobBaseFeeScalar": "0xa118b",
      "l1Fee": "0x4ea1cccc8",
      "l1GasPrice": "0xe42337ca",
      "l1GasUsed": "0x640"
    },
    {
      "status": "0x1",
      "cumulativeGasUsed": "0x318b3f",
      "logs": [],
      "logsBloom": "0x00000000000000000000000000000000000000000000000000000000000000000000000000000000000000000000000000000000000000000000000000000000000000000000000000000000000000000000000000000000000000000000000000000000000000000000000000000000000000000000000000000000000000000000000000000000000000000000000000000000000000000000000000000000000000000000000000000000000000000000000000000000000000000000000000000000000000000000000000000000000000000000000000000000000000000000000000000000000000000000000000000000000000000000000000000000",
      "type": "0x2",
      "transactionHash": "0x3fec8bd15bb03322e5c535838fdf5b4df0da815e96395465399a06b08bf7716d",
      "transactionIndex": "0x19",
      "blockHash": "0xc7a4e28fd8ef2fd3c937cc3999f35d899802418591bb992ca1bbd82bd7095e85",
      "blockNumber": "0x157dc1e",
      "gasUsed": "0x717d",
      "effectiveGasPrice": "0xca44c",
      "from": "0xaab6f44b46f19d061582727b66c9a0c84c97a2f6",
      "to": "0x3744d204595af66329b325a7651b005fbdcd77a4",
      "contractAddress": null,
      "l1BaseFeeScalar": "0x44d",
      "l1BlobBaseFee": "0xcf9ddd1",
      "l1BlobBaseFeeScalar": "0xa118b",
      "l1Fee": "0x4ea1cccc8",
      "l1GasPrice": "0xe42337ca",
      "l1GasUsed": "0x640"
    }
  ],
  "libraries": [],
  "pending": [],
  "returns": {},
  "timestamp": 1740838685,
  "chain": 84532,
  "commit": "da536a0"
}