{
  "transactions": [
    {
      "hash": "0x08572960b3b97a4b5056a52a14327aca8124b97fe653d20715af43646bee0a5d",
      "transactionType": "CALL",
      "contractName": null,
      "contractAddress": "0x48824f0345964d1002bf4ddd1f72ba99b5dbe5d5",
      "function": "mint(address,uint256)",
      "arguments": [
        "0xcD7F61Eb4bD8Fb4F5916Ddaba79b9071aA113b1F",
        "1000000000000000000"
      ],
      "transaction": {
        "from": "0xaab6f44b46f19d061582727b66c9a0c84c97a2f6",
        "to": "0x48824f0345964d1002bf4ddd1f72ba99b5dbe5d5",
        "gas": "0x113a5",
        "value": "0x0",
        "input": "0x40c10f19000000000000000000000000cd7f61eb4bd8fb4f5916ddaba79b9071aa113b1f0000000000000000000000000000000000000000000000000de0b6b3a7640000",
        "nonce": "0x18",
        "chainId": "0x190a85c0"
      },
      "additionalContracts": [],
      "isFixedGasLimit": false
    },
    {
      "hash": "0xbde19070d29f4507d32edc710eadde17f2bff8c9cd3f7c927a10770f1dd146da",
      "transactionType": "CALL",
      "contractName": null,
      "contractAddress": "0x5710586e8d18f2e1c54c7a2247c1977578b11809",
      "function": "mint(address,uint256)",
      "arguments": [
        "0xcD7F61Eb4bD8Fb4F5916Ddaba79b9071aA113b1F",
        "1000000000000000000"
      ],
      "transaction": {
        "from": "0xaab6f44b46f19d061582727b66c9a0c84c97a2f6",
        "to": "0x5710586e8d18f2e1c54c7a2247c1977578b11809",
        "gas": "0x113a5",
        "value": "0x0",
        "input": "0x40c10f19000000000000000000000000cd7f61eb4bd8fb4f5916ddaba79b9071aa113b1f0000000000000000000000000000000000000000000000000de0b6b3a7640000",
        "nonce": "0x19",
        "chainId": "0x190a85c0"
      },
      "additionalContracts": [],
      "isFixedGasLimit": false
    }
  ],
  "receipts": [
    {
      "status": "0x1",
      "cumulativeGasUsed": "0x23129",
      "logs": [
        {
          "address": "0x48824f0345964d1002bf4ddd1f72ba99b5dbe5d5",
          "topics": [
            "0xddf252ad1be2c89b69c2b068fc378daa952ba7f163c4a11628f55a4df523b3ef",
            "0x0000000000000000000000000000000000000000000000000000000000000000",
            "0x000000000000000000000000cd7f61eb4bd8fb4f5916ddaba79b9071aa113b1f"
          ],
          "data": "0x0000000000000000000000000000000000000000000000000de0b6b3a7640000",
          "blockHash": "0xc39bf16d7e5381b92d2b4012e687aa30ff1d3b7a8984ed34b27b442105b1bd36",
          "blockNumber": "0xe5a7d",
          "transactionHash": "0x08572960b3b97a4b5056a52a14327aca8124b97fe653d20715af43646bee0a5d",
          "transactionIndex": "0x2",
          "logIndex": "0x0",
          "removed": false
        }
      ],
      "logsBloom": "0x00000000000000000008000000000000000000000000000000000000000000000000000000000000000000000000000000000000000000000000000040000000000000000000000000000008000000000000000000000000000000000000000000000000020000000000000000000800000000000000000000000010000000000000000000000000000000000000000000000000000000000000000000000000000000000000000000000000000000004000000000000000000000000002100000000002000000000000000000000000000000000000000000000000000020000000000000000000000000000000000000000000000000000002000000000000",
      "type": "0x2",
      "transactionHash": "0x08572960b3b97a4b5056a52a14327aca8124b97fe653d20715af43646bee0a5d",
      "transactionIndex": "0x2",
      "blockHash": "0xc39bf16d7e5381b92d2b4012e687aa30ff1d3b7a8984ed34b27b442105b1bd36",
      "blockNumber": "0xe5a7d",
      "gasUsed": "0xc790",
      "effectiveGasPrice": "0xfd",
      "from": "0xaab6f44b46f19d061582727b66c9a0c84c97a2f6",
      "to": "0x48824f0345964d1002bf4ddd1f72ba99b5dbe5d5",
      "contractAddress": null,
      "l1BaseFeeScalar": "0x558",
      "l1BlobBaseFee": "0x36220ebf0",
      "l1BlobBaseFeeScalar": "0xc5fc5",
      "l1Fee": "0x11771a76374",
      "l1GasPrice": "0x2517eb213",
      "l1GasUsed": "0x640"
    },
    {
      "status": "0x1",
      "cumulativeGasUsed": "0x2f8b9",
      "logs": [
        {
          "address": "0x5710586e8d18f2e1c54c7a2247c1977578b11809",
          "topics": [
            "0xddf252ad1be2c89b69c2b068fc378daa952ba7f163c4a11628f55a4df523b3ef",
            "0x0000000000000000000000000000000000000000000000000000000000000000",
            "0x000000000000000000000000cd7f61eb4bd8fb4f5916ddaba79b9071aa113b1f"
          ],
          "data": "0x0000000000000000000000000000000000000000000000000de0b6b3a7640000",
          "blockHash": "0xc39bf16d7e5381b92d2b4012e687aa30ff1d3b7a8984ed34b27b442105b1bd36",
          "blockNumber": "0xe5a7d",
          "transactionHash": "0xbde19070d29f4507d32edc710eadde17f2bff8c9cd3f7c927a10770f1dd146da",
          "transactionIndex": "0x3",
          "logIndex": "0x1",
          "removed": false
        }
      ],
      "logsBloom": "0x00000000000000000008000000000000000000000000000000000000000000000000000000000000000000000000000000000000400000000000000000000000000000000000000000000008000000000000000000000000000000000000100000000000020000000000000000000800000000000000000000000010000000000000000000000000000000000000000000000000000000000000000000000000000000000000000000000000000000000000000000000000000000000002000000000002000000000000000000000000000080000000000000000000000020000000000000000000000000000000000000000000000000000002000000000000",
      "type": "0x2",
      "transactionHash": "0xbde19070d29f4507d32edc710eadde17f2bff8c9cd3f7c927a10770f1dd146da",
      "transactionIndex": "0x3",
      "blockHash": "0xc39bf16d7e5381b92d2b4012e687aa30ff1d3b7a8984ed34b27b442105b1bd36",
      "blockNumber": "0xe5a7d",
      "gasUsed": "0xc790",
      "effectiveGasPrice": "0xfd",
      "from": "0xaab6f44b46f19d061582727b66c9a0c84c97a2f6",
      "to": "0x5710586e8d18f2e1c54c7a2247c1977578b11809",
      "contractAddress": null,
      "l1BaseFeeScalar": "0x558",
      "l1BlobBaseFee": "0x36220ebf0",
      "l1BlobBaseFeeScalar": "0xc5fc5",
      "l1Fee": "0x11771a76374",
      "l1GasPrice": "0x2517eb213",
      "l1GasUsed": "0x640"
    }
  ],
  "libraries": [],
  "pending": [],
  "returns": {},
  "timestamp": 1740820490,
  "chain": 420120000,
  "commit": "35f1cb3"
}