{
  "transactions": [
    {
      "hash": "0xa5a8d93f01206ea040457766943bbb34c9b5972b8317beba6a4234edf6886d78",
      "transactionType": "CALL",
      "contractName": null,
      "contractAddress": "0xfa306dfde7632a6c74bdabbbb19fa59c7a78d73b",
      "function": "mint(address,uint256)",
      "arguments": [
        "0xAAb6f44B46f19d061582727B66C9a0c84C97a2F6",
        "100000000000000000000000"
      ],
      "transaction": {
        "from": "0xaab6f44b46f19d061582727b66c9a0c84c97a2f6",
        "to": "0xfa306dfde7632a6c74bdabbbb19fa59c7a78d73b",
        "gas": "0xc1f9",
        "value": "0x0",
        "input": "0x40c10f19000000000000000000000000aab6f44b46f19d061582727b66c9a0c84c97a2f600000000000000000000000000000000000000000000152d02c7e14af6800000",
        "nonce": "0xcb",
        "chainId": "0xaa36a7"
      },
      "additionalContracts": [],
      "isFixedGasLimit": false
    },
    {
      "hash": "0x7da1fd77c4711610cad1dbf02ffd1cbde17432952c26a1da37c1f916b3710905",
      "transactionType": "CALL",
      "contractName": null,
      "contractAddress": "0xfa306dfde7632a6c74bdabbbb19fa59c7a78d73b",
      "function": "approve(address,uint256)",
      "arguments": [
        "0x000000000022D473030F116dDEE9F6B43aC78BA3",
        "115792089237316195423570985008687907853269984665640564039457584007913129639935"
      ],
      "transaction": {
        "from": "0xaab6f44b46f19d061582727b66c9a0c84c97a2f6",
        "to": "0xfa306dfde7632a6c74bdabbbb19fa59c7a78d73b",
        "gas": "0x962f",
        "value": "0x0",
        "input": "0x095ea7b3000000000000000000000000000000000022d473030f116ddee9f6b43ac78ba3ffffffffffffffffffffffffffffffffffffffffffffffffffffffffffffffff",
        "nonce": "0xcc",
        "chainId": "0xaa36a7"
      },
      "additionalContracts": [],
      "isFixedGasLimit": false
    },
    {
      "hash": "0xeb607289eec60af69574a9251a6a9e6649d166f00d7c012204e3e5de8ee43fc1",
      "transactionType": "CALL",
      "contractName": null,
      "contractAddress": "0x000000000022d473030f116ddee9f6b43ac78ba3",
      "function": "approve(address,address,uint160,uint48)",
      "arguments": [
        "0xFA306dFDe7632a6c74bdaBbBB19fA59c7A78D73B",
        "0x97b4242a6CDe1437E7C8B3e79F3F2e99Cf90899A",
        "1461501637330902918203684832716283019655932542975",
        "281474976710655"
      ],
      "transaction": {
        "from": "0xaab6f44b46f19d061582727b66c9a0c84c97a2f6",
        "to": "0x000000000022d473030f116ddee9f6b43ac78ba3",
        "gas": "0x96a0",
        "value": "0x0",
        "input": "0x87517c45000000000000000000000000fa306dfde7632a6c74bdabbbb19fa59c7a78d73b00000000000000000000000097b4242a6cde1437e7c8b3e79f3f2e99cf90899a000000000000000000000000ffffffffffffffffffffffffffffffffffffffff0000000000000000000000000000000000000000000000000000ffffffffffff",
        "nonce": "0xcd",
        "chainId": "0xaa36a7"
      },
      "additionalContracts": [],
      "isFixedGasLimit": false
    },
    {
      "hash": "0xafdfd10f8c8e055e54077a4e8d96ceec00457ccb9e148fff3a69bdc50a71ab3d",
      "transactionType": "CALL",
      "contractName": null,
      "contractAddress": "0x000000000022d473030f116ddee9f6b43ac78ba3",
      "function": "approve(address,address,uint160,uint48)",
      "arguments": [
        "0xFA306dFDe7632a6c74bdaBbBB19fA59c7A78D73B",
        "0x6aa638Fe70021Cf4A9Ce34c2E7718b99d4360efD",
        "1461501637330902918203684832716283019655932542975",
        "281474976710655"
      ],
      "transaction": {
        "from": "0xaab6f44b46f19d061582727b66c9a0c84c97a2f6",
        "to": "0x000000000022d473030f116ddee9f6b43ac78ba3",
        "gas": "0x1112d",
        "value": "0x0",
        "input": "0x87517c45000000000000000000000000fa306dfde7632a6c74bdabbbb19fa59c7a78d73b0000000000000000000000006aa638fe70021cf4a9ce34c2e7718b99d4360efd000000000000000000000000ffffffffffffffffffffffffffffffffffffffff0000000000000000000000000000000000000000000000000000ffffffffffff",
        "nonce": "0xce",
        "chainId": "0xaa36a7"
      },
      "additionalContracts": [],
      "isFixedGasLimit": false
    },
    {
      "hash": "0x1f7e37e9f4d57659861d8fcc23a67bd818f72a2fd41998e3be00f8525cfa4dfc",
      "transactionType": "CALL",
      "contractName": null,
      "contractAddress": "0xf79509e6fadc7254d59d49bcd976d5523177ec4f",
      "function": "mint(address,uint256)",
      "arguments": [
        "0xAAb6f44B46f19d061582727B66C9a0c84C97a2F6",
        "100000000000000000000000"
      ],
      "transaction": {
        "from": "0xaab6f44b46f19d061582727b66c9a0c84c97a2f6",
        "to": "0xf79509e6fadc7254d59d49bcd976d5523177ec4f",
        "gas": "0xc1f9",
        "value": "0x0",
        "input": "0x40c10f19000000000000000000000000aab6f44b46f19d061582727b66c9a0c84c97a2f600000000000000000000000000000000000000000000152d02c7e14af6800000",
        "nonce": "0xcf",
        "chainId": "0xaa36a7"
      },
      "additionalContracts": [],
      "isFixedGasLimit": false
    },
    {
      "hash": "0xf8ba34da5af699db52b8bcf78c1422dd7940db48de90690d752f8a130c7d370f",
      "transactionType": "CALL",
      "contractName": null,
      "contractAddress": "0xf79509e6fadc7254d59d49bcd976d5523177ec4f",
      "function": "approve(address,uint256)",
      "arguments": [
        "0x000000000022D473030F116dDEE9F6B43aC78BA3",
        "115792089237316195423570985008687907853269984665640564039457584007913129639935"
      ],
      "transaction": {
        "from": "0xaab6f44b46f19d061582727b66c9a0c84c97a2f6",
        "to": "0xf79509e6fadc7254d59d49bcd976d5523177ec4f",
        "gas": "0x962f",
        "value": "0x0",
        "input": "0x095ea7b3000000000000000000000000000000000022d473030f116ddee9f6b43ac78ba3ffffffffffffffffffffffffffffffffffffffffffffffffffffffffffffffff",
        "nonce": "0xd0",
        "chainId": "0xaa36a7"
      },
      "additionalContracts": [],
      "isFixedGasLimit": false
    },
    {
      "hash": "0xea907cce996f748058d46ba5c3117fc066025cbc58089c17ba041c3247091907",
      "transactionType": "CALL",
      "contractName": null,
      "contractAddress": "0x000000000022d473030f116ddee9f6b43ac78ba3",
      "function": "approve(address,address,uint160,uint48)",
      "arguments": [
        "0xf79509E6faDC7254D59d49Bcd976d5523177ec4f",
        "0x97b4242a6CDe1437E7C8B3e79F3F2e99Cf90899A",
        "1461501637330902918203684832716283019655932542975",
        "281474976710655"
      ],
      "transaction": {
        "from": "0xaab6f44b46f19d061582727b66c9a0c84c97a2f6",
        "to": "0x000000000022d473030f116ddee9f6b43ac78ba3",
        "gas": "0x96a0",
        "value": "0x0",
        "input": "0x87517c45000000000000000000000000f79509e6fadc7254d59d49bcd976d5523177ec4f00000000000000000000000097b4242a6cde1437e7c8b3e79f3f2e99cf90899a000000000000000000000000ffffffffffffffffffffffffffffffffffffffff0000000000000000000000000000000000000000000000000000ffffffffffff",
        "nonce": "0xd1",
        "chainId": "0xaa36a7"
      },
      "additionalContracts": [],
      "isFixedGasLimit": false
    },
    {
      "hash": "0xa3309b23ec80477606500b949eac84e705c80195d22be920b5f1f99c3ee46934",
      "transactionType": "CALL",
      "contractName": null,
      "contractAddress": "0x000000000022d473030f116ddee9f6b43ac78ba3",
      "function": "approve(address,address,uint160,uint48)",
      "arguments": [
        "0xf79509E6faDC7254D59d49Bcd976d5523177ec4f",
        "0x6aa638Fe70021Cf4A9Ce34c2E7718b99d4360efD",
        "1461501637330902918203684832716283019655932542975",
        "281474976710655"
      ],
      "transaction": {
        "from": "0xaab6f44b46f19d061582727b66c9a0c84c97a2f6",
        "to": "0x000000000022d473030f116ddee9f6b43ac78ba3",
        "gas": "0x1112d",
        "value": "0x0",
        "input": "0x87517c45000000000000000000000000f79509e6fadc7254d59d49bcd976d5523177ec4f0000000000000000000000006aa638fe70021cf4a9ce34c2e7718b99d4360efd000000000000000000000000ffffffffffffffffffffffffffffffffffffffff0000000000000000000000000000000000000000000000000000ffffffffffff",
        "nonce": "0xd2",
        "chainId": "0xaa36a7"
      },
      "additionalContracts": [],
      "isFixedGasLimit": false
    },
    {
      "hash": "0x362d50bc10d7e60baa963019fa4f152b0929cab56506746723d78d97e73ae5e1",
      "transactionType": "CALL",
      "contractName": null,
      "contractAddress": "0x97b4242a6cde1437e7c8b3e79f3f2e99cf90899a",
      "function": "multicall(bytes[])",
      "arguments": [
        "[0xf7020405000000000000000000000000f79509e6fadc7254d59d49bcd976d5523177ec4f000000000000000000000000fa306dfde7632a6c74bdabbbb19fa59c7a78d73b0000000000000000000000000000000000000000000000000000000000000bb8000000000000000000000000000000000000000000000000000000000000003c00000000000000000000000000000000000000000000000000000000000000000000000000000000000000000000000000000001000000000000000000000000, 0xdd46508f00000000000000000000000000000000000000000000000000000000000000400000000000000000000000000000000000000000000000000000000067c335e40000000000000000000000000000000000000000000000000000000000000300000000000000000000000000000000000000000000000000000000000000004000000000000000000000000000000000000000000000000000000000000000800000000000000000000000000000000000000000000000000000000000000002020d00000000000000000000000000000000000000000000000000000000000000000000000000000000000000000000000000000000000000000000000000020000000000000000000000000000000000000000000000000000000000000040000000000000000000000000000000000000000000000000000000000000020000000000000000000000000000000000000000000000000000000000000001a0000000000000000000000000f79509e6fadc7254d59d49bcd976d5523177ec4f000000000000000000000000fa306dfde7632a6c74bdabbbb19fa59c7a78d73b0000000000000000000000000000000000000000000000000000000000000bb8000000000000000000000000000000000000000000000000000000000000003c0000000000000000000000000000000000000000000000000000000000000000ffffffffffffffffffffffffffffffffffffffffffffffffffffffffffffe50c0000000000000000000000000000000000000000000000000000000000001af4000000000000000000000000000000000000000000000012947497809b4f045d000000000000000000000000000000000000000000000a968163f0a57b400000000000000000000000000000000000000000000000000a968163f0a57b400000000000000000000000000000aab6f44b46f19d061582727b66c9a0c84c97a2f6000000000000000000000000000000000000000000000000000000000000018000000000000000000000000000000000000000000000000000000000000000000000000000000000000000000000000000000000000000000000000000000040000000000000000000000000f79509e6fadc7254d59d49bcd976d5523177ec4f000000000000000000000000fa306dfde7632a6c74bdabbbb19fa59c7a78d73b]"
      ],
      "transaction": {
        "from": "0xaab6f44b46f19d061582727b66c9a0c84c97a2f6",
        "to": "0x97b4242a6cde1437e7c8b3e79f3f2e99cf90899a",
        "gas": "0x51620",
        "value": "0x0",
        "input": "0xac9650d8000000000000000000000000000000000000000000000000000000000000002000000000000000000000000000000000000000000000000000000000000000020000000000000000000000000000000000000000000000000000000000000040000000000000000000000000000000000000000000000000000000000000014000000000000000000000000000000000000000000000000000000000000000c4f7020405000000000000000000000000f79509e6fadc7254d59d49bcd976d5523177ec4f000000000000000000000000fa306dfde7632a6c74bdabbbb19fa59c7a78d73b0000000000000000000000000000000000000000000000000000000000000bb8000000000000000000000000000000000000000000000000000000000000003c00000000000000000000000000000000000000000000000000000000000000000000000000000000000000000000000000000001000000000000000000000000000000000000000000000000000000000000000000000000000000000000000000000000000000000000000000000000000000000000000000000364dd46508f00000000000000000000000000000000000000000000000000000000000000400000000000000000000000000000000000000000000000000000000067c335e40000000000000000000000000000000000000000000000000000000000000300000000000000000000000000000000000000000000000000000000000000004000000000000000000000000000000000000000000000000000000000000000800000000000000000000000000000000000000000000000000000000000000002020d00000000000000000000000000000000000000000000000000000000000000000000000000000000000000000000000000000000000000000000000000020000000000000000000000000000000000000000000000000000000000000040000000000000000000000000000000000000000000000000000000000000020000000000000000000000000000000000000000000000000000000000000001a0000000000000000000000000f79509e6fadc7254d59d49bcd976d5523177ec4f000000000000000000000000fa306dfde7632a6c74bdabbbb19fa59c7a78d73b0000000000000000000000000000000000000000000000000000000000000bb8000000000000000000000000000000000000000000000000000000000000003c0000000000000000000000000000000000000000000000000000000000000000ffffffffffffffffffffffffffffffffffffffffffffffffffffffffffffe50c0000000000000000000000000000000000000000000000000000000000001af4000000000000000000000000000000000000000000000012947497809b4f045d000000000000000000000000000000000000000000000a968163f0a57b400000000000000000000000000000000000000000000000000a968163f0a57b400000000000000000000000000000aab6f44b46f19d061582727b66c9a0c84c97a2f6000000000000000000000000000000000000000000000000000000000000018000000000000000000000000000000000000000000000000000000000000000000000000000000000000000000000000000000000000000000000000000000040000000000000000000000000f79509e6fadc7254d59d49bcd976d5523177ec4f000000000000000000000000fa306dfde7632a6c74bdabbbb19fa59c7a78d73b00000000000000000000000000000000000000000000000000000000",
        "nonce": "0xd3",
        "chainId": "0xaa36a7"
      },
      "additionalContracts": [],
      "isFixedGasLimit": false
    }
  ],
  "receipts": [
    {
      "status": "0x1",
      "cumulativeGasUsed": "0x21976",
      "logs": [
        {
          "address": "0x3e8b2fe58675126ed30d0d12dea2a9bda72d18ae",
          "topics": [
            "0x05518b128f0a9b11ddddebd5211a7fc2f4a689dab3a3e258d93eb13049983c3e",
            "0x0000000000000000000000000000000000000000000000000000000000002b74",
            "0x000000000000000000000000de1c8f00897f85327c9baaa61f439b5f21363e1c",
            "0x0000000000000000000000000000000000000000000000000000000000000001"
          ],
          "data": "0x00000000000000000000000000000000000000000000000000038d7ea4c68000",
          "blockHash": "0x22388e8f9080965acaa9dd937aca7e524a73b952153cb94fffbf82b4c9a8c358",
          "blockNumber": "0x6f85e3",
          "transactionHash": "0xee21fe4de7ea5f37fce961de7be90f584a7276b09a45c6f1060b704a194a6dd4",
          "transactionIndex": "0x0",
          "logIndex": "0x0",
          "removed": false
        }
      ],
      "logsBloom": "0x00000000000000000000000000000000000000000000000000000000000000020000000000000000000000000000000000000000000000000000000000040000000000000000000000000400000000000400000000040000000200001000020000000000000000000000000000000020000400000000000000000000000000000000000000000000000000000000001000000000100000000000000000000000000000000000000000000000000000000000000000000000000000000000000000000000000000000000020000000000000000000000000000000000000040000000000000000000000000000000000000020000000000000000000000000000",
      "type": "0x2",
      "transactionHash": "0xea907cce996f748058d46ba5c3117fc066025cbc58089c17ba041c3247091907",
      "transactionIndex": "0x0",
      "blockHash": "0x22388e8f9080965acaa9dd937aca7e524a73b952153cb94fffbf82b4c9a8c358",
      "blockNumber": "0x6f85e3",
      "gasUsed": "0x21976",
      "effectiveGasPrice": "0x161f01b412",
      "from": "0xde1c8f00897f85327c9baaa61f439b5f21363e1c",
      "to": "0x3e8b2fe58675126ed30d0d12dea2a9bda72d18ae",
      "contractAddress": null
    },
    {
      "status": "0x1",
      "cumulativeGasUsed": "0xb09684",
      "logs": [
        {
          "address": "0xfa306dfde7632a6c74bdabbbb19fa59c7a78d73b",
          "topics": [
            "0xddf252ad1be2c89b69c2b068fc378daa952ba7f163c4a11628f55a4df523b3ef",
            "0x0000000000000000000000000000000000000000000000000000000000000000",
            "0x000000000000000000000000aab6f44b46f19d061582727b66c9a0c84c97a2f6"
          ],
          "data": "0x00000000000000000000000000000000000000000000152d02c7e14af6800000",
          "blockHash": "0x349bfb0f8cf1ce9a73865a780f10c947ee5b08ec27aa94a56dd008f5429b4803",
          "blockNumber": "0x77318a",
          "transactionHash": "0xa5a8d93f01206ea040457766943bbb34c9b5972b8317beba6a4234edf6886d78",
          "transactionIndex": "0xa7",
          "logIndex": "0x99",
          "removed": false
        }
      ],
      "logsBloom": "0x00000000000000000000000000000000000000000000000000000000000000000000000000000000000000000000002000000000000000000000000000000000000000000000000000000008000000000000000000000000000000000000000000000000020000000000000000000800000000000000000000000010000000000000000000000000000000000000000000000000000000000000002000000000000000000000000000000000000000000000000000000000000000000000000000000102000000000000000000000000000010000000000000000000000020000000000000000000000000000000000000000000000000000008000002000000",
      "type": "0x2",
      "transactionHash": "0xa5a8d93f01206ea040457766943bbb34c9b5972b8317beba6a4234edf6886d78",
      "transactionIndex": "0xa7",
      "blockHash": "0x349bfb0f8cf1ce9a73865a780f10c947ee5b08ec27aa94a56dd008f5429b4803",
      "blockNumber": "0x77318a",
      "gasUsed": "0x84a2",
      "effectiveGasPrice": "0x1f260368f",
      "from": "0xaab6f44b46f19d061582727b66c9a0c84c97a2f6",
      "to": "0xfa306dfde7632a6c74bdabbbb19fa59c7a78d73b",
      "contractAddress": null
    },
    {
      "status": "0x1",
      "cumulativeGasUsed": "0xb0fd35",
      "logs": [
        {
          "address": "0xfa306dfde7632a6c74bdabbbb19fa59c7a78d73b",
          "topics": [
            "0x8c5be1e5ebec7d5bd14f71427d1e84f3dd0314c0f7b2291e5b200ac8c7c3b925",
            "0x000000000000000000000000aab6f44b46f19d061582727b66c9a0c84c97a2f6",
            "0x000000000000000000000000000000000022d473030f116ddee9f6b43ac78ba3"
          ],
          "data": "0xffffffffffffffffffffffffffffffffffffffffffffffffffffffffffffffff",
          "blockHash": "0x349bfb0f8cf1ce9a73865a780f10c947ee5b08ec27aa94a56dd008f5429b4803",
          "blockNumber": "0x77318a",
          "transactionHash": "0x7da1fd77c4711610cad1dbf02ffd1cbde17432952c26a1da37c1f916b3710905",
          "transactionIndex": "0xa8",
          "logIndex": "0x9a",
          "removed": false
        }
      ],
      "logsBloom": "0x00000000000000000000000000000000000000000000000000000000000000000000000000000000000000000000002000000000800000000000000000200000000000000000000000004000000000000000000000000800000000000000000000000000000000000000000000000000000000000000000000000000000000000000000000000000000000000000000000000000000000000000002000000000020000000000000000000000000000000000000000000000000000000000000000000100000000000000000000000000000010000000000000000000000000000010000000000000000000000000000000000000000000000008000002000000",
      "type": "0x2",
      "transactionHash": "0x7da1fd77c4711610cad1dbf02ffd1cbde17432952c26a1da37c1f916b3710905",
      "transactionIndex": "0xa8",
      "blockHash": "0x349bfb0f8cf1ce9a73865a780f10c947ee5b08ec27aa94a56dd008f5429b4803",
      "blockNumber": "0x77318a",
      "gasUsed": "0x66b1",
      "effectiveGasPrice": "0x1f260368f",
      "from": "0xaab6f44b46f19d061582727b66c9a0c84c97a2f6",
      "to": "0xfa306dfde7632a6c74bdabbbb19fa59c7a78d73b",
      "contractAddress": null
    },
    {
      "status": "0x1",
      "cumulativeGasUsed": "0xb16a43",
      "logs": [
        {
          "address": "0x000000000022d473030f116ddee9f6b43ac78ba3",
          "topics": [
            "0xda9fa7c1b00402c17d0161b249b1ab8bbec047c5a52207b9c112deffd817036b",
            "0x000000000000000000000000aab6f44b46f19d061582727b66c9a0c84c97a2f6",
            "0x000000000000000000000000fa306dfde7632a6c74bdabbbb19fa59c7a78d73b",
            "0x00000000000000000000000097b4242a6cde1437e7c8b3e79f3f2e99cf90899a"
          ],
          "data": "0x000000000000000000000000ffffffffffffffffffffffffffffffffffffffff0000000000000000000000000000000000000000000000000000ffffffffffff",
          "blockHash": "0x349bfb0f8cf1ce9a73865a780f10c947ee5b08ec27aa94a56dd008f5429b4803",
          "blockNumber": "0x77318a",
          "blockTimestamp": "0x67c335e4",
          "transactionHash": "0xeb607289eec60af69574a9251a6a9e6649d166f00d7c012204e3e5de8ee43fc1",
          "transactionIndex": "0xa9",
          "logIndex": "0x9b",
          "removed": false
        }
      ],
      "logsBloom": "0x00010000000000000000000000000000000000000000000000000000000000000000000000000000000000000000002000000000000000000000000000080000000000000000000000000000000000000000000000000000000000000000000000001000000000000000000000000000000000000000000000000000000000000020000000000000000000000000000000000000000000000000001000000000004000000000000000000000400000000000000000000000000000080004000000000000000000000000000000000000000010000000000040000000000000000000000000000008000000000000000000000000000000000000000002000400",
      "type": "0x2",
      "transactionHash": "0xeb607289eec60af69574a9251a6a9e6649d166f00d7c012204e3e5de8ee43fc1",
      "transactionIndex": "0xa9",
      "blockHash": "0x349bfb0f8cf1ce9a73865a780f10c947ee5b08ec27aa94a56dd008f5429b4803",
      "blockNumber": "0x77318a",
      "gasUsed": "0x6d0e",
      "effectiveGasPrice": "0x1f260368f",
      "from": "0xaab6f44b46f19d061582727b66c9a0c84c97a2f6",
      "to": "0x000000000022d473030f116ddee9f6b43ac78ba3",
      "contractAddress": null
    },
    {
      "status": "0x1",
      "cumulativeGasUsed": "0xb2250d",
      "logs": [
        {
          "address": "0x000000000022d473030f116ddee9f6b43ac78ba3",
          "topics": [
            "0xda9fa7c1b00402c17d0161b249b1ab8bbec047c5a52207b9c112deffd817036b",
            "0x000000000000000000000000aab6f44b46f19d061582727b66c9a0c84c97a2f6",
            "0x000000000000000000000000fa306dfde7632a6c74bdabbbb19fa59c7a78d73b",
            "0x0000000000000000000000006aa638fe70021cf4a9ce34c2e7718b99d4360efd"
          ],
          "data": "0x000000000000000000000000ffffffffffffffffffffffffffffffffffffffff0000000000000000000000000000000000000000000000000000ffffffffffff",
          "blockHash": "0x349bfb0f8cf1ce9a73865a780f10c947ee5b08ec27aa94a56dd008f5429b4803",
          "blockNumber": "0x77318a",
          "transactionHash": "0xafdfd10f8c8e055e54077a4e8d96ceec00457ccb9e148fff3a69bdc50a71ab3d",
          "transactionIndex": "0xaa",
          "logIndex": "0x9c",
          "removed": false
        }
      ],
      "logsBloom": "0x00010000000000000000000000000000000000000000000000000000000000000000000000000000000000000000002000000000000000000000000000080000000000000000000000200000000000000000000000000000000000000000000000000000000000000000000000000000000000000000000000000000000000000020000000000000000000000000000000000000000000000000400000000000004000000000000004000000400000000000000000000000000000080000000000000000000000000000000000000000000010000000000040000000000000000000000000000008000000000000000000000000000000000000000002000400",
      "type": "0x2",
      "transactionHash": "0xafdfd10f8c8e055e54077a4e8d96ceec00457ccb9e148fff3a69bdc50a71ab3d",
      "transactionIndex": "0xaa",
      "blockHash": "0x349bfb0f8cf1ce9a73865a780f10c947ee5b08ec27aa94a56dd008f5429b4803",
      "blockNumber": "0x77318a",
      "gasUsed": "0xbaca",
      "effectiveGasPrice": "0x1f260368f",
      "from": "0xaab6f44b46f19d061582727b66c9a0c84c97a2f6",
      "to": "0x000000000022d473030f116ddee9f6b43ac78ba3",
      "contractAddress": null
    },
    {
      "status": "0x1",
      "cumulativeGasUsed": "0xb2a9af",
      "logs": [
        {
          "address": "0xf79509e6fadc7254d59d49bcd976d5523177ec4f",
          "topics": [
            "0xddf252ad1be2c89b69c2b068fc378daa952ba7f163c4a11628f55a4df523b3ef",
            "0x0000000000000000000000000000000000000000000000000000000000000000",
            "0x000000000000000000000000aab6f44b46f19d061582727b66c9a0c84c97a2f6"
          ],
          "data": "0x00000000000000000000000000000000000000000000152d02c7e14af6800000",
          "blockHash": "0x349bfb0f8cf1ce9a73865a780f10c947ee5b08ec27aa94a56dd008f5429b4803",
          "blockNumber": "0x77318a",
          "blockTimestamp": "0x67c335e4",
          "transactionHash": "0x1f7e37e9f4d57659861d8fcc23a67bd818f72a2fd41998e3be00f8525cfa4dfc",
          "transactionIndex": "0xab",
          "logIndex": "0x9d",
          "removed": false
        }
      ],
      "logsBloom": "0x00000000000000000000000000000000000000000000000000000000000000000000000000000000000000000000002000000000100000000000000000000000000000000000000000010008000000000000000000000000000000000000000000000000020000000000000000000800000000000000000000000010000000000000000000000000000000000000000000000000000000000000000000000000000000000000000000000000000000000000000000000000000000000000000000000002000000000000000000000000000010000000000000000000000020000000000000000000000000000000000000000000000000000000000002000040",
      "type": "0x2",
      "transactionHash": "0x1f7e37e9f4d57659861d8fcc23a67bd818f72a2fd41998e3be00f8525cfa4dfc",
      "transactionIndex": "0xab",
      "blockHash": "0x349bfb0f8cf1ce9a73865a780f10c947ee5b08ec27aa94a56dd008f5429b4803",
      "blockNumber": "0x77318a",
      "gasUsed": "0x84a2",
      "effectiveGasPrice": "0x1f260368f",
      "from": "0xaab6f44b46f19d061582727b66c9a0c84c97a2f6",
      "to": "0xf79509e6fadc7254d59d49bcd976d5523177ec4f",
      "contractAddress": null
    },
    {
      "status": "0x1",
      "cumulativeGasUsed": "0xb31060",
      "logs": [
        {
          "address": "0xf79509e6fadc7254d59d49bcd976d5523177ec4f",
          "topics": [
            "0x8c5be1e5ebec7d5bd14f71427d1e84f3dd0314c0f7b2291e5b200ac8c7c3b925",
            "0x000000000000000000000000aab6f44b46f19d061582727b66c9a0c84c97a2f6",
            "0x000000000000000000000000000000000022d473030f116ddee9f6b43ac78ba3"
          ],
          "data": "0xffffffffffffffffffffffffffffffffffffffffffffffffffffffffffffffff",
          "blockHash": "0x349bfb0f8cf1ce9a73865a780f10c947ee5b08ec27aa94a56dd008f5429b4803",
          "blockNumber": "0x77318a",
          "blockTimestamp": "0x67c335e4",
          "transactionHash": "0xf8ba34da5af699db52b8bcf78c1422dd7940db48de90690d752f8a130c7d370f",
          "transactionIndex": "0xac",
          "logIndex": "0x9e",
          "removed": false
        }
      ],
      "logsBloom": "0x00000000000000000000000000000000000000000000000000000000000000000000000000000000000000000000002000000000900000000000000000200000000000000000000000014000000000000000000000000800000000000000000000000000000000000000000000000000000000000000000000000000000000000000000000000000000000000000000000000000000000000000000000000000020000000000000000000000000000000000000000000000000000000000000000000000000000000000000000000000000010000000000000000000000000000010000000000000000000000000000000000000000000000000000002000040",
      "type": "0x2",
      "transactionHash": "0xf8ba34da5af699db52b8bcf78c1422dd7940db48de90690d752f8a130c7d370f",
      "transactionIndex": "0xac",
      "blockHash": "0x349bfb0f8cf1ce9a73865a780f10c947ee5b08ec27aa94a56dd008f5429b4803",
      "blockNumber": "0x77318a",
      "gasUsed": "0x66b1",
      "effectiveGasPrice": "0x1f260368f",
      "from": "0xaab6f44b46f19d061582727b66c9a0c84c97a2f6",
      "to": "0xf79509e6fadc7254d59d49bcd976d5523177ec4f",
      "contractAddress": null
    },
    {
      "status": "0x1",
      "cumulativeGasUsed": "0xb43838",
      "logs": [
        {
          "address": "0x000000000022d473030f116ddee9f6b43ac78ba3",
          "topics": [
            "0xda9fa7c1b00402c17d0161b249b1ab8bbec047c5a52207b9c112deffd817036b",
            "0x000000000000000000000000aab6f44b46f19d061582727b66c9a0c84c97a2f6",
            "0x000000000000000000000000f79509e6fadc7254d59d49bcd976d5523177ec4f",
            "0x0000000000000000000000006aa638fe70021cf4a9ce34c2e7718b99d4360efd"
          ],
          "data": "0x000000000000000000000000ffffffffffffffffffffffffffffffffffffffff0000000000000000000000000000000000000000000000000000ffffffffffff",
          "blockHash": "0x349bfb0f8cf1ce9a73865a780f10c947ee5b08ec27aa94a56dd008f5429b4803",
          "blockNumber": "0x77318a",
          "transactionHash": "0xa3309b23ec80477606500b949eac84e705c80195d22be920b5f1f99c3ee46934",
          "transactionIndex": "0xae",
          "logIndex": "0xa0",
          "removed": false
        }
      ],
      "logsBloom": "0x00010000000000000000000000000000000000000000000000000000000000000000000000000000000000000000002000000000000000000000000000080000000000000000000000200000000000000000000000000000000004000000000000000000080040000000000000000000000000000000000000000000000000000020000000000000000000000000000000000000000000000000400000000000000000000000000004000000000000000000000000000000000000080000000000000000000000000000000000000000000010000000000040000000000000000000000000000000000000000000000000000000000000000000000002000400",
      "type": "0x2",
      "transactionHash": "0xa3309b23ec80477606500b949eac84e705c80195d22be920b5f1f99c3ee46934",
      "transactionIndex": "0xae",
      "blockHash": "0x349bfb0f8cf1ce9a73865a780f10c947ee5b08ec27aa94a56dd008f5429b4803",
      "blockNumber": "0x77318a",
      "gasUsed": "0xbaca",
      "effectiveGasPrice": "0x1f260368f",
      "from": "0xaab6f44b46f19d061582727b66c9a0c84c97a2f6",
      "to": "0x000000000022d473030f116ddee9f6b43ac78ba3",
      "contractAddress": null
    },
    {
      "status": "0x1",
      "cumulativeGasUsed": "0xba695d",
      "logs": [
        {
          "address": "0x97b4242a6cde1437e7c8b3e79f3f2e99cf90899a",
          "topics": [
            "0xddf252ad1be2c89b69c2b068fc378daa952ba7f163c4a11628f55a4df523b3ef",
            "0x0000000000000000000000000000000000000000000000000000000000000000",
            "0x000000000000000000000000aab6f44b46f19d061582727b66c9a0c84c97a2f6",
            "0x0000000000000000000000000000000000000000000000000000000000000002"
          ],
          "data": "0x",
          "blockHash": "0x349bfb0f8cf1ce9a73865a780f10c947ee5b08ec27aa94a56dd008f5429b4803",
          "blockNumber": "0x77318a",
          "transactionHash": "0x362d50bc10d7e60baa963019fa4f152b0929cab56506746723d78d97e73ae5e1",
          "transactionIndex": "0xb0",
          "logIndex": "0xa6",
          "removed": false
        },
        {
          "address": "0x6aa638fe70021cf4a9ce34c2e7718b99d4360efd",
          "topics": [
            "0xf208f4912782fd25c7f114ca3723a2d5dd6f3bcc3ac8db5af63baa85f711d5ec",
            "0x58ac893e4d5dc0d53ad37dba1f5b01a5ae538b82399e820ffe29deffb9cf643a",
            "0x00000000000000000000000097b4242a6cde1437e7c8b3e79f3f2e99cf90899a"
          ],
          "data": "0xffffffffffffffffffffffffffffffffffffffffffffffffffffffffffffe50c0000000000000000000000000000000000000000000000000000000000001af4000000000000000000000000000000000000000000000012947497809b4f045d0000000000000000000000000000000000000000000000000000000000000002",
          "blockHash": "0x349bfb0f8cf1ce9a73865a780f10c947ee5b08ec27aa94a56dd008f5429b4803",
          "blockNumber": "0x77318a",
          "transactionHash": "0x362d50bc10d7e60baa963019fa4f152b0929cab56506746723d78d97e73ae5e1",
          "transactionIndex": "0xb0",
          "logIndex": "0xa7",
          "removed": false
        },
        {
          "address": "0xf79509e6fadc7254d59d49bcd976d5523177ec4f",
          "topics": [
            "0xddf252ad1be2c89b69c2b068fc378daa952ba7f163c4a11628f55a4df523b3ef",
            "0x000000000000000000000000aab6f44b46f19d061582727b66c9a0c84c97a2f6",
            "0x0000000000000000000000006aa638fe70021cf4a9ce34c2e7718b99d4360efd"
          ],
          "data": "0x0000000000000000000000000000000000000000000000056bc75e2d63100000",
          "blockHash": "0x349bfb0f8cf1ce9a73865a780f10c947ee5b08ec27aa94a56dd008f5429b4803",
          "blockNumber": "0x77318a",
          "transactionHash": "0x362d50bc10d7e60baa963019fa4f152b0929cab56506746723d78d97e73ae5e1",
          "transactionIndex": "0xb0",
          "logIndex": "0xa8",
          "removed": false
        },
        {
          "address": "0xfa306dfde7632a6c74bdabbbb19fa59c7a78d73b",
          "topics": [
            "0xddf252ad1be2c89b69c2b068fc378daa952ba7f163c4a11628f55a4df523b3ef",
            "0x000000000000000000000000aab6f44b46f19d061582727b66c9a0c84c97a2f6",
            "0x0000000000000000000000006aa638fe70021cf4a9ce34c2e7718b99d4360efd"
          ],
          "data": "0x0000000000000000000000000000000000000000000000056bc75e2d63100000",
          "blockHash": "0x349bfb0f8cf1ce9a73865a780f10c947ee5b08ec27aa94a56dd008f5429b4803",
          "blockNumber": "0x77318a",
          "transactionHash": "0x362d50bc10d7e60baa963019fa4f152b0929cab56506746723d78d97e73ae5e1",
          "transactionIndex": "0xb0",
          "logIndex": "0xa9",
          "removed": false
        }
      ],
      "logsBloom": "0x04000000008000000000000000000000000000000000000004000000000000000000000000000000000000000000002000004000100000000000200000100000000000000000000000210008080000000000000000000000000000000000000000001000020000000000000000000800000000000000000000000010000000000000000001000000000000000000000000400000000000000000403000000000000004000000000004000100000000000000000000000000000800000004000000000102000000000000000000000000000010000000000000000000000020000000000000000000000000000000000004000000009000000008000002000040",
      "type": "0x2",
      "transactionHash": "0x362d50bc10d7e60baa963019fa4f152b0929cab56506746723d78d97e73ae5e1",
      "transactionIndex": "0xb0",
      "blockHash": "0x349bfb0f8cf1ce9a73865a780f10c947ee5b08ec27aa94a56dd008f5429b4803",
      "blockNumber": "0x77318a",
      "gasUsed": "0x3aeb8",
      "effectiveGasPrice": "0x1f260368f",
      "from": "0xaab6f44b46f19d061582727b66c9a0c84c97a2f6",
      "to": "0x97b4242a6cde1437e7c8b3e79f3f2e99cf90899a",
      "contractAddress": null
    }
  ],
  "libraries": [],
  "pending": [],
  "returns": {},
  "timestamp": 1740846566,
  "chain": 11155111,
  "commit": "51fe372"
}