{
  "transactions": [
    {
      "hash": "0xb00bebd84ffd831b349216c2c42993d0416cd6bb10d0ce0c7478e0938cac4314",
      "transactionType": "CALL",
      "contractName": null,
      "contractAddress": "0x0ca6a3316608f2770dcbdf4fbd28cba19103e298",
      "function": "approveAll(address,address)",
      "arguments": [
        "0x2170Ed0880ac9A755fd29B2688956BD959F933F8",
        "0x000000000022D473030F116dDEE9F6B43aC78BA3"
      ],
      "transaction": {
        "from": "0xaab6f44b46f19d061582727b66c9a0c84c97a2f6",
        "to": "0x0ca6a3316608f2770dcbdf4fbd28cba19103e298",
        "gas": "0x11ae8",
        "value": "0x0",
        "input": "0x0a4432760000000000000000000000002170ed0880ac9a755fd29b2688956bd959f933f8000000000000000000000000000000000022d473030f116ddee9f6b43ac78ba3",
        "nonce": "0x38",
        "chainId": "0x38"
      },
      "additionalContracts": [],
      "isFixedGasLimit": false
    },
    {
      "hash": "0x81020ee304f00eb480c39eb402656f53e87a9ec8f324651ff4e0775ba44c68c5",
      "transactionType": "CALL",
      "contractName": null,
      "contractAddress": "0x0ca6a3316608f2770dcbdf4fbd28cba19103e298",
      "function": "approveAll(address,address)",
      "arguments": [
        "0x7130d2A12B9BCbFAe4f2634d864A1Ee1Ce3Ead9c",
        "0x000000000022D473030F116dDEE9F6B43aC78BA3"
      ],
      "transaction": {
        "from": "0xaab6f44b46f19d061582727b66c9a0c84c97a2f6",
        "to": "0x0ca6a3316608f2770dcbdf4fbd28cba19103e298",
        "gas": "0x11ae8",
        "value": "0x0",
        "input": "0x0a4432760000000000000000000000007130d2a12b9bcbfae4f2634d864a1ee1ce3ead9c000000000000000000000000000000000022d473030f116ddee9f6b43ac78ba3",
        "nonce": "0x39",
        "chainId": "0x38"
      },
      "additionalContracts": [],
      "isFixedGasLimit": false
    }
  ],
  "receipts": [
    {
      "status": "0x1",
      "cumulativeGasUsed": "0x9d9394",
      "logs": [
        {
          "address": "0x2170ed0880ac9a755fd29b2688956bd959f933f8",
          "topics": [
            "0x8c5be1e5ebec7d5bd14f71427d1e84f3dd0314c0f7b2291e5b200ac8c7c3b925",
            "0x0000000000000000000000000ca6a3316608f2770dcbdf4fbd28cba19103e298",
            "0x000000000000000000000000000000000022d473030f116ddee9f6b43ac78ba3"
          ],
          "data": "0xffffffffffffffffffffffffffffffffffffffffffffffffffffffffffffffff",
          "blockHash": "0x35d04de6b7da58027e214e6df983008c9433e28c1a3b9d32bfe8de6230dcca63",
          "blockNumber": "0x2fa6946",
          "transactionHash": "0xb00bebd84ffd831b349216c2c42993d0416cd6bb10d0ce0c7478e0938cac4314",
          "transactionIndex": "0x3b",
          "logIndex": "0x16c",
          "removed": false
        }
      ],
      "logsBloom": "0x00000000000000000000000000000000000000000000000000000004000100000000000000000000000000200000000000000000800000000000000000200000000000000000000000004000000000000000002000000800000000000000000000000000000000000000000000000000000000010000000000000000000000000000000000000000000000000000000000000000000000000000000000000000020000000000000000000000000000000000000000000000000000000000000000000000000000000000000000000000000000000000000000000000000000000010000000000000000000000000000000080000000000000000000000000000",
      "type": "0x0",
      "transactionHash": "0xb00bebd84ffd831b349216c2c42993d0416cd6bb10d0ce0c7478e0938cac4314",
      "transactionIndex": "0x3b",
      "blockHash": "0x35d04de6b7da58027e214e6df983008c9433e28c1a3b9d32bfe8de6230dcca63",
      "blockNumber": "0x2fa6946",
      "gasUsed": "0xc171",
      "effectiveGasPrice": "0x5f5e100",
      "from": "0xaab6f44b46f19d061582727b66c9a0c84c97a2f6",
      "to": "0x0ca6a3316608f2770dcbdf4fbd28cba19103e298",
      "contractAddress": null
    },
    {
      "status": "0x1",
      "cumulativeGasUsed": "0xa390b5",
      "logs": [
        {
          "address": "0x7130d2a12b9bcbfae4f2634d864a1ee1ce3ead9c",
          "topics": [
            "0x8c5be1e5ebec7d5bd14f71427d1e84f3dd0314c0f7b2291e5b200ac8c7c3b925",
            "0x0000000000000000000000000ca6a3316608f2770dcbdf4fbd28cba19103e298",
            "0x000000000000000000000000000000000022d473030f116ddee9f6b43ac78ba3"
          ],
          "data": "0xffffffffffffffffffffffffffffffffffffffffffffffffffffffffffffffff",
          "blockHash": "0x35d04de6b7da58027e214e6df983008c9433e28c1a3b9d32bfe8de6230dcca63",
          "blockNumber": "0x2fa6946",
          "transactionHash": "0x81020ee304f00eb480c39eb402656f53e87a9ec8f324651ff4e0775ba44c68c5",
          "transactionIndex": "0x3f",
          "logIndex": "0x17c",
          "removed": false
        }
      ],
      "logsBloom": "0x00000000000000000000000000000000000000000000000000000004000100000000000000000000400000000000000000000000800000000000000000200000000000000000000000004000000000000000000000000800000000000000040000000000000000000000000000000000000000000000000000000000000000000000000000000000000000000000000000000000000000000000000000000000020000000000000000000000000004000000000000000000000000000000000000000000000000000000000000000000000000000000000000000000000000000010000000000000000000000000000000080000000000000000000000000000",
      "type": "0x0",
      "transactionHash": "0x81020ee304f00eb480c39eb402656f53e87a9ec8f324651ff4e0775ba44c68c5",
      "transactionIndex": "0x3f",
      "blockHash": "0x35d04de6b7da58027e214e6df983008c9433e28c1a3b9d32bfe8de6230dcca63",
      "blockNumber": "0x2fa6946",
      "gasUsed": "0xc171",
      "effectiveGasPrice": "0x5f5e100",
      "from": "0xaab6f44b46f19d061582727b66c9a0c84c97a2f6",
      "to": "0x0ca6a3316608f2770dcbdf4fbd28cba19103e298",
      "contractAddress": null
    }
  ],
  "libraries": [],
  "pending": [],
  "returns": {},
  "timestamp": 1747691453,
  "chain": 56,
  "commit": "9a9e2e7"
}